:020000040800F2
:10000000000002209D3C00080D0900080F090008AF
:100010001109000813090008150900080000000074
:1000200000000000000000000000000017090008A8
:1000300019090008000000001B0900081D0900083C
:10004000ED3C0008ED3C0008ED3C0008ED3C0008EC
:10005000ED3C0008ED3C0008ED3C0008ED3C0008DC
:10006000ED3C0008ED3C0008ED3C0008ED3C0008CC
:10007000ED3C0008ED3C0008ED3C0008ED3C0008BC
:10008000ED3C0008ED3C0008ED3C0008ED3C0008AC
:10009000ED3C0008ED3C0008ED3C0008ED3C00089C
:1000A000ED3C0008ED3C0008ED3C0008ED3C00088C
:1000B000ED3C0008ED3C0008ED3C0008ED3C00087C
:1000C000ED3C0008ED3C0008ED3C0008ED3C00086C
:1000D000ED3C00082509000835090008ED3C000842
:1000E000ED3C0008ED3C0008ED3C0008ED3C00084C
:1000F000ED3C0008ED3C0008ED3C0008ED3C00083C
:10010000ED3C0008ED3C0008ED3C0008ED3C00082B
:10011000ED3C0008ED3C0008ED3C0008ED3C00081B
:10012000ED3C0008ED3C0008ED3C0008ED3C00080B
:10013000ED3C0008ED3C0008ED3C0008ED3C0008FB
:10014000ED3C0008ED3C0008ED3C0008ED3C0008EB
:10015000ED3C0008ED3C0008ED3C0008ED3C0008DB
:10016000ED3C0008ED3C0008ED3C0008ED3C0008CB
:10017000ED3C0008ED3C0008ED3C000800000000EC
:08018000ED3C0008ED3C000815
:10018800830730B547D0541E002A3ED0CAB2034672
:1001980001E0013C39D303F8012B9D07F9D1032C69
:1001A8002CD9CDB205EB05250F2C05EB054535D926
:1001B800A4F1100222F00F0C03F1100EE6444FEAEE
:1001C800121C1A46156055609560D560103272454C
:1001D800F8D10CF1010214F00C0F03EB021204F039
:1001E8000F0C13D0ACF1040323F0030304331344BE
:1001F80042F8045B9A42FBD10CF003042CB1C9B25B
:100208001C4403F8011B9C42FBD130BD64461346D5
:10021800002CF4D1F9E703461446C0E71A46A44671
:10022800E0E700BF70B50F4B0F4DAB42A3EB0506DF
:1002380007D0B610002455F8043B01349847A6426D
:10024800F9D803F0A1FE094D094B5E1BAB424FEAFA
:10025800A60606D0002455F8043B01349847A64268
:10026800F9D870BD68410008684100086841000875
:100278006C41000870B54FF0FF0C4CF4E06C1CEAC0
:1002880011541DBF1CEA135594EA0C0F95EA0C0F84
:1002980000F0DEF82C4481EA030621EA4C5123EAF7
:1002A8004C5350EA013518BF52EA033541F4801126
:1002B80043F4801338D0A0FB02CE4FF00005E1FBD9
:1002C80002E506F00042E0FB03E54FF00006E1FB23
:1002D80003569CF0000F18BF4EF0010EA4F1FF0466
:1002E800B6F5007F64F5407404D25FEA4E0E6D41A6
:1002F80046EB060642EAC62141EA55514FEAC520B7
:1003080040EA5E504FEACE2EB4F1FD0C88BFBCF532
:10031800E06F1ED8BEF1004F08BF5FEA500E50F1E3
:10032800000041EB045170BD06F0004646EA0101A9
:1003380040EA020081EA0301B4EB5C04C2BFD4EBDB
:100348000C0541EA045170BD41F480114FF0000ED4
:10035800013C00F3AB8014F1360FDEBF002001F042
:10036800004170BDC4F10004203C35DA0C341BDCBC
:1003780004F11404C4F1200500FA05F320FA04F08E
:1003880001FA05F240EA020001F0004221F00041C2
:1003980010EBD37021FA04F642EB06015EEA430E35
:1003A80008BF20EAD37070BDC4F10C04C4F1200565
:1003B80000FA04F320FA05F001FA04F240EA020018
:1003C80001F0004110EBD37041F100015EEA430EE9
:1003D80008BF20EAD37070BDC4F1200500FA05F209
:1003E8004EEA020E20FA04F301FA05F243EA020388
:1003F80021FA04F001F0004121FA04F220EA020097
:1004080000EBD3705EEA430E08BF20EAD37070BDDC
:1004180094F0000F0FD101F00046400041EB0101BC
:1004280011F4801F08BF013CF7D041EA060195F09E
:10043800000F18BF704703F00046520043EB030358
:1004480013F4801F08BF013DF7D043EA0603704745
:1004580094EA0C0F0CEA135518BF95EA0C0F0CD050
:1004680050EA410618BF52EA4306D1D181EA030196
:1004780001F000414FF0000070BD50EA410606BF90
:100488001046194652EA430619D094EA0C0F02D1D5
:1004980050EA013613D195EA0C0F05D152EA03361A
:1004A8001CBF104619460AD181EA030101F0004138
:1004B80041F0FE4141F470014FF0000070BD41F081
:1004C800FE4141F4780170BD81F0004102E000BFB7
:1004D80083F0004330B54FEA41044FEA430594EAFC
:1004E800050F08BF90EA020F1FBF54EA000C55EA37
:1004F800020C7FEA645C7FEA655C00F0E2804FEA08
:100508005454D4EB5555B8BF6D420CDD2C4480EAE9
:10051800020281EA030382EA000083EA010180EA19
:10052800020281EA0303362D88BF30BD11F0004F67
:100538004FEA01314FF4801C4CEA113102D040429D
:1005480061EB410113F0004F4FEA03334CEA1333D8
:1005580002D0524263EB430394EA050F00F0A780F0
:10056800A4F10104D5F1200E0DDB02FA0EFC22FAEB
:1005780005F2801841F1000103FA0EF2801843FADF
:1005880005F359410EE0A5F120050EF1200E012AD0
:1005980003FA0EFC28BF4CF0020C43FA05F3C0180E
:1005A80051EBE37101F0004507D54FF0000EDCF187
:1005B800000C7EEB00006EEB0101B1F5801F1BD330
:1005C800B1F5001F0CD349085FEA30004FEA3C0C34
:1005D80004F101044FEA445212F5800F80F09A802A
:1005E800BCF1004F08BF5FEA500C50F1000041EB2E
:1005F800045141EA050130BD5FEA4C0C404141EB32
:100608000101013C28BFB1F5801FE9D291F0000F2C
:1006180004BF01460020B1FA81F308BF2033A3F1DB
:100628000B03B3F120020CDA0C3208DD02F1140CD2
:10063800C2F10C0201FA0CF021FA02F10CE002F10D
:100648001402D8BFC2F1200C01FA02F120FA0CFC06
:10065800DCBF41EA0C019040E41AA2BF01EB04514F
:10066800294330BD6FEA04041F3C1CDA0C340EDC4D
:1006780004F11404C4F1200220FA04F001FA02F390
:1006880040EA030021FA04F345EA030130BDC4F14E
:100698000C04C4F1200220FA02F001FA04F340EA43
:1006A8000300294630BD21FA04F0294630BD94F0F4
:1006B800000F83F4801306BF81F480110134013DDB
:1006C8004EE77FEA645C18BF7FEA655C29D094EA4C
:1006D800050F08BF90EA020F05D054EA000C04BFCA
:1006E8001946104630BD91EA030F1EBF00210020B5
:1006F80030BD5FEA545C05D14000494128BF41F054
:10070800004130BD14F580043CBF01F5801130BDB7
:1007180001F0004545F0FE4141F470014FF0000042
:1007280030BD7FEA645C1ABF194610467FEA655CF3
:100738001CBF0B46024650EA013406BF52EA033595
:1007480091EA030F41F4002130BD00BF90F0000F83
:1007580004BF0021704730B54FF4806404F13204BF
:100768004FF000054FF0000150E700BF90F0000F78
:1007780004BF0021704730B54FF4806404F132049F
:1007880010F0004548BF40424FF000013EE700BF6F
:1007980042004FEAE2014FEA31014FEA02701FBFFF
:1007A80012F07F4393F07F4F81F06051704732F031
:1007B8007F4208BF704793F07F4F04BF41F4002188
:1007C800704730B54FF4607401F0004521F00041E6
:1007D8001CE700BF50EA010208BF704730B54FF070
:1007E80000050AE050EA010208BF704730B511F071
:1007F800004502D5404261EB41014FF4806404F1A9
:1008080032045FEA915C3FF4D8AE4FF003025FEA2E
:10081800DC0C18BF03325FEADC0C18BF033202EBB2
:10082800DC02C2F1200300FA03FC20FA02F001FA0C
:1008380003FE40EA0E0021FA02F11444BDE600BFAF
:100848004FEA410212F5001215D211D56FF47873F0
:10085800B3EB625212D94FEAC12343F0004343EA93
:10086800505311F0004F23FA02F018BF404270476E
:100878004FF00000704750EA013005D111F00040F8
:1008880008BF6FF0004070474FF00000704700BF8E
:1008980053B94AB9002908BF00281CBF4FF0FF31DF
:1008A8004FF0FF3000F00CB8ADF1080C6DE904CE44
:1008B80003F019FADDF804E0DDE9022304B070471B
:1008C800704700BF10B5054C237833B9044B13B1FA
:1008D8000448AFF300800123237010BD10000020EE
:1008E80000000000903F000808B5034B1BB1034906
:1008F8000348AFF3008008BD00000000140000208A
:10090800903F0008FEE7FEE7FEE7FEE7FEE77047D8
:100918007047704708B501F055F808BD08B502489A
:1009280002F058FA08BD00BF2C01002008B50248A3
:1009380002F050FA08BD00BFE400002082B0002198
:1009480000910B4B5A6C42F480425A645A6C02F480
:1009580080420092009A01911A6C42F080521A6407
:100968001B6C03F080530193019B02B0704700BFDA
:1009780000380240002800F0338170B5044603684F
:10098800994A93420CD002F58062934208D002F54E
:100998008062934204D040F2C911944802F034FCBA
:1009A8006368013B924A93426ED8A36813B1B3F5CA
:1009B800804F6FD1E368B3F5806F71D22369B3F5C7
:1009C800804F02D0B3F5404F70D16369012B73D8C3
:1009D800A36933F0FE0375D1E3690BB1402B77D1DE
:1009E800236A0BB1802B79D194F83D30002B7BD052
:1009F800242384F83D302268136823F00103136030
:100A08002268136843F4004313602268136823F4D0
:100A18000043136000F0FCFC6268764B9A4269D888
:100A2800754B98428CBF00230123002B40F0DA80DD
:100A38007249A1FB00318B0C25686A6822F03F02DD
:100A480042EA91426A6021680A6A22F03F026668B7
:100A5800684DAE4254D8013313430B622168CA690A
:100A680022F44F4222F0FF026568624B9D4251D842
:100A7800431E6D00B3FBF5F3013340F6FC700342EF
:100A88007ED0C3F30B037CE04FF4E571574802F0C6
:100A9800BBFB8AE740F2CB11544802F0B5FB89E76B
:100AA8004FF4E671514802F0AFFB87E740F2CD11F1
:100AB8004E4802F0A9FB88E74FF4E7714B4802F073
:100AC800A3FB85E740F2CF11484802F09DFB83E77E
:100AD8004FF4E871454802F097FB81E740F2D111E5
:100AE800424802F091FB7FE784F83C30204602F050
:100AF8006FFC7DE7424B98428CBF0023012394E7AB
:100B08004FF4967505FB03F33E4DA5FB03539B0974
:100B18000133A1E7A668C6B9431E05EB450CB3FB34
:100B2800FCF30133C3F30B03B3FA83F35B09002B24
:100B380054D1C6B9431E05EB4505B3FBF5F30133A4
:100B4800C3F30B0343F400431BE0431E05EB850C82
:100B58000CEB8C0CB3FBFCF30133C3F30B03B3FABC
:100B680083F35B09E3E7431E05EB850505EB850584
:100B7800B3FBF5F30133C3F30B0343F4404300E045
:100B880004231A43CA6121680B6823F0C003E26991
:100B9800206A024313430B6021688B6823F40343E4
:100BA80023F0FF032269E068024313438B60216846
:100BB800CB6823F0FF036269A06902431343CB604B
:100BC8002268136843F00103136000202064202387
:100BD80084F83D30206384F83E0070BD0123D0E7DF
:100BE800012070470120F8E700540040C03F00088A
:100BF8007F1A0600A08601007F841E0083DE1B4347
:100C0800FF083D00D34D6210002800F05E8270B5E9
:100C180082B0044603680F2B39D8236813F0010FFC
:100C28004DD063682BB1B3F5803F02D0B3F5A02F48
:100C380032D1804B9B6803F00C03042B36D07D4BDC
:100C48009B6803F00C03082B2BD06368B3F5803F37
:100C58005FD0B3F5A02F62D0764B1A6822F48032A9
:100C68001A601A6822F480221A606368002B60D028
:100C780000F0B4FE05466F4B1B6813F4003F1ED10D
:100C880000F0ACFE401B6428F5D9032024E2E621DD
:100C9800694802F0B9FAC0E7EB21674802F0B4FAF4
:100CA800C7E7644B5B6813F4800FCED0614B1B68B9
:100CB80013F4003F03D06368002B00F00882236818
:100CC80013F0020F66D0E368012B41D823691F2B6C
:100CD80044D8584B9B6813F00C0F4AD0554B9B686F
:100CE80003F00C03082B3FD0E368002B77D0534B5D
:100CF80001221A6000F072FE05464E4B1B6813F085
:100D0800020F63D100F06AFE401B0228F5D90320C8
:100D1800E2E1484A136843F480331360A5E7454B82
:100D28001A6842F480221A601A6842F480321A6003
:100D38009BE700F053FE05463E4B1B6813F4003F4B
:100D4800BDD000F04BFE401B6428F5D90320C3E159
:100D580040F21D11384802F057FAB7E74FF48F7187
:100D6800354802F051FAB4E7324B5B6813F4800F50
:100D7800BAD1304B1B6813F0020F03D0E368012B84
:100D880040F0A7812B4A136823F0F803216943EA4E
:100D9800C1031360236813F0080F51D06369012B56
:100DA8002FD863699BB3254B0122C3F8802E00F02E
:100DB80015FE05461F4B5B6F13F0020F40D100F084
:100DC8000DFE401B0228F5D9032085E1194A136856
:100DD80023F0F803216943EAC1031360DAE7174BEC
:100DE80000221A6000F0FAFD0546124B1B6813F04A
:100DF800020FCFD000F0F2FD401B0228F5D90320E6
:100E08006AE14FF4AF710C4802F0FEF9C9E70B4BE9
:100E18000022C3F8802E00F0E1FD0546054B5B6F0C
:100E280013F0020F0CD000F0D9FD401B0228F5D9B1
:100E3800032051E100380240F83F00080000474213
:100E4800236813F0040F7CD0A368012B01D9052B6C
:100E580038D1A54B1B6C13F0805F39D10023019367
:100E6800A14B1A6C42F080521A641B6C03F0805339
:100E78000193019B01259D4B1B6813F4807F29D0AA
:100E8800A368012B3AD0052B3ED0974B1A6F22F05E
:100E980001021A671A6F22F004021A67A368002B6E
:100EA8003CD000F09BFD06468F4B1B6F13F0020FE2
:100EB80045D100F093FD801B41F288339842F3D965
:100EC800032009E14FF4C571894802F09DF9C0E794
:100ED8000025D0E7854A136843F48073136000F057
:100EE8007DFD0646814B1B6813F4807FC8D100F056
:100EF80075FD801B0228F5D90320EDE07A4A136FAF
:100F080043F001031367C9E7774B1A6F42F00402F5
:100F18001A671A6F42F001021A67BFE700F05EFD18
:100F28000646714B1B6F13F0020F08D000F056FDF8
:100F3800801B41F288339842F3D90320CCE0002D7E
:100F48003CD1A369022B3FD8A369002B00F0C380D2
:100F5800654A926802F00C02082A00F09180022B80
:100F68007AD1E36913B1B3F5800F33D1236A023B19
:100F78003D2B35D8636A323BB3F5BF7F36D8A26ABA
:100F8800082A39D84FF4AA73D34013F0010F33D08D
:100F9800E36A023B0D2B35D8564B00221A6600F047
:100FA8001DFD0546504B1B6813F0007F30D000F044
:100FB80015FD401B0228F5D903208DE04A4A136C21
:100FC80023F080531364BCE740F2CD11484802F087
:100FD8001BF9B9E74FF4EB71454802F015F9C5E77D
:100FE80040F2D711424802F00FF9C3E74FF4EC7111
:100FF8003F4802F009F9C2E740F2D9113C4802F033
:1010080003F9C5E74FF4ED71394802F0FDF8C3E77D
:10101800E369226A1343626A43EA8213A26A5208A6
:10102800013A43EA0243E26A43EA02632E4A536002
:10103800304B01221A6600F0D1FC04462A4B1B688B
:1010480013F0007F06D100F0C9FC001B0228F5D977
:10105800032041E000203FE0264B00221A6600F002
:10106800BDFC0446204B1B6813F0007F06D000F03F
:10107800B5FC001B0228F5D903202DE000202BE049
:10108800012B2BD0184B5B6803F48001E269914275
:1010980026D103F03F02216A8A4223D1616A47F6CA
:1010A800C0721A40B2EB811F26D103F44031A26A04
:1010B8005208013AB1EB024F20D103F07063E26AA3
:1010C800B3EB026F1CD1002006E00120704701201D
:1010D80002E0012000E0002002B070BD0120FBE723
:1010E8000120F9E70120F7E70038024000700040CE
:1010F800F83F0008000047420120EDE70120EBE738
:101108000120E9E708B5334B9B6803F00C03042B77
:101118005BD0082B5BD12F4B5A6802F03F025B680B
:1011280013F4800F2CD02B4B5868C0F388104FEA6B
:10113800401CBCEB000C6EEB0E0E4FEA8E1343EA1C
:101148009C634FEA8C11B1EB0C0163EB0E03DB00DF
:1011580043EA5173C90011EB000C43F10003590233
:1011680000234FEA4C2041EADC51FFF791FB194B71
:101178005B68C3F3014301335B00B0FBF3F008BDC8
:10118800144B5868C0F388104FEA401CBCEB000CA5
:101198006EEB0E0E4FEA8E1343EA9C634FEA8C11F6
:1011A800B1EB0C0163EB0E03DB0043EA5173C9009A
:1011B80011EB000C43F10003990200234FEA8C2045
:1011C80041EA9C51FFF764FBD1E70348D7E703489E
:1011D800D5E700BF0038024000127A000024F4006E
:1011E800002800F0FA8070B50D4604460368013BFC
:1011F8000E2B32D8072D36D87C4B1B6803F007031B
:10120800AB4208D2EBB2794A1370136803F00703B4
:10121800AB4240F0E480236813F0020F3ED013F095
:10122800040F04D0724A936843F4E0539360236830
:1012380013F0080F04D06E4A936843F46043936038
:10124800A36823B3C02B22D016D8A02B1FD010D848
:10125800802B1CD0902B1AD014E040F25A216548FC
:1012680001F0D2FFC6E740F25B21624801F0CCFFF3
:10127800C2E7B02B0BD005E0E02B08D0F02B06D04E
:10128800D02B04D040F27E215A4801F0BDFF584AC5
:10129800936823F0F003A1680B439360236813F06D
:1012A800010F3CD06368032B25D86368012B28D035
:1012B8009A1E012A2CD94E4A126812F0020F00F029
:1012C80090804B498A6822F0030213438B6000F038
:1012D80085FB0646464B9B6803F00C036268B3EB3C
:1012E800820F1CD000F07AFB801B41F288339842B1
:1012F800F0D9032064E040F285213E4801F084FFE4
:10130800D3E73B4A126812F4003FDAD1012057E0D4
:10131800374A126812F0007FD3D1012050E0334BD6
:101328001B6803F00703AB4207D9EAB22F4B1A70C8
:101338001B6803F00703AB4255D1236813F0040F71
:1013480014D0E3685BB1B3F5805F08D0B3F5A05F54
:1013580005D0B3F5C05F02D0B3F5E05F31D1244AC0
:10136800936823F4E053E1680B439360236813F018
:10137800080F15D023695BB1B3F5805F08D0B3F5CA
:10138800A05F05D0B3F5C05F02D0B3F5E05F1ED112
:10139800174A936823F46043216943EAC1039360C1
:1013A800FFF7B0FE124B9B68C3F30313124AD35CDA
:1013B800D840124B1860124B186800F0C3FA00208E
:1013C80070BD40F2C3210B4801F01EFFC7E740F291
:1013D800CA21084801F018FFDAE701207047012008
:1013E800EEE70120ECE70120EAE700BF003C0240FD
:1013F80000380240F83F000850410008080000206B
:1014080004000020014B1868704700BF0800002046
:1014180008B5FFF7F7FF044B9B68C3F38223034A21
:10142800D35CD84008BD00BF0038024048410008DE
:1014380008B5FFF7E7FF044B9B68C3F34233034A41
:10144800D35CD84008BD00BF0038024048410008BE
:101458002DE9F04182B007460E46A54B984223D0AD
:1014680003F5806398421FD003F5806398421BD030
:1014780003F58063984217D003F58063984213D030
:1014880003F5806398420FD003F5806398420BD030
:1014980003F58063984207D003F58063984203D030
:1014A800AC21944801F0B0FE33689AB212B1B3F59A
:1014B800803F03D3AD218F4801F0A6FE7368B3F5D2
:1014C800041F1BD00DD8B3F5881F17D005D8032BE0
:1014D80014D9113B012B11D90CE0B3F5901F0DD095
:1014E80008E0B3F5441F09D0B3F5481F06D0B3F59B
:1014F800081F03D0AE217F4801F086FE002475E066
:10150800F368032B13D8BA68610003238B4022EADF
:101518000302F3688B401343BB607A6822EA050232
:101528007368C3F30013A34013437B606FE0C021CB
:10153800704801F069FEE6E7D1216E4801F064FECB
:101548006DE0336913B10D2B11D893B1E20808325D
:1015580057F8220004F0070189000F238B4020EA86
:10156800030033698B40034347F8223066E00F2BB2
:10157800ECD0DE215F4801F047FEE7E7072300E0F3
:1015880000238B40034302325B4941F822305B4B16
:101598009A686FEA080322EA0801706810F4801F4D
:1015A80001D048EA0201554A9160D26803EA020173
:1015B800706810F4001F01D048EA02014F4AD16058
:1015C800526803EA0201706810F4003F01D048EA4B
:1015D80002014A4A516012681340716811F4803F51
:1015E80001D048EA0203454A136001340F2C7CD825
:1015F8000125A540336803EA050835EA0303F4D159
:10160800736803F00303013B012B7FF679AF73681E
:1016180003F00303032B0CD0B368022B8CD8FA68B1
:10162800610003238B4022EA0302B3688B40134313
:10163800FB60736803F00303022B82D03A686100F1
:1016480003238B4022EA0302736803F003038B40F1
:1016580013433B60736813F4403FC6D000230193E3
:10166800274B5A6C42F480425A645B6C03F4804303
:101678000193019BA208911C1F4B53F8210004F011
:10168800030189000F238B4020EA0300184B9F4277
:101698003FF476AF03F580639F421AD003F5806369
:1016A8009F4218D003F580639F4216D003F58063EC
:1016B8009F4214D003F580639F4212D003F58063E4
:1016C8009F4210D003F580639F423FF457AF082331
:1016D80057E7012355E7022353E7032351E7042380
:1016E8004FE705234DE706234BE702B0BDE8F0813D
:1016F800000002403040000800380140003C014032
:101708000038024070B5054614460E4621B1012C3A
:1017180008D86CB1AE6170BD40F29D11064801F069
:1017280073FDF4E74FF4CF71034801F06DFDF0E766
:101738003604AE61EFE700BF3040000870B50446DC
:10174800866D00F04BF994F83530DBB2022B06D0E9
:1017580080236365002384F83430012070BD05467A
:101768002268136823F0160313602268536923F074
:1017780080035361236CE3B12268136823F00803E4
:1017880013602268136823F00103136023681B6841
:1017980013F0010F11D000F021F9431B052BF5D9E7
:1017A80020236365032084F83500002384F834304F
:1017B800D4E7A36C002BDFD1E3E7E26D3F2393402E
:1017C800B360012384F83530002084F83400C5E77D
:1017D80090F83530DBB2022B03D08023436501201B
:1017E8007047052380F835300268136823F0010339
:1017F8001360002070470000002807DB00F01F027C
:10180800400901239340024A42F82030704700BF44
:1018180000E100E0002808DB0901C9B200F16040DE
:1018280000F5614080F80013704700F00F000901CF
:10183800C9B2014B1954704714ED00E000B500F02F
:101848000700C0F1070CBCF1040F28BF4FF0040CCF
:10185800031D062B0FD9C31E4FF0FF3E0EFA0CF0E6
:1018680021EA000199400EFA03FE22EA0E0241EA3B
:1018780002005DF804FB0023EEE7000010B5044603
:10188800C31E042B0FD80A4AD36823F4E0631B0451
:101898001B0C240204F4E064234343F0BF6343F4C5
:1018A8000033D36010BD9021024801F0ADFCEAE797
:1018B80000ED00E06840000870B506460C46154685
:1018C8000F2A0ED80F2C11D80B4BD8682A46214660
:1018D800C0F30220FFF7B2FF01463046FFF79AFF38
:1018E80070BDA821054801F08FFCEBE7A92103484A
:1018F80001F08AFCE8E700BF00ED00E0684000085E
:1019080010B5041E03DB2046FFF776FF10BDBC218F
:10191800014801F079FCF6E7684000080138B0F1A9
:10192800807F0BD24FF0E0235861054AF02182F8FE
:1019380023100020986107221A6170470120704720
:1019480000ED00E010B504460E4B1A784FF47A7398
:10195800B3FBF2F30C4A1068B0FBF3F0FFF7DEFFBD
:1019680068B90F2C01D901200AE0002221464FF066
:10197800FF30FFF7A1FF054B1C60002000E00120AD
:1019880010BD00BF00000020080000200400002057
:1019980008B50B4B1A6842F400721A601A6842F4D0
:1019A80080621A601A6842F480721A600320FFF796
:1019B80065FF0F20FFF7C6FFFEF7C0FF002008BD38
:1019C800003C0240034A1168034B1B780B44136028
:1019D800704700BF2C00002000000020014B186851
:1019E800704700BF2C00002038B50446FFF7F6FF0B
:1019F8000546B4F1FF3F02D0044B1B781C44FFF7A7
:101A0800EDFF401BA042FAD338BD00BF0000002004
:101A180010B4036A046A24F001040462846924F09F
:101A2800F00C4CEA021223F00A030B4382610362B2
:101A38005DF8044B704710B4036A046A24F010047C
:101A48000462846924F4704C4CEA023223F0A00347
:101A580043EA0113826103625DF8044B70478368AF
:101A680023F070030B4343F00703836070470000C3
:101A78002DE9F04104460D46036A026A22F001028C
:101A880002624768826922F07302096841EA020823
:101A980023F00203AE681E43204B984203D003F59F
:101AA8008063984209D1EB680BB1082B24D126F04A
:101AB8000806EB68334323F00406184B9C4203D016
:101AC80003F580639C420FD1AB69B3F5007F00D06A
:101AD800C3B96B69B3F5807F00D0CBB927F44077E1
:101AE8006B693B43AF691F436760C4F818806B6834
:101AF80063632662BDE8F08141F6CD21084801F014
:101B080083FBD4E741F6DA21054801F07DFBE0E7E5
:101B180041F6DB21024801F077FBDFE700000140D6
:101B2800A04000082DE9F04104460E46056A036A04
:101B380023F4807303624768C36923F073030A6858
:101B480042EA030825F400758B6845EA0325224B11
:101B5800984203D003F5806398420AD1F3680BB129
:101B6800082B27D125F40065F36845EA032525F4F9
:101B78008065194B9C4203D003F580639C4211D1C8
:101B8800B369B3F5007F00D0D3B97369B3F5807F2B
:101B980000D0DBB927F44057736947EA0317B369E4
:101BA80047EA03176760C4F81C807368E36325621B
:101BB800BDE8F08141F66431084801F025FBD1E722
:101BC80041F67131054801F01FFBDEE741F672313D
:101BD800024801F019FBDDE700000140A0400008C1
:101BE8002DE9F04104460D46066A036A23F4805342
:101BF8000362D0F80480C76927F4E6470B6847EA10
:101C0800032726F400568B6846EA03360F4B9842A2
:101C180003D003F58063984209D16B69B3F5807FDF
:101C280000D063B928F480486B6948EA8318C4F87F
:101C38000480E7616B6823642662BDE8F08141F6A1
:101C4800B131034801F0E0FAECE700BF00000140C1
:101C5800A0400008704700000368324A904212D042
:101C6800B0F1804F0FD0A2F57C4290420BD002F524
:101C78008062904207D002F58062904203D002F55C
:101C88007842904203D123F070034A681343254AEF
:101C980090422AD0B0F1804F27D0A2F57C429042E2
:101CA80023D002F5806290421FD002F580629042F4
:101CB8001BD002F57842904217D002F5705290423C
:101CC80013D002F5806290420FD002F580629042F4
:101CD8000BD0A2F59832904207D002F5806290426C
:101CE80003D002F58062904203D123F44073CA689E
:101CF800134323F080034A6913438A68C2620A685F
:101D08008262084A904203D002F58062904201D173
:101D18000A690263026842F0040202600122426119
:101D28000360704700000140002800F0A98010B54A
:101D380004460368534A934237D0B3F1804F34D0F6
:101D4800A2F57C42934230D002F5806293422CD0B7
:101D580002F58062934228D002F58062934224D033
:101D680002F58062934220D002F5704293421CD063
:101D780002F57052934218D002F58062934214D053
:101D880002F58062934210D0A2F5983293420CD0AB
:101D980002F58062934208D002F58062934204D033
:101DA80040F21311384801F02FFAA3683BB1102B09
:101DB80005D0202B03D0402B01D0602B17D12369ED
:101DC8002BB1B3F5807F02D0B3F5007F15D123681E
:101DD800B3F1804F17D02D4A934214D0E368013BEA
:101DE8004FF6FE7293428CBF002301230FE04FF49D
:101DF8008A71254801F008FAE1E740F215112248F6
:101E080001F002FAE3E7E368003B18BF01232BB3B4
:101E1800A3690BB1802B27D194F83D3053B302232B
:101E280084F83D30214651F8040BFFF715FF0123D4
:101E380084F8463084F83E3084F83F3084F84030E7
:101E480084F8413084F8423084F8433084F84430D0
:101E580084F8453084F83D30002010BD4FF48B7174
:101E6800094801F0D1F9D3E740F21711064801F00B
:101E7800CBF9D1E784F83C30204601F0E1FACEE70F
:101E88000120704700000140A0400008000C0040FD
:101E9800002800F0A98010B504460368534A93420D
:101EA80037D0B3F1804F34D0A2F57C42934230D082
:101EB80002F5806293422CD002F58062934228D0CA
:101EC80002F58062934224D002F58062934220D0CA
:101ED80002F5704293421CD002F57052934218D01A
:101EE80002F58062934214D002F58062934210D0CA
:101EF800A2F5983293420CD002F58062934208D042
:101F080002F58062934204D040F22C51384801F027
:101F18007BF9A3683BB1102B05D0202B03D0402BB5
:101F280001D0602B17D123692BB1B3F5807F02D084
:101F3800B3F5007F15D12368B3F1804F17D02D4A30
:101F4800934214D0E368013B4FF6FE7293428CBF74
:101F5800002301230FE040F22D51254801F054F9E8
:101F6800E1E740F22E51224801F04EF9E3E7E36839
:101F7800003B18BF01232BB3A3690BB1802B27D1DA
:101F880094F83D3053B3022384F83D30214651F88C
:101F9800040BFFF761FE012384F8463084F83E30D5
:101FA80084F83F3084F8403084F8413084F8423077
:101FB80084F8433084F8443084F8453084F83D3060
:101FC800002010BD40F22F51094801F01DF9D3E758
:101FD8004FF4A661064801F017F9D1E784F83C30C0
:101FE8002046FFF737FECEE701207047000001408A
:101FF800A0400008000C00402DE9F04104460E46C0
:10200800056A036A23F010030362D0F80480876925
:1020180027F4E6470B6847EA032725F020058B6875
:1020280045EA0315224B984203D003F58063984292
:102038000AD1F3680BB1082B27D125F08005F36886
:1020480045EA031525F04005194B9C4203D003F5DA
:1020580080639C4211D1B369B3F5007F00D0D3B936
:102068007369B3F5807F00D0DBB928F440687369E1
:1020780048EA8308B36948EA8308C4F80480A7617A
:102088007368A3632562BDE8F08141F619310948F8
:1020980001F0BAF8D1E741F62631064801F0B4F864
:1020A800DEE741F62731034801F0AEF8DDE700BF6F
:1020B80000000140A040000870B504460D461646D1
:1020C8000C2A2CD841F21113D34013F0010F28D059
:1020D8002B68602B01D0702B29D1AB680BB1022B78
:1020E8002BD12B690BB1042B2DD194F83C30012B4B
:1020F80000F01A81012384F83C300C2E00F20F8185
:10210800DFE816F027000D010D010D0170000D012B
:102118000D010D01AA000D010D010D01DB003C2A86
:10212800D6D041F28201814801F06EF8D0E741F241
:1021380083017E4801F068F8CFE741F284017B48CB
:1021480001F062F8CDE741F28501784801F05CF8CA
:10215800CBE72368764A93422FD0B3F1804F2CD037
:10216800A2F57C42934228D002F58062934224D0A3
:1021780002F58062934220D002F5784293421CD047
:1021880002F57052934218D002F58062934214D03F
:1021980002F58062934210D0A2F5983293420CD097
:1021A80002F58062934208D002F58062934204D01F
:1021B80041F28F015D4801F027F829462068FFF7B2
:1021C80057FC2268936943F0080393612268936976
:1021D80023F0040393612268936929690B4393618F
:1021E80000209DE02368524A93421FD0B3F1804FEC
:1021F8001CD0A2F57C42934218D002F5806293422B
:1022080014D002F58062934210D002F578429342CE
:102218000CD002F57052934208D0A2F59432934242
:1022280004D04FF48551414800F0EEFF294620685C
:10223800FFF7E2FE2268936943F400639361226822
:10224800936923F48063936122689369296943EA57
:1022580001239361002063E02368354A934217D035
:10226800B3F1804F14D0A2F57C42934210D002F50E
:10227800806293420CD002F58062934208D002F546
:102288007842934204D041F2B101284800F0BCFFE3
:1022980029462068FFF746FC2268D36943F0080303
:1022A800D3612268D36923F00403D3612268D36918
:1022B80029690B43D361002032E023681C4A93420A
:1022C80017D0B3F1804F14D0A2F57C42934210D0BE
:1022D80002F5806293420CD002F58062934208D0E6
:1022E80002F57842934204D041F2C2010F4800F04F
:1022F8008BFF29462068FFF773FC2268D36943F4F3
:102308000063D3612268D36923F48063D3612268B0
:10231800D369296943EA0123D361002000E0012041
:10232800002384F83C3070BD0220FCE7A040000880
:102338000000014010B4846824F47F4C42EA032270
:102348000A4342EA0C0282605DF8044B70470000C1
:1023580038B590F83C30012B00F0728204460D46E7
:10236800012380F83C30022380F83D300B68702B45
:1023780006D046D8502B03D0602B01D0402B46D135
:102388002268936823F47F4323F0770393602B68D4
:10239800602B00F0AB8100F28F80402B00F0ED81C4
:1023A80049D8202B03D042D80BB1102B3DD123683C
:1023B8009D4A93421FD0B3F1804F1CD0A2F57C42B6
:1023C800934218D002F58062934214D002F58062DD
:1023D800934210D002F5784293420CD002F5705225
:1023E800934208D0A2F59432934204D041F2355179
:1023F8008E4800F009FF29682068FFF730FB0020AD
:10240800AAE0B3F5805FBBD0B3F5005FB8D0002B6E
:10241800B6D0102BB4D0202BB2D0302BB0D041F294
:10242800C341824800F0F0FEAAE7012094E0302B77
:10243800BDD0012090E0502B3CD123687A4A9342CA
:102448001FD0B3F1804F1CD0A2F57C42934218D024
:1024580002F58062934214D002F58062934210D054
:1024680002F5784293420CD002F57052934208D09C
:10247800A2F59432934204D041F202516B4800F025
:10248800C3FE6B68B3F5004F05D023B1022B02D011
:102498000A2B40F01F81EB680F2B00F22181EA68BC
:1024A80069682068FFF7B4FA50212068FFF7D7FA67
:1024B800002051E001204FE0B3F5805F55D0B3F51F
:1024C800005F00F0B580702B4DD12368564A9342C7
:1024D8001FD0B3F1804F1CD0A2F57C42934218D094
:1024E80002F58062934214D002F58062934210D0C4
:1024F80002F5784293420CD002F57052934208D00C
:10250800A2F59432934204D041F2D641474800F0F4
:102518007BFEAB6843B1B3F5805F05D0B3F5005FD0
:1025280002D0B3F5405F6CD16B68B3F5004F04D0AF
:102538001BB1022B01D00A2B69D1EB680F2B6CD889
:10254800EB686A68A9682068FFF7F4FE2268936858
:1025580043F0770393600020012384F83D30002383
:1025680084F83C3038BD0120F6E723682E4A9342B0
:1025780000F04A81B3F1804F00F04881A2F57C4217
:10258800934200F0458102F58062934200F0428157
:1025980002F58062934200F03F8102F58062934227
:1025A80000F03C8102F58062934200F0398102F527
:1025B8007042934200F0368102F57052934200F067
:1025C800338102F58062934200F0308102F5806227
:1025D800934200F02D81A2F59832934200F02A81AF
:1025E80002F58062934200F0278102F580629342EF
:1025F80000F0248141F2CF410C4800F005FE002094
:10260800AAE741F2D941094800F0FEFD8CE741F202
:10261800DA41064800F0F8FD8FE741F2DB41034854
:1026280000F0F2FD8CE700BF00000140A040000868
:102638002368844A934217D0B3F1804F14D0A2F58F
:102648007C42934210D002F5806293420CD002F58E
:102658008062934208D002F57842934204D041F256
:10266800EE41794800F0D0FDAB6843B1B3F5805F27
:1026780005D0B3F5005F02D0B3F5405F18D16B68A1
:10268800B3F5004F04D01BB1022B01D00A2B15D192
:10269800EB680F2B18D8EB686A68A9682068FFF701
:1026A80049FE2268936843F480439360002053E70F
:1026B80041F2F141644800F0A7FDE0E741F2F24140
:1026C800614800F0A1FDE3E741F2F3415E4800F004
:1026D8009BFDE0E741F205515B4800F095FDDAE625
:1026E80041F20651584800F08FFDD8E62368554A54
:1026F80093421FD0B3F1804F1CD0A2F57C42934285
:1027080018D002F58062934214D002F58062934299
:1027180010D002F5784293420CD002F570529342E1
:1027280008D0A2F59432934204D041F2125146489F
:1027380000F06AFD6B68B3F5004F04D01BB1022BA3
:1027480001D00A2B0DD1EB680F2B10D8EA68696805
:102758002068FFF770F960212068FFF780F90020F2
:10276800FAE641F21551384800F04EFDEBE741F228
:102778001651354800F048FDE8E72368314A93428E
:102788001FD0B3F1804F1CD0A2F57C42934218D0E1
:1027980002F58062934214D002F58062934210D011
:1027A80002F5784293420CD002F57052934208D059
:1027B800A2F59432934204D041F22251224800F00B
:1027C80023FD6B68B3F5004F04D01BB1022B01D079
:1027D8000A2B0DD1EB680F2B10D8EA6869682068BE
:1027E800FFF716F940212068FFF739F90020B3E612
:1027F80041F22551144800F007FDEBE741F226515C
:10280800114800F001FDE8E70020A5E60020A3E656
:102818000020A1E600209FE600209DE600209BE620
:10282800002099E6002097E6002095E6002093E630
:10283800002091E600208FE600208DE600208BE640
:1028480002208FE600000140A040000838B5044689
:102858000D460368414A93421FD0B3F1804F1CD004
:10286800A2F57C42934218D002F58062934214D0BC
:1028780002F58062934210D002F5806293420CD038
:1028880002F58062934208D002F57042934204D068
:1028980040F2A971324800F0B7FC2B686BB1402BAD
:1028A8000BD04CD8202B08D0302B06D0102B04D0BE
:1028B80040F2AA712A4800F0A7FC6B68802B01D06F
:1028C800002B43D194F83C30012B45D0012384F8E8
:1028D8003C30022384F83D3023685968986821F019
:1028E80070012A680A435A6023681C4A93421AD026
:1028F800B3F1804F17D0A2F57C42934213D002F572
:10290800806293420FD002F5806293420BD002F5A9
:102918007842934207D002F57052934203D0A2F551
:102928009432934204D120F080006A6802439A608E
:10293800012384F83D30002084F83C0038BD602B2A
:10294800BBD0702BB9D0502BB2D1B6E740F2AB71E7
:10295800034800F059FCB5E70220EFE7000001400A
:10296800D8400008026802F10C0353E8003F23F442
:1029780090730C3242E800310029F3D1026802F169
:10298800140353E8003F23F00103143242E80031F6
:102998000029F3D1036B012B05D0202380F84230A6
:1029A800002303637047026802F10C0353E8003FF9
:1029B80023F010030C3242E800310029F3D1ECE790
:1029C80090F84130DBB2212B01D002207047836898
:1029D800B3F5805F17D0036A5A1C02621A7803683D
:1029E8005A60C38C9BB2013B9BB2C3844BB902684B
:1029F800D36823F08003D3600268D36843F04003B0
:102A0800D360002070470369002BE4D1036A1B8858
:102A18000268C3F308035360036A02330362E0E702
:102A280010B504464268574B9A423FD8E36813B141
:102A3800B3F5005F40D123692BB1B3F5806F02D0A5
:102A4800B3F5C06F3ED163694FF6F372134200D1FC
:102A580023B940F69C614C4800F0D6FB2268136904
:102A680023F44053E1680B431361A36822691A43B6
:102A780063691A43E3691A432168CB6823F4164350
:102A880023F00C031343CB602268536923F440738B
:102A9800A1690B43536123683C4A934218D002F55D
:102AA8008062934214D0FEF7B3FC13E040F69961BC
:102AB800354800F0A9FBB9E740F69A61324800F0C2
:102AC800A3FBB8E740F69B612F4800F09DFBBAE7EF
:102AD800FEF7AEFCE369B3F5004F29D000210318D7
:102AE80049411B1841F10001C90041EA5371DB005B
:102AF800181863684FEA83024FEA937341F10001A3
:102B0800FDF7C6FE224AA2FB00314909642303FBF4
:102B180011031B013233A2FB03235B0903F0F0020C
:102B280002EB011203F00F03216813448B6010BD00
:102B38000023021843EB0301121841F10001C900F8
:102B480041EA5271D200101841F1000162689218EE
:102B58005B41FDF79DFE0E4AA2FB00314909642343
:102B680003FB1103DB003233A2FB03235B095A008A
:102B780002F4F87202EB011203F007032168134410
:102B88008B60D4E7A037A000104100080010014076
:102B98001F85EB51002800F08C8010B5044683692E
:102BA800002B56D00368444A934210D0A2F54C42F9
:102BB80093420CD002F58062934208D002F54C4251
:102BC800934204D040F273113C4800F01DFBA36906
:102BD80043B1B3F5807F05D0B3F5007F02D0B3F5DC
:102BE800407F30D1A36813B1B3F5805F4FD1E3695B
:102BF80013B1B3F5004F50D194F84130002B52D0A7
:102C0800242384F841302268D36823F40053D36026
:102C18002046FFF705FF2268136923F490431361E8
:102C28002268536923F02A0353612268D36843F466
:102C38000053D36000206064202384F8413084F876
:102C48004230606310BD4FF4BA711C4800F0DCFAE2
:102C5800C8E70368184A9342C4D0A2F54C4293428D
:102C6800C0D002F580629342BCD002F580629342E4
:102C7800B8D002F580629342B4D002F54442934240
:102C8800B0D04FF4BC710D4800F0BEFAAAE74FF47B
:102C9800BD710A4800F0B8FAA9E740F27B1107486D
:102CA80000F0B2FAA8E784F84030204600F09AFC19
:102CB800A6E70120704700BF00100140104100083E
:102CC800704708B50168CA6822F04002CA6020222D
:102CD80080F84120FFF7F4FF002008BD704708B5D1
:102CE800806B0023C385FFF7F9FF08BD704790F894
:102CF8004230DBB2222B69D18368B3F5805F4FD0B5
:102D0800826AB3F5805F04D0002B56D10369002B8B
:102D180053D103685B681370836A01338362C38D80
:102D28009BB2013B9BB2C385002B51D100B583B048
:102D38000268D36823F02003D3600268D36823F4C1
:102D48008073D3600268536923F001035361202321
:102D580080F8423000234363036B012B33D10023F7
:102D68000363026802F10C0353E8003F23F01003E9
:102D78000C3242E800310029F3D103681A6812F0D6
:102D8800100F06D0002201921A6801925B68019325
:102D9800019B818DFFF7AAFF002003B05DF804FBBB
:102DA8000269002AACD1826A03685B68C3F308032E
:102DB8001380836A02338362B1E703685B6803F0B8
:102DC8007F031370A8E700F08DF9E5E7022070474C
:102DD8000020704710B582B0044602681368D068B6
:102DE800516913F00F0F09D113F0200F0CD010F018
:102DF800200F09D02046FFF77AFF16E011F00101F5
:102E080015D110F4907F12D1216B012979D013F0DC
:102E1800800F03D010F0800F40F0218113F0400F95
:102E280003D010F0400F40F01E8102B010BD13F027
:102E3800010F06D010F4807F03D0626C42F00102CB
:102E4800626413F0040F04D019B1626C42F00202FC
:102E5800626413F0020F04D019B1626C42F00402EC
:102E6800626413F0080F07D010F0200F00D119B1D9
:102E7800626C42F008026264626C002AD5D013F0DA
:102E8800200F02D010F0200F29D123685B6903F0CE
:102E98004003626C12F0080F00D163B32046FFF7BD
:102EA80061FD23685B6913F0400F20D0226802F1AE
:102EB800140353E8003F23F04003143242E8003182
:102EC8000029F3D1E36B73B1694A1A65E06BFEF729
:102ED8007FFC0028A9D0E06B036D9847A5E7204642
:102EE800FFF705FFD1E72046FFF7F8FE9DE72046EC
:102EF800FFF7F4FE99E72046FFF7F0FE002363642E
:102F080093E713F0100F82D010F0100F3FF47FAF4B
:102F1800002301931368019353680193019B53693C
:102F280013F0400F5FD0E26B13685B689BB2002B15
:102F38004AD0A18D994247D9E385D369B3F5807FFB
:102F480037D0226802F10C0353E8003F23F4807362
:102F58000C3242E800310029F3D1226802F114034F
:102F680053E8003F23F00103143242E800310029FE
:102F7800F3D1226802F1140353E8003F23F0400321
:102F8800143242E800310029F3D1202384F842307A
:102F980000232363226802F10C0353E8003F23F067
:102FA80010030C3242E800310029F3D1E06BFEF740
:102FB800C5FB02236363A18DE38D9BB2C91A89B255
:102FC8002046FFF793FE30E7A18D99427FF42DAF9D
:102FD800D369B3F5807F7FF428AF0223636320466B
:102FE800FFF784FE21E7A18DE38D9BB2C91A89B250
:102FF800E38D9BB2002B3FF418AF00293FF415AFC7
:10300800226802F10C0353E8003F23F490730C325A
:1030180042E800300028F3D1226802F1140353E893
:10302800003F23F00103143242E800300028F3D1B6
:10303800202384F8423000232363226802F10C0322
:1030480053E8003F23F010030C3242E80030002818
:10305800F3D1022363632046FFF748FEE5E62046E6
:10306800FFF7AEFCE1E62046FFF72BFEDDE600BFEA
:10307800E72C000881628285C285002343642223ED
:1030880080F84230036923B10268D36843F480733F
:10309800D3600268536943F0010353610268D3683F
:1030A80043F02003D3600020704708B590F8423001
:1030B800DBB2202B08D149B10AB9012008BD002391
:1030C8000363FFF7D7FFF9E70220F7E70120F5E7E9
:1030D800034AD2F8883043F47003C2F88830704746
:1030E80000ED00E008B5034800F006FB024B0122A2
:1030F8001A7008BD340000203000002072B6FEE7C8
:1031080000B595B03022002108A8FDF739F8002352
:103118000393049305930693079301931E4A116C36
:1031280041F080511164126C02F080520192019AB0
:1031380002931A4B1A6842F480421A601B6803F41F
:1031480080430293029B012308934FF48033099331
:1031580002220E924FF480030F9304231093482108
:1031680011911292139308A8FDF74EFD80B90F2311
:10317800039302210491002305934FF48052069291
:10318800079303A8FEF72CF820B915B05DF804FBE7
:10319800FFF7B4FFFFF7B2FF0038024000700040AD
:1031A80000B58FB0FEF7F4FBFFF7AAFF00F02EF88A
:1031B80000F0E4F900F0EEF800F088F900F0F8F912
:1031C80000F082FB13220D490D48FFF76EFF002324
:1031D80001930C4A02920393049305930693079371
:1031E80008A901A800F0C4FB00F0BEFC08A800F084
:1031F80011FD4FF4FA60FEF7F7FBF1E73400002009
:103208002C010020DA0FC940704700002DE9F04377
:103218008DB000240794089409940A940B9401949F
:10322800564B1A6B42F080021A631A6B02F0800246
:103238000192019A02941A6B42F001021A631A6B06
:1032480002F001020292029A03941A6B42F01002F1
:103258001A631A6B02F010020392039A04941A6B11
:1032680042F008021A631A6B02F008020492049AE8
:1032780005941A6B42F040021A631A6B02F040027E
:103288000592059A06941A6B42F002021A631B6BA8
:1032980003F002030693069BDFF8F09001227121E8
:1032A8004846FEF72FFA364F012240F201213846F0
:1032B800FEF728FA334E01224FF483513046FEF7C9
:1032C80021FADFF8CC8001224FF44E714046FEF718
:1032D80019FA712307930125089509940A9507A9F6
:1032E8004846FEF7B5F84FF400730793089509941C
:1032F8000A9507A93846FEF7ABF84FF480530793B1
:10330800089509940A9507A93046FEF7A1F81023F5
:1033180007930894099407A93046FEF799F86023A3
:103328000793089509940A9407A93046FEF790F880
:10333800802307930894099507A93046FEF788F873
:103348004FF4FC4307930894099507A90E48FEF724
:103358007FF84FF44E730793089509940A9407A9C8
:103368004046FEF775F80795089509940A9407A949
:103378003846FEF76DF80DB0BDE8F083003802401E
:1033880000100240000C02400018024000000240F9
:103398000004024008B50B480B4B03600B4B43601D
:1033A80000238360C3604FF48042026143618361FC
:1033B800C3610362FDF7DEFA00B908BDFFF79EFEA0
:1033C800FBE700BF4800002000540040801A0600B8
:1033D80030B589B0002303930493059306930793AC
:1033E8000268144B9A4201D009B030BD00250195FE
:1033F800114C236B43F002032363236B03F0020396
:103408000193019BC0230393122304930323069380
:103418000423079303A90948FEF71AF80295236CB9
:1034280043F400132364236C03F400130293029BF8
:10343800DAE700BF005400400038024000040240B0
:103448000268094B9A4200D0704782B0002301936A
:10345800064B1A6C42F002021A641B6C03F002035A
:103468000193019B02B070470004004000380240FD
:1034780000B587B000230193029303930493059347
:1034880002680F4B9A4202D007B05DF804FB002394
:1034980000930C4B1A6B42F001021A631B6B03F08A
:1034A80001030093009B80230193022302930122CE
:1034B8000492059301A90448FDF7CAFFE4E700BF99
:1034C80000040040003802400000024000B58FB000
:1034D80000230A930B930C930D930893099301937C
:1034E8000293039304930593069307932148224A72
:1034F800026047224260836044F62062C260036132
:103508008361FEF711FC30BB4FF480530A930AA97C
:103518001848FEF71DFF08BB1648FEF7B9FC00BBAC
:1035280000230893099308A91248FFF78FF9D8B91F
:1035380060230193002302930393059304220DEB68
:1035480002010C48FEF7B8FD88B90A48FFF790FF5A
:103558000FB05DF804FBFFF7D1FDD5E7FFF7CEFD0F
:10356800DAE7FFF7CBFDDBE7FFF7C8FDE0E7FFF79A
:10357800C5FDEAE79C0000200004004008B50A48A1
:103588000A4B03604FF4E133436000238360C36058
:1035980003610C2242618361C361FFF7FBFA00B942
:1035A80008BDFFF7ABFDFBE72C0100200010014030
:1035B80008B50A480A4B03604FF4E133436000231F
:1035C8008360C36003610C2242618361C361FFF7BA
:1035D800E1FA00B908BDFFF791FDFBE7E400002020
:1035E8000044004010B58AB0002305930693079362
:1035F8000893099303682F4A934204D02E4A9342B2
:103608002DD00AB010BD002401942C4B5A6C42F006
:1036180010025A645A6C02F010020192019A029444
:103628001A6B42F001021A631B6B03F00103029349
:10363800029B4FF4C0630593022306930323089368
:103648000723099305A91E48FDF702FF22462146D4
:103658002520FEF731F92520FEF752F9D1E700249D
:103668000394164B1A6C42F400321A641A6C02F472
:1036780000320392039A04941A6B42F001021A630F
:103688001B6B03F001030493049B0C230593022393
:103698000693032308930723099305A90848FDF710
:1036A800D7FE224621462620FEF706F92620FEF7F9
:1036B80027F9A6E700100140004400400038024006
:1036C80000000240024600200B46013989B28BB146
:1036D80012F8013B5840002302E040080133DBB2F6
:1036E800072BF1D810F0010FF7D0400880F08C00BC
:1036F800C0B2F3E770470000644B1B78112B08D069
:1037080010B5634B1C78032C0FD8DFE804F00710C2
:103718002738604B00221A700020704700238370FE
:103728005D4A1380631C5A4A1370002010BD5B4A1F
:10373800B2F90030D91C4FF0000C00F801C0013379
:103748001BB21380544AB2F900209342EDDB534B6D
:10375800A3F800C0631C4E4A1370E6E74E4BB3F95A
:103768000010CB1C0022C25499B2FFF7ABFF4C4BA0
:1037780018700028D9D1631C454A1370D5E7494B06
:10378800B3F900301BB90133464A1380CDE7012B4A
:10379800CBD1444B00221A8015E0C218D478424994
:1037A800CC5454794149CC54D4794149CC54547AB5
:1037B8004049CC54D47A4049CC54517B3F4AD154E7
:1037C8000133384A1380374BB3F90030012BE4DD5D
:1037D800354BB3F9003007EE103AB8EEC77ADFED93
:1037E800387AC7EE276A374BC3ED006A2F4AB2F919
:1037F800002007EE102AB8EEC77AC7EE276AC3ED95
:10380800016A2B4AB2F9002007EE102AB8EEC77AEF
:10381800C7EE276AC3ED026A264AB2F9002007EE0E
:10382800102AB8EEC77AC7EE276AC3ED036A224AA0
:10383800B2F9002007EE102AB8EEC77AC7EE276A59
:10384800C3ED046A1D4AB2F9002007EE102AB8EE4B
:10385800C77AC7EE276AC3ED056AC27B07EE902ACE
:10386800F8EE677AC3ED067A0023094A1370094A0D
:103878001370064A11211170094A1370064A138001
:10388800064A1380074A13804FE700BF0C00002048
:103898007B0100207C0100207801002076010020B7
:1038A8007A0100207401002094010020900100207A
:1038B8008C01002088010020840100208001002064
:1038C80000007A449801002021480121017000235A
:1038D80043608360C3600174002242741D484FF046
:1038E800020C80F800C043608360C36001744274B6
:1038F80019484FF0030C80F800C043608360C36030
:103908000174427415484FF0040C80F800C04360FD
:103918008360C3600174427411484FF0050C80F84D
:1039280000C043608360C360017442740D484FF067
:10393800060C80F800C043608360C3600174427461
:103948000949072008704A708A704B60704700BFA9
:10395800200200200C020020F8010020E4010020D1
:10396800D0010020BC010020B401002000000000AC
:1039780070B52DED068B94B004460D460DF1380C4C
:103988006F4E0FCEACE80F0096E803008CE80300FA
:103998000023089309930A930B930C930D930EE05D
:1039A80004EB8302D2ED007A14AA02EB830212ED33
:1039B800067A67EE877A42ED0C7A0133DBB2052B83
:1039C800EED9D4ED067AFCEEE77ACDED017A9DF8D2
:1039D80004600023029303930493059306930793CB
:1039E800DDED089A574B93ED025A39EEC55A8DED25
:1039F800025A9DED09AA544BD3ED025A7AEE655A44
:103A0800CDED035ADDED0AAA504B93ED026A3AEE6A
:103A1800C66A8DED046A9DED0B9A4D4BD3ED026A93
:103A280079EE666ACDED056ADDED0C8A494B93EDBA
:103A3800027A38EEC77A8DED067A9DED0D8A464BEF
:103A4800D3ED027A78EE677ACDED077AB5EEC05AF3
:103A5800F1EE10FA2CD93B4B01221A74F5EEC05A3C
:103A6800F1EE10FA28D9384B01221A74B5EEC06A63
:103A7800F1EE10FA24D9354B01221A74F5EEC06A1A
:103A8800F1EE10FA20D9324B01221A74B5EEC07A41
:103A9800F1EE10FA1CD92F4B01221A74F5EEC07AF8
:103AA800F1EE10FA18D92C4B01221A74002429E0DF
:103AB800244B00221A74D1E7234B00221A74D5E74D
:103AC800224B00221A74D9E7214B00221A74DDE731
:103AD800204B00221A74E1E71F4B00221A74E5E715
:103AE80014AB03EB840353F8480CFCF751FE12A304
:103AF800D3E90023FCF7BEFBFCF7A2FE45F824003F
:103B08000134E4B2052CEBD9AE610E4BC3ED029A39
:103B18000D4B83ED02AA0D4BC3ED02AA0C4B83EDAE
:103B2800029A0C4BC3ED028A0B4B83ED028A14B048
:103B3800BDEC068B70BD00BFB29476B4BBD45F40B9
:103B4800A83F0008200200200C020020F8010020F5
:103B5800E4010020D0010020BC01002008B5FDF7D9
:103B6800D1FD012008BD000010B5144B1A7C4FF49C
:103B780000711348FFF7F2FF124C134B1A7C2021F7
:103B88002046FFF7EBFF114B1A7C40212046FFF738
:103B9800E5FF0F4B1A7C4FF480510E48FFF7DEFF0C
:103BA8000D4B1A7C01212046FFF7D8FF0B4B1A7CDE
:103BB80010212046FFF7D2FF10BD00BF20020020D1
:103BC80000100240000002400C020020F801002012
:103BD800E4010020000C0240D0010020BC010020BC
:103BE800F8B506460D46174600240EE0294630462D
:103BF80000F03CF8C82000F043F82946304600F0B1
:103C08003AF8C82000F03CF80134BC42EEDB012051
:103C1800F8BD000038B5044602684FF4007110483A
:103C2800FFF7DEFF0F4D626820212846FFF7D8FF17
:103C3800A26840212846FFF7D3FFE2684FF480517D
:103C48000948FFF7CDFF226901212846FFF7C8FF81
:103C5800626910212846FFF7C3FF012038BD00BF65
:103C68000010024000000240000C024008B501228A
:103C7800FDF748FD08BD08B50022FDF743FD08BD66
:103C8800A82303FB00F0800800BF03460138002B7F
:103C9800FAD17047DFF834D0FFF71AFA0C480D490B
:103CA8000D4A002302E0D458C4500433C4188C428F
:103CB800F9D30A4A0A4C002301E013600432A242F5
:103CC800FBD3FCF7AFFAFFF76BFA7047000002204E
:103CD80000000020100000207041000810000020A3
:103CE80034020020FEE72DE9F04786468C46084658
:103CF800089E154674461946002B40F0C28085423E
:103D0800B2FA82F245D94AB1C2F1200300FA02FCA4
:103D18002EFA03F3954043EA0C0C94404FEA154EF3
:103D2800A8B2BCFBFEF8230C0EFB18CC08FB00F96C
:103D380043EA0C43994528D9EB1808F1FF3704D218
:103D4800994502D9A8F102072B44A3EB0903A4B2B1
:103D5800B3FBFEFC0EFB1C330CFB00F044EA0344EF
:103D6800A04214D92C190CF1FF3304D2A04202D975
:103D7800ACF102032C44241A43EA07401EB1D44094
:103D8800002334607360BDE8F0874746DDE763468B
:103D9800F1E792BB431B01214FEA154EAFB2B3FBCB
:103DA800FEFC200C0EFB1C330CFB07F840EA034317
:103DB800984562D9EB180CF1FF3004D2984502D926
:103DC800ACF102002B44A3EB0803A4B2B3FBFEFC46
:103DD8000EFB1C330CFB07F744EA0344A7424ED9F9
:103DE8002C190CF1FF3304D2A74202D9ACF102031B
:103DF8002C44E41B43EA0040C0E7C2F1200320FA48
:103E080003F1954090402EFA03F303434FEA154E11
:103E1800AFB2B1FBFEFC0EFB1C10190C0CFB07F833
:103E280041EA0041884504FA02F422D969180CF1E4
:103E3800FF3004D2884502D9ACF102002944A1EB35
:103E480008019BB2B1FBFEFC0EFB1C110CFB07F733
:103E580043EA01439F420ED9EB180CF1FF3104D21B
:103E68009F4202D9ACF102012B44DB1B41EA00411D
:103E780092E76046E3E76146F7E76046A3E76346F3
:103E8800B7E7834206D916B9002108467BE7C6E999
:103E980000E0F9E7B3FA83F78FB9834201D372459B
:103EA80008D8BEEB020460EB030301209C461EB950
:103EB800002168E73846FAE7C6E9004CF8E7C7F199
:103EC800200CBB4022FA0CF41C432EFA0CF120FA09
:103ED8000CF3B84001434FEA14490EFA07F5B3FB57
:103EE800F9F81FFA84FE09FB18300B0C08FB0EFAD0
:103EF80043EA00439A4502FA07F240D9E31808F169
:103F0800FF3004D29A4502D9A8F102002344A3EB5A
:103F18000A0389B2B3FBF9F809FB183308FB0EFE54
:103F280041EA03418E452CD9611808F1FF3304D2C8
:103F38008E4502D9A8F10203214443EA0040A0FBC0
:103F48000298A1EB0E014145CE46434602D306D165
:103F58004D4504D2B9EB020E68EB04030138002E7C
:103F6800A6D0B5EB0E0261EB030101FA0CFC22FAB4
:103F780007F34CEA0303F940C6E9003198E74046E5
:103F8800C5E74346D9E70000F8B500BFF8BC08BC50
:103F98009E467047F8B500BFF8BC08BC9E467047FF
:103FA8000000803F0000803F0000803F0000803F0D
:103FB8000000803F0000803F447269766572732F6D
:103FC80053544D3332463478785F48414C5F4472DD
:103FD800697665722F5372632F73746D333266344A
:103FE80078785F68616C5F6932632E630000000057
:103FF800447269766572732F53544D333246347860
:10400800785F48414C5F4472697665722F537263DA
:104018002F73746D3332663478785F68616C5F72C1
:1040280063632E6300000000447269766572732F23
:1040380053544D3332463478785F48414C5F44726C
:10404800697665722F5372632F73746D33326634D9
:1040580078785F68616C5F6770696F2E6300000035
:10406800447269766572732F53544D3332463478EF
:10407800785F48414C5F4472697665722F5372636A
:104088002F73746D3332663478785F68616C5F6360
:104098006F727465782E6300447269766572732F47
:1040A80053544D3332463478785F48414C5F4472FC
:1040B800697665722F5372632F73746D3332663469
:1040C80078785F68616C5F74696D2E63000000002A
:1040D800447269766572732F53544D33324634787F
:1040E800785F48414C5F4472697665722F537263FA
:1040F8002F73746D3332663478785F68616C5F74DF
:10410800696D5F65782E6300447269766572732FF6
:1041180053544D3332463478785F48414C5F44728B
:10412800697665722F5372632F73746D33326634F8
:1041380078785F68616C5F756172742E6300000047
:10414800000000000102030400000000000000005D
:08415800010203040607080937
:084160008EFBFF7F010000004F
:04416800F108000852
:04416C00CD08000872
:1041700001000000100000000024F4001100000005
:0400000508003C9D16
:00000001FF
