:020000040800F2
:1000000000000220512800084D0D00084F0D000887
:10001000510D0008530D0008550D000800000000A8
:10002000000000000000000000000000570D000864
:10003000590D0008000000005B0D00085D0D000870
:10004000A1280008A1280008A1280008A12800086C
:10005000A1280008A1280008A1280008A12800085C
:10006000A1280008A1280008A1280008A12800084C
:10007000A1280008A1280008A1280008A12800083C
:10008000A1280008A1280008A1280008A12800082C
:10009000A1280008A1280008A1280008A12800081C
:1000A000A1280008650D0008A1280008A128000863
:1000B000750D0008850D0008950D0008A1280008A1
:1000C000A1280008A1280008A1280008A1280008EC
:1000D000A1280008A50D0008B50D0008A1280008FA
:1000E000A1280008A1280008A1280008A1280008CC
:1000F000A1280008A1280008A1280008A1280008BC
:10010000A1280008A1280008C50D0008A1280008A2
:10011000A1280008A1280008A1280008A12800089B
:10012000A1280008A1280008A1280008A12800088B
:10013000A1280008A1280008A1280008A12800087B
:10014000A1280008A1280008A1280008A12800086B
:10015000A1280008A1280008A1280008A12800085B
:10016000A1280008A1280008A1280008A12800084B
:10017000A1280008A1280008A1280008000000000C
:08018000A1280008A1280008D5
:10018800830730B547D0541E002A3ED0CAB2034672
:1001980001E0013C39D303F8012B9D07F9D1032C69
:1001A8002CD9CDB205EB05250F2C05EB054535D926
:1001B800A4F1100222F00F0C03F1100EE6444FEAEE
:1001C800121C1A46156055609560D560103272454C
:1001D800F8D10CF1010214F00C0F03EB021204F039
:1001E8000F0C13D0ACF1040323F0030304331344BE
:1001F80042F8045B9A42FBD10CF003042CB1C9B25B
:100208001C4403F8011B9C42FBD130BD64461346D5
:10021800002CF4D1F9E703461446C0E71A46A44671
:10022800E0E700BF70B50F4B0F4DAB42A3EB0506DF
:1002380007D0B610002455F8043B01349847A6426D
:10024800F9D802F07BFC094D094B5E1BAB424FEA23
:10025800A60606D0002455F8043B01349847A64268
:10026800F9D870BD7C2B00087C2B00087C2B00087B
:10027800802B000853B94AB9002908BF00281CBFC1
:100288004FF0FF314FF0FF3000F00CB8ADF1080C23
:100298006DE904CE02F001FBDDF804E0DDE902239C
:1002A80004B07047704700BF10B5054C237833B9C8
:1002B800044B13B10448AFF300800123237010BD31
:1002C8000C00002000000000442B000808B5034B78
:1002D8001BB103490348AFF3008008BD00000000CC
:1002E80010000020442B000872B6FEE700B595B058
:1002F8003022002108A8FFF743FF0023039304934B
:1003080005930693079301931E4A116C41F080519F
:100318001164126C02F080520192019A02931A4BF6
:100328001A6842F480421A601B6803F480430293FF
:10033800029B012308934FF48033099302220E9203
:100348004FF480030F9304231093482111911292C4
:10035800139308A800F034FE80B90F2303930221F9
:100368000491002305934FF480520692079303A843
:1003780001F090F820B915B05DF804FBFFF7B4FF61
:10038800FFF7B2FF003802400070004008B501F0E6
:1003980053FBFFF7ABFF00F013F800F02FFC00F061
:1003A8009DF800F04DFA00F0C3FA00F019FB00F0D8
:1003B80071FB00F0C9FB00F0E7F800F039FCFEE73C
:1003C8002DE9F0418CB000240794089409940A940C
:1003D8000B9401943D4B1A6B42F080021A631A6B1E
:1003E80002F080020192019A02941A6B42F0010213
:1003F8001A631A6B02F001020292029A03941A6BB2
:1004080042F010021A631A6B02F010020392039A68
:1004180004941A6B42F008021A631A6B02F008027D
:100428000492049A05941A6B42F040021A631A6BFC
:1004380002F040020592059A06941A6B42F00202F5
:100448001A631B6B03F002030693069B204E224699
:100458004FF44041304601F0E9F9DFF87C8022464C
:100468004FF44E71404601F0E1F91A4F0122032181
:10047800384601F0DBF94FF48043079301250895CE
:1004880009950A9407A9304601F0DAF84FF40043B9
:100498000793089509940A9407A9304601F0D0F803
:1004A8004FF44E730793089509940A9407A9404698
:1004B80001F0C6F803230793089509940A9407A93D
:1004C800384601F0BDF80CB0BDE8F08100380240B4
:1004D80000180240001002400004024008B50B4812
:1004E8000B4B03600B4B436000238360C3604FF4E6
:1004F8008042026143618361C361036200F082FC50
:1005080000B908BDFFF7F0FEFBE700BF2800002098
:1005180000540040801A060030B589B000230393C8
:1005280004930593069307930268144B9A4201D0EB
:1005380009B030BD00250195114C236B43F002032F
:100548002363236B03F002030193019BC0230393EE
:1005580012230493032306930423079303A909484A
:1005680001F06EF80295236C43F400132364236CA6
:1005780003F400130293029BDAE700BF0054004023
:10058800003802400004024000B583B00023009305
:1005980001930F480F4A02604FF4E15242608360B2
:1005A8000A23C3608023836101F056FC50B90023FD
:1005B800009301936946064801F0D8FD28B903B0B5
:1005C8005DF804FBFFF790FEF1E7FFF78DFEF6E715
:1005D8007C0000200010004000B587B00368434A43
:1005E800934211D0B3F1804F22D0414A934234D084
:1005F800404A934245D0404A934256D03F4A93429C
:1006080067D007B05DF804FB002100913C4B5A6CA1
:1006180042F001025A645B6C03F001030093009BF3
:100628000A46192001F0BAF9192001F0C7F9E8E7DC
:100638000021019103F50E331A6C42F001021A648D
:100648001B6C03F001030193019B0A461C2001F077
:10065800A5F91C2001F0B2F9D3E700210291284B3B
:100668001A6C42F002021A641B6C03F00203029334
:10067800029B0A461D2001F091F91D2001F09EF908
:10068800BFE7002103911E4B1A6C42F004021A6462
:100698001B6C03F004030393039B0A461E2001F01E
:1006A8007DF91E2001F08AF9ABE700210491144B73
:1006B8001A6C42F008021A641B6C03F008030493D6
:1006C800049B0A46322001F069F9322001F076F9DC
:1006D80097E7002305930A4B1A6C42F010021A643C
:1006E8001B6C03F010030593059B8AE7000001408B
:1006F8000004004000080040000C004000100040CA
:100708000038024000B58BB0002305930693079389
:10071800089309930368424A93420ED0B3F1804F7D
:1007280023D0404A934237D03F4A93424AD03F4A67
:1007380093425ED00BB05DF804FB002300933C4B62
:100748001A6B42F010021A631B6B03F0100300933C
:10075800009B4FF40073059302230693012309932A
:1007680005A9344800F06CFFE4E700230193304BFF
:100778001A6B42F001021A631B6B03F00103019329
:10078800019B20230593022306930123099305A9BE
:10079800294800F055FFCDE700230293244B1A6B3C
:1007A80042F001021A631B6B03F001030293029BE0
:1007B8004023059302230693099305A91E4800F0D8
:1007C8003FFFB7E700230393194B1A6B42F0080267
:1007D8001A631B6B03F008030393039B4FF48053C6
:1007E800059302230693099305A9144800F028FFEE
:1007F800A0E7002304930E4B1A6B42F001021A6320
:100808001B6B03F001030493049B0123059302234C
:100818000693099305A9084800F012FF8AE700BF6C
:10082800000001400004004000080040000C0040A7
:10083800003802400010024000000240000C024054
:1008480010B596B00024129413941494159410942F
:10085800119409940A940B940C940D940E940F948B
:100868002022214601A8FFF78BFC2F482F4B03605D
:1008780040F22B134360846041F61F43C360046158
:100888004461846101F0E8FA00283AD14FF48053BA
:10089800129312A9244801F0EAFB002834D1224817
:1008A80001F006FB002832D100231093119310A900
:1008B8001D4801F05BFC00282CD16023099340F609
:1008C8000F630A9300220B920C920D920E920F92D4
:1008D80009A9154801F050FBF8B9002301930293C8
:1008E8000393049305934FF400520692089301A9C9
:1008F8000D4801F081FC98B90B48FFF703FF16B0CB
:1009080010BDFFF7F1FCC1E7FFF7EEFCC7E7FFF703
:10091800EBFCC9E7FFF7E8FCCFE7FFF7E5FCDCE70E
:10092800FFF7E2FCE8E700BFE40100200000014017
:1009380000B58FB000230A930B930C930D93089383
:1009480009930193029303930493059306930793E2
:1009580022484FF08042026040F22B1242608360CE
:1009680041F61F42C2600361836101F075FA30BB32
:100978004FF480530A930AA9184801F078FB08BB82
:10098800164801F095FA00BB00230893099308A9BB
:10099800124801F0EBFBD8B96023019340F60F63CE
:1009A800029300220392059201A90C4801F0E4FA8F
:1009B80088B90A48FFF7A6FE0FB05DF804FBFFF7F9
:1009C80093FCD5E7FFF790FCDAE7FFF78DFCDBE750
:1009D800FFF78AFCE0E7FFF787FCEAE79C010020C5
:1009E80000B58FB000230A930B930C930D930893D3
:1009F8000993019302930393049305930693079332
:100A08002248234A026040F22B124260836041F67A
:100A18001F42C2600361836101F01EFA30BB4FF4CC
:100A280080530A930AA9194801F021FB08BB17480B
:100A380001F03EFA00BB00230893099308A9134864
:100A480001F094FBD8B96023019340F60F63029339
:100A580000220392059201A90C4801F08DFA88B989
:100A68000A48FFF74FFE0FB05DF804FBFFF73CFCA8
:100A7800D5E7FFF739FCDAE7FFF736FCDBE7FFF7E6
:100A880033FCE0E7FFF730FCEAE700BF5401002041
:100A98000004004000B58FB000230A930B930C9319
:100AA8000D93089309930193029303930493059379
:100AB800069307932248234A026040F22B124260B1
:100AC800836041F61F42C2600361836101F0C4F98B
:100AD80030BB4FF480530A930AA9194801F0C7FAAA
:100AE80008BB174801F0E4F900BB002308930993F9
:100AF80008A9134801F03AFBD8B96023019340F6DE
:100B08000F63029300220392059201A90C4801F099
:100B180033FA88B90A48FFF7F5FD0FB05DF804FB12
:100B2800FFF7E2FBD5E7FFF7DFFBDAE7FFF7DCFBD0
:100B3800DBE7FFF7D9FBE0E7FFF7D6FBEAE700BF03
:100B48000C0100200008004000B58FB000230A9374
:100B58000B930C930D9308930993019302930393BA
:100B680004930593069307932248234A026040F2B0
:100B78002B124260836041F61F42C26003618361A9
:100B880001F06AF930BB4FF480530A930AA9194857
:100B980001F06DFA08BB174801F08AF900BB002381
:100BA8000893099308A9134801F0E0FAD8B960231B
:100BB800019340F60F63029300220392059201A964
:100BC8000C4801F0D9F988B90A48FFF79BFD0FB026
:100BD8005DF804FBFFF788FBD5E7FFF785FBDAE74D
:100BE800FFF782FBDBE7FFF77FFBE0E7FFF77CFB24
:100BF800EAE700BFC4000020000C004008B50A481E
:100C08000A4B03604FF4E133436000238360C36001
:100C180003610C2242618361C36101F0FFFB00B9EB
:100C280008BDFFF761FBFBE77402002000100140DC
:100C380008B50A480A4B03604FF4E13343600023C8
:100C48008360C36003610C2242618361C36101F068
:100C5800E5FB00B908BDFFF747FBFBE72C020020C6
:100C68000044004010B58AB000230593069307930B
:100C78000893099303682F4A934204D02E4A93425B
:100C88002DD00AB010BD002401942C4B5A6C42F0B0
:100C980010025A645A6C02F010020192019A0294EE
:100CA8001A6B42F001021A631B6B03F001030293F3
:100CB800029B4FF4C0630593022306930323089312
:100CC8000723099305A91E4800F0BAFC22462146CD
:100CD800252000F063FE252000F070FED1E70024F7
:100CE8000394164B1A6C42F400321A641A6C02F41C
:100CF80000320392039A04941A6B42F001021A63B9
:100D08001B6B03F001030493049B0C23059302233C
:100D18000693032308930723099305A9084800F0BD
:100D28008FFC22462146262000F038FE262000F0BF
:100D380045FEA6E70010014000440040003802408C
:100D480000000240FEE7FEE7FEE7FEE7FEE7704729
:100D58007047704708B500F089FE08BD08B502481D
:100D680000F063FF08BD00BFE401002008B5024899
:100D780000F05BFF08BD00BF9C01002008B50248D9
:100D880000F053FF08BD00BF5401002008B5024819
:100D980000F04BFF08BD00BF0C01002008B5024859
:100DA80001F0F8FB08BD00BF7402002008B5024836
:100DB80001F0F0FB08BD00BF2C02002008B5024876
:100DC80000F033FF08BD00BFC400002082B000213E
:100DD80000910B4B5A6C42F480425A645A6C02F4EC
:100DE80080420092009A01911A6C42F080521A6473
:100DF8001B6C03F080530193019B02B0704700BF46
:100E080000380240002800F0CC8070B5044690F805
:100E18003D30002B77D0242384F83D3022681368B6
:100E280023F0010313602268136843F4004313603E
:100E38002268136823F40043136000F0E1FB626842
:100E48005A4B9A4264D85A4B98428CBF00230123CC
:100E5800002B40F0A8805749A1FB00318B0C256876
:100E68006A6822F03F0242EA91426A6021680A6A8F
:100E780022F03F0266684D4DAE424FD8013313430E
:100E88000B622168CA6922F44F4222F0FF026568AA
:100E9800464B9D424CD8431E6D00B3FBF5F301331E
:100EA80040F6FC70034278D0C3F30B031A43CA61BF
:100EB80021680B6823F0C003E269206A02431343E8
:100EC8000B6021688B6823F4034323F0FF03226936
:100ED800E068024313438B602168CB6823F0FF036B
:100EE8006269A06902431343CB602268136843F028
:100EF8000103136000202064202384F83D30206320
:100F080084F83E0070BD80F83C30FFF705FB82E7AF
:100F1800294B98428CBF0023012399E74FF496751B
:100F280005FB03F3254DA5FB03539B090133A6E7F6
:100F3800A668BEB9431E05EB450CB3FBFCF30133B1
:100F4800C3F30B03B3FA83F35B0943BBC6B9431E70
:100F580005EB4505B3FBF5F30133C3F30B0343F48A
:100F68000043A3E7431E05EB850C0CEB8C0CB3FB8D
:100F7800FCF30133C3F30B03B3FA83F35B09E4E730
:100F8800431E05EB850505EB8505B3FBF5F301333A
:100F9800C3F30B0343F4404388E7042386E70123A4
:100FA80084E7012070470120ACE700BFA08601005C
:100FB8007F841E0083DE1B43FF083D00D34D621073
:100FC800002800F0E08170B582B00446036813F091
:100FD800010F3BD09F4B9B6803F00C03042B2CD0D4
:100FE8009C4B9B6803F00C03082B21D06368B3F576
:100FF800803F4FD0B3F5A02F52D0964B1A6822F4F9
:1010080080321A601A6822F480221A606368002B02
:1010180050D000F037FD05468E4B1B6813F4003F97
:1010280014D100F02FFD401B6428F5D90320B1E14D
:10103800884B5B6813F4800FD8D0864B1B6813F479
:10104800003F03D06368002B00F09F81236813F0F2
:10105800020F54D07F4B9B6813F00C0F3ED07D4B92
:101068009B6803F00C03082B33D0E368002B68D08F
:10107800794B01221A6000F005FD0546754B1B6887
:1010880013F0020F54D100F0FDFC401B0228F5D9E3
:1010980003207FE16F4A136843F480331360B5E798
:1010A8006C4B1A6842F480221A601A6842F4803243
:1010B8001A60ABE700F0E6FC0546664B1B6813F4C4
:1010C800003FC3D000F0DEFC401B6428F5D90320A4
:1010D80060E1604B5B6813F4800FC6D15D4B1B6801
:1010E80013F0020F03D0E368012B40F05081594AF6
:1010F800136823F0F803216943EAC10313602368E6
:1011080013F0080F42D063696BB3534B0122C3F845
:10111800802E00F0B7FC05464E4B5B6F13F0020FB4
:1011280034D100F0AFFC401B0228F5D9032031E18F
:10113800484A136823F0F803216943EAC10313609E
:10114800DDE7454B00221A6000F09CFC0546414B48
:101158001B6813F0020FD2D000F094FC401B022849
:10116800F5D9032016E13C4B0022C3F8802E00F08D
:1011780089FC0546374B5B6F13F0020F06D000F071
:1011880081FC401B0228F5D9032003E1236813F0F2
:10119800040F77D02F4B1B6C13F0805F33D10023E3
:1011A80001932C4B1A6C42F080521A641B6C03F0AA
:1011B80080530193019B0125284B1B6813F4807F02
:1011C80023D0A368012B34D0052B38D0214B1A6FBC
:1011D80022F001021A671A6F22F004021A67A36844
:1011E800002B3DD000F04EFC06461A4B1B6F13F047
:1011F800020F46D100F046FC801B41F2883398422A
:10120800F3D90320C6E00025D6E7144A136843F44F
:101218008073136000F036FC0646104B1B6813F40D
:10122800807FCED100F02EFC801B0228F5D9032048
:10123800B0E0084A136F43F001031367CFE7054B8B
:101248001A6F42F004021A671A6F42F001021A6715
:10125800C5E700BF00380240000047420070004068
:1012680000F010FC0646524B1B6F13F0020F08D01B
:1012780000F008FC801B41F288339842F3D9032020
:1012880088E0EDB9A369002B00F08380484A926892
:1012980002F00C02082A51D0022B17D0454B00222D
:1012A8001A6600F0EFFB0446414B1B6813F0007F01
:1012B80042D000F0E7FB001B0228F5D9032069E0C3
:1012C8003B4A136C23F080531364DBE7394B00224D
:1012D8001A6600F0D7FB0546354B1B6813F0007FF4
:1012E80006D000F0CFFB401B0228F5D9032051E0BF
:1012F800E369226A1343626A43EA8213A26A5208C4
:10130800013A43EA0243E26A43EA0263284A536025
:10131800284B01221A6600F0B5FB0446244B1B68D3
:1013280013F0007F06D100F0ADFB001B0228F5D9B1
:1013380003202FE000202DE000202BE0012B2BD0F4
:101348001B4B5B6803F48001E269914226D103F0EC
:101358003F02216A8A4223D1616A47F6C0721A4065
:10136800B2EB811F1ED103F44031A26A5208013A40
:10137800B1EB024F18D103F07063E26AB3EB026F6E
:1013880014D1002006E001207047012002E001206E
:1013980000E0002002B070BD0120FBE70120F9E762
:1013A8000120F7E70120F5E70120F3E70120F1E745
:1013B800003802400000474208B5334B9B6803F0F1
:1013C8000C03042B5BD0082B5BD12F4B5A6802F01F
:1013D8003F025B6813F4800F2CD02B4B5868C0F386
:1013E80088104FEA401CBCEB000C6EEB0E0E4FEA67
:1013F8008E1343EA9C634FEA8C11B1EB0C0163EB4B
:101408000E03DB0043EA5173C90011EB000C43F1F2
:101418000003590200234FEA4C2041EADC51FEF751
:1014280029FF194B5B68C3F3014301335B00B0FB31
:10143800F3F008BD144B5868C0F388104FEA401CFD
:10144800BCEB000C6EEB0E0E4FEA8E1343EA9C6366
:101458004FEA8C11B1EB0C0163EB0E03DB0043EA9E
:101468005173C90011EB000C43F1000399020023EA
:101478004FEA8C2041EA9C51FEF7FCFED1E7034875
:10148800D7E70348D5E700BF0038024000127A00CA
:101498000024F400002800F09B8070B50D46044637
:1014A8004F4B1B6803F007038B4208D2CBB24C4A60
:1014B8001370136803F007038B4240F08B80236896
:1014C80013F0020F17D013F0040F04D0454A9368A5
:1014D80043F4E0539360236813F0080F04D0414AA3
:1014E800936843F4604393603E4A936823F0F003A3
:1014F800A1680B439360236813F0010F32D063682F
:10150800012B21D09A1E012A25D9364A126812F0D9
:10151800020F61D033498A6822F0030213438B60BB
:1015280000F0B0FA06462F4B9B6803F00C03626884
:10153800B3EB820F16D000F0A5FA801B41F2883376
:101548009842F0D9032042E0264A126812F4003F7C
:10155800E0D101203BE0234A126812F0007FD9D184
:10156800012034E01E4B1B6803F00703AB4207D988
:10157800EAB21B4B1A701B6803F00703AB422DD16C
:10158800236813F0040F06D0164A936823F4E05337
:10159800E1680B439360236813F0080F07D0114AE2
:1015A800936823F46043216943EAC1039360FFF71A
:1015B80003FF0C4B9B68C3F303130B4AD35CD8405F
:1015C8000A4B18600A4B186800F010FA002070BD2A
:1015D800012070470120FAE70120F8E70120F6E72B
:1015E800003C024000380240642B0008080000203C
:1015F80004000020014B1868704700BF0800002055
:1016080008B5FFF7F7FF044B9B68C3F38223034A2F
:10161800D35CD84008BD00BF003802405C2B0008EE
:1016280008B5FFF7E7FF044B9B68C3F34233034A4F
:10163800D35CD84008BD00BF003802405C2B0008CE
:1016480000230F2B00F2E98070B582B065E0856851
:101658004FEA430E032404FA0EF425EA0405CC6885
:1016680004FA0EF42C438460446824EA02044A68AD
:10167800C2F300129A40224342605CE0DC0808345E
:1016880050F8242003F00705AD004FF00F0E0EFAB6
:1016980005FE22EA0E0E0A69AA4042EA0E0240F846
:1016A80024205CE0072200E0002202FA0EF22A431E
:1016B80002345A4D45F82420594A94686FEA0C02BE
:1016C80024EA0C054E6816F4801F01D04CEA040584
:1016D800534CA560E46802EA04054E6816F4001F3E
:1016E80001D04CEA04054E4CE560646802EA040542
:1016F8004E6816F4003F01D04CEA0405484C65607A
:10170800246822404D6815F4803F01D04CEA040259
:10171800434C226001330F2B7DD801229A400C687C
:1017280004EA020C32EA0404F4D14C6804F003041D
:10173800013C012C8BD94A6802F00302032A09D024
:10174800C4685D000322AA4024EA02048A68AA4009
:101758002243C2604A6802F00302022A8ED004685B
:101768004FEA430E032202FA0EF224EA02044A6800
:1017780002F0030202FA0EF2224302604A6812F4EF
:10178800403FC7D000220192264A546C44F480445A
:101798005464526C02F480420192019A9C08A51C80
:1017A8001E4A52F8255003F0030E4FEA8E0E0F2200
:1017B80002FA0EF225EA02051B4A90423FF474AF82
:1017C80002F5806290421AD002F58062904218D0E9
:1017D80002F58062904216D002F58062904214D0E1
:1017E80002F58062904212D002F58062904210D0D9
:1017F80002F5806290423FF455AF082255E7012276
:1018080053E7022251E703224FE704224DE705225E
:101818004BE7062249E702B070BD70470038014027
:10182800003C014000380240000002400AB18161DA
:10183800704709048161704770B50446866D00F0F1
:1018480021F994F83530DBB2022B06D0802363658A
:10185800002384F83430012070BD054622681368DF
:1018680023F0160313602268536923F08003536141
:10187800236CE3B12268136823F00803136022681D
:10188800136823F00103136023681B6813F0010F2A
:1018980011D000F0F7F8431B052BF5D92023636519
:1018A800032084F83500002384F83430D4E7A36C8F
:1018B800002BDFD1E3E7E26D3F239340B3600123C0
:1018C80084F83530002084F83400C5E790F83530C6
:1018D800DBB2022B03D08023436501207047052328
:1018E80080F835300268136823F001031360002084
:1018F80070470000002807DB00F01F0240090123A1
:101908009340024A42F82030704700BF00E100E0EF
:10191800002808DB0901C9B200F1604000F5614008
:1019280080F80013704700F00F000901C9B2014B9D
:101938001954704714ED00E000B500F00700C0F13D
:10194800070CBCF1040F28BF4FF0040C031D062B35
:101958000FD9C31E4FF0FF3E0EFA0CF021EA00012A
:1019680099400EFA03FE22EA0E0241EA02005DF8EF
:1019780004FB0023EEE70000074AD36823F4E06382
:101988001B041B0C000200F4E060034343F0BF6338
:1019980043F40033D360704700ED00E010B504460F
:1019A800054BD868C0F30220FFF7C6FF0146204662
:1019B800FFF7AEFF10BD00BF00ED00E008B5FFF770
:1019C80099FF08BD0138B0F1807F0BD24FF0E023BA
:1019D8005861054AF02182F82310002098610722F7
:1019E8001A6170470120704700ED00E010B5044609
:1019F8000E4B1A784FF47A73B3FBF2F30C4A106863
:101A0800B0FBF3F0FFF7DEFF68B90F2C01D9012016
:101A18000AE0002221464FF0FF30FFF7BFFF054BD9
:101A28001C60002000E0012010BD00BF0000002065
:101A3800080000200400002008B50B4B1A6842F487
:101A480000721A601A6842F480621A601A6842F4D6
:101A580080721A600320FFF78FFF0F20FFF7C6FF81
:101A6800FFF7B4F9002008BD003C0240034A1168A2
:101A7800034B1B780B441360704700BFBC02002067
:101A880000000020014B1868704700BFBC0200200E
:101A980030B4036A026A22F0010202624268846971
:101AA80024F0730C0C6844EA0C0423F0020C8B68D5
:101AB80043EA0C03114DA84203D005F58065A842FE
:101AC80005D123F00803CD682B4323F004030B4D05
:101AD800A84203D005F58065A84207D122F44072D8
:101AE8004D6945EA020C8A6942EA0C024260846147
:101AF8004A684263036230BC704700BF000001407F
:101B080030B4036A026A22F4807202624268C469CD
:101B180024F0730C0C6844EA0C0523F400738C68F9
:101B280043EA0423114CA04203D004F58064A04288
:101B380006D123F40063CC6843EA042323F48063CA
:101B48000A4CA04203D004F58064A04207D122F4D5
:101B580040524C6942EA04128C6942EA041242601B
:101B6800C5614A68C263036230BC70470000014027
:101B780030B4036A026A22F4805202624468C2697D
:101B880022F4E6420D6842EA052223F400538D68E8
:101B980043EA0533094DA84203D005F58065A842FC
:101BA80004D124F480444D6944EA85144460C26138
:101BB8004A680264036230BC704700BF00000140FD
:101BC80010B4036A046A24F001040462846924F0EE
:101BD800F00C4CEA021223F00A030B438261036201
:101BE8005DF8044B704710B4036A046A24F01004CB
:101BF8000462846924F4704C4CEA023223F0A00396
:101C080043EA0113826103625DF8044B70478368FD
:101C180023F070030B4343F007038360704770475A
:101C28007047704770477047704770B5044603683F
:101C3800DE681D6915F0020F10D016F0020F0DD0E6
:101C48006FF002021A610123037703689B6913F09E
:101C5800030F5ED0FFF7E6FF0023237715F0040F8C
:101C680012D016F0040F0FD023686FF004021A6127
:101C78000223237723689B6913F4407F4FD02046C3
:101C8800FFF7D0FF0023237715F0080F12D016F0C6
:101C9800080F0FD023686FF008021A610423237716
:101CA8002368DB6913F0030F40D02046FFF7BAFF23
:101CB8000023237715F0100F12D016F0100F0FD055
:101CC80023686FF010021A61082323772368DB6901
:101CD80013F4407F31D02046FFF7A4FF0023237779
:101CE80015F0010F02D016F0010F2DD115F0800F5D
:101CF80002D016F0800F2FD115F0400F02D016F049
:101D0800400F31D115F0200F02D016F0200F33D13B
:101D180070BDFFF786FF2046FFF785FF9CE720464A
:101D2800FFF77FFF2046FFF77EFFABE72046FFF770
:101D380078FF2046FFF777FFBAE72046FFF771FFE5
:101D48002046FFF770FFC9E723686FF001021A61A8
:101D58002046FFF765FFC9E723686FF080021A6124
:101D6800204600F073FAC7E723686FF040021A6153
:101D78002046FFF759FFC5E723686FF020021A6174
:101D8800204600F062FAC3E70368324A904212D054
:101D9800B0F1804F0FD0A2F57C4290420BD002F5F3
:101DA8008062904207D002F58062904203D002F52B
:101DB8007842904203D123F070034A681343254ABE
:101DC80090422AD0B0F1804F27D0A2F57C429042B1
:101DD80023D002F5806290421FD002F580629042C3
:101DE8001BD002F57842904217D002F5705290420B
:101DF80013D002F5806290420FD002F580629042C3
:101E08000BD0A2F59832904207D002F5806290423A
:101E180003D002F58062904203D123F44073CA686C
:101E2800134323F080034A6913438A68C2620A682D
:101E38008262084A904203D002F58062904201D142
:101E48000A690263026842F00402026001224261E8
:101E5800036070470000014040B310B5044690F895
:101E68003D30F3B1022384F83D30214651F8040B8C
:101E7800FFF78AFF012384F8463084F83E3084F85F
:101E88003F3084F8403084F8413084F8423084F898
:101E9800433084F8443084F8453084F83D300020DD
:101EA80010BD80F83C30FEF797FBDBE70120704758
:101EB80040B310B5044690F83D30F3B1022384F8DE
:101EC8003D30214651F8040BFFF75EFF012384F8EB
:101ED800463084F83E3084F83F3084F8403084F847
:101EE800413084F8423084F8433084F8443084F830
:101EF800453084F83D30002010BD80F83C30FFF7B5
:101F08008EFEDBE70120704730B4036A026A22F0D4
:101F1800100202624468826922F4E6420D6842EACD
:101F2800052223F020038D6843EA0513114DA842CA
:101F380003D005F58065A84206D123F08003CD685B
:101F480043EA051323F040030A4DA84203D005F5E0
:101F58008065A84207D124F440644D6944EA8504A9
:101F68008D6944EA8504446082614A688263036239
:101F780030BC70470000014038B590F83C30012B68
:101F880066D004460D46012380F83C300C2A5AD806
:101F9800DFE802F0075959591B595959305959590D
:101FA80044000068FFF774FD2268936943F0080352
:101FB80093612268936923F004039361226893690B
:101FC80029690B43936100203EE00068FFF79CFFFE
:101FD8002268936943F4006393612268936923F448
:101FE8008063936122689369296943EA01239361B5
:101FF800002029E00068FFF783FD2268D36943F0D9
:102008000803D3612268D36923F00403D3612268EB
:10201800D36929690B43D361002015E00068FFF7F5
:10202800A7FD2268D36943F40063D3612268D369AA
:1020380023F48063D3612268D369296943EA0123C1
:10204800D361002000E00120002384F83C3038BD33
:102058000220FCE710B4846824F47F4C42EA03228F
:102068000A4342EA0C0282605DF8044B704790F81C
:102078003C30012B78D010B50446012380F83C3061
:10208800022380F83D300268936823F47F4323F0ED
:10209800770393600B68602B4CD023D8402B54D027
:1020A80011D8202B03D00AD80BB1102B05D1194613
:1020B8002068FFF7ACFD002028E0012026E0302B47
:1020C800F5D0012022E0502B0AD1CA68496800687F
:1020D800FFF776FD50212068FFF799FD002015E0F5
:1020E800012013E0B3F5805F3AD0B3F5005F14D058
:1020F800702B37D1CB684A6889680068FFF7AAFF58
:102108002268936843F0770393600020012384F8E2
:102118003D30002384F83C3010BDCB684A6889689C
:102128000068FFF797FF2268936843F48043936041
:102138000020EBE7CA6849680068FFF754FD602192
:102148002068FFF764FD0020E0E7CA684968006876
:10215800FFF736FD40212068FFF759FD0020D5E73D
:102168000020D3E70120D1E70220704790F83C20F7
:10217800012A3DD010B40346012280F83C200222F7
:1021880080F83D2002685068946820F0700C086858
:1021980040EA0C0050601A68164882421AD0B2F120
:1021A800804F17D0A0F57C40824213D000F58060A4
:1021B80082420FD000F5806082420BD000F5784053
:1021C800824207D000F57050824203D0A0F59430C7
:1021D800824204D124F0800449682143916001229D
:1021E80083F83D20002083F83C005DF8044B7047DD
:1021F8000220704700000140024690F83C30012B55
:1022080021D0012380F83C30CB6823F440738868E0
:10221800034323F480634868034323F40063086896
:10222800034323F480530869034323F400534869A4
:10223800034323F48043C9690B4311684B640020AE
:1022480082F83C0070470220704770477047026868
:1022580002F10C0353E8003F23F490730C3242E878
:1022680000310029F3D1026802F1140353E8003F5A
:1022780023F00103143242E800310029F3D1036B43
:10228800012B05D0202380F84230002303637047D8
:10229800026802F10C0353E8003F23F010030C32EC
:1022A80042E800310029F3D1ECE790F84130DBB285
:1022B800212B01D0022070478368B3F5805F17D0C7
:1022C800036A5A1C02621A7803685A60C38C9BB26C
:1022D800013B9BB2C3844BB90268D36823F08003E7
:1022E800D3600268D36843F04003D360002070478E
:1022F8000369002BE4D1036A1B880268C3F308034F
:102308005360036A02330362E0E7000010B5044635
:102318000268136923F44053C1680B43136183684F
:1023280002691A4343691A43C3691A430168CB68AF
:1023380023F4164323F00C031343CB60026853695C
:1023480023F4407381690B4353610368314A934214
:1023580006D002F58062934202D0FFF751F901E0FE
:10236800FFF75EF9E369B3F5004F29D000210318A0
:1023780049411B1841F10001C90041EA5371DB00D2
:10238800181863684FEA83024FEA937341F100011A
:10239800FDF770FF204AA2FB00314909642303FBC3
:1023A80011031B013233A2FB03235B0903F0F00284
:1023B80002EB011203F00F03216813448B6010BD78
:1023C8000023021843EB0301121841F10001C90070
:1023D80041EA5271D200101841F100016268921866
:1023E8005B41FDF747FF0C4AA2FB00314909642312
:1023F80003FB1103DB003233A2FB03235B095A0002
:1024080002F4F87202EB011203F007032168134487
:102418008B60D4E7001001401F85EB5160B310B505
:10242800044690F8413013B3242384F841302268DD
:10243800D36823F40053D3602046FFF767FF226870
:10244800136923F4904313612268536923F02A0324
:1024580053612268D36843F40053D360002060645A
:10246800202384F8413084F84230606310BD80F83E
:102478004030FEF7F7FBD7E701207047704708B5F3
:102488000168CA6822F04002CA60202280F8412010
:10249800FFF7F4FF002008BD7047704708B5806B50
:1024A8000023C385FFF7F9FF08BD704790F8423055
:1024B800DBB2222B69D18368B3F5805F4FD0826A83
:1024C800B3F5805F04D0002B56D10369002B53D19C
:1024D80003685B681370836A01338362C38D9BB2A0
:1024E800013B9BB2C385002B51D100B583B0026874
:1024F800D36823F02003D3600268D36823F4807381
:10250800D3600268536923F001035361202380F8E4
:10251800423000234363036B012B33D10023036351
:10252800026802F10C0353E8003F23F010030C3259
:1025380042E800310029F3D103681A6812F0100F3D
:1025480006D0002201921A6801925B680193019BF0
:10255800818DFFF7AAFF002003B05DF804FB026934
:10256800002AACD1826A03685B68C3F3080313804E
:10257800836A02338362B1E703685B6803F07F0311
:102588001370A8E7FFF788FFE5E7022070470020EF
:102598007047000010B582B0044602681368D0681E
:1025A800516913F00F0F09D113F0200F0CD010F060
:1025B800200F09D02046FFF779FF16E011F001013E
:1025C80015D110F4907F12D1216B012979D013F025
:1025D800800F03D010F0800F40F0218113F0400FDE
:1025E80003D010F0400F40F01E8102B010BD13F070
:1025F800010F06D010F4807F03D0626C42F0010214
:10260800626413F0040F04D019B1626C42F0020244
:10261800626413F0020F04D019B1626C42F0040234
:10262800626413F0080F07D010F0200F00D119B121
:10263800626C42F008026264626C002AD5D013F022
:10264800200F02D010F0200F29D123685B6903F016
:102658004003626C12F0080F00D163B32046FFF705
:10266800F6FD23685B6913F0400F20D0226802F161
:10267800140353E8003F23F04003143242E80031CA
:102688000029F3D1E36B73B1694A1A65E06BFFF770
:102698001DF90028A9D0E06B036D9847A5E72046EF
:1026A800FFF704FFD1E72046FFF7F7FE9DE7204636
:1026B800FFF7F3FE99E72046FFF7EFFE0023636478
:1026C80093E713F0100F82D010F0100F3FF47FAF94
:1026D800002301931368019353680193019B536985
:1026E80013F0400F5FD0E26B13685B689BB2002B5E
:1026F8004AD0A18D994247D9E385D369B3F5807F44
:1027080037D0226802F10C0353E8003F23F48073AA
:102718000C3242E800310029F3D1226802F1140397
:1027280053E8003F23F00103143242E80031002946
:10273800F3D1226802F1140353E8003F23F0400369
:10274800143242E800310029F3D1202384F84230C2
:1027580000232363226802F10C0353E8003F23F0AF
:1027680010030C3242E800310029F3D1E06BFFF787
:1027780063F802236363A18DE38D9BB2C91A89B202
:102788002046FFF792FE30E7A18D99427FF42DAFE6
:10279800D369B3F5807F7FF428AF022363632046B3
:1027A800FFF783FE21E7A18DE38D9BB2C91A89B299
:1027B800E38D9BB2002B3FF418AF00293FF415AF0F
:1027C800226802F10C0353E8003F23F490730C32A3
:1027D80042E800300028F3D1226802F1140353E8DC
:1027E800003F23F00103143242E800300028F3D1FF
:1027F800202384F8423000232363226802F10C036B
:1028080053E8003F23F010030C3242E80030002860
:10281800F3D1022363632046FFF747FEE5E620462F
:10282800FFF743FDE1E62046FFF729FEDDE600BF9E
:10283800A5240008034AD2F8883043F47003C2F88C
:102848008830704700ED00E0DFF834D0FFF7F2FF82
:102858000C480D490D4A002302E0D458C4500433F3
:10286800C4188C42F9D30A4A0A4C002301E01360C9
:102878000432A242FBD3FDF7D5FCFDF787FD704774
:1028880000000220000000200C000020842B00081B
:102898000C000020C0020020FEE72DE9F047864624
:1028A8008C460846089E154674461946002B40F08B
:1028B800C2808542B2FA82F245D94AB1C2F12003F8
:1028C80000FA02FC2EFA03F3954043EA0C0C9440FC
:1028D8004FEA154EA8B2BCFBFEF8230C0EFB18CC31
:1028E80008FB00F943EA0C43994528D9EB1808F18D
:1028F800FF3704D2994502D9A8F102072B44A3EB6C
:102908000903A4B2B3FBFEFC0EFB1C330CFB00F066
:1029180044EA0344A04214D92C190CF1FF3304D221
:10292800A04202D9ACF102032C44241A43EA07401E
:102938001EB1D440002334607360BDE8F087474679
:10294800DDE76346F1E792BB431B01214FEA154ED1
:10295800AFB2B3FBFEFC200C0EFB1C330CFB07F8DC
:1029680040EA0343984562D9EB180CF1FF3004D2D2
:10297800984502D9ACF102002B44A3EB0803A4B29A
:10298800B3FBFEFC0EFB1C330CFB07F744EA0344C5
:10299800A7424ED92C190CF1FF3304D2A74202D911
:1029A800ACF102032C44E41B43EA0040C0E7C2F147
:1029B800200320FA03F1954090402EFA03F30343D5
:1029C8004FEA154EAFB2B1FBFEFC0EFB1C10190C02
:1029D8000CFB07F841EA0041884504FA02F422D9C1
:1029E80069180CF1FF3004D2884502D9ACF1020015
:1029F8002944A1EB08019BB2B1FBFEFC0EFB1C11A4
:102A08000CFB07F743EA01439F420ED9EB180CF180
:102A1800FF3104D29F4202D9ACF102012B44DB1BE7
:102A280041EA004192E76046E3E76146F7E760461E
:102A3800A3E76346B7E7834206D916B900210846DB
:102A48007BE7C6E900E0F9E7B3FA83F78FB9834279
:102A580001D3724508D8BEEB020460EB03030120E2
:102A68009C461EB9002168E73846FAE7C6E9004CDB
:102A7800F8E7C7F1200CBB4022FA0CF41C432EFAED
:102A88000CF120FA0CF3B84001434FEA14490EFA4E
:102A980007F5B3FBF9F81FFA84FE09FB18300B0C95
:102AA80008FB0EFA43EA00439A4502FA07F240D9B6
:102AB800E31808F1FF3004D29A4502D9A8F10200C0
:102AC8002344A3EB0A0389B2B3FBF9F809FB1833D3
:102AD80008FB0EFE41EA03418E452CD9611808F126
:102AE800FF3304D28E4502D9A8F10203214443EAF8
:102AF8000040A0FB0298A1EB0E014145CE4643469B
:102B080002D306D14D4504D2B9EB020E68EB04039B
:102B18000138002EA6D0B5EB0E0261EB030101FAD5
:102B28000CFC22FA07F34CEA0303F940C6E900312A
:102B380098E74046C5E74346D9E70000F8B500BF27
:102B4800F8BC08BC9E467047F8B500BFF8BC08BC86
:042B58009E467047DE
:102B5C00000000000102030400000000000000005F
:082B6C00010203040607080939
:082B74002EFDFF7F01000000AF
:042B7C00D502000876
:042B8000B102000896
:0C2B840001000000100000000024F4001C
:040000050800285176
:00000001FF
