:020000040800F2
:1000000000000220254700080D0900080F0900081C
:100010001109000813090008150900080000000074
:1000200000000000000000000000000017090008A8
:1000300019090008000000001B0900081D0900083C
:1000400075470008754700087547000875470008A0
:100050007547000875470008754700087547000890
:100060007547000875470008754700087547000880
:100070007547000875470008754700087547000870
:100080007547000875470008754700087547000860
:100090007547000875470008754700087547000850
:1000A0007547000875470008754700087547000840
:1000B0007547000875470008754700087547000830
:1000C0007547000875470008754700087547000820
:1000D000754700082509000835090008754700081C
:1000E0007547000875470008754700087547000800
:1000F00075470008754700087547000875470008F0
:1001000075470008754700087547000875470008DF
:1001100075470008754700087547000875470008CF
:10012000754700087547000845090008754700082D
:1001300075470008754700087547000875470008AF
:10014000754700087547000875470008754700089F
:10015000754700087547000875470008754700088F
:10016000754700087547000875470008754700087F
:100170007547000875470008754700080000000033
:080180007547000875470008EF
:10018800830730B547D0541E002A3ED0CAB2034672
:1001980001E0013C39D303F8012B9D07F9D1032C69
:1001A8002CD9CDB205EB05250F2C05EB054535D926
:1001B800A4F1100222F00F0C03F1100EE6444FEAEE
:1001C800121C1A46156055609560D560103272454C
:1001D800F8D10CF1010214F00C0F03EB021204F039
:1001E8000F0C13D0ACF1040323F0030304331344BE
:1001F80042F8045B9A42FBD10CF003042CB1C9B25B
:100208001C4403F8011B9C42FBD130BD64461346D5
:10021800002CF4D1F9E703461446C0E71A46A44671
:10022800E0E700BF70B50F4B0F4DAB42A3EB0506DF
:1002380007D0B610002455F8043B01349847A6426D
:10024800F9D804F0E5FB094D094B5E1BAB424FEAB8
:10025800A60606D0002455F8043B01349847A64268
:10026800F9D870BD304C0008304C0008304C0008FC
:10027800344C000870B54FF0FF0C4CF4E06C1CEAED
:1002880011541DBF1CEA135594EA0C0F95EA0C0F84
:1002980000F0DEF82C4481EA030621EA4C5123EAF7
:1002A8004C5350EA013518BF52EA033541F4801126
:1002B80043F4801338D0A0FB02CE4FF00005E1FBD9
:1002C80002E506F00042E0FB03E54FF00006E1FB23
:1002D80003569CF0000F18BF4EF0010EA4F1FF0466
:1002E800B6F5007F64F5407404D25FEA4E0E6D41A6
:1002F80046EB060642EAC62141EA55514FEAC520B7
:1003080040EA5E504FEACE2EB4F1FD0C88BFBCF532
:10031800E06F1ED8BEF1004F08BF5FEA500E50F1E3
:10032800000041EB045170BD06F0004646EA0101A9
:1003380040EA020081EA0301B4EB5C04C2BFD4EBDB
:100348000C0541EA045170BD41F480114FF0000ED4
:10035800013C00F3AB8014F1360FDEBF002001F042
:10036800004170BDC4F10004203C35DA0C341BDCBC
:1003780004F11404C4F1200500FA05F320FA04F08E
:1003880001FA05F240EA020001F0004221F00041C2
:1003980010EBD37021FA04F642EB06015EEA430E35
:1003A80008BF20EAD37070BDC4F10C04C4F1200565
:1003B80000FA04F320FA05F001FA04F240EA020018
:1003C80001F0004110EBD37041F100015EEA430EE9
:1003D80008BF20EAD37070BDC4F1200500FA05F209
:1003E8004EEA020E20FA04F301FA05F243EA020388
:1003F80021FA04F001F0004121FA04F220EA020097
:1004080000EBD3705EEA430E08BF20EAD37070BDDC
:1004180094F0000F0FD101F00046400041EB0101BC
:1004280011F4801F08BF013CF7D041EA060195F09E
:10043800000F18BF704703F00046520043EB030358
:1004480013F4801F08BF013DF7D043EA0603704745
:1004580094EA0C0F0CEA135518BF95EA0C0F0CD050
:1004680050EA410618BF52EA4306D1D181EA030196
:1004780001F000414FF0000070BD50EA410606BF90
:100488001046194652EA430619D094EA0C0F02D1D5
:1004980050EA013613D195EA0C0F05D152EA03361A
:1004A8001CBF104619460AD181EA030101F0004138
:1004B80041F0FE4141F470014FF0000070BD41F081
:1004C800FE4141F4780170BD81F0004102E000BFB7
:1004D80083F0004330B54FEA41044FEA430594EAFC
:1004E800050F08BF90EA020F1FBF54EA000C55EA37
:1004F800020C7FEA645C7FEA655C00F0E2804FEA08
:100508005454D4EB5555B8BF6D420CDD2C4480EAE9
:10051800020281EA030382EA000083EA010180EA19
:10052800020281EA0303362D88BF30BD11F0004F67
:100538004FEA01314FF4801C4CEA113102D040429D
:1005480061EB410113F0004F4FEA03334CEA1333D8
:1005580002D0524263EB430394EA050F00F0A780F0
:10056800A4F10104D5F1200E0DDB02FA0EFC22FAEB
:1005780005F2801841F1000103FA0EF2801843FADF
:1005880005F359410EE0A5F120050EF1200E012AD0
:1005980003FA0EFC28BF4CF0020C43FA05F3C0180E
:1005A80051EBE37101F0004507D54FF0000EDCF187
:1005B800000C7EEB00006EEB0101B1F5801F1BD330
:1005C800B1F5001F0CD349085FEA30004FEA3C0C34
:1005D80004F101044FEA445212F5800F80F09A802A
:1005E800BCF1004F08BF5FEA500C50F1000041EB2E
:1005F800045141EA050130BD5FEA4C0C404141EB32
:100608000101013C28BFB1F5801FE9D291F0000F2C
:1006180004BF01460020B1FA81F308BF2033A3F1DB
:100628000B03B3F120020CDA0C3208DD02F1140CD2
:10063800C2F10C0201FA0CF021FA02F10CE002F10D
:100648001402D8BFC2F1200C01FA02F120FA0CFC06
:10065800DCBF41EA0C019040E41AA2BF01EB04514F
:10066800294330BD6FEA04041F3C1CDA0C340EDC4D
:1006780004F11404C4F1200220FA04F001FA02F390
:1006880040EA030021FA04F345EA030130BDC4F14E
:100698000C04C4F1200220FA02F001FA04F340EA43
:1006A8000300294630BD21FA04F0294630BD94F0F4
:1006B800000F83F4801306BF81F480110134013DDB
:1006C8004EE77FEA645C18BF7FEA655C29D094EA4C
:1006D800050F08BF90EA020F05D054EA000C04BFCA
:1006E8001946104630BD91EA030F1EBF00210020B5
:1006F80030BD5FEA545C05D14000494128BF41F054
:10070800004130BD14F580043CBF01F5801130BDB7
:1007180001F0004545F0FE4141F470014FF0000042
:1007280030BD7FEA645C1ABF194610467FEA655CF3
:100738001CBF0B46024650EA013406BF52EA033595
:1007480091EA030F41F4002130BD00BF90F0000F83
:1007580004BF0021704730B54FF4806404F13204BF
:100768004FF000054FF0000150E700BF90F0000F78
:1007780004BF0021704730B54FF4806404F132049F
:1007880010F0004548BF40424FF000013EE700BF6F
:1007980042004FEAE2014FEA31014FEA02701FBFFF
:1007A80012F07F4393F07F4F81F06051704732F031
:1007B8007F4208BF704793F07F4F04BF41F4002188
:1007C800704730B54FF4607401F0004521F00041E6
:1007D8001CE700BF50EA010208BF704730B54FF070
:1007E80000050AE050EA010208BF704730B511F071
:1007F800004502D5404261EB41014FF4806404F1A9
:1008080032045FEA915C3FF4D8AE4FF003025FEA2E
:10081800DC0C18BF03325FEADC0C18BF033202EBB2
:10082800DC02C2F1200300FA03FC20FA02F001FA0C
:1008380003FE40EA0E0021FA02F11444BDE600BFAF
:100848004FEA410212F5001215D211D56FF47873F0
:10085800B3EB625212D94FEAC12343F0004343EA93
:10086800505311F0004F23FA02F018BF404270476E
:100878004FF00000704750EA013005D111F00040F8
:1008880008BF6FF0004070474FF00000704700BF8E
:1008980053B94AB9002908BF00281CBF4FF0FF31DF
:1008A8004FF0FF3000F00CB8ADF1080C6DE904CE44
:1008B80003F05DFFDDF804E0DDE9022304B07047D2
:1008C800704700BF10B5054C237833B9044B13B1FA
:1008D8000448AFF300800123237010BD28000020D6
:1008E80000000000184A000808B5034B1BB1034973
:1008F8000348AFF3008008BD000000002C00002072
:10090800184A0008FEE7FEE7FEE7FEE7FEE7704745
:100918007047704708B501F071FB08BD08B502487B
:1009280002F09EFD08BD00BFDC01002008B50248AA
:1009380002F096FD08BD00BF9401002008B50248EA
:1009480001F088F908BD00BF3401002082B0002101
:1009580000910B4B5A6C42F480425A645A6C02F470
:1009680080420092009A01911A6C42F080521A64F7
:100978001B6C03F080530193019B02B0704700BFCA
:1009880000380240002800F0338170B5044603683F
:10099800994A93420CD002F58062934208D002F53E
:1009A8008062934204D040F2C911944803F054F88D
:1009B8006368013B924A93426ED8A36813B1B3F5BA
:1009C800804F6FD1E368B3F5806F71D22369B3F5B7
:1009D800804F02D0B3F5404F70D16369012B73D8B3
:1009E800A36933F0FE0375D1E3690BB1402B77D1CE
:1009F800236A0BB1802B79D194F83D30002B7BD042
:100A0800242384F83D302268136823F0010313601F
:100A18002268136843F4004313602268136823F4C0
:100A28000043136000F0FCFC6268764B9A4269D878
:100A3800754B98428CBF00230123002B40F0DA80CD
:100A48007249A1FB00318B0C25686A6822F03F02CD
:100A580042EA91426A6021680A6A22F03F026668A7
:100A6800684DAE4254D8013313430B622168CA69FA
:100A780022F44F4222F0FF026568624B9D4251D832
:100A8800431E6D00B3FBF5F3013340F6FC700342DF
:100A98007ED0C3F30B037CE04FF4E571574802F0B6
:100AA800DBFF8AE740F2CB11544802F0D5FF89E713
:100AB8004FF4E671514802F0CFFF87E740F2CD11BD
:100AC8004E4802F0C9FF88E74FF4E7714B4802F03F
:100AD800C3FF85E740F2CF11484802F0BDFF83E726
:100AE8004FF4E871454802F0B7FF81E740F2D111B1
:100AF800424802F0B1FF7FE784F83C30204603F01B
:100B08008BF87DE7424B98428CBF0023012394E782
:100B18004FF4967505FB03F33E4DA5FB03539B0964
:100B28000133A1E7A668C6B9431E05EB450CB3FB24
:100B3800FCF30133C3F30B03B3FA83F35B09002B14
:100B480054D1C6B9431E05EB4505B3FBF5F3013394
:100B5800C3F30B0343F400431BE0431E05EB850C72
:100B68000CEB8C0CB3FBFCF30133C3F30B03B3FAAC
:100B780083F35B09E3E7431E05EB850505EB850574
:100B8800B3FBF5F30133C3F30B0343F4404300E035
:100B980004231A43CA6121680B6823F0C003E26981
:100BA800206A024313430B6021688B6823F40343D4
:100BB80023F0FF032269E068024313438B60216836
:100BC800CB6823F0FF036269A06902431343CB603B
:100BD8002268136843F00103136000202064202377
:100BE80084F83D30206384F83E0070BD0123D0E7CF
:100BF800012070470120F8E700540040484A0008E7
:100C08007F1A0600A08601007F841E0083DE1B4336
:100C1800FF083D00D34D6210002800F05E8270B5D9
:100C280082B0044603680F2B39D8236813F0010FEC
:100C38004DD063682BB1B3F5803F02D0B3F5A02F38
:100C480032D1804B9B6803F00C03042B36D07D4BCC
:100C58009B6803F00C03082B2BD06368B3F5803F27
:100C68005FD0B3F5A02F62D0764B1A6822F4803299
:100C78001A601A6822F480221A606368002B60D018
:100C880001F0C8F905466F4B1B6813F4003F1ED1ED
:100C980001F0C0F9401B6428F5D9032024E2E621BD
:100CA800694802F0D9FEC0E7EB21674802F0D4FE9C
:100CB800C7E7644B5B6813F4800FCED0614B1B68A9
:100CC80013F4003F03D06368002B00F00882236808
:100CD80013F0020F66D0E368012B41D823691F2B5C
:100CE80044D8584B9B6813F00C0F4AD0554B9B685F
:100CF80003F00C03082B3FD0E368002B77D0534B4D
:100D080001221A6001F086F905464E4B1B6813F064
:100D1800020F63D101F07EF9401B0228F5D90320A8
:100D2800E2E1484A136843F480331360A5E7454B72
:100D38001A6842F480221A601A6842F480321A60F3
:100D48009BE701F067F905463E4B1B6813F4003F2B
:100D5800BDD001F05FF9401B6428F5D90320C3E139
:100D680040F21D11384802F077FEB7E74FF48F7153
:100D7800354802F071FEB4E7324B5B6813F4800F1C
:100D8800BAD1304B1B6813F0020F03D0E368012B74
:100D980040F0A7812B4A136823F0F803216943EA3E
:100DA800C1031360236813F0080F51D06369012B46
:100DB8002FD863699BB3254B0122C3F8802E01F01D
:100DC80029F905461F4B5B6F13F0020F40D101F064
:100DD80021F9401B0228F5D9032085E1194A136837
:100DE80023F0F803216943EAC1031360DAE7174BDC
:100DF80000221A6001F00EF90546124B1B6813F029
:100E0800020FCFD001F006F9401B0228F5D90320C4
:100E18006AE14FF4AF710C4802F01EFEC9E70B4BB4
:100E28000022C3F8802E01F0F5F80546054B5B6FEC
:100E380013F0020F0CD001F0EDF8401B0228F5D991
:100E4800032051E100380240804A00080000474270
:100E5800236813F0040F7CD0A368012B01D9052B5C
:100E680038D1A54B1B6C13F0805F39D10023019357
:100E7800A14B1A6C42F080521A641B6C03F0805329
:100E88000193019B01259D4B1B6813F4807F29D09A
:100E9800A368012B3AD0052B3ED0974B1A6F22F04E
:100EA80001021A671A6F22F004021A67A368002B5E
:100EB8003CD001F0AFF806468F4B1B6F13F0020FC2
:100EC80045D101F0A7F8801B41F288339842F3D945
:100ED800032009E14FF4C571894802F0BDFDC0E760
:100EE8000025D0E7854A136843F48073136001F046
:100EF80091F80646814B1B6813F4807FC8D101F036
:100F080089F8801B0228F5D90320EDE07A4A136F8F
:100F180043F001031367C9E7774B1A6F42F00402E5
:100F28001A671A6F42F001021A67BFE701F072F8F8
:100F38000646714B1B6F13F0020F08D001F06AF8D8
:100F4800801B41F288339842F3D90320CCE0002D6E
:100F58003CD1A369022B3FD8A369002B00F0C380C2
:100F6800654A926802F00C02082A00F09180022B70
:100F78007AD1E36913B1B3F5800F33D1236A023B09
:100F88003D2B35D8636A323BB3F5BF7F36D8A26AAA
:100F9800082A39D84FF4AA73D34013F0010F33D07D
:100FA800E36A023B0D2B35D8564B00221A6601F036
:100FB80031F80546504B1B6813F0007F30D001F024
:100FC80029F8401B0228F5D903208DE04A4A136C02
:100FD80023F080531364BCE740F2CD11484802F077
:100FE8003BFDB9E74FF4EB71454802F035FDC5E725
:100FF80040F2D711424802F02FFDC3E74FF4EC71DD
:101008003F4802F029FDC2E740F2D9113C4802F0FE
:1010180023FDC5E74FF4ED71394802F01DFDC3E724
:10102800E369226A1343626A43EA8213A26A520896
:10103800013A43EA0243E26A43EA02632E4A5360F2
:10104800304B01221A6600F0E5FF04462A4B1B6864
:1010580013F0007F06D100F0DDFF001B0228F5D950
:10106800032041E000203FE0264B00221A6600F0F2
:10107800D1FF0446204B1B6813F0007F06D000F018
:10108800C9FF001B0228F5D903202DE000202BE022
:10109800012B2BD0184B5B6803F48001E269914265
:1010A80026D103F03F02216A8A4223D1616A47F6BA
:1010B800C0721A40B2EB811F26D103F44031A26AF4
:1010C8005208013AB1EB024F20D103F07063E26A93
:1010D800B3EB026F1CD1002006E00120704701200D
:1010E80002E0012000E0002002B070BD0120FBE713
:1010F8000120F9E70120F7E70038024000700040BE
:10110800804A0008000047420120EDE70120EBE794
:101118000120E9E708B5334B9B6803F00C03042B67
:101128005BD0082B5BD12F4B5A6802F03F025B68FB
:1011380013F4800F2CD02B4B5868C0F388104FEA5B
:10114800401CBCEB000C6EEB0E0E4FEA8E1343EA0C
:101158009C634FEA8C11B1EB0C0163EB0E03DB00CF
:1011680043EA5173C90011EB000C43F10003590223
:1011780000234FEA4C2041EADC51FFF789FB194B69
:101188005B68C3F3014301335B00B0FBF3F008BDB8
:10119800144B5868C0F388104FEA401CBCEB000C95
:1011A8006EEB0E0E4FEA8E1343EA9C634FEA8C11E6
:1011B800B1EB0C0163EB0E03DB0043EA5173C9008A
:1011C80011EB000C43F10003990200234FEA8C2035
:1011D80041EA9C51FFF75CFBD1E70348D7E7034896
:1011E800D5E700BF0038024000127A000024F4005E
:1011F800002800F0FA8070B50D4604460368013BEC
:101208000E2B32D8072D36D87C4B1B6803F007030A
:10121800AB4208D2EBB2794A1370136803F00703A4
:10122800AB4240F0E480236813F0020F3ED013F085
:10123800040F04D0724A936843F4E0539360236820
:1012480013F0080F04D06E4A936843F46043936028
:10125800A36823B3C02B22D016D8A02B1FD010D838
:10126800802B1CD0902B1AD014E040F25A216548EC
:1012780002F0F2FBC6E740F25B21624802F0ECFBA9
:10128800C2E7B02B0BD005E0E02B08D0F02B06D03E
:10129800D02B04D040F27E215A4802F0DDFB584A98
:1012A800936823F0F003A1680B439360236813F05D
:1012B800010F3CD06368032B25D86368012B28D025
:1012C8009A1E012A2CD94E4A126812F0020F00F019
:1012D80090804B498A6822F0030213438B6000F028
:1012E80099FE0646464B9B6803F00C036268B3EB15
:1012F800820F1CD000F08EFE801B41F2883398428A
:10130800F0D9032064E040F285213E4802F0A4FBB6
:10131800D3E73B4A126812F4003FDAD1012057E0C4
:10132800374A126812F0007FD3D1012050E0334BC6
:101338001B6803F00703AB4207D9EAB22F4B1A70B8
:101348001B6803F00703AB4255D1236813F0040F61
:1013580014D0E3685BB1B3F5805F08D0B3F5A05F44
:1013680005D0B3F5C05F02D0B3F5E05F31D1244AB0
:10137800936823F4E053E1680B439360236813F008
:10138800080F15D023695BB1B3F5805F08D0B3F5BA
:10139800A05F05D0B3F5C05F02D0B3F5E05F1ED102
:1013A800174A936823F46043216943EAC1039360B1
:1013B800FFF7B0FE124B9B68C3F30313124AD35CCA
:1013C800D840124B1860124B186800F0D7FD002067
:1013D80070BD40F2C3210B4802F03EFBC7E740F264
:1013E800CA21084802F038FBDAE7012070470120DB
:1013F800EEE70120ECE70120EAE700BF003C0240ED
:1014080000380240804A0008184C000808000020F4
:1014180004000020014B1868704700BF0800002036
:1014280008B5FFF7F7FF044B9B68C3F38223034A11
:10143800D35CD84008BD00BF00380240104C0008FB
:1014480008B5FFF7E7FF044B9B68C3F34233034A31
:10145800D35CD84008BD00BF00380240104C0008DB
:101468002DE9F04182B007460E46A54B984223D09D
:1014780003F5806398421FD003F5806398421BD020
:1014880003F58063984217D003F58063984213D020
:1014980003F5806398420FD003F5806398420BD020
:1014A80003F58063984207D003F58063984203D020
:1014B800AC21944802F0D0FA33689AB212B1B3F56D
:1014C800803F03D3AD218F4802F0C6FA7368B3F5A5
:1014D800041F1BD00DD8B3F5881F17D005D8032BD0
:1014E80014D9113B012B11D90CE0B3F5901F0DD085
:1014F80008E0B3F5441F09D0B3F5481F06D0B3F58B
:10150800081F03D0AE217F4802F0A6FA002475E038
:10151800F368032B13D8BA68610003238B4022EACF
:101528000302F3688B401343BB607A6822EA050222
:101538007368C3F30013A34013437B606FE0C021BB
:10154800704802F089FAE6E7D1216E4802F084FA81
:101558006DE0336913B10D2B11D893B1E20808324D
:1015680057F8220004F0070189000F238B4020EA76
:10157800030033698B40034347F8223066E00F2BA2
:10158800ECD0DE215F4802F067FAE7E7072300E0C6
:1015980000238B40034302325B4941F822305B4B06
:1015A8009A686FEA080322EA0801706810F4801F3D
:1015B80001D048EA0201554A9160D26803EA020163
:1015C800706810F4001F01D048EA02014F4AD16048
:1015D800526803EA0201706810F4003F01D048EA3B
:1015E80002014A4A516012681340716811F4803F41
:1015F80001D048EA0203454A136001340F2C7CD815
:101608000125A540336803EA050835EA0303F4D148
:10161800736803F00303013B012B7FF679AF73680E
:1016280003F00303032B0CD0B368022B8CD8FA68A1
:10163800610003238B4022EA0302B3688B40134303
:10164800FB60736803F00303022B82D03A686100E1
:1016580003238B4022EA0302736803F003038B40E1
:1016680013433B60736813F4403FC6D000230193D3
:10167800274B5A6C42F480425A645B6C03F48043F3
:101688000193019BA208911C1F4B53F8210004F001
:10169800030189000F238B4020EA0300184B9F4267
:1016A8003FF476AF03F580639F421AD003F5806359
:1016B8009F4218D003F580639F4216D003F58063DC
:1016C8009F4214D003F580639F4212D003F58063D4
:1016D8009F4210D003F580639F423FF457AF082321
:1016E80057E7012355E7022353E7032351E7042370
:1016F8004FE705234DE706234BE702B0BDE8F0812D
:1017080000000240B84A000800380140003C01408F
:101718000038024070B5054614460E4621B1012C2A
:1017280008D86CB1AE6170BD40F29D11064802F058
:1017380093F9F4E74FF4CF71034802F08DF9F0E71D
:101748003604AE61EFE700BFB84A000838B5054671
:101758000C4641B16B6904EA030224EA030444EA33
:101768000244AC6138BD4FF4DB71024802F074F9F1
:10177800F0E700BFB84A000830B405682C6824F4C4
:1017880080242C60046863608368402B05D003685C
:1017980099600368DA6030BC704703689A60036830
:1017A800D960F8E710B40368D9B210390A4AA2FB25
:1017B80001421209094CA25CC2655F2907D96FF37F
:1017C800090304338365806D5DF8044B70476FF33C
:1017D80009038365F7E700BFABAAAAAA084C00086B
:1017E800836A826992B9012B0AD0022B02D00BB10D
:1017F80000207047C36A13F0807F28D1002070470B
:10180800C36AB3F1C07F24D000207047B2F5005FEF
:1018180009D0022B25D9032B25D1C36A13F0807F69
:1018280023D100207047032B03D8DFE803F014040A
:10183800140A00207047C36A13F0807F0DD100207E
:101848007047C36AB3F1C07F09D0002070470120F8
:101858007047012070470120704701207047012020
:101868007047012070470020704701207047000032
:1018780070B5044600F0CEFB002C00F03E81054612
:101888002368954A934231D0183293422ED01832A9
:1018980093422BD01832934228D01832934225D045
:1018A8001832934222D0183293421FD018329342F2
:1018B8001CD002F55672934218D01832934215D0B4
:1018C8001832934212D0183293420FD018329342F2
:1018D8000CD01832934209D01832934206D01832ED
:1018E800934203D0B7217D4802F0B6F86368A3B1EC
:1018F800B3F1007F11D0B3F1806F0ED0B3F1C06F98
:101908000BD0B3F1006F08D0B3F1206F05D0B3F15D
:10191800406F02D0B3F1606F6DD1A3681BB1402B4B
:1019280001D0802B6CD1E368B3F5007F01D0002B88
:101938006BD12369B3F5806F01D0002B6AD163693D
:101948002BB1B3F5006F02D0B3F5805F67D1A369FF
:101958002BB1B3F5005F02D0B3F5804F64D1E369D2
:1019680023B1B3F5807F01D0202B62D1236A43B124
:10197800B3F5803F05D0B3F5003F02D0B3F5403F43
:101988005CD1636A0BB1042B5DD1636AC3B1A36AEE
:10199800032B5DD8E36A43B1B3F5000F05D0B3F16B
:1019A800807F02D0B3F1C07F57D1236B43B1B3F529
:1019B800001F05D0B3F5800F02D0B3F5C00F51D189
:1019C800022384F83530002384F834302268136801
:1019D80023F00103136023681A6812F0010F46D040
:1019E80000F018FB401B0528F5D920236365032068
:1019F80084F8350070BDB821384802F02DF88CE71E
:101A0800B921364802F028F88DE7BA21334802F0A8
:101A180023F88EE7BB21314802F01EF88FE7BC217E
:101A28002E4802F019F892E7BD212C4802F014F86C
:101A380095E7BE21294802F00FF897E7BF2127480C
:101A480002F00AF89DE7C021244802F005F89CE757
:101A5800C521224802F000F89CE7C6211F4801F082
:101A6800FBFFA2E7C7211D4801F0F6FFA8E71A68A7
:101A78001B4911406268A0680243E068024320697C
:101A8800024360690243A0690243E0690243206A95
:101A980002430A43616A042924D01A6026687569DA
:101AA80025F00705636A1D43042B07D1A36A1D436C
:101AB800E36A1BB12046FFF793FEC0B97561204663
:101AC800FFF770FEE26D3F2393408360002060655E
:101AD800012384F835308DE710600240F04A000891
:101AE8003F8010F0E16A206B01430A43D5E74023A9
:101AF8006365012084F835007CE701207AE700BFA0
:101B08002DE9F04104460E4617461D46D0F8588088
:101B18005A1E4FF6FE739A4211D894F83430012BAE
:101B280036D0012384F8343094F83530DBB2012BF9
:101B38000BD0002384F834300220BDE8F08140F255
:101B4800CB11144801F088FFE7E7022384F8353009
:101B5800002363652B463A4631462046FFF70CFEC4
:101B6800E26D3F239340C8F808302268136843F0B9
:101B780016031360236C23B12268136843F008032B
:101B880013602268136843F0010313600020D4E750
:101B98000220D2E7F04A000870B50446866D00F0CE
:101BA80039FA94F83530DBB2022B06D0802363650E
:101BB800002384F83430012070BD0546226813687C
:101BC80023F0160313602268536923F080035361DE
:101BD800236CE3B12268136823F0080313602268BA
:101BE800136823F00103136023681B6813F0010FC7
:101BF80011D000F00FFA431B052BF5D9202363659C
:101C0800032084F83500002384F83430D4E7A36C2B
:101C1800002BDFD1E3E7E26D3F239340B36001235C
:101C280084F83530002084F83400C5E790F8353062
:101C3800DBB2022B03D080234365012070470523C4
:101C480080F835300268136823F001031360002020
:101C580070470000F0B583B0044600230193724B2F
:101C68001D68724BA3FB0535AD0A876D3E68C26DD2
:101C780008239340334210D003681A6812F0040F07
:101C88000BD01A6822F004021A60C26D0823934030
:101C9800BB60436D43F001034365E26D012393404C
:101CA800334209D02268526912F0800F04D0BB6019
:101CB800636D43F002036365E26D0423934033428E
:101CC80009D02268126812F0020F04D0BB60636D5D
:101CD80043F004036365E26D10239340334224D03C
:101CE8002268126812F0080F1FD0BB6023681A68B8
:101CF80012F4802F0DD01B6813F4002F04D1236C2D
:101D08009BB12046984710E0A36C73B120469847D2
:101D18000BE01A6812F4807F03D11A6822F00802D7
:101D28001A60236C0BB120469847E26D202393403C
:101D3800334255D02268126812F0100F50D0BB60A1
:101D480094F83530DBB2052B0ED023681A6812F4EC
:101D5800802F33D01B6813F4002F2AD1636C002B1B
:101D68003ED0204698473BE02268136823F01603CC
:101D780013602268536923F080035361236CA3B175
:101D88002268136823F008031360E26D3F23934031
:101D9800BB60012384F83530002384F83430236D88
:101DA800002B3FD0204698473CE0A36C002BE7D19E
:101DB800EBE7E36BA3B12046984711E01A6812F4E9
:101DC800807F09D11A6822F010021A60012384F872
:101DD8003530002384F83430E36B0BB12046984744
:101DE800636DFBB1636D13F0010F17D0052384F801
:101DF80035302268136823F001031360019B013317
:101E08000193AB4204D823681B6813F0010FF5D186
:101E1800012384F83530002384F83430E36C0BB1A7
:101E28002046984703B0F0BD08000020B5814E1B3E
:101E3800002807DB00F01F02400901239340024AF3
:101E480042F82030704700BF00E100E0002808DBBE
:101E58000901C9B200F1604000F5614080F8001343
:101E6800704700F00F000901C9B2014B19547047BF
:101E780014ED00E000B500F00700C0F1070CBCF15C
:101E8800040F28BF4FF0040C031D062B0FD9C31EE7
:101E98004FF0FF3E0EFA0CF021EA000199400EFACD
:101EA80003FE22EA0E0241EA02005DF804FB002369
:101EB800EEE7000010B50446C31E042B0FD80A4AEB
:101EC800D36823F4E0631B041B0C240204F4E064CD
:101ED800234343F0BF6343F40033D36010BD902124
:101EE800024801F0B9FDEAE700ED00E0284B0008E0
:101EF80070B506460C4615460F2A0ED80F2C11D879
:101F08000B4BD8682A462146C0F30220FFF7B2FFE0
:101F180001463046FFF79AFF70BDA821054801F039
:101F28009BFDEBE7A921034801F096FDE8E700BF18
:101F380000ED00E0284B000810B5041E03DB204626
:101F4800FFF776FF10BDBC21014801F085FDF6E7DB
:101F5800284B00080138B0F1807F0BD24FF0E02306
:101F68005861054AF02182F8231000209861072261
:101F78001A6170470120704700ED00E010B5044673
:101F88000E4B1A784FF47A73B3FBF2F30C4A1068CD
:101F9800B0FBF3F0FFF7DEFF68B90F2C01D9012081
:101FA8000AE0002221464FF0FF30FFF7A1FF054B62
:101FB8001C60002000E0012010BD00BF00000020D0
:101FC800080000200400002008B50B4B1A6842F4F2
:101FD80000721A601A6842F480621A601A6842F441
:101FE80080721A600320FFF765FF0F20FFF7C6FF16
:101FF800FEF7ACFC002008BD003C0240034A116813
:10200800034B1B780B441360704700BF440000204B
:1020180000000020014B1868704700BF44000020F2
:1020280010B4036A046A24F001040462846924F089
:10203800F00C4CEA021223F00A030B43826103629C
:102048005DF8044B704710B4036A046A24F0100466
:102058000462846924F4704C4CEA023223F0A00331
:1020680043EA0113826103625DF8044B7047836899
:1020780023F070030B4343F00703836070470000AD
:102088002DE9F04104460D46036A026A22F0010276
:1020980002624768826922F07302096841EA02080D
:1020A80023F00203AE681E43204B984203D003F589
:1020B8008063984209D1EB680BB1082B24D126F034
:1020C8000806EB68334323F00406184B9C4203D000
:1020D80003F580639C420FD1AB69B3F5007F00D054
:1020E800C3B96B69B3F5807F00D0CBB927F44077CB
:1020F8006B693B43AF691F436760C4F818806B681E
:1021080063632662BDE8F08141F6CD21084801F0FD
:10211800A3FCD4E741F6DA21054801F09DFCE0E78D
:1021280041F6DB21024801F097FCDFE7000001409F
:10213800604B00082DE9F04104460E46056A036A23
:1021480023F4807303624768C36923F073030A6842
:1021580042EA030825F400758B6845EA0325224BFB
:10216800984203D003F5806398420AD1F3680BB113
:10217800082B27D125F40065F36845EA032525F4E3
:102188008065194B9C4203D003F580639C4211D1B2
:10219800B369B3F5007F00D0D3B97369B3F5807F15
:1021A80000D0DBB927F44057736947EA0317B369CE
:1021B80047EA03176760C4F81C807368E363256205
:1021C800BDE8F08141F66431084801F045FCD1E7EB
:1021D80041F67131054801F03FFCDEE741F6723106
:1021E800024801F039FCDDE700000140604B0008BF
:1021F8002DE9F04104460D46066A036A23F480532C
:102208000362D0F80480C76927F4E6470B6847EAF9
:10221800032726F400568B6846EA03360F4B98428C
:1022280003D003F58063984209D16B69B3F5807FC9
:1022380000D063B928F480486B6948EA8318C4F869
:102248000480E7616B6823642662BDE8F08141F68B
:10225800B131034801F000FCECE700BF0000014089
:10226800604B0008704700000368324A904212D061
:10227800B0F1804F0FD0A2F57C4290420BD002F50E
:102288008062904207D002F58062904203D002F546
:102298007842904203D123F070034A681343254AD9
:1022A80090422AD0B0F1804F27D0A2F57C429042CC
:1022B80023D002F5806290421FD002F580629042DE
:1022C8001BD002F57842904217D002F57052904226
:1022D80013D002F5806290420FD002F580629042DE
:1022E8000BD0A2F59832904207D002F58062904256
:1022F80003D002F58062904203D123F44073CA6888
:10230800134323F080034A6913438A68C2620A6848
:102318008262084A904203D002F58062904201D15D
:102328000A690263026842F0040202600122426103
:102338000360704700000140002800F0A98010B534
:1023480004460368534A934237D0B3F1804F34D0E0
:10235800A2F57C42934230D002F5806293422CD0A1
:1023680002F58062934228D002F58062934224D01D
:1023780002F58062934220D002F5704293421CD04D
:1023880002F57052934218D002F58062934214D03D
:1023980002F58062934210D0A2F5983293420CD095
:1023A80002F58062934208D002F58062934204D01D
:1023B80040F21311384801F04FFBA3683BB1102BD2
:1023C80005D0202B03D0402B01D0602B17D12369D7
:1023D8002BB1B3F5807F02D0B3F5007F15D1236808
:1023E800B3F1804F17D02D4A934214D0E368013BD4
:1023F8004FF6FE7293428CBF002301230FE04FF487
:102408008A71254801F028FBE1E740F215112248BE
:1024180001F022FBE3E7E368003B18BF01232BB37D
:10242800A3690BB1802B27D194F83D3053B3022315
:1024380084F83D30214651F8040BFFF715FF0123BE
:1024480084F8463084F83E3084F83F3084F84030D1
:1024580084F8413084F8423084F8433084F84430BA
:1024680084F8453084F83D30002010BD4FF48B715E
:10247800094801F0F1FAD3E740F21711064801F0D4
:10248800EBFAD1E784F83C30204601F0FDFBCEE7BB
:102498000120704700000140604B0008000C00401C
:1024A800002800F0A98010B504460368534A9342F7
:1024B80037D0B3F1804F34D0A2F57C42934230D06C
:1024C80002F5806293422CD002F58062934228D0B4
:1024D80002F58062934224D002F58062934220D0B4
:1024E80002F5704293421CD002F57052934218D004
:1024F80002F58062934214D002F58062934210D0B4
:10250800A2F5983293420CD002F58062934208D02B
:1025180002F58062934204D040F22C51384801F011
:102528009BFAA3683BB1102B05D0202B03D0402B7E
:1025380001D0602B17D123692BB1B3F5807F02D06E
:10254800B3F5007F15D12368B3F1804F17D02D4A1A
:10255800934214D0E368013B4FF6FE7293428CBF5E
:10256800002301230FE040F22D51254801F074FAB1
:10257800E1E740F22E51224801F06EFAE3E7E36802
:10258800003B18BF01232BB3A3690BB1802B27D1C4
:1025980094F83D3053B3022384F83D30214651F876
:1025A800040BFFF761FE012384F8463084F83E30BF
:1025B80084F83F3084F8403084F8413084F8423061
:1025C80084F8433084F8443084F8453084F83D304A
:1025D800002010BD40F22F51094801F03DFAD3E721
:1025E8004FF4A661064801F037FAD1E784F83C3089
:1025F8002046FFF737FECEE7012070470000014074
:10260800604B0008000C00402DE9F04104460E46DE
:10261800056A036A23F010030362D0F8048087690F
:1026280027F4E6470B6847EA032725F020058B685F
:1026380045EA0315224B984203D003F5806398427C
:102648000AD1F3680BB1082B27D125F08005F36870
:1026580045EA031525F04005194B9C4203D003F5C4
:1026680080639C4211D1B369B3F5007F00D0D3B920
:102678007369B3F5807F00D0DBB928F440687369CB
:1026880048EA8308B36948EA8308C4F80480A76164
:102698007368A3632562BDE8F08141F619310948E2
:1026A80001F0DAF9D1E741F62631064801F0D4F90C
:1026B800DEE741F62731034801F0CEF9DDE700BF38
:1026C80000000140604B000870B504460D461646F0
:1026D8000C2A2CD841F21113D34013F0010F28D043
:1026E8002B68602B01D0702B29D1AB680BB1022B62
:1026F8002BD12B690BB1042B2DD194F83C30012B35
:1027080000F01A81012384F83C300C2E00F20F816E
:10271800DFE816F027000D010D010D0170000D0115
:102728000D010D01AA000D010D010D01DB003C2A70
:10273800D6D041F28201814801F08EF9D0E741F20A
:1027480083017E4801F088F9CFE741F284017B4894
:1027580001F082F9CDE741F28501784801F07CF972
:10276800CBE72368764A93422FD0B3F1804F2CD021
:10277800A2F57C42934228D002F58062934224D08D
:1027880002F58062934220D002F5784293421CD031
:1027980002F57052934218D002F58062934214D029
:1027A80002F58062934210D0A2F5983293420CD081
:1027B80002F58062934208D002F58062934204D009
:1027C80041F28F015D4801F047F929462068FFF77B
:1027D80057FC2268936943F0080393612268936960
:1027E80023F0040393612268936929690B43936179
:1027F80000209DE02368524A93421FD0B3F1804FD6
:102808001CD0A2F57C42934218D002F58062934214
:1028180014D002F58062934210D002F578429342B8
:102828000CD002F57052934208D0A2F5943293422C
:1028380004D04FF48551414801F00EF9294620682B
:10284800FFF7E2FE2268936943F40063936122680C
:10285800936923F48063936122689369296943EA41
:1028680001239361002063E02368354A934217D01F
:10287800B3F1804F14D0A2F57C42934210D002F5F8
:10288800806293420CD002F58062934208D002F530
:102898007842934204D041F2B101284801F0DCF8B3
:1028A80029462068FFF746FC2268D36943F00803ED
:1028B800D3612268D36923F00403D3612268D36902
:1028C80029690B43D361002032E023681C4A9342F4
:1028D80017D0B3F1804F14D0A2F57C42934210D0A8
:1028E80002F5806293420CD002F58062934208D0D0
:1028F80002F57842934204D041F2C2010F4801F038
:10290800ABF829462068FFF773FC2268D36943F4C3
:102918000063D3612268D36923F48063D36122689A
:10292800D369296943EA0123D361002000E001202B
:10293800002384F83C3070BD0220FCE7604B00089F
:102948000000014010B4846824F47F4C42EA03225A
:102958000A4342EA0C0282605DF8044B70470000AB
:1029680038B590F83C30012B00F0728204460D46D1
:10297800012380F83C30022380F83D300B68702B2F
:1029880006D046D8502B03D0602B01D0402B46D11F
:102998002268936823F47F4323F0770393602B68BE
:1029A800602B00F0AB8100F28F80402B00F0ED81AE
:1029B80049D8202B03D042D80BB1102B3DD1236826
:1029C8009D4A93421FD0B3F1804F1CD0A2F57C42A0
:1029D800934218D002F58062934214D002F58062C7
:1029E800934210D002F5784293420CD002F570520F
:1029F800934208D0A2F59432934204D041F2355163
:102A08008E4801F029F829682068FFF730FB00207C
:102A1800AAE0B3F5805FBBD0B3F5005FB8D0002B58
:102A2800B6D0102BB4D0202BB2D0302BB0D041F27E
:102A3800C341824801F010F8AAE7012094E0302B46
:102A4800BDD0012090E0502B3CD123687A4A9342B4
:102A58001FD0B3F1804F1CD0A2F57C42934218D00E
:102A680002F58062934214D002F58062934210D03E
:102A780002F5784293420CD002F57052934208D086
:102A8800A2F59432934204D041F202516B4800F00F
:102A9800E3FF6B68B3F5004F05D023B1022B02D0DA
:102AA8000A2B40F01F81EB680F2B00F22181EA68A6
:102AB80069682068FFF7B4FA50212068FFF7D7FA51
:102AC800002051E001204FE0B3F5805F55D0B3F509
:102AD800005F00F0B580702B4DD12368564A9342B1
:102AE8001FD0B3F1804F1CD0A2F57C42934218D07E
:102AF80002F58062934214D002F58062934210D0AE
:102B080002F5784293420CD002F57052934208D0F5
:102B1800A2F59432934204D041F2D641474800F0DE
:102B28009BFFAB6843B1B3F5805F05D0B3F5005F99
:102B380002D0B3F5405F6CD16B68B3F5004F04D099
:102B48001BB1022B01D00A2B69D1EB680F2B6CD873
:102B5800EB686A68A9682068FFF7F4FE2268936842
:102B680043F0770393600020012384F83D3000236D
:102B780084F83C3038BD0120F6E723682E4A93429A
:102B880000F04A81B3F1804F00F04881A2F57C4201
:102B9800934200F0458102F58062934200F0428141
:102BA80002F58062934200F03F8102F58062934211
:102BB80000F03C8102F58062934200F0398102F511
:102BC8007042934200F0368102F57052934200F051
:102BD800338102F58062934200F0308102F5806211
:102BE800934200F02D81A2F59832934200F02A8199
:102BF80002F58062934200F0278102F580629342D9
:102C080000F0248141F2CF410C4800F025FF00205C
:102C1800AAE741F2D941094800F01EFF8CE741F2CA
:102C2800DA41064800F018FF8FE741F2DB4103481C
:102C380000F012FF8CE700BF00000140604B000865
:102C48002368844A934217D0B3F1804F14D0A2F579
:102C58007C42934210D002F5806293420CD002F578
:102C68008062934208D002F57842934204D041F240
:102C7800EE41794800F0F0FEAB6843B1B3F5805FF0
:102C880005D0B3F5005F02D0B3F5405F18D16B688B
:102C9800B3F5004F04D01BB1022B01D00A2B15D17C
:102CA800EB680F2B18D8EB686A68A9682068FFF7EB
:102CB80049FE2268936843F480439360002053E7F9
:102CC80041F2F141644800F0C7FEE0E741F2F24109
:102CD800614800F0C1FEE3E741F2F3415E4800F0CD
:102CE800BBFEE0E741F205515B4800F0B5FEDAE6CD
:102CF80041F20651584800F0AFFED8E62368554A1D
:102D080093421FD0B3F1804F1CD0A2F57C4293426E
:102D180018D002F58062934214D002F58062934283
:102D280010D002F5784293420CD002F570529342CB
:102D380008D0A2F59432934204D041F21251464889
:102D480000F08AFE6B68B3F5004F04D01BB1022B6C
:102D580001D00A2B0DD1EB680F2B10D8EA686968EF
:102D68002068FFF770F960212068FFF780F90020DC
:102D7800FAE641F21551384800F06EFEEBE741F2F1
:102D88001651354800F068FEE8E72368314A934257
:102D98001FD0B3F1804F1CD0A2F57C42934218D0CB
:102DA80002F58062934214D002F58062934210D0FB
:102DB80002F5784293420CD002F57052934208D043
:102DC800A2F59432934204D041F22251224800F0F5
:102DD80043FE6B68B3F5004F04D01BB1022B01D042
:102DE8000A2B0DD1EB680F2B10D8EA6869682068A8
:102DF800FFF716F940212068FFF739F90020B3E6FC
:102E080041F22551144800F027FEEBE741F2265124
:102E1800114800F021FEE8E70020A5E60020A3E61F
:102E28000020A1E600209FE600209DE600209BE60A
:102E3800002099E6002097E6002095E6002093E61A
:102E4800002091E600208FE600208DE600208BE62A
:102E580002208FE600000140604B000838B50446A8
:102E68000D460368414A93421FD0B3F1804F1CD0EE
:102E7800A2F57C42934218D002F58062934214D0A6
:102E880002F58062934210D002F5806293420CD022
:102E980002F58062934208D002F57042934204D052
:102EA80040F2A971324800F0D7FD2B686BB1402B76
:102EB8000BD04CD8202B08D0302B06D0102B04D0A8
:102EC80040F2AA712A4800F0C7FD6B68802B01D038
:102ED800002B43D194F83C30012B45D0012384F8D2
:102EE8003C30022384F83D3023685968986821F003
:102EF80070012A680A435A6023681C4A93421AD010
:102F0800B3F1804F17D0A2F57C42934213D002F55B
:102F1800806293420FD002F5806293420BD002F593
:102F28007842934207D002F57052934203D0A2F53B
:102F38009432934204D120F080006A6802439A6078
:102F4800012384F83D30002084F83C0038BD602B14
:102F5800BBD0702BB9D0502BB2D1B6E740F2AB71D1
:102F6800034800F079FDB5E70220EFE700000140D3
:102F7800984B0008026802F10C0353E8003F23F065
:102F8800C0030C3242E800310029F3D1202380F835
:102F980041307047026802F10C0353E8003F23F404
:102FA80090730C3242E800310029F3D1026802F133
:102FB800140353E8003F23F00103143242E80031C0
:102FC8000029F3D1036B012B05D0202380F8423070
:102FD800002303637047026802F10C0353E8003FC3
:102FE80023F010030C3242E800310029F3D1ECE75A
:102FF80090F84130DBB2212B01D002207047836862
:10300800B3F5805F17D0036A5A1C02621A78036806
:103018005A60C38C9BB2013B9BB2C3844BB9026814
:10302800D36823F08003D3600268D36843F0400379
:10303800D360002070470369002BE4D1036A1B8822
:103048000268C3F308035360036A02330362E0E7CC
:1030580010B504464268574B9A423FD8E36813B10B
:10306800B3F5005F40D123692BB1B3F5806F02D06F
:10307800B3F5C06F3ED163694FF6F372134200D1C6
:1030880023B940F69C614C4800F0E6FC22681369BD
:1030980023F44053E1680B431361A36822691A4380
:1030A80063691A43E3691A432168CB6823F416431A
:1030B80023F00C031343CB602268536923F4407355
:1030C800A1690B43536123683C4A934218D002F527
:1030D8008062934214D0FEF7A3F913E040F6996199
:1030E800354800F0B9FCB9E740F69A61324800F07B
:1030F800B3FCB8E740F69B612F4800F0ADFCBAE797
:10310800FEF79EF9E369B3F5004F29D000210318B3
:1031180049411B1841F10001C90041EA5371DB0024
:10312800181863684FEA83024FEA937341F100016C
:10313800FDF7AEFB224AA2FB00314909642303FBD9
:1031480011031B013233A2FB03235B0903F0F002D6
:1031580002EB011203F00F03216813448B6010BDCA
:103168000023021843EB0301121841F10001C900C2
:1031780041EA5271D200101841F1000162689218B8
:103188005B41FDF785FB0E4AA2FB00314909642328
:1031980003FB1103DB003233A2FB03235B095A0054
:1031A80002F4F87202EB011203F0070321681344DA
:1031B8008B60D4E7A037A000D04B00080010014076
:1031C8001F85EB51002800F08C8010B504468369F8
:1031D800002B56D00368444A934210D0A2F54C42C3
:1031E80093420CD002F58062934208D002F54C421B
:1031F800934204D040F273113C4800F02DFCA369BF
:1032080043B1B3F5807F05D0B3F5007F02D0B3F5A5
:10321800407F30D1A36813B1B3F5805F4FD1E36924
:1032280013B1B3F5004F50D194F84130002B52D070
:10323800242384F841302268D36823F40053D360F0
:103248002046FFF705FF2268136923F490431361B2
:103258002268536923F02A0353612268D36843F430
:103268000053D36000206064202384F8413084F840
:103278004230606310BD4FF4BA711C4800F0ECFB9B
:10328800C8E70368184A9342C4D0A2F54C42934257
:10329800C0D002F580629342BCD002F580629342AE
:1032A800B8D002F580629342B4D002F5444293420A
:1032B800B0D04FF4BC710D4800F0CEFBAAE74FF434
:1032C800BD710A4800F0C8FBA9E740F27B11074826
:1032D80000F0C2FBA8E784F84030204600F0A6FDC5
:1032E800A6E70120704700BF00100140D04B00083E
:1032F800704708B50168CA6822F04002CA602022F7
:1033080080F84120FFF7F4FF002008BD70477047A0
:10331800704710B5846B23685A6994F84130DBB262
:10332800212B10D023685A6902F0400294F84230E9
:10333800DBB2222B11D0636C43F010036364204688
:10334800FFF7E6FF10BD02F08002002AEAD0002352
:10335800E3842046FFF70EFEE4E7002AEBD00023C3
:10336800E3852046FFF716FEE5E708B5806B0023E6
:10337800C385FFF7CDFF08BD90F84230DBB2222BA2
:1033880069D18368B3F5805F4FD0826AB3F5805FF7
:1033980004D0002B56D10369002B53D103685B6816
:1033A8001370836A01338362C38D9BB2013B9BB266
:1033B800C385002B51D100B583B00268D36823F0D0
:1033C8002003D3600268D36823F48073D360026853
:1033D800536923F001035361202380F8423000230E
:1033E8004363036B012B33D100230363026802F1AB
:1033F8000C0353E8003F23F010030C3242E800317D
:103408000029F3D103681A6812F0100F06D00022C1
:1034180001921A6801925B680193019B818D00F00B
:1034280063FA002003B05DF804FB0269002AACD1FE
:10343800826A03685B68C3F308031380836A0233F4
:103448008362B1E703685B6803F07F031370A8E742
:10345800FFF75CFFE5E70220704700207047000097
:1034680010B582B0044602681368D068516913F039
:103478000F0F09D113F0200F0CD010F0200F09D036
:103488002046FFF779FF16E011F0010115D110F47D
:10349800907F12D1216B012979D013F0800F03D0CE
:1034A80010F0800F40F0218113F0400F03D010F08E
:1034B800400F40F01E8102B010BD13F0010F06D07E
:1034C80010F4807F03D0626C42F00102626413F052
:1034D800040F04D019B1626C42F00202626413F066
:1034E800020F04D019B1626C42F00402626413F056
:1034F800080F07D010F0200F00D119B1626C42F00C
:1035080008026264626C002AD5D013F0200F02D042
:1035180010F0200F29D123685B6903F04003626C27
:1035280012F0080F00D163B32046FFF733FD23687C
:103538005B6913F0400F20D0226802F1140353E8AE
:10354800003F23F04003143242E800310029F3D150
:10355800E36B73B1694A1A65E06BFEF767FB0028F5
:10356800A9D0E06B036D9847A5E72046FFF704FF55
:10357800D1E72046FFF7CCFE9DE72046FFF7C8FEBF
:1035880099E72046FFF7C4FE0023636493E713F02E
:10359800100F82D010F0100F3FF47FAF002301937B
:1035A8001368019353680193019B536913F0400F0B
:1035B8005FD0E26B13685B689BB2002B4AD0A18D89
:1035C800994247D9E385D369B3F5807F37D022681C
:1035D80002F10C0353E8003F23F480730C3242E8F5
:1035E80000310029F3D1226802F1140353E8003FA7
:1035F80023F00103143242E800310029F3D1226894
:1036080002F1140353E8003F23F04003143242E868
:1036180000310029F3D1202384F8423000232363AA
:10362800226802F10C0353E8003F23F010030C3228
:1036380042E800310029F3D1E06BFEF7ADFA02232E
:103648006363A18DE38D9BB2C91A89B2204600F04D
:103658004BF930E7A18D99427FF42DAFD369B3F5CB
:10366800807F7FF428AF02236363204600F03CF993
:1036780021E7A18DE38D9BB2C91A89B2E38D9BB274
:10368800002B3FF418AF00293FF415AF226802F170
:103698000C0353E8003F23F490730C3242E80030E7
:1036A8000028F3D1226802F1140353E8003F23F005
:1036B8000103143242E800300028F3D1202384F8B3
:1036C800423000232363226802F10C0353E8003FD1
:1036D80023F010030C3242E800300028F3D1022313
:1036E8006363204600F000F9E5E62046FFF780FC1A
:1036F800E1E62046FFF7FDFDDDE600BF7333000875
:1037080008B5806B01234363036B012B02D0FFF7DD
:10371800FEFD08BD818D490800F0E6F8F9E708B517
:103728000346806B1B681B6813F4807F2BD1002332
:10373800C385026802F10C0353E8003F23F4807349
:103748000C3242E800310029F3D1026802F1140377
:1037580053E8003F23F00103143242E80031002906
:10376800F3D1026802F1140353E8003F23F0400349
:10377800143242E800310029F3D1202380F8423086
:10378800036B012B07D000234363036B012B0FD07E
:10379800FFF7BCFD08BD026802F10C0353E8003FC7
:1037A80023F010030C3242E800310029F3D1EAE794
:1037B800818D00F099F8EDE730B583B004461346E3
:1037C8008162828500224264222084F84200E06BF4
:1037D800244DC563E06B244D0564E06B234DC5643F
:1037E800E06B026520680A46011DE06BFEF788F968
:1037F80000282FD10023019323681A6801925B687F
:103808000193019B23695BB1226802F10C0353E821
:10381800003F43F480730C3242E800310029F3D1B1
:10382800226802F1140353E8003F43F00103143205
:1038380042E800310029F3D1226802F1140353E869
:10384800003F43F04003143242E800310029F3D12D
:1038580003B030BD10236364202384F84230012074
:10386800F6E700BF27370008093700081B330008B0
:1038780090F84230DBB2202B27D110B582B0044635
:1038880029B312B9012002B010BD0123036300233C
:103898004363FFF791FF236B012B01D00120F2E76F
:1038A8000023019323681A6801925B680193019BC6
:1038B800226802F10C0353E8003F43F010030C3276
:1038C80042E800310029F3D1DDE7022070470120EA
:1038D800D9E70000034AD2F8883043F47003C2F8ED
:1038E8008830704700ED00E008B50268084B9A423E
:1038F80000D008BD074B1980132207490748FFF776
:10390800B7FF0123064A1370064A1370F1E700BF98
:10391800001001404A0000204C000020DC0100207B
:10392800940000204800002072B6FEE700B595B06C
:103938003022002108A8FCF723FC002303930493FA
:1039480005930693079301931E4A116C41F0805129
:103958001164126C02F080520192019A02931A4B80
:103968001A6842F480421A601B6803F48043029389
:10397800029B012308934FF48033099302220E928D
:103988004FF480030F93042310934821119112924E
:10399800139308A8FDF740F980B90F230393022178
:1039A8000491002305934FF480520692079303A8CD
:1039B800FDF71EFC20B915B05DF804FBFFF7B4FF56
:1039C800FFF7B2FF003802400070004000B587B032
:1039D800FEF7FAFAFFF7AAFF00F040F800F084FEBD
:1039E80000F0F0F900F0FAF800F094F900F004FAA9
:1039F80000F0AAFB132212491248FFF739FF6C4660
:103A0800114D0FCD0FC495E8030084E803000F4B58
:103A18001B78012BFBD10E4D2A460A49084800F0B5
:103A2800AFFA0C4C2146284600F0F6FB00F016FED3
:103A3800204600F06FFD054B00221A70E7E700BF33
:103A48004C000020DC010020304A000894000020CF
:103A5800600000207C000020704700002DE9F04342
:103A68008DB000240794089409940A940B94019447
:103A7800544B1A6B42F080021A631A6B02F08002F0
:103A88000192019A02941A6B42F001021A631A6BAE
:103A980002F001020292029A03941A6B42F00802A1
:103AA8001A631A6B02F008020392039A04941A6BC1
:103AB80042F040021A631A6B02F040020492049A20
:103AC80005941A6B42F002021A631A6B02F00202A2
:103AD8000592059A06941A6B42F010021A631B6B42
:103AE80003F010030693069BDFF8E890012271218A
:103AF8004846FDF70FFE344E01224FF483513046FD
:103B0800FDF708FE224608213046FDF703FEDFF8E0
:103B1800C88001224FF44E714046FDF7FBFD2B4F44
:103B2800012211463846FDF7F5FD7123079301255B
:103B3800089509940A9507A94846FDF791FC4FF4A2
:103B480080530793089509940A9507A93046FDF70D
:103B580087FC44F27C0307930894099507A91C483D
:103B6800FDF77EFC08230793089509950A9507A990
:103B78003046FDF775FC902307930894099507A92B
:103B88003046FDF76DFC60230793089509940A9465
:103B980007A93046FDF764FC4FF44E730793089568
:103BA80009940A9407A94046FDF75AFC0795089519
:103BB80009940A9407A93846FDF752FC0DB0BDE8F0
:103BC800F08300BF00380240000C024000100240A1
:103BD80000180240000002400004024008B50B48EB
:103BE8000B4B03600B4B436000238360C3604FF4AF
:103BF8008042026143618361C3610362FCF7C2FED4
:103C080000B908BDFFF790FEFBE700BF9800002051
:103C180000540040801A060030B589B00023039391
:103C280004930593069307930268144B9A4201D0B4
:103C380009B030BD00250195114C236B43F00203F8
:103C48002363236B03F002030193019BC0230393B7
:103C580012230493032306930423079303A9094813
:103C6800FDF7FEFB0295236C43F400132364236CD9
:103C780003F400130293029BDAE700BF00540040EC
:103C880000380240000402400268094B9A4200D002
:103C9800704782B000230193064B1A6C42F002026F
:103CA8001A641B6C03F002030193019B02B0704776
:103CB800000400400038024000B587B0002301939B
:103CC800029303930493059302680F4B9A4202D020
:103CD80007B05DF804FB002300930C4B1A6B42F00D
:103CE80001021A631B6B03F001030093009B8023FE
:103CF80001930223029301220492059301A9044827
:103D0800FDF7AEFBE4E700BF0004004000380240C6
:103D18000000024000B58FB000230A930B930C9368
:103D28000D930893099301930293039304930593C6
:103D3800069307932148224A026047224260836023
:103D480044F62062C26003618361FEF7F5FA30BB76
:103D58004FF480530A930AA91848FEF701FE08BBDE
:103D68001648FEF79DFB00BB00230893099308A99A
:103D78001248FFF773F8D8B9602301930023029320
:103D88000393059304220DEB02010C48FEF79CFCFB
:103D980088B90A48FFF790FF0FB05DF804FBFFF7FA
:103DA800C3FDD5E7FFF7C0FDDAE7FFF7BDFDDBE7A9
:103DB800FFF7BAFDE0E7FFF7B7FDEAE7EC00002000
:103DC8000004004008B50A480A4B03604FF4E13389
:103DD800436000238360C36003610C2242618361F6
:103DE800C361FFF7EFF900B908BDFFF79DFDFBE7D9
:103DF800DC0100200010014008B50A480A4B0360A6
:103E08004FF4E133436000238360C36003610C22F5
:103E180042618361C361FFF7D5F900B908BDFFF7B7
:103E280083FDFBE7940100200044004030B58BB0CF
:103E380000230593069307930893099303683D4A63
:103E4800934204D03C4A934249D00BB030BD04465B
:103E580000250195394B5A6C42F010025A645A6C8D
:103E680002F010020192019A02951A6B42F00102C7
:103E78001A631B6B03F001030293029B4FF4C063A8
:103E8800059302230693032308930723099305A99F
:103E98002B48FDF7E5FA2B482B4B03604FF00063E6
:103EA80043608560C5604FF4806303614561856147
:103EB800C5614FF4803303624562FDF7D9FC58B9F8
:103EC800204BE3639C63002211462520FEF710F87F
:103ED8002520FEF731F8B8E7FFF726FDF0E70024C4
:103EE8000394164B1A6C42F400321A641A6C02F4EA
:103EF80000320392039A04941A6B42F001021A6387
:103F08001B6B03F001030493049B0C23059302230A
:103F18000693032308930723099305A90848FDF787
:103F28009FFA224621462620FDF7E2FF2620FEF7CB
:103F380003F88AE7001001400044004000380240BE
:103F48000000024034010020406402400246002084
:103F58000B46013989B28BB112F8013B5840002356
:103F680002E040080133DBB2072BF1D810F0010F53
:103F7800F7D0400880F08C00C0B2F3E7704700002B
:103F880070B50446154641780378614A1370614A52
:103F98001278112A16D05F4B1B78112B00F09D80E8
:103FA800A1785D4B1980CE1C31462046FFF7CEFF25
:103FB8005A4B1870A35D984240F0A880584B0022D5
:103FC8001A8028E0AA2902D0514B1970E3E7552B33
:103FD800E1D100234F4A137055220270AA22427081
:103FE800504A13704D4A1370D5E7E118C8784E4A05
:103FF800D05448794D4AD054C8794D4AD054487A5B
:104008004C4AD054C87A4C4AD0544A7B4B49CA547B
:10401800013343490B80424BB3F90030012BE4DDF7
:10402800414BB3F9003006EE903AF8EEE66ADFED60
:10403800447A86EEA77AB1EE477A85ED007A3B4B53
:10404800B3F9003007EE103AB8EEC77AC7EE276A20
:10405800C5ED016A364BB3F9003007EE103AB8EEF9
:10406800C77AC7EE276AC5ED026A324BB3F900304A
:1040780007EE103AB8EEC77AC7EE276AC5ED036AAD
:104088002D4BB3F9003007EE103AB8EEC77AC7EEF9
:10409800276AC5ED046A294BB3F9003007EE103AD8
:1040A800B8EEC77AC7EE276AC5ED056AE37B07EE67
:1040B800903AF8EE677AC5ED067A0023194A13702C
:1040C800134A1370134A11211170144A1370124ABB
:1040D80013801C4A1380124A1380002070BD0022EE
:1040E800E2540133DBB2122BF9D900230D4A1370C5
:1040F800074A1370074A11211170084A1370064ABB
:104108001380104A1380064A1380E6E70023EAE783
:104118002C0200200C000020280200202A02002087
:10412800260200202B02002044020020400200202A
:104138003C02002038020020340200203002002017
:1041480000007A4424020020F0B5294F4FF0010CFA
:1041580087F800C000237B60BB60FB6000223A74D4
:104168007A74244E022131707360B360F36086F86C
:1041780010C07274204D032129706B60AB60EB6036
:104188002A746A741D4C042121706360A360E36083
:10419800227462741A480521017043608360C36009
:1041A8000274427417494FF0060E81F800E04B6024
:1041B8008B60CB6081F810C04A74DFF854C04FF0B0
:1041C800070E8CF800E08CF801208CF80220CCF85F
:1041D80004300D4A7A610D4BBB617261B3616A614B
:1041E800AB616261A361426183614A618B61F0BD29
:1041F800DC020020C0020020A40200208802002067
:104208006C02002050020020C3F548C0C3F54840A6
:10421800480200200000000070B52DED068B8EB01E
:104228000D460023089309930A930B930C930D935F
:10423800D0ED007AB04B93ED057AF4EEC77AF1EE43
:1042480010FA06D493ED067AF4EEC77AF1EE10FA76
:1042580002DDA94B9B680360D0ED017AA74B93ED73
:10426800057AF4EEC77AF1EE10FA06D493ED067AE1
:10427800F4EEC77AF1EE10FA02DDA04B9B684360BA
:10428800D0ED027A9E4B93ED057AF4EEC77AF1EE03
:1042980010FA06D493ED067AF4EEC77AF1EE10FA26
:1042A80002DD974B9B688360D0ED037A954B93EDC5
:1042B800057AF4EEC77AF1EE10FA06D493ED067A91
:1042C800F4EEC77AF1EE10FA02DD8E4B9B68C360FC
:1042D800D0ED047A8C4B93ED057AF4EEC77AF1EEC3
:1042E80010FA06D493ED067AF4EEC77AF1EE10FAD6
:1042F80002DD854B9B680361D0ED057A834B93ED16
:10430800057AF4EEC77AF1EE10FA06D493ED067A40
:10431800F4EEC77AF1EE10FA02DD7C4B9B6843613C
:10432800002311E000EB8302D2ED007A784A02EB19
:10433800830292ED007A67EE877A0EAA02EB830277
:1043480042ED067A0133DBB2052BEBD9D0ED067AC4
:10435800FCEEE77ACDED017A9DF804600023029324
:1043680003930493059306930793DDED088A624B44
:1043780093ED025A38EEC55A8DED025A9DED099A11
:104388005E4BD3ED025A79EE655ACDED035ADDED59
:104398000A9A5B4B93ED026A39EEC66A8DED046AA0
:1043A8009DED0BAA574BD3ED026A7AEE666ACDED06
:1043B800056ADDED0CAA544B93ED027A3AEEC77A02
:1043C8008DED067A9DED0D8A504BD3ED027A78EE8D
:1043D800677ACDED077AB5EEC05AF1EE10FA2CD90E
:1043E800454B01221A74F5EEC05AF1EE10FA28D99D
:1043F800424B01221A74B5EEC06AF1EE10FA24D9C4
:104408003F4B01221A74F5EEC06AF1EE10FA20D97A
:104418003C4B01221A74B5EEC07AF1EE10FA1CD9A1
:10442800394B01221A74F5EEC07AF1EE10FA18D958
:10443800364B01221A74002319E02F4B00221A74FC
:10444800D1E72E4B00221A74D5E72D4B00221A749F
:10445800D9E72C4B00221A74DDE72B4B00221A7483
:10446800E1E72A4B00221A74E5E70133DBB2052B9A
:1044780011D80EAA02EB830252ED0C7AF5EEC07A3F
:10448800F1EE10FAF1D5F1EE677A0EAA02EB83028B
:1044980042ED0C7AE9E7002411E00EAB03EB84034C
:1044A80053F8300CFCF774F911A3D3E90023FBF798
:1044B800E1FEFCF7C5F945F824000134E4B2052C07
:1044C800EBD9AE610C4BC3ED028A0C4B83ED029A1B
:1044D8000B4BC3ED029A0B4B83ED02AA0A4BC3EDBB
:1044E80002AA0A4B83ED028A0EB0BDEC068B70BDA2
:1044F800B29476B4BBD45F40DC020020C002002036
:10450800A4020020880200206C0200205002002033
:104518001000002010B586B0002300930193029389
:1045280003930493059308E050F8231006AA02EBBE
:10453800830242F8181C0133DBB2052BF4D929E0B9
:1045480008212A4800F0C2F8013C009425E0202107
:10455800274800F0BBF8013C019421E040212448A1
:1045680000F0B4F8013C02941DE04FF480511F485C
:1045780000F0ACF8013C039418E001211C4800F05D
:10458800A5F8013C049414E0962000F0A3F8009BE1
:10459800002B18DB009C002CD2DA019C002CD6DA08
:1045A800029C002CDADA039C002CDEDA049C002C36
:1045B800E3DA059C002CE7DB10210D4800F086F8B3
:1045C800013C0594E0E7019B002BE3DA029B002BFA
:1045D800E0DA039B002BDDDA049B002BDADA059B7B
:1045E800002BD7DA012006B010BD00BF000C024036
:1045F8000000024008B5174B984207D0164B984266
:104608000DD0144B984212D0012008BD0829F5D1CD
:10461800012A09D0002AF7D1FDF77CF8F4E74029F0
:10462800F6D02029EDD1F3E7FDF774F8ECE710296F
:1046380004D0202902D0B1F5807FE5D1012A05D028
:10464800002AE1D10122FDF765F8DDE70022FDF738
:1046580061F8D9E700040240000C024010B5144C80
:10466800144B1A7C08212046FFF7C4FF124B1A7C12
:1046780010212046FFF7BEFF104B1A7C2021204650
:10468800FFF7B8FF0E4B1A7C4FF480712046FFF7F6
:10469800B1FF04F500640B4B1A7C40212046FFF75C
:1046A800A9FF094B1A7C20212046FFF7A3FF10BD64
:1046B80000040240DC020020C0020020A402002006
:1046C800880200206C0200205002002008B5FDF787
:1046D8003DF808BDA82303FB00F0800800BF03468F
:1046E8000138002BFAD1704700B583B0002201923F
:1046F800094B196B41F4800119631B6B03F48003A8
:104708000193019B02213A20FDF7F2FB3A20FDF7C5
:1047180013FC03B05DF804FB00380240DFF834D026
:10472800FFF7D8F80C480D490D4A002302E0D45889
:10473800C4500433C4188C42F9D30A4A0A4C0023E3
:1047480001E013600432A242FBD3FBF76BFDFFF7D5
:104758003DF97047000002200000002028000020DA
:10476800384C000828000020F8020020FEE72DE958
:10477800F04786468C460846089E154674461946F4
:10478800002B40F0C2808542B2FA82F245D94AB184
:10479800C2F1200300FA02FC2EFA03F3954043EA23
:1047A8000C0C94404FEA154EA8B2BCFBFEF8230C43
:1047B8000EFB18CC08FB00F943EA0C43994528D9AD
:1047C800EB1808F1FF3704D2994502D9A8F102077E
:1047D8002B44A3EB0903A4B2B3FBFEFC0EFB1C3372
:1047E8000CFB00F044EA0344A04214D92C190CF144
:1047F800FF3304D2A04202D9ACF102032C44241A9C
:1048080043EA07401EB1D440002334607360BDE81A
:10481800F0874746DDE76346F1E792BB431B01217A
:104828004FEA154EAFB2B3FBFEFC200C0EFB1C3357
:104838000CFB07F840EA0343984562D9EB180CF1E2
:10484800FF3004D2984502D9ACF102002B44A3EB07
:104858000803A4B2B3FBFEFC0EFB1C330CFB07F7EA
:1048680044EA0344A7424ED92C190CF1FF3304D271
:10487800A74202D9ACF102032C44E41B43EA0040EE
:10488800C0E7C2F1200320FA03F1954090402EFAC8
:1048980003F303434FEA154EAFB2B1FBFEFC0EFB28
:1048A8001C10190C0CFB07F841EA0041884504FA72
:1048B80002F422D969180CF1FF3004D2884502D9D4
:1048C800ACF102002944A1EB08019BB2B1FBFEFC4C
:1048D8000EFB1C110CFB07F743EA01439F420ED95C
:1048E800EB180CF1FF3104D29F4202D9ACF102015E
:1048F8002B44DB1B41EA004192E76046E3E761464F
:10490800F7E76046A3E76346B7E7834206D916B9D7
:10491800002108467BE7C6E900E0F9E7B3FA83F728
:104928008FB9834201D3724508D8BEEB020460EB0D
:10493800030301209C461EB9002168E73846FAE7C0
:10494800C6E9004CF8E7C7F1200CBB4022FA0CF48A
:104958001C432EFA0CF120FA0CF3B84001434FEA3D
:1049680014490EFA07F5B3FBF9F81FFA84FE09FBA0
:1049780018300B0C08FB0EFA43EA00439A4502FA7A
:1049880007F240D9E31808F1FF3004D29A4502D95A
:10499800A8F102002344A3EB0A0389B2B3FBF9F898
:1049A80009FB183308FB0EFE41EA03418E452CD95A
:1049B800611808F1FF3304D28E4502D9A8F1020329
:1049C800214443EA0040A0FB0298A1EB0E014145B7
:1049D800CE46434602D306D14D4504D2B9EB020E6A
:1049E80068EB04030138002EA6D0B5EB0E0261EB8C
:1049F800030101FA0CFC22FA07F34CEA0303F9401D
:104A0800C6E9003198E74046C5E74346D9E70000C4
:104A1800F8B500BFF8BC08BC9E467047F8B500BFA3
:084A2800F8BC08BC9E46704773
:104A3000B36B8B3F107B31BEDD008B3F552267B9D6
:104A4000BB03F13F6C18F7BE447269766572732F31
:104A500053544D3332463478785F48414C5F44724A
:104A6000697665722F5372632F73746D33326634B7
:104A700078785F68616C5F6932632E6300000000C4
:104A8000447269766572732F53544D3332463478CD
:104A9000785F48414C5F4472697665722F53726348
:104AA0002F73746D3332663478785F68616C5F722F
:104AB00063632E6300000000447269766572732F91
:104AC00053544D3332463478785F48414C5F4472DA
:104AD000697665722F5372632F73746D3332663447
:104AE00078785F68616C5F6770696F2E63000000A3
:104AF000447269766572732F53544D33324634785D
:104B0000785F48414C5F4472697665722F537263D7
:104B10002F73746D3332663478785F68616C5F64CC
:104B20006D612E6300000000447269766572732F18
:104B300053544D3332463478785F48414C5F447269
:104B4000697665722F5372632F73746D33326634D6
:104B500078785F68616C5F636F727465782E63004C
:104B6000447269766572732F53544D3332463478EC
:104B7000785F48414C5F4472697665722F53726367
:104B80002F73746D3332663478785F68616C5F744C
:104B9000696D2E6300000000447269766572732FA0
:104BA00053544D3332463478785F48414C5F4472F9
:104BB000697665722F5372632F73746D3332663466
:104BC00078785F68616C5F74696D5F65782E6300EB
:104BD000447269766572732F53544D33324634787C
:104BE000785F48414C5F4472697665722F537263F7
:104BF0002F73746D3332663478785F68616C5F75DB
:104C00006172742E63000000000610160006101674
:104C1000000000000102030400000000000000008A
:084C2000010203040607080964
:084C28004EFBFF7F01000000BC
:044C3000F10800087F
:044C3400CD0800089F
:104C380001000000100000000024F4001100000032
:104C48000000584200801C420040204200C00F4231
:084C580000000D4200001A41AA
:040000050800472583
:00000001FF
