:020000040800F2
:10000000000002204D340008F1020008F30200084D
:10001000F5020008F7020008F902000800000000DD
:10002000000000000000000000000000FB020008CB
:10003000FD02000800000000FF02000801030008A4
:100040009D3400089D3400089D3400089D3400084C
:100050009D3400089D3400089D3400089D3400083C
:100060009D3400089D3400089D3400089D3400082C
:100070009D3400089D3400089D3400089D3400081C
:100080009D3400089D3400089D3400089D3400080C
:100090009D3400089D3400089D3400089D340008FC
:1000A0009D3400089D3400089D3400089D340008EC
:1000B0009D3400089D3400089D3400089D340008DC
:1000C0009D3400089D3400089D3400089D340008CC
:1000D0009D34000809030008190300089D34000836
:1000E0009D3400089D3400089D3400089D340008AC
:1000F0009D3400089D3400089D3400089D3400089C
:100100009D3400089D3400089D3400089D3400088B
:100110009D3400089D3400089D3400089D3400087B
:100120009D3400089D3400089D3400089D3400086B
:100130009D3400089D3400089D3400089D3400085B
:100140009D3400089D3400089D3400089D3400084B
:100150009D3400089D3400089D3400089D3400083B
:100160009D3400089D3400089D3400089D3400082B
:100170009D3400089D3400089D34000800000000F4
:080180009D3400089D340008C5
:10018800830730B547D0541E002A3ED0CAB2034672
:1001980001E0013C39D303F8012B9D07F9D1032C69
:1001A8002CD9CDB205EB05250F2C05EB054535D926
:1001B800A4F1100222F00F0C03F1100EE6444FEAEE
:1001C800121C1A46156055609560D560103272454C
:1001D800F8D10CF1010214F00C0F03EB021204F039
:1001E8000F0C13D0ACF1040323F0030304331344BE
:1001F80042F8045B9A42FBD10CF003042CB1C9B25B
:100208001C4403F8011B9C42FBD130BD64461346D5
:10021800002CF4D1F9E703461446C0E71A46A44671
:10022800E0E700BF70B50F4B0F4DAB42A3EB0506DF
:1002380007D0B610002455F8043B01349847A6426D
:10024800F9D803F079FA094D094B5E1BAB424FEA26
:10025800A60606D0002455F8043B01349847A64268
:10026800F9D870BD003900080039000800390008C5
:100278000439000853B94AB9002908BF00281CBF2F
:100288004FF0FF314FF0FF3000F00CB8ADF1080C23
:100298006DE904CE03F0FFF8DDF804E0DDE90223A0
:1002A80004B07047704700BF10B5054C237833B9C8
:1002B800044B13B10448AFF300800123237010BD31
:1002C8000C000020000000004037000808B5034B70
:1002D8001BB103490348AFF3008008BD00000000CC
:1002E8001000002040370008FEE7FEE7FEE7FEE7C3
:1002F800FEE770477047704708B501F07FF808BD02
:1003080008B5024802F082FA08BD00BF18010020B3
:1003180008B5024802F07AFA08BD00BFD0000020F4
:1003280082B0002100910B4B5A6C42F480425A640F
:100338005A6C02F480420092009A01911A6C42F0C1
:1003480080521A641B6C03F080530193019B02B026
:10035800704700BF00380240002800F0338170B5B4
:1003680004460368994A93420CD002F5806293428E
:1003780008D002F58062934204D040F2C911944833
:1003880002F060FC6368013B924A93426ED8A3680E
:1003980013B1B3F5804F6FD1E368B3F5806F71D2B5
:1003A8002369B3F5804F02D0B3F5404F70D163692C
:1003B800012B73D8A36933F0FE0375D1E3690BB140
:1003C800402B77D1236A0BB1802B79D194F83D303B
:1003D800002B7BD0242384F83D302268136823F057
:1003E800010313602268136843F400431360226812
:1003F800136823F40043136000F0FCFC6268764B3A
:100408009A4269D8754B98428CBF00230123002B70
:1004180040F0DA807249A1FB00318B0C25686A68CC
:1004280022F03F0242EA91426A6021680A6A22F099
:100438003F026668684DAE4254D8013313430B62DD
:100448002168CA6922F44F4222F0FF026568624BB4
:100458009D4251D8431E6D00B3FBF5F3013340F6BE
:10046800FC7003427ED0C3F30B037CE04FF4E571CC
:10047800574802F0E7FB8AE740F2CB11544802F0F4
:10048800E1FB89E74FF4E671514802F0DBFB87E7AF
:1004980040F2CD114E4802F0D5FB88E74FF4E771E2
:1004A8004B4802F0CFFB85E740F2CF11484802F0F5
:1004B800C9FB83E74FF4E871454802F0C3FB81E7C5
:1004C80040F2D111424802F0BDFB7FE784F83C308E
:1004D800204602F097FC7DE7424B98428CBF0023F0
:1004E800012394E74FF4967505FB03F33E4DA5FBF6
:1004F80003539B090133A1E7A668C6B9431E05EB60
:10050800450CB3FBFCF30133C3F30B03B3FA83F3DA
:100518005B09002B54D1C6B9431E05EB4505B3FB57
:10052800F5F30133C3F30B0343F400431BE0431E0D
:1005380005EB850C0CEB8C0CB3FBFCF30133C3F31C
:100548000B03B3FA83F35B09E3E7431E05EB850569
:1005580005EB8505B3FBF5F30133C3F30B0343F454
:10056800404300E004231A43CA6121680B6823F062
:10057800C003E269206A024313430B6021688B6859
:1005880023F4034323F0FF032269E0680243134383
:100598008B602168CB6823F0FF036269A06902437E
:1005A8001343CB602268136843F0010313600020F3
:1005B8002064202384F83D30206384F83E0070BD19
:1005C8000123D0E7012070470120F8E700540040DC
:1005D800583700087F1A0600A08601007F841E0095
:1005E80083DE1B43FF083D00D34D6210002800F056
:1005F8005E8270B582B0044603680F2B39D8236831
:1006080013F0010F4DD063682BB1B3F5803F02D0D2
:10061800B3F5A02F32D1804B9B6803F00C03042B59
:1006280036D07D4B9B6803F00C03082B2BD06368F6
:10063800B3F5803F5FD0B3F5A02F62D0764B1A6830
:1006480022F480321A601A6822F480221A606368E1
:10065800002B60D000F0DEFE05466F4B1B6813F4DC
:10066800003F1ED100F0D6FE401B6428F5D90320B8
:1006780024E2E621694802F0E5FAC0E7EB21674881
:1006880002F0E0FAC7E7644B5B6813F4800FCED042
:10069800614B1B6813F4003F03D06368002B00F024
:1006A8000882236813F0020F66D0E368012B41D853
:1006B80023691F2B44D8584B9B6813F00C0F4AD062
:1006C800554B9B6803F00C03082B3FD0E368002BC5
:1006D80077D0534B01221A6000F09CFE05464E4B22
:1006E8001B6813F0020F63D100F094FE401B022830
:1006F800F5D90320E2E1484A136843F480331360D4
:10070800A5E7454B1A6842F480221A601A6842F439
:1007180080321A609BE700F07DFE05463E4B1B6861
:1007280013F4003FBDD000F075FE401B6428F5D9D6
:100738000320C3E140F21D11384802F083FAB7E7FD
:100748004FF48F71354802F07DFAB4E7324B5B689D
:1007580013F4800FBAD1304B1B6813F0020F03D08B
:10076800E368012B40F0A7812B4A136823F0F803B4
:10077800216943EAC1031360236813F0080F51D0BD
:100788006369012B2FD863699BB3254B0122C3F8FA
:10079800802E00F03FFE05461F4B5B6F13F0020FE3
:1007A80040D100F037FE401B0228F5D9032085E12F
:1007B800194A136823F0F803216943EAC103136057
:1007C800DAE7174B00221A6000F024FE0546124BA8
:1007D8001B6813F0020FCFD000F01CFE401B02284C
:1007E800F5D903206AE14FF4AF710C4802F02AFAF8
:1007F800C9E70B4B0022C3F8802E00F00BFE05461C
:10080800054B5B6F13F0020F0CD000F003FE401B8A
:100818000228F5D9032051E100380240903700083A
:1008280000004742236813F0040F7CD0A368012B13
:1008380001D9052B38D1A54B1B6C13F0805F39D13A
:1008480000230193A14B1A6C42F080521A641B6C6E
:1008580003F080530193019B01259D4B1B6813F402
:10086800807F29D0A368012B3AD0052B3ED0974B27
:100878001A6F22F001021A671A6F22F004021A672F
:10088800A368002B3CD000F0C5FD06468F4B1B6FBC
:1008980013F0020F45D100F0BDFD801B41F28833F3
:1008A8009842F3D9032009E14FF4C571894802F051
:1008B800C9F9C0E70025D0E7854A136843F4807377
:1008C800136000F0A7FD0646814B1B6813F4807F78
:1008D800C8D100F09FFD801B0228F5D90320EDE068
:1008E8007A4A136F43F001031367C9E7774B1A6F0E
:1008F80042F004021A671A6F42F001021A67BFE752
:1009080000F088FD0646714B1B6F13F0020F08D0EC
:1009180000F080FD801B41F288339842F3D9032010
:10092800CCE0002D3CD1A369022B3FD8A369002B52
:1009380000F0C380654A926802F00C02082A00F0B1
:100948009180022B7AD1E36913B1B3F5800F33D1CB
:10095800236A023B3D2B35D8636A323BB3F5BF7F30
:1009680036D8A26A082A39D84FF4AA73D34013F0AC
:10097800010F33D0E36A023B0D2B35D8564B0022CA
:100988001A6600F047FD0546504B1B6813F0007FC0
:1009980030D000F03FFD401B0228F5D903208DE040
:1009A8004A4A136C23F080531364BCE740F2CD111C
:1009B800484802F047F9B9E74FF4EB71454802F0AF
:1009C80041F9C5E740F2D711424802F03BF9C3E7C5
:1009D8004FF4EC713F4802F035F9C2E740F2D91103
:1009E8003C4802F02FF9C5E74FF4ED71394802F0A1
:1009F80029F9C3E7E369226A1343626A43EA821367
:100A0800A26A5208013A43EA0243E26A43EA0263ED
:100A18002E4A5360304B01221A6600F0FBFC044654
:100A28002A4B1B6813F0007F06D100F0F3FC001B73
:100A38000228F5D9032041E000203FE0264B0022A0
:100A48001A6600F0E7FC0446204B1B6813F0007F91
:100A580006D000F0DFFC001B0228F5D903202DE0AA
:100A680000202BE0012B2BD0184B5B6803F480018E
:100A7800E269914226D103F03F02216A8A4223D1DA
:100A8800616A47F6C0721A40B2EB811F26D103F49F
:100A98004031A26A5208013AB1EB024F20D103F06B
:100AA8007063E26AB3EB026F1CD1002006E00120FC
:100AB8007047012002E0012000E0002002B070BD74
:100AC8000120FBE70120F9E70120F7E700380240A1
:100AD8000070004090370008000047420120EDE711
:100AE8000120EBE70120E9E708B5334B9B6803F0E9
:100AF8000C03042B5BD0082B5BD12F4B5A6802F0F8
:100B08003F025B6813F4800F2CD02B4B5868C0F35E
:100B180088104FEA401CBCEB000C6EEB0E0E4FEA3F
:100B28008E1343EA9C634FEA8C11B1EB0C0163EB23
:100B38000E03DB0043EA5173C90011EB000C43F1CB
:100B48000003590200234FEA4C2041EADC51FFF729
:100B580091FB194B5B68C3F3014301335B00B0FBA6
:100B6800F3F008BD144B5868C0F388104FEA401CD6
:100B7800BCEB000C6EEB0E0E4FEA8E1343EA9C633F
:100B88004FEA8C11B1EB0C0163EB0E03DB0043EA77
:100B98005173C90011EB000C43F1000399020023C3
:100BA8004FEA8C2041EA9C51FFF764FBD1E70348E8
:100BB800D7E70348D5E700BF0038024000127A00A3
:100BC8000024F400002800F0FA8070B50D460446B1
:100BD8000368013B0E2B32D8072D36D87C4B1B6897
:100BE80003F00703AB4208D2EBB2794A13701368DB
:100BF80003F00703AB4240F0E480236813F0020FD0
:100C08003ED013F0040F04D0724A936843F4E053C3
:100C18009360236813F0080F04D06E4A936843F476
:100C280060439360A36823B3C02B22D016D8A02BAF
:100C38001FD010D8802B1CD0902B1AD014E040F273
:100C48005A21654801F0FEFFC6E740F25B21624881
:100C580001F0F8FFC2E7B02B0BD005E0E02B08D07D
:100C6800F02B06D0D02B04D040F27E215A4801F058
:100C7800E9FF584A936823F0F003A1680B43936097
:100C8800236813F0010F3CD06368032B25D86368F1
:100C9800012B28D09A1E012A2CD94E4A126812F02C
:100CA800020F00F090804B498A6822F00302134338
:100CB8008B6000F0AFFB0646464B9B6803F00C03C5
:100CC8006268B3EB820F1CD000F0A4FB801B41F2DA
:100CD80088339842F0D9032064E040F285213E48E9
:100CE80001F0B0FFD3E73B4A126812F4003FDAD1B3
:100CF800012057E0374A126812F0007FD3D1012053
:100D080050E0334B1B6803F00703AB4207D9EAB244
:100D18002F4B1A701B6803F00703AB4255D12368A9
:100D280013F0040F14D0E3685BB1B3F5805F08D00B
:100D3800B3F5A05F05D0B3F5C05F02D0B3F5E05FAF
:100D480031D1244A936823F4E053E1680B4393605C
:100D5800236813F0080F15D023695BB1B3F5805FE2
:100D680008D0B3F5A05F05D0B3F5C05F02D0B3F5E6
:100D7800E05F1ED1174A936823F46043216943EA70
:100D8800C1039360FFF7B0FE124B9B68C3F30313D4
:100D9800124AD35CD840124B1860124B186800F006
:100DA800EDFA002070BD40F2C3210B4801F04AFF64
:100DB800C7E740F2CA21084801F044FFDAE70120FA
:100DC80070470120EEE70120ECE70120EAE700BFC9
:100DD800003C02400038024090370008E83800081C
:100DE8000800002004000020014B1868704700BF6D
:100DF8000800002008B5FFF7F7FF044B9B68C3F312
:100E08008223034AD35CD84008BD00BF00380240A3
:100E1800E038000808B5FFF7E7FF044B9B68C3F309
:100E28004233034AD35CD84008BD00BF00380240B3
:100E3800E03800082DE9F04182B007460E46A54B80
:100E4800984223D003F5806398421FD003F580634E
:100E580098421BD003F58063984217D003F580634E
:100E6800984213D003F5806398420FD003F580634E
:100E780098420BD003F58063984207D003F580634E
:100E8800984203D0AC21944801F0DCFE33689AB252
:100E980012B1B3F5803F03D3AD218F4801F0D2FEE4
:100EA8007368B3F5041F1BD00DD8B3F5881F17D08E
:100EB80005D8032B14D9113B012B11D90CE0B3F53C
:100EC800901F0DD008E0B3F5441F09D0B3F5481FB3
:100ED80006D0B3F5081F03D0AE217F4801F0B2FE5B
:100EE800002475E0F368032B13D8BA686100032364
:100EF8008B4022EA0302F3688B401343BB607A6895
:100F080022EA05027368C3F30013A34013437B600E
:100F18006FE0C021704801F095FEE6E7D1216E48E8
:100F280001F090FE6DE0336913B10D2B11D893B128
:100F3800E208083257F8220004F0070189000F235D
:100F48008B4020EA030033698B40034347F8223083
:100F580066E00F2BECD0DE215F4801F073FEE7E777
:100F6800072300E000238B40034302325B4941F82A
:100F780022305B4B9A686FEA080322EA080170681E
:100F880010F4801F01D048EA0201554A9160D268E6
:100F980003EA0201706810F4001F01D048EA020158
:100FA8004F4AD160526803EA0201706810F4003FAA
:100FB80001D048EA02014A4A516012681340716838
:100FC80011F4803F01D048EA0203454A1360013416
:100FD8000F2C7CD80125A540336803EA050835EABB
:100FE8000303F4D1736803F00303013B012B7FF67D
:100FF80079AF736803F00303032B0CD0B368022B9B
:101008008CD8FA68610003238B4022EA0302B36894
:101018008B401343FB60736803F00303022B82D0F9
:101028003A68610003238B4022EA0302736803F0E5
:1010380003038B4013433B60736813F4403FC6D0EF
:1010480000230193274B5A6C42F480425A645B6C2C
:1010580003F480430193019BA208911C1F4B53F892
:10106800210004F0030189000F238B4020EA0300CC
:10107800184B9F423FF476AF03F580639F421AD026
:1010880003F580639F4218D003F580639F4216D012
:1010980003F580639F4214D003F580639F4212D00A
:1010A80003F580639F4210D003F580639F423FF4AD
:1010B80057AF082357E7012355E7022353E70323D4
:1010C80051E704234FE705234DE706234BE702B01A
:1010D800BDE8F08100000240C83700080038014030
:1010E800003C01400038024038B504460D4621B1A5
:1010F80023691D4207D0012038BD4FF4BE71034853
:1011080001F0A0FDF4E70020F6E700BFC8370008AB
:1011180070B5054614460E4621B1012C08D86CB1AD
:10112800AE6170BD40F29D11064801F08BFDF4E7F9
:101138004FF4CF71034801F085FDF0E73604AE6146
:10114800EFE700BFC837000838B505460C4641B17F
:101158006B6904EA030224EA030444EA0244AC612A
:1011680038BD4FF4DB71024801F06CFDF0E700BFB9
:10117800C837000870B50446866D00F04BF994F83E
:101188003530DBB2022B06D080236365002384F858
:101198003430012070BD05462268136823F0160319
:1011A80013602268536923F080035361236CE3B111
:1011B8002268136823F0080313602268136823F079
:1011C8000103136023681B6813F0010F11D000F0AE
:1011D80021F9431B052BF5D920236365032084F8E7
:1011E8003500002384F83430D4E7A36C002BDFD11A
:1011F800E3E7E26D3F239340B360012384F8353081
:10120800002084F83400C5E790F83530DBB2022BB3
:1012180003D08023436501207047052380F83530CB
:101228000268136823F00103136000207047000070
:10123800002807DB00F01F02400901239340024AFF
:1012480042F82030704700BF00E100E0002808DBCA
:101258000901C9B200F1604000F5614080F800134F
:10126800704700F00F000901C9B2014B19547047CB
:1012780014ED00E000B500F00700C0F1070CBCF168
:10128800040F28BF4FF0040C031D062B0FD9C31EF3
:101298004FF0FF3E0EFA0CF021EA000199400EFAD9
:1012A80003FE22EA0E0241EA02005DF804FB002375
:1012B800EEE7000010B50446C31E042B0FD80A4AF7
:1012C800D36823F4E0631B041B0C240204F4E064D9
:1012D800234343F0BF6343F40033D36010BD902130
:1012E800024801F0AFFCEAE700ED00E00038000832
:1012F80070B506460C4615460F2A0ED80F2C11D885
:101308000B4BD8682A462146C0F30220FFF7B2FFEC
:1013180001463046FFF79AFF70BDA821054801F045
:1013280091FCEBE7A921034801F08CFCE8E700BF3A
:1013380000ED00E00038000810B5041E03DB20466D
:10134800FFF776FF10BDBC21014801F07BFCF6E7F2
:10135800003800080138B0F1807F0BD24FF0E0234D
:101368005861054AF02182F823100020986107226D
:101378001A6170470120704700ED00E010B504467F
:101388000E4B1A784FF47A73B3FBF2F30C4A1068D9
:10139800B0FBF3F0FFF7DEFF68B90F2C01D901208D
:1013A8000AE0002221464FF0FF30FFF7A1FF054B6E
:1013B8001C60002000E0012010BD00BF00000020DC
:1013C800080000200400002008B50B4B1A6842F4FE
:1013D80000721A601A6842F480621A601A6842F44D
:1013E80080721A600320FFF765FF0F20FFF7C6FF22
:1013F800FEF796FF002008BD003C0240034A116832
:10140800034B1B780B441360704700BF2800002073
:1014180000000020014B1868704700BF280000201A
:1014280038B50446FFF7F6FF0546B4F1FF3F02D092
:10143800044B1B781C44FFF7EDFF401BA042FAD376
:1014480038BD00BF0000002010B4036A046A24F00D
:1014580001040462846924F0F00C4CEA021223F0BF
:101468000A030B43826103625DF8044B704710B4B2
:10147800036A046A24F010040462846924F4704C3A
:101488004CEA023223F0A00343EA011382610362AB
:101498005DF8044B7047836823F070030B4343F0F7
:1014A80007038360704700002DE9F04104460D46AC
:1014B800036A026A22F0010202624768826922F026
:1014C8007302096841EA020823F00203AE681E436A
:1014D800204B984203D003F58063984209D1EB680A
:1014E8000BB1082B24D126F00806EB68334323F010
:1014F8000406184B9C4203D003F580639C420FD12D
:10150800AB69B3F5007F00D0C3B96B69B3F5807FD1
:1015180000D0CBB927F440776B693B43AF691F43D1
:101528006760C4F818806B6863632662BDE8F08161
:1015380041F6CD21084801F085FBD4E741F6DA21D0
:10154800054801F07FFBE0E741F6DB21024801F0A6
:1015580079FBDFE700000140383800082DE9F04149
:1015680004460E46056A036A23F4807303624768DB
:10157800C36923F073030A6842EA030825F4007577
:101588008B6845EA0325224B984203D003F5806314
:1015980098420AD1F3680BB1082B27D125F40065CE
:1015A800F36845EA032525F48065194B9C4203D06E
:1015B80003F580639C4211D1B369B3F5007F00D075
:1015C800D3B97369B3F5807F00D0DBB927F44057EE
:1015D800736947EA0317B36947EA03176760C4F8F2
:1015E8001C807368E3632562BDE8F08141F66431CD
:1015F800084801F027FBD1E741F67131054801F0B1
:1016080021FBDEE741F67231024801F01BFBDDE702
:1016180000000140383800082DE9F04104460D4625
:10162800066A036A23F480530362D0F80480C7690A
:1016380027F4E6470B6847EA032726F400568B6829
:1016480046EA03360F4B984203D003F5806398426D
:1016580009D16B69B3F5807F00D063B928F480485D
:101668006B6948EA8318C4F80480E7616B682364EF
:101678002662BDE8F08141F6B131034801F0E2FA93
:10168800ECE700BF00000140383800087047000050
:101698000368324A904212D0B0F1804F0FD0A2F5C1
:1016A8007C4290420BD002F58062904207D002F54E
:1016B8008062904203D002F57842904203D123F031
:1016C80070034A681343254A90422AD0B0F1804FEC
:1016D80027D0A2F57C42904223D002F58062904246
:1016E8001FD002F5806290421BD002F578429042EA
:1016F80017D002F57052904213D002F580629042E2
:101708000FD002F5806290420BD0A2F59832904239
:1017180007D002F58062904203D002F580629042C1
:1017280003D123F44073CA68134323F080034A6942
:1017380013438A68C2620A688262084A904203D0E8
:1017480002F58062904201D10A690263026842F0A0
:1017580004020260012242610360704700000140F8
:10176800002800F0A98010B504460368534A934244
:1017780037D0B3F1804F34D0A2F57C42934230D0B9
:1017880002F5806293422CD002F58062934228D001
:1017980002F58062934224D002F58062934220D001
:1017A80002F5704293421CD002F57052934218D051
:1017B80002F58062934214D002F58062934210D001
:1017C800A2F5983293420CD002F58062934208D079
:1017D80002F58062934204D040F21311384801F0B8
:1017E80031FAA3683BB1102B05D0202B03D0402B36
:1017F80001D0602B17D123692BB1B3F5807F02D0BC
:10180800B3F5007F15D12368B3F1804F17D02D4A67
:10181800934214D0E368013B4FF6FE7293428CBFAB
:10182800002301230FE04FF48A71254801F00AFADA
:10183800E1E740F21511224801F004FAE3E7E36812
:10184800003B18BF01232BB3A3690BB1802B27D111
:1018580094F83D3053B3022384F83D30214651F8C3
:10186800040BFFF715FF012384F8463084F83E3057
:1018780084F83F3084F8403084F8413084F84230AE
:1018880084F8433084F8443084F8453084F83D3097
:10189800002010BD4FF48B71094801F0D3F9D3E74C
:1018A80040F21711064801F0CDF9D1E784F83C3031
:1018B800204601F0DFFACEE7012070470000014022
:1018C80038380008000C0040002800F0A98010B546
:1018D80004460368534A934237D0B3F1804F34D05B
:1018E800A2F57C42934230D002F5806293422CD01C
:1018F80002F58062934228D002F58062934224D098
:1019080002F58062934220D002F5704293421CD0C7
:1019180002F57052934218D002F58062934214D0B7
:1019280002F58062934210D0A2F5983293420CD00F
:1019380002F58062934208D002F58062934204D097
:1019480040F22C51384801F07DF9A3683BB1102BC7
:1019580005D0202B03D0402B01D0602B17D1236951
:101968002BB1B3F5807F02D0B3F5007F15D1236882
:10197800B3F1804F17D02D4A934214D0E368013B4E
:101988004FF6FE7293428CBF002301230FE040F212
:101998002D51254801F056F9E1E740F22E51224831
:1019A80001F050F9E3E7E368003B18BF01232BB3CC
:1019B800A3690BB1802B27D194F83D3053B3022390
:1019C80084F83D30214651F8040BFFF761FE0123EE
:1019D80084F8463084F83E3084F83F3084F840304C
:1019E80084F8413084F8423084F8433084F8443035
:1019F80084F8453084F83D30002010BD40F22F5166
:101A0800094801F01FF9D3E74FF4A661064801F031
:101A180019F9D1E784F83C302046FFF737FECEE7C6
:101A2800012070470000014038380008000C0040D1
:101A38002DE9F04104460E46056A036A23F01003B7
:101A48000362D0F80480876927F4E6470B6847EA01
:101A5800032725F020058B6845EA0315224B984299
:101A680003D003F5806398420AD1F3680BB1082BC1
:101A780027D125F08005F36845EA031525F04005D0
:101A8800194B9C4203D003F580639C4211D1B36982
:101A9800B3F5007F00D0D3B97369B3F5807F00D068
:101AA800DBB928F44068736948EA8308B36948EAEF
:101AB8008308C4F80480A7617368A3632562BDE83E
:101AC800F08141F61931094801F0BCF8D1E741F637
:101AD8002631064801F0B6F8DEE741F6273103481B
:101AE80001F0B0F8DDE700BF000001403838000819
:101AF80070B504460D4616460C2A2CD841F211132F
:101B0800D34013F0010F28D02B68602B01D0702B25
:101B180029D1AB680BB1022B2BD12B690BB1042B4C
:101B28002DD194F83C30012B00F01A81012384F860
:101B38003C300C2E00F20F81DFE816F027000D0173
:101B48000D010D0170000D010D010D01AA000D011F
:101B58000D010D01DB003C2AD6D041F282018148FB
:101B680001F070F8D0E741F283017E4801F06AF88D
:101B7800CFE741F284017B4801F064F8CDE741F2F8
:101B88008501784801F05EF8CBE72368764A9342EE
:101B98002FD0B3F1804F2CD0A2F57C42934228D0AD
:101BA80002F58062934224D002F58062934220D0ED
:101BB80002F5784293421CD002F57052934218D035
:101BC80002F58062934214D002F58062934210D0ED
:101BD800A2F5983293420CD002F58062934208D065
:101BE80002F58062934204D041F28F015D4801F012
:101BF80029F829462068FFF757FC2268936943F0C3
:101C0800080393612268936923F0040393612268AF
:101C1800936929690B43936100209DE02368524A28
:101C280093421FD0B3F1804F1CD0A2F57C4293425F
:101C380018D002F58062934214D002F58062934274
:101C480010D002F5784293420CD002F570529342BC
:101C580008D0A2F59432934204D04FF485514148FC
:101C680000F0F0FF29462068FFF7E2FE226893693A
:101C780043F4006393612268936923F4806393615A
:101C880022689369296943EA01239361002063E08C
:101C98002368354A934217D0B3F1804F14D0A2F588
:101CA8007C42934210D002F5806293420CD002F538
:101CB8008062934208D002F57842934204D041F200
:101CC800B101284800F0BEFF29462068FFF746FC0E
:101CD8002268D36943F00803D3612268D36923F0EB
:101CE8000403D3612268D36929690B43D3610020B7
:101CF80032E023681C4A934217D0B3F1804F14D0C6
:101D0800A2F57C42934210D002F5806293420CD037
:101D180002F58062934208D002F57842934204D0DB
:101D280041F2C2010F4800F08DFF29462068FFF7F5
:101D380073FC2268D36943F40063D3612268D369D2
:101D480023F48063D3612268D369296943EA0123B4
:101D5800D361002000E00120002384F83C3070BDEE
:101D68000220FCE7383800080000014010B48468FD
:101D780024F47F4C42EA03220A4342EA0C028260BE
:101D88005DF8044B7047000038B590F83C30012BE3
:101D980000F0728204460D46012380F83C3002238D
:101DA80080F83D300B68702B06D046D8502B03D0F6
:101DB800602B01D0402B46D12268936823F47F43DF
:101DC80023F0770393602B68602B00F0AB8100F25F
:101DD8008F80402B00F0ED8149D8202B03D042D8CA
:101DE8000BB1102B3DD123689D4A93421FD0B3F10C
:101DF800804F1CD0A2F57C42934218D002F5806235
:101E0800934214D002F58062934210D002F57842D2
:101E180093420CD002F57052934208D0A2F5943246
:101E2800934204D041F235518E4800F00BFF2968E7
:101E38002068FFF730FB0020AAE0B3F5805FBBD035
:101E4800B3F5005FB8D0002BB6D0102BB4D0202B40
:101E5800B2D0302BB0D041F2C341824800F0F2FE3C
:101E6800AAE7012094E0302BBDD0012090E0502B50
:101E78003CD123687A4A93421FD0B3F1804F1CD0DB
:101E8800A2F57C42934218D002F58062934214D0A6
:101E980002F58062934210D002F5784293420CD04A
:101EA80002F57052934208D0A2F59432934204D0BE
:101EB80041F202516B4800F0C5FE6B68B3F5004F64
:101EC80005D023B1022B02D00A2B40F01F81EB680A
:101ED8000F2B00F22181EA6869682068FFF7B4FADD
:101EE80050212068FFF7D7FA002051E001204FE089
:101EF800B3F5805F55D0B3F5005F00F0B580702B67
:101F08004DD12368564A93421FD0B3F1804F1CD05D
:101F1800A2F57C42934218D002F58062934214D015
:101F280002F58062934210D002F5784293420CD0B9
:101F380002F57052934208D0A2F59432934204D02D
:101F480041F2D641474800F07DFEAB6843B1B3F596
:101F5800805F05D0B3F5005F02D0B3F5405F6CD168
:101F68006B68B3F5004F04D01BB1022B01D00A2BCC
:101F780069D1EB680F2B6CD8EB686A68A968206890
:101F8800FFF7F4FE2268936843F07703936000201C
:101F9800012384F83D30002384F83C3038BD01200B
:101FA800F6E723682E4A934200F04A81B3F1804F46
:101FB80000F04881A2F57C42934200F0458102F589
:101FC8008062934200F0428102F58062934200F001
:101FD8003F8102F58062934200F03C8102F5806205
:101FE800934200F0398102F57042934200F0368145
:101FF80002F57052934200F0338102F580629342F9
:1020080000F0308102F58062934200F02D81A2F544
:102018009832934200F02A8102F58062934200F0E0
:10202800278102F58062934200F0248141F2CF417A
:102038000C4800F007FE0020AAE741F2D941094800
:1020480000F000FE8CE741F2DA41064800F0FAFDA4
:102058008FE741F2DB41034800F0F4FD8CE700BF55
:1020680000000140383800082368844A934217D09A
:10207800B3F1804F14D0A2F57C42934210D002F500
:10208800806293420CD002F58062934208D002F538
:102098007842934204D041F2EE41794800F0D2FDF3
:1020A800AB6843B1B3F5805F05D0B3F5005F02D0EC
:1020B800B3F5405F18D16B68B3F5004F04D01BB17E
:1020C800022B01D00A2B15D1EB680F2B18D8EB681F
:1020D8006A68A9682068FFF749FE2268936843F494
:1020E80080439360002053E741F2F141644800F0D7
:1020F800A9FDE0E741F2F241614800F0A3FDE3E702
:1021080041F2F3415E4800F09DFDE0E741F20551E0
:102118005B4800F097FDDAE641F20651584800F0B6
:1021280091FDD8E62368554A93421FD0B3F1804FFA
:102138001CD0A2F57C42934218D002F580629342EB
:1021480014D002F58062934210D002F5784293428F
:102158000CD002F57052934208D0A2F59432934203
:1021680004D041F21251464800F06CFD6B68B3F59B
:10217800004F04D01BB1022B01D00A2B0DD1EB6804
:102188000F2B10D8EA6869682068FFF770F960219A
:102198002068FFF780F90020FAE641F21551384827
:1021A80000F050FDEBE741F21651354800F04AFDCA
:1021B800E8E72368314A93421FD0B3F1804F1CD01F
:1021C800A2F57C42934218D002F58062934214D063
:1021D80002F58062934210D002F5784293420CD007
:1021E80002F57052934208D0A2F59432934204D07B
:1021F80041F22251224800F025FD6B68B3F5004FEB
:1022080004D01BB1022B01D00A2B0DD1EB680F2B88
:1022180010D8EA6869682068FFF716F94021206835
:10222800FFF739F90020B3E641F22551144800F0D0
:1022380009FDEBE741F22651114800F003FDE8E7FC
:102248000020A5E60020A3E60020A1E600209FE6E6
:1022580000209DE600209BE6002099E6002097E6F6
:10226800002095E6002093E6002091E600208FE606
:1022780000208DE600208BE602208FE6000001405A
:102288003838000838B504460D460368414A934279
:102298001FD0B3F1804F1CD0A2F57C42934218D0D6
:1022A80002F58062934214D002F58062934210D006
:1022B80002F5806293420CD002F58062934208D006
:1022C80002F57042934204D040F2A971324800F0FE
:1022D800B9FC2B686BB1402B0BD04CD8202B08D005
:1022E800302B06D0102B04D040F2AA712A4800F0F7
:1022F800A9FC6B68802B01D0002B43D194F83C30AB
:10230800012B45D0012384F83C30022384F83D306A
:1023180023685968986821F070012A680A435A604E
:1023280023681C4A93421AD0B3F1804F17D0A2F504
:102338007C42934213D002F5806293420FD002F59B
:10234800806293420BD002F57842934207D002F59F
:102358007052934203D0A2F59432934204D120F0F4
:1023680080006A6802439A60012384F83D300020A7
:1023780084F83C0038BD602BBBD0702BB9D0502BF3
:10238800B2D1B6E740F2AB71034800F05BFCB5E7A9
:102398000220EFE70000014070380008026802F1EF
:1023A8000C0353E8003F23F490730C3242E80031E9
:1023B8000029F3D1026802F1140353E8003F23F027
:1023C8000103143242E800310029F3D1036B012BD9
:1023D80005D0202380F84230002303637047026849
:1023E80002F10C0353E8003F23F010030C3242E8DB
:1023F80000310029F3D1ECE790F84130DBB2212B12
:1024080001D0022070478368B3F5805F17D0036A54
:102418005A1C02621A7803685A60C38C9BB2013B4B
:102428009BB2C3844BB90268D36823F08003D3609E
:102438000268D36843F04003D36000207047036903
:10244800002BE4D1036A1B880268C3F308035360B6
:10245800036A02330362E0E710B504464268574B4B
:102468009A423FD8E36813B1B3F5005F40D12369BE
:102478002BB1B3F5806F02D0B3F5C06F3ED163695D
:102488004FF6F372134200D123B940F69C614C48D1
:1024980000F0D8FB2268136923F44053E1680B432A
:1024A8001361A36822691A4363691A43E3691A43EB
:1024B8002168CB6823F4164323F00C031343CB6045
:1024C8002268536923F44073A1690B43536123685D
:1024D8003C4A934218D002F58062934214D0FEF72A
:1024E80089FC13E040F69961354800F0ABFBB9E789
:1024F80040F69A61324800F0A5FBB8E740F69B61C8
:102508002F4800F09FFBBAE7FEF784FCE369B3F5B8
:10251800004F29D00021031849411B1841F100013F
:10252800C90041EA5371DB00181863684FEA830257
:102538004FEA937341F10001FDF79CFE224AA2FB8A
:1025480000314909642303FB11031B013233A2FB49
:1025580003235B0903F0F00202EB011203F00F03FF
:10256800216813448B6010BD0023021843EB03015C
:10257800121841F10001C90041EA5271D200101845
:1025880041F10001626892185B41FDF773FE0E4A43
:10259800A2FB00314909642303FB1103DB0032333A
:1025A800A2FB03235B095A0002F4F87202EB011242
:1025B80003F00703216813448B60D4E7A037A00019
:1025C800A8380008001001401F85EB51002800F0D2
:1025D8008C8010B504468369002B56D00368444AA2
:1025E800934210D0A2F54C4293420CD002F580627F
:1025F800934208D002F54C42934204D040F2731142
:102608003C4800F01FFBA36943B1B3F5807F05D0B8
:10261800B3F5007F02D0B3F5407F30D1A36813B182
:10262800B3F5805F4FD1E36913B1B3F5004F50D1D3
:1026380094F84130002B52D0242384F8413022688A
:10264800D36823F40053D3602046FFF705FF2268C0
:10265800136923F4904313612268536923F02A0312
:1026680053612268D36843F40053D3600020606448
:10267800202384F8413084F84230606310BD4FF461
:10268800BA711C4800F0DEFAC8E70368184A93429A
:10269800C4D0A2F54C429342C0D002F58062934266
:1026A800BCD002F580629342B8D002F580629342B2
:1026B800B4D002F544429342B0D04FF4BC710D48F7
:1026C80000F0C0FAAAE74FF4BD710A4800F0BAFA60
:1026D800A9E740F27B11074800F0B4FAA8E784F8AC
:1026E8004030204600F098FCA6E70120704700BF64
:1026F80000100140A8380008704708B50168CA688A
:1027080022F04002CA60202280F84120FFF7F4FF3F
:10271800002008BD704708B5806B0023C385FFF70C
:10272800F9FF08BD704790F84230DBB2222B69D11F
:102738008368B3F5805F4FD0826AB3F5805F04D0B9
:10274800002B56D10369002B53D103685B681370C3
:10275800836A01338362C38D9BB2013B9BB2C385FD
:10276800002B51D100B583B00268D36823F0200351
:10277800D3600268D36823F48073D3600268536916
:1027880023F001035361202380F842300023436380
:10279800036B012B33D100230363026802F10C039E
:1027A80053E8003F23F010030C3242E800310029BF
:1027B800F3D103681A6812F0100F06D000220192B4
:1027C8001A6801925B680193019B818DFFF7AAFF4C
:1027D800002003B05DF804FB0269002AACD1826ACC
:1027E80003685B68C3F308031380836A0233836258
:1027F800B1E703685B6803F07F031370A8E700F094
:102808008DF9E5E7022070470020704710B582B0C7
:10281800044602681368D068516913F00F0F09D194
:1028280013F0200F0CD010F0200F09D02046FFF72E
:102838007AFF16E011F0010115D110F4907F12D142
:10284800216B012979D013F0800F03D010F0800F8D
:1028580040F0218113F0400F03D010F0400F40F0FA
:102868001E8102B010BD13F0010F06D010F4807F56
:1028780003D0626C42F00102626413F0040F04D0CA
:1028880019B1626C42F00202626413F0020F04D0C4
:1028980019B1626C42F00402626413F0080F07D0A9
:1028A80010F0200F00D119B1626C42F00802626486
:1028B800626C002AD5D013F0200F02D010F0200F40
:1028C80029D123685B6903F04003626C12F0080F9A
:1028D80000D163B32046FFF761FD23685B6913F0FD
:1028E800400F20D0226802F1140353E8003F23F080
:1028F8004003143242E800310029F3D1E36B73B18D
:10290800694A1A65E06BFEF77FFC0028A9D0E06BE6
:10291800036D9847A5E72046FFF705FFD1E7204656
:10292800FFF7F8FE9DE72046FFF7F4FE99E72046FB
:10293800FFF7F0FE0023636493E713F0100F82D0D3
:1029480010F0100F3FF47FAF002301931368019339
:1029580053680193019B536913F0400F5FD0E26BFA
:1029680013685B689BB2002B4AD0A18D994247D966
:10297800E385D369B3F5807F37D0226802F10C0371
:1029880053E8003F23F480730C3242E800310029F9
:10299800F3D1226802F1140353E8003F23F0010346
:1029A800143242E800310029F3D1226802F11403FD
:1029B80053E8003F23F04003143242E80031002975
:1029C800F3D1202384F8423000232363226802F1E4
:1029D8000C0353E8003F23F010030C3242E80031A7
:1029E8000029F3D1E06BFEF7C5FB02236363A18DD9
:1029F800E38D9BB2C91A89B22046FFF793FE30E7F0
:102A0800A18D99427FF42DAFD369B3F5807F7FF410
:102A180028AF022363632046FFF784FE21E7A18DD8
:102A2800E38D9BB2C91A89B2E38D9BB2002B3FF4A8
:102A380018AF00293FF415AF226802F10C0353E8E0
:102A4800003F23F490730C3242E800300028F3D1A1
:102A5800226802F1140353E8003F23F00103143203
:102A680042E800300028F3D1202384F842300023C4
:102A78002363226802F10C0353E8003F23F010039C
:102A88000C3242E800300028F3D102236363204669
:102A9800FFF748FEE5E62046FFF7AEFCE1E62046F4
:102AA800FFF72BFEDDE600BF1F2700088162828545
:102AB800C28500234364222380F84230036923B18E
:102AC8000268D36843F48073D3600268536943F0A3
:102AD800010353610268D36843F02003D3600020E8
:102AE800704708B590F84230DBB2202B08D149B1C5
:102AF8000AB9012008BD00230363FFF7D7FFF9E7F0
:102B08000220F7E70120F5E7034AD2F8883043F4BA
:102B18007003C2F88830704700ED00E008B5064B36
:102B2800834200D008BD054B01221A7003220449D4
:102B38000148FFF7D6FFF5E7180100202C00002018
:102B48003000002072B6FEE700B595B030220021B3
:102B580008A8FDF715FB0023039304930593069338
:102B6800079301931E4A116C41F080511164126C55
:102B780002F080520192019A02931A4B1A6842F4A9
:102B880080421A601B6803F480430293029B01236E
:102B980008934FF48033099302220E924FF4800376
:102BA8000F9304231093482111911292139308A8AC
:102BB800FDF71CFD80B90F23039302210491002324
:102BC80005934FF480520692079303A8FDF7FAFF86
:102BD80020B915B05DF804FBFFF7B4FFFFF7B2FFAB
:102BE800003802400070004000B589B0FEF7ECFBE9
:102BF800FFF7AAFF00F028F800F0DAF900F0E4F88F
:102C080000F07EF900F0EEF900F076FA00F022FB11
:102C1800032209490948FFF764FF0023019302933F
:102C280003930493064A0592069307934FF4FA60B8
:102C3800FEF7F6FBFEE700BF300000201801002079
:102C4800DA0FC940704700002DE9F0438DB0002429
:102C58000794089409940A940B940194544B1A6BA2
:102C680042F080021A631A6B02F080020192019A04
:102C780002941A6B42F001021A631A6B02F0010205
:102C88000292029A03941A6B42F008021A631A6BB2
:102C980002F008020392039A04941A6B42F040026D
:102CA8001A631A6B02F040020492049A05941A6B94
:102CB80042F002021A631A6B02F002020592059AA8
:102CC80006941A6B42F010021A631B6B03F0100390
:102CD8000693069BDFF8E890012271214846FEF72B
:102CE80017FA344E01224FF483513046FEF710FA9A
:102CF800224608213046FEF70BFADFF8C880012289
:102D08004FF44E714046FEF703FA2B4F012211464D
:102D18003846FEF7FDF971230793012508950994B4
:102D28000A9507A94846FEF785F84FF4805307939C
:102D3800089509940A9507A93046FEF77BF844F2EE
:102D48007C0307930894099507A91C48FEF772F8B5
:102D580008230793089509950A9507A93046FEF7B1
:102D680069F8902307930894099507A93046FEF758
:102D780061F860230793089509940A9407A93046D7
:102D8800FEF758F84FF44E730793089509940A9480
:102D980007A94046FEF74EF80795089509940A9446
:102DA80007A93846FEF746F80DB0BDE8F08300BF26
:102DB80000380240000C0240001002400018024097
:102DC800000002400004024008B50B480B4B0360AA
:102DD8000B4B436000238360C3604FF48042026161
:102DE80043618361C3610362FDF7B6FA00B908BDA8
:102DF800FFF7A8FEFBE700BF3400002000540040A6
:102E0800801A060030B589B0002303930493059314
:102E1800069307930268144B9A4201D009B030BD5B
:102E280000250195114C236B43F002032363236BA8
:102E380003F002030193019BC0230393122304931D
:102E4800032306930423079303A90948FDF7F2FF18
:102E58000295236C43F400132364236C03F40013DA
:102E68000293029BDAE700BF00540040003802409A
:102E7800000402400268094B9A4200D0704782B0B1
:102E880000230193064B1A6C42F002021A641B6C71
:102E980003F002030193019B02B070470004004055
:102EA8000038024000B587B00023019302930393D2
:102EB8000493059302680F4B9A4202D007B05DF85D
:102EC80004FB002300930C4B1A6B42F001021A63B7
:102ED8001B6B03F001030093009B802301930223E3
:102EE800029301220492059301A90448FDF7A2FF69
:102EF800E4E700BF00040040003802400000024040
:102F080000B58FB000230A930B930C930D9308938D
:102F180009930193029303930493059306930793EC
:102F28002148224A026047224260836044F62062B8
:102F3800C26003618361FEF713FC30BB4FF480531A
:102F48000A930AA91848FEF71FFF08BB1648FEF7A0
:102F5800BBFC00BB00230893099308A91248FFF79C
:102F680091F9D8B960230193002302930393059341
:102F780004220DEB02010C48FEF7BAFD88B90A4895
:102F8800FFF790FF0FB05DF804FBFFF7DBFDD5E717
:102F9800FFF7D8FDDAE7FFF7D5FDDBE7FFF7D2FD4E
:102FA800E0E7FFF7CFFDEAE78800002000040040D3
:102FB80008B50A480A4B03604FF4E1334360002325
:102FC8008360C36003610C2242618361C361FFF7C0
:102FD800FDFA00B908BDFFF7B5FDFBE718010020B1
:102FE8000010014008B50A480A4B03604FF4E1336A
:102FF800436000238360C36003610C2242618361E4
:10300800C361FFF7E3FA00B908BDFFF79BFDFBE7D3
:10301800D00000200044004010B58AB0002305937A
:10302800069307930893099303682F4A934204D0A1
:103038002E4A93422DD00AB010BD002401942C4B87
:103048005A6C42F010025A645A6C02F01002019253
:10305800019A02941A6B42F001021A631B6B03F087
:1030680001030293029B4FF4C06305930223069366
:10307800032308930723099305A91E48FDF7DAFEE1
:10308800224621462520FEF733F92520FEF754F97C
:10309800D1E700240394164B1A6C42F400321A64E8
:1030A8001A6C02F400320392039A04941A6B42F0E9
:1030B80001021A631B6B03F001030493049B0C23A6
:1030C800059302230693032308930723099305A96D
:1030D8000848FDF7AFFE224621462620FEF708F9EC
:1030E8002620FEF729F9A6E7001001400044004019
:1030F8000038024000000240F0B5294F4FF0010CA3
:1031080087F800C000237B60BB60FB6000223A7434
:103118007A74244E022131707360B360F36086F8CC
:1031280010C07274204D032129706B60AB60EB6096
:103138002A746A741D4C042121706360A360E360E3
:10314800227462741A480521017043608360C36069
:103158000274427417494FF0060E81F800E04B6084
:103168008B60CB6081F810C04A74DFF854C04FF010
:10317800070E8CF800E08CF801208CF80220CCF8BF
:1031880004300D4A7A610D4ABA617361B3616B61AB
:10319800AB616361A361436183614B618B61F0BD86
:1031A800F4010020D8010020BC010020A00100206B
:1031B8008401002068010020C3F548C0C3F54840D9
:1031C8006001002008B5174B984207D0164B98426B
:1031D8000DD0144B984212D0012008BD0829F5D112
:1031E800012A09D0002AF7D1FDF792FFF4E7402918
:1031F800F6D02029EDD1F3E7FDF78AFFECE7102997
:1032080004D0202902D0B1F5807FE5D1012A05D06C
:10321800002AE1D10122FDF77BFFDDE70022FDF75F
:1032280077FFD9E700040240000C0240F8B50746D2
:103238000E461546002408E03146384600F0F4F8FA
:103248004FF4967000F0F4F80134AC42F4DB01203E
:10325800F8BD000010B5684C684B1A7C0821204660
:10326800FFF7B0FF664B1A7C10212046FFF7AAFF34
:10327800644B1A7C20212046FFF7A4FF624B1A7C7E
:103288004FF480712046FFF79DFF04F500645F4B03
:103298001A7C40212046FFF795FF5D4B1A7C2021C0
:1032A8002046FFF78FFF012208215A48FFF7BEFF8B
:1032B8000421594800F0B4F80028F4D14F4B0122FA
:1032C8005A741A74082100F1804000F50130FFF7A4
:1032D80079FF44F2042208214E48FFF7A7FF012294
:1032E80020214E48FFF7A2FF08214B4800F098F82C
:1032F8000028F4D1424B01225A7400221A7410217A
:1033080000F1804000F50130FFF75CFF40F64852BD
:1033180020214248FFF78AFF012240213F48FFF75A
:1033280085FF10213C4800F07BF80028F4D1354B8C
:1033380001225A741A74202100F1804000F50130EE
:10334800FFF740FF4FF4487240213448FFF76EFF03
:1033580001224FF480512F48FFF768FF20212E48A3
:1033680000F05EF80028F3D1274B01225A741A7432
:103378004FF4807100F1804000F50130FFF722FF23
:1033880042F623024FF480512248FFF74FFF0122F3
:1033980011462248FFF74AFF40211F4800F040F835
:1033A8000028F4D1194B01245C741C742246402176
:1033B8001848FFF707FF40F6FC0221461748FFF7B9
:1033C80035FF012210211548FFF730FF80211148F1
:1033D80000F026F80028F4D10D4B01225A7400227F
:1033E8001A7420210B48FFF7EDFE40F254621021B9
:1033F8000A48FFF71BFFFEE700040240F401002023
:10340800D8010020BC010020A00100208401002078
:1034180068010020000C0240001802400000024031
:1034280008B5FDF761FE08BD08B5FDF78DFE08BDBE
:10343800A82303FB00F0800800BF03460138002BD7
:10344800FAD17047DFF834D0FFF75EFB0C480D491E
:103458000D4A002302E0D458C4500433C4188C42E7
:10346800F9D30A4A0A4C002301E013600432A2424D
:10347800FBD3FCF7D7FEFFF7B7FB7047000002202D
:10348800000000200C000020083900080C00002073
:1034980010020020FEE72DE9F04786468C460846D4
:1034A800089E154674461946002B40F0C280854296
:1034B800B2FA82F245D94AB1C2F1200300FA02FCFD
:1034C8002EFA03F3954043EA0C0C94404FEA154E4C
:1034D800A8B2BCFBFEF8230C0EFB18CC08FB00F9C5
:1034E80043EA0C43994528D9EB1808F1FF3704D271
:1034F800994502D9A8F102072B44A3EB0903A4B20A
:10350800B3FBFEFC0EFB1C330CFB00F044EA034447
:10351800A04214D92C190CF1FF3304D2A04202D9CD
:10352800ACF102032C44241A43EA07401EB1D440EC
:10353800002334607360BDE8F0874746DDE76346E3
:10354800F1E792BB431B01214FEA154EAFB2B3FB23
:10355800FEFC200C0EFB1C330CFB07F840EA03436F
:10356800984562D9EB180CF1FF3004D2984502D97E
:10357800ACF102002B44A3EB0803A4B2B3FBFEFC9E
:103588000EFB1C330CFB07F744EA0344A7424ED951
:103598002C190CF1FF3304D2A74202D9ACF1020373
:1035A8002C44E41B43EA0040C0E7C2F1200320FAA0
:1035B80003F1954090402EFA03F303434FEA154E6A
:1035C800AFB2B1FBFEFC0EFB1C10190C0CFB07F88C
:1035D80041EA0041884504FA02F422D969180CF13D
:1035E800FF3004D2884502D9ACF102002944A1EB8E
:1035F80008019BB2B1FBFEFC0EFB1C110CFB07F78C
:1036080043EA01439F420ED9EB180CF1FF3104D273
:103618009F4202D9ACF102012B44DB1B41EA004175
:1036280092E76046E3E76146F7E76046A3E763464B
:10363800B7E7834206D916B9002108467BE7C6E9F1
:1036480000E0F9E7B3FA83F78FB9834201D37245F3
:1036580008D8BEEB020460EB030301209C461EB9A8
:10366800002168E73846FAE7C6E9004CF8E7C7F1F1
:10367800200CBB4022FA0CF41C432EFA0CF120FA61
:103688000CF3B84001434FEA14490EFA07F5B3FBAF
:10369800F9F81FFA84FE09FB18300B0C08FB0EFA28
:1036A80043EA00439A4502FA07F240D9E31808F1C1
:1036B800FF3004D29A4502D9A8F102002344A3EBB3
:1036C8000A0389B2B3FBF9F809FB183308FB0EFEAD
:1036D80041EA03418E452CD9611808F1FF3304D221
:1036E8008E4502D9A8F10203214443EA0040A0FB19
:1036F8000298A1EB0E014145CE46434602D306D1BE
:103708004D4504D2B9EB020E68EB04030138002ED4
:10371800A6D0B5EB0E0261EB030101FA0CFC22FA0C
:1037280007F34CEA0303F940C6E9003198E740463D
:10373800C5E74346D9E70000F8B500BFF8BC08BCA8
:103748009E467047F8B500BFF8BC08BC9E46704757
:10375800447269766572732F53544D333246347808
:10376800785F48414C5F4472697665722F53726383
:103778002F73746D3332663478785F68616C5F6973
:1037880032632E6300000000447269766572732FFD
:1037980053544D3332463478785F48414C5F447215
:1037A800697665722F5372632F73746D3332663482
:1037B80078785F68616C5F7263632E630000000055
:1037C800447269766572732F53544D333246347898
:1037D800785F48414C5F4472697665722F53726313
:1037E8002F73746D3332663478785F68616C5F6705
:1037F80070696F2E63000000447269766572732FDA
:1038080053544D3332463478785F48414C5F4472A4
:10381800697665722F5372632F73746D3332663411
:1038280078785F68616C5F636F727465782E630087
:10383800447269766572732F53544D333246347827
:10384800785F48414C5F4472697665722F537263A2
:103858002F73746D3332663478785F68616C5F7487
:10386800696D2E6300000000447269766572732FDB
:1038780053544D3332463478785F48414C5F447234
:10388800697665722F5372632F73746D33326634A1
:1038980078785F68616C5F74696D5F65782E630026
:1038A800447269766572732F53544D3332463478B7
:1038B800785F48414C5F4472697665722F53726332
:1038C8002F73746D3332663478785F68616C5F7516
:1038D8006172742E630000000000000001020304FE
:1038E80000000000000000000102030406070809A8
:0838F800A6FBFF7F01000000A8
:04390000D5020008E4
:04390400B102000804
:0C39080001000000100000000024F4008A
:040000050800344D6E
:00000001FF
