:020000040800F2
:100000000050002099530008A90D0008AB0D00080E
:10001000AD0D0008AF0D0008B10D00080000000094
:10002000000000000000000000000000D1360008C1
:10003000B30D00080000000071370008B537000854
:10004000E1530008E1530008E1530008E1530008C0
:10005000E1530008E1530008E1530008E1530008B0
:10006000E1530008E1530008E1530008B50D000812
:10007000E1530008E1530008E1530008E153000890
:10008000E1530008E1530008E1530008E153000880
:10009000E1530008E1530008E1530008E153000870
:1000A000E1530008E1530008E1530008E153000860
:1000B000E1530008E1530008C50D0008D50D000804
:1000C000E1530008E1530008E1530008E153000840
:1000D000E1530008E50D0008E1530008E153000872
:1000E000E1530008E1530008E1530008000000005C
:1000F0000000000000000000000000000000000000
:0C01000000000000000000005FF808F1A3
:1001100070B5860747D0541E002A3ED00346CAB2A7
:1001200001E0013C39D303F8012B9D07F9D1032CE1
:100130002CD9CDB205EB05250F2C1A4605EB05454C
:1001400034D9A4F1100C2CF00F0603F1100EB644B4
:100150004FEA1C1C156055609560D56010327245E1
:10016000F8D10CF1010214F00C0F03EB021204F0B1
:100170000F0C13D0ACF1040323F003030433134436
:1001800042F8045B9A42FBD10CF003042CB1C9B2D3
:100190001C4403F8011B9C42FBD170BD644613460E
:1001A000002CF4D1F9E703461446C0E7A446E1E782
:1001B00070B50F4B0F4DAB42A3EB050607D00024E3
:1001C000B61055F8043B01349847A642F9D805F01B
:1001D00009F9094D094B5E1BAB424FEAA60606D052
:1001E000002455F8043B01349847A642F9D870BD65
:1001F000805400088054000880540008845400088B
:1002000080F0004002E000BF81F0004142001FBFCB
:100210005FEA410392EA030F7FEA226C7FEA236CD4
:100220006AD04FEA1262D2EB1363C1BFD2184140C9
:1002300048404140B8BF5B42192B88BF704710F05F
:10024000004F40F4000020F07F4018BF404211F002
:10025000004F41F4000121F07F4118BF494292EA6A
:10026000030F3FD0A2F1010241FA03FC10EB0C0096
:10027000C3F1200301FA03F100F0004302D5494223
:1002800060EB4000B0F5000F13D3B0F1807F06D3D0
:1002900040084FEA310102F10102FE2A51D2B1F1C8
:1002A000004F40EBC25008BF20F0010040EA0300BD
:1002B0007047490040EB0000013A28BFB0F5000F3D
:1002C000EDD2B0FA80FCACF1080CB2EB0C0200FAF3
:1002D0000CF0AABF00EBC25052421843BCBFD04042
:1002E0001843704792F0000F81F4000106BF80F4BC
:1002F00000000132013BB5E74FEA41037FEA226C7F
:1003000018BF7FEA236C21D092EA030F04D092F049
:10031000000F08BF0846704790EA010F1CBF00207D
:10032000704712F07F4F04D1400028BF40F00040DA
:10033000704712F100723CBF00F50000704700F0FA
:10034000004343F0FE4040F4000070477FEA226221
:1003500016BF08467FEA23630146420206BF5FEAF2
:10036000412390EA010F40F4800070474FF00003F2
:1003700004E000BF10F0004348BF40425FEA000CB9
:1003800008BF704743F0964301464FF000001CE061
:1003900050EA010208BF70474FF000030AE000BFB7
:1003A00050EA010208BF704711F0004302D54042F5
:1003B00061EB41015FEA010C02BF84460146002067
:1003C00043F0B64308BFA3F18053A3F50003BCFA82
:1003D0008CF2083AA3EBC25310DB01FA02FC63442F
:1003E00000FA02FCC2F12002BCF1004F20FA02F236
:1003F00043EB020008BF20F00100704702F1200229
:1004000001FA02FCC2F1200250EA4C0021FA02F289
:1004100043EB020008BF20EADC7070474FF0FF0C8E
:100420001CEAD0521EBF1CEAD15392EA0C0F93EA89
:100430000C0F6FD01A4480EA010C400218BF5FEA2B
:1004400041211ED04FF0006343EA501043EA51119E
:10045000A0FB01310CF00040B1F5000F3EBF490098
:1004600041EAD3715B0040EA010062F17F02FD2A9C
:100470001DD8B3F1004F40EBC25008BF20F001007F
:10048000704790F0000F0CF0004C08BF49024CEA96
:10049000502040EA51207F3AC2BFD2F1FF0340EA28
:1004A000C250704740F400004FF00003013A5DDC99
:1004B00012F1190FDCBF00F000407047C2F10002DA
:1004C000410021FA02F1C2F1200200FA02FC5FEAC7
:1004D000310040F1000053EA4C0308BF20EADC7011
:1004E000704792F0000F00F0004C02BF400010F483
:1004F000000F013AF9D040EA0C0093F0000F01F030
:10050000004C02BF490011F4000F013BF9D041EA51
:100510000C018FE70CEAD15392EA0C0F18BF93EA53
:100520000C0F0AD030F0004C18BF31F0004CD8D17D
:1005300080EA010000F00040704790F0000F17BF04
:1005400090F0004F084691F0000F91F0004F14D04A
:1005500092EA0C0F01D142020FD193EA0C0F03D1A2
:100560004B0218BF084608D180EA010000F00040A5
:1005700040F0FE4040F40000704740F0FE4040F480
:10058000400070474FF0FF0C1CEAD0521EBF1CEA1F
:10059000D15392EA0C0F93EA0C0F69D0A2EB03023D
:1005A00080EA010C49024FEA402037D04FF08053D7
:1005B00043EA111143EA10130CF000408B4238BF9C
:1005C0005B0042F17D024FF4000C8B4224BF5B1AAA
:1005D00040EA0C00B3EB510F24BFA3EB510340EAF8
:1005E0005C00B3EB910F24BFA3EB910340EA9C00A6
:1005F000B3EBD10F24BFA3EBD10340EADC001B0116
:1006000018BF5FEA1C1CE0D1FD2A3FF650AF8B42B9
:1006100040EBC25008BF20F0010070470CF0004CC6
:100620004CEA50207F32C2BFD2F1FF0340EAC250F1
:10063000704740F400004FF00003013A37E792F0B2
:10064000000F00F0004C02BF400010F4000F013A10
:10065000F9D040EA0C0093F0000F01F0004C02BF0B
:10066000490011F4000F013BF9D041EA0C0195E774
:100670000CEAD15392EA0C0F08D142027FF47DAF0D
:1006800093EA0C0F7FF470AF084676E793EA0C0FFD
:1006900004D14B023FF44CAF08466EE730F0004CFB
:1006A00018BF31F0004CCAD130F000427FF45CAF8B
:1006B00031F000437FF43CAF5FE700BF4FF0FF3CF9
:1006C00006E000BF4FF0010C02E000BF4FF0010C4C
:1006D0004DF804CD4FEA40024FEA41037FEA226C15
:1006E00018BF7FEA236C11D001B052EA530C18BF37
:1006F00090EA010F58BFB2EB030088BFC81738BF9C
:100700006FEAE17018BF40F0010070477FEA226C89
:1007100002D15FEA402C05D17FEA236CE4D15FEA85
:10072000412CE1D05DF8040B704700BF84460846B9
:100730006146FFE70FB5FFF7C9FF002848BF10F17A
:10074000000F0FBD4DF808EDFFF7F4FF0CBF0120BF
:1007500000205DF808FB00BF4DF808EDFFF7EAFF49
:1007600034BF012000205DF808FB00BF4DF808ED04
:10077000FFF7E0FF94BF012000205DF808FB00BFF9
:100780004DF808EDFFF7D2FF94BF012000205DF87F
:1007900008FB00BF4DF808EDFFF7C8FF34BF01208C
:1007A00000205DF808FB00BF10B5054C237833B975
:1007B000044B13B10448AFF300800123237010BD34
:1007C0001000002000000000E453000808B5034BAF
:1007D0001BB103490348AFF3008008BD00000000CF
:1007E00014000020E453000808B50268034B9A4245
:1007F00000D008BD01F072F8FBE700BF0008004020
:1008000072B6FEE700B595B0282200210DEB02007C
:10081000FFF77EFC00230593069307930893099343
:10082000019302930393049301220A924FF48033BD
:100830000B930E920222119212934FF4E013139332
:100840000AA801F073F8C8B90F2305930221069195
:10085000002307934FF480620892099305A801F0E2
:1008600097FA68B9022301934FF44043039301A818
:1008700001F088FB30B915B05DF804FBFFF7C0FF4D
:10088000FFF7BEFFFFF7BCFF08B501F015F8FFF753
:10089000B9FF00F013F800F019F900F09DF800F02E
:1008A0007FF900F0DBF900F0F3F903F00DF800F048
:1008B00069FB00F063F802F067FDFEE730B589B030
:1008C00000240494059406940794184B9A6942F006
:1008D00020029A619A6902F020020192019A9A69B3
:1008E00042F004029A619A6902F004020292029AAA
:1008F0009A6942F008029A619B6903F00803039326
:10090000039B0B4D22464FF48061284601F0D4FC36
:100910004FF4806304930123059306940223079305
:1009200004A9284601F0BAFB09B030BD001002400E
:10093000000C014008B54FF48061044801F0C2FC8E
:100940004FF4FA7002F058FDF5E700BF000C0140CB
:1009500008B5034800F024FB0A2002F04DFDF8E73B
:100960001C040020034B0360034B0B6080231360C7
:10097000704700BF2C0200202C00002010B58EB064
:10098000124C0DF11C0CA646BEE80F00ACE80F009F
:100990009EE807008CE80700002107A802F0F9FC98
:1009A0000B4B1860EE4604F11C0CBCE80F00AEE8DF
:1009B0000F009CE807008EE807000021684602F05F
:1009C000E8FC044B18600EB010BD00BFFC530008DB
:1009D000840200208002002000B585B0002301932E
:1009E000029303931148124A02608360012202734A
:1009F00003754FF46021C1614360026100F0D8FECD
:100A000068B900230193012302930223039301A9F0
:100A1000064800F001FE28B905B05DF804FBFFF7B9
:100A2000EFFEEEE7FFF7ECFEF6E700BFCC0200209A
:100A30000024014010B586B0002302930393049371
:100A4000059302681D4B9A4201D006B010BD0446C2
:100A500003F56C439A6942F400729A619A6902F450
:100A600000720092009A9A6942F004029A619B69AE
:100A700003F004030193019B03230293039302A950
:100A80000F4801F00BFB0F480F4B0360002343603E
:100A900083608022C2604FF4807202614FF48062F2
:100AA000426120228261C36101F016FC18B9054B36
:100AB00023625C62C9E7FFF7A3FEF8E70024014068
:100AC00000080140880200200800024000B583B001
:100AD0000A4B5A6942F001025A615B6903F0010353
:100AE0000193019B002205210B2001F085FD0B20C5
:100AF00001F092FD03B05DF804FB00BF001002405E
:100B00000268094B9A4200D0704782B003F5033364
:100B1000DA6942F00202DA61DB6903F00203019351
:100B2000019B02B0704700BF0004004030B587B0A1
:100B3000002302930393049305930268154B9A4292
:100B400001D007B030BD03F503339A6942F00402C7
:100B50009A619A6902F004020092009A9A6942F03E
:100B600008029A619B6903F008030193019BC0236B
:100B70000293022503950324059402A9064801F077
:100B80008DFA02940395059402A9044801F086FAAF
:100B9000D7E700BF0004004000080140000C0140FE
:100BA00000B58BB00023089309930193029303933C
:100BB00004930593069307932648274A02604360EF
:100BC00083604FF6FF72C2604FF4807202618361EE
:100BD00000F022FC58BB00230893099308A91D4884
:100BE00000F0E2FC30BB60230193002202920392EA
:100BF000059201A9174800F069FCF0B904220DEB39
:100C00000201144800F062FCD0B9082201A9114881
:100C100000F05CFCB8B90C2201A90E4800F056FCAB
:100C2000A0B90C48FFF782FF0BB05DF804FBFFF79B
:100C3000E7FDD0E7FFF7E4FDD5E7FFF7E1FDDDE7EE
:100C4000FFF7DEFDE1E7FFF7DBFDE4E7FFF7D8FDA7
:100C5000E7E700BFFC0200200004004008B50A4896
:100C60000A4B03604FF4E133436000238360C360A9
:100C700003610C2242618361C36101F083FD00B90D
:100C800008BDFFF7BDFDFBE78C03002000380140E5
:100C900008B50A480A4B03604FF4E1334360002370
:100CA0008360C36003610C2242618361C36101F010
:100CB00069FD00B908BDFFF7A3FDFBE74403002071
:100CC0000044004030B589B0002304930593069397
:100CD00007930368304A934204D0304A934233D09A
:100CE00009B030BD2E4B9A6942F480429A619A69EC
:100CF00002F480420092009A9A6942F004029A61DA
:100D00009B6903F004030193019B4FF40073049368
:100D10000223059303230793224D04A9284601F0DB
:100D2000BDF94FF48063049300240594069404A94C
:100D3000284601F0B3F922460521252001F05CFC8C
:100D4000252001F069FCCBE7154BDA6942F400324B
:100D5000DA61DA6902F400320292029A9A6942F088
:100D600004029A619B6903F004030393039B042329
:100D7000049302230593032307930A4C04A92046F6
:100D800001F08CF90823049300230593069304A92A
:100D9000204601F083F9A3E70038014000440040F9
:100DA0000010024000080140FEE7FEE7FEE7FEE714
:100DB000FEE7704708B5024801F032FB08BD00BFEE
:100DC0008802002008B5024800F008FA08BD00BFFC
:100DD000D403002008B5024804F00EFA08BD00BF95
:100DE0009411002008B5024801F088FD08BD00BF3D
:100DF0008C03002000B583B0114B9A6942F00102C8
:100E00009A619A6902F001020092009ADA6942F04E
:100E10008052DA61DB6903F080530193019B002269
:100E20000F216FF0010001F0E7FB064A536823F041
:100E3000E06343F00073536003B05DF804FB00BF50
:100E4000001002400000014030B589B00446214B3B
:100E5000DA6942F00402DA61DB6903F0040301930A
:100E6000019B02A903A801F06FF8069BCBB901F022
:100E70004BF80346184AA2FB03239B0C013B17487F
:100E8000174A026040F2E732C26043600023036108
:100E90008360836100F094FA054630B1284609B0BA
:100EA00030BD01F031F84300E4E70C4800F05EF992
:100EB00005460028F2D11E2001F0AEFB0F2C01D90F
:100EC0000125EBE7002221461E2001F095FB054B92
:100ED0001C60E3E70010024083DE1B43D4030020C4
:100EE00000080040040000202DE9F04184B00446D1
:100EF00015461E468DF80F100B4F4FF00F08CDF81A
:100F0000008001230DEB08020146384603F056FA33
:100F1000CDF8008033462A462146384603F00AFBC6
:100F200004B0BDE8F08100BF9411002000B583B08B
:100F30000023ADF80430012301AA03210620FFF7A6
:100F4000D3FF01230DF1050204210620FFF7CCFF9A
:100F50009DF805309B088DF805309DF80400800150
:100F6000C0182CBF01210021FFF712FA4FF0625187
:100F7000FFF754FA0249FFF751FA03B05DF804FB9A
:100F80000000B443054B00221A605A609A60DA6090
:100F90001A6100225A619A611A7770471C04002076
:100FA000F8B50446FFF7C2FF064660602769A168EE
:100FB000FFF72AF90546E0602949FFF7E1FBD8B1C0
:100FC00001232377A369013BA361A369002B1FDBE6
:100FD0006361237FFBB939462846FFF717F9206183
:100FE00000232377A66039462069FFF70DF91D49D4
:100FF000FFF7C8FA2060F8BD1B492846FFF7B6FB8B
:101000000028E2D001232377A3690133A361DCE741
:1010100001336361DDE7012BE4D100212846FFF7AE
:10102000AFFB60B129461148FFF7EEF80146E060DA
:101030003846FFF7E9F8206100232377D2E7002143
:101040002846FFF789FB0028F6D008492846FFF715
:10105000DDF8E0603946FFF7D9F82061ECE700BF22
:10106000000096430AD7233C000096C30000B44317
:1010700030B4026A036A23F001030362456883699E
:1010800023F073030C681C4322F002028B681343A5
:101090000B4A904206D0456084614A68426303620D
:1010A00030BC704723F00803CA681A4322F00403D7
:1010B00025F440754A692A438D691543EBE700BF63
:1010C000002C014030B4036A026A22F4807202628A
:1010D0004468C26922F073020D68154323F400735B
:1010E0008A6843EA02230D4A904206D04460C561F3
:1010F0004A68C263036230BC704723F40063CA6865
:1011000043EA022323F4806324F440544A6944EA06
:1011100002148A6944EA0214E8E700BF002C014087
:1011200030B4036A026A22F4805202624468C269DF
:1011300022F4E6420D6842EA052223F400538D684A
:1011400043EA0533074DA84206D04460C2614A68AD
:101150000264036230BC704724F480444D6944EA61
:101160008514F2E7002C01407047000090F83D30F4
:10117000DBB2012B27D1022380F83D300268D3680F
:1011800043F00103D3600368114A934210D0B3F1D6
:10119000804F0DD0A2F59432934209D002F58062BF
:1011A000934205D01A6842F001021A60002070478D
:1011B0009A6802F00702062A07D01A6842F0010274
:1011C0001A6000207047012070470020704700BF60
:1011D000002C0140704770477047704770B5044657
:1011E0000368DE681D6915F0020F10D016F0020FBB
:1011F0000DD06FF002021A610123037703689B6927
:1012000013F0030F5ED0FFF7E6FF0023237715F0FE
:10121000040F12D016F0040F0FD023686FF00402F1
:101220001A610223237723689B6913F4407F4FD010
:101230002046FFF7D0FF0023237715F0080F12D0C8
:1012400016F0080F0FD023686FF008021A6104230C
:1012500023772368DB6913F0030F40D02046FFF7A4
:10126000BAFF0023237715F0100F12D016F0100FDD
:101270000FD023686FF010021A61082323772368C8
:10128000DB6913F4407F31D02046FFF7A4FF002331
:10129000237715F0010F02D016F0010F2DD115F0B4
:1012A000800F02D016F0800F2FD115F0400F02D022
:1012B00016F0400F31D115F0200F02D016F0200F9C
:1012C00033D170BDFFF786FF2046FFF785FF9CE70F
:1012D0002046FFF77FFF2046FFF77EFFABE7204663
:1012E000FFF778FF2046FFF777FFBAE72046FFF7C2
:1012F00071FF2046FFF770FFC9E723686FF0010216
:101300001A612046FFF770FAC9E723686FF0800280
:101310001A61204600F07FF9C7E723686FF04002AA
:101320001A612046FFF759FFC5E723686FF02002D6
:101330001A61204600F06EF9C3E7000003681F4AF7
:1013400090420AD0B0F1804F07D0A2F5943290427B
:1013500003D002F58062904203D123F070034A6803
:101360001343164A90420AD0B0F1804F07D0A2F53D
:101370009432904203D002F58062904203D123F46C
:101380004073CA68134323F080034A691343036020
:101390008B68C3620B688362084B98420AD00123B2
:1013A0004361036913F0010F03D0036923F00103C4
:1013B000036170470B690363F1E700BF002C014034
:1013C00040B310B5044690F83D30F3B1022384F8E1
:1013D0003D30214651F8040BFFF7B0FF012384F89C
:1013E000463084F83E3084F83F3084F8403084F84A
:1013F000413084F8423084F8433084F8443084F833
:10140000453084F83D30002010BD80F83C30FFF7B7
:10141000ABFEDBE70120704740B310B5044690F8FF
:101420003D30F3B1022384F83D30214651F8040BDE
:10143000FFF784FF012384F8463084F83E3084F8B7
:101440003F3084F8403084F8413084F8423084F8EA
:10145000433084F8443084F8453084F83D3000202F
:1014600010BD80F83C30FFF74BFBDBE701207047F5
:1014700030B4036A026A22F0100202624468826990
:1014800022F4E6420D6842EA052223F020038D682B
:1014900043EA05130C4DA84206D0446082614A68B5
:1014A0008263036230BC704723F08003CD6843EA57
:1014B000051323F0400324F440644D6944EA850495
:1014C0008D6944EA8504E8E7002C014038B590F8BE
:1014D0003C30012B66D004460D46012380F83C3099
:1014E0000C2A5AD8DFE802F0075959591B595959A3
:1014F0003059595944000068FFF7BAFD22689369D2
:1015000043F0080393612268936923F00403936115
:101510002268936929690B43936100203EE00068CB
:10152000FFF7A6FF2268936943F400639361226882
:10153000936923F48063936122689369296943EA7C
:1015400001239361002029E00068FFF7BBFD2268BA
:10155000D36943F00803D3612268D36923F00403FD
:10156000D3612268D36929690B43D361002015E058
:101570000068FFF7D5FD2268D36943F40063D361A7
:101580002268D36923F48063D3612268D36929690F
:1015900043EA0123D361002000E00120002384F806
:1015A0003C3038BD0220FCE790F83C20012A2CD0CA
:1015B00010B40346012280F83C20022280F83D202E
:1015C00002685068946820F0700C086840EA0C00CB
:1015D00050601A680E4882420AD0B2F1804F07D09C
:1015E000A0F59430824203D000F58060824204D19D
:1015F00024F08004496821439160012283F83D2052
:10160000002083F83C0010BC70470220704700BFE8
:10161000002C01407047704730B482B00022019224
:1016200090F82420012A00F08F800346012280F8E0
:1016300024204A68062A2DD80468606B02EB8202D7
:10164000053A4FF01F0C0CFA02FC20EA0C000D6862
:1016500005FA02F2024362630A68092A38D91C6853
:10166000E06802EB42021E3A4FF0070C0CFA02FC53
:1016700020EA0C008D6805FA02F20243E2600A6873
:10168000103A012A34D90020002283F8242002B025
:1016900030BC70470C2A0DD80568286B02EB82021B
:1016A000233A1F24944020EA04000C68944020430D
:1016B0002863D1E70568E86A02EB8202413A1F24F9
:1016C000944020EA04000C6894402043E862C3E799
:1016D0001C68206902EB42024FF0070C0CFA02FC76
:1016E00020EA0C008D6805FA02F202432261C6E787
:1016F0001A681648824205D09A6A42F020029A621D
:101700000120C1E7906810F4000F1BD1906840F4ED
:10171000000090600A68102A01D00020B4E70C4A4B
:1017200012680C49A1FB0212920C02EB82025200D9
:10173000019202E0019A013A0192019A002AF9D13C
:101740000020A1E700209FE70220A0E7002401403D
:101750000800002083DE1B4338B503689A6812F046
:10176000010F01D1002038BD04469A6822F0010221
:101770009A6000F0BFF8054623689B6813F0010FDC
:1017800013D000F0B7F8431B022BF5D923689B68F0
:1017900013F0010FF0D0A36A43F01003A362E36AD1
:1017A00043F00103E3620120DDE70020DBE70000F6
:1017B00000287BD070B50446836A002B4DD02046AC
:1017C000FFF7CAFFA36A13F0100369D1002867D19D
:1017D000A26A22F4885222F0020242F00202A262BD
:1017E0006268E1690A43217B42EA4102A568B5F5D6
:1017F000807F02D0012D36D01D46267D012E35D0AA
:101800002668716821F46941294371602568AE68D2
:10181000274931401143A960A168B1F5807F01D00B
:10182000012902D12369013B1B052568E96A21F4DE
:1018300070010B43EB62236899681E4B0B409A4280
:1018400025D0A36A23F0120343F01003A362E36AD6
:1018500043F00103E362012027E0C36280F82430F3
:10186000FFF7E8F8ABE74FF48075C6E731B9A16937
:10187000013945EA413141F40065C1E7A16A41F00F
:101880002001A162E16A41F00101E162B8E70023B1
:10189000E362A36A23F0030343F00103A36204E0BD
:1018A000A36A43F01003A362012070BD01207047BA
:1018B000FDF7E1FFFE0E1FFF08B5074A136843F06E
:1018C00010031360032000F085FE0F20FFF7BCFA21
:1018D000FFF790FA002008BD00200240034A11687B
:1018E000034B1B780B441360704700BF3C0400207F
:1018F00000000020014B1868704700BF3C04002026
:1019000082B0084B1B68084AA2FB03235B0A00FB5A
:1019100003F3019300BF019B5A1E0192002BF9D1E2
:1019200002B0704708000020D34D6210002800F07C
:10193000F18170B582B00446036813F0010F2CD01A
:10194000994B5B6803F00C03042B1DD0964B5B682E
:1019500003F00C03082B12D06368B3F5803F41D02D
:10196000002B55D103F1804303F504331A6822F4A8
:1019700080321A601A6822F480221A6037E08A4B9B
:101980005B6813F4803FE7D0874B1B6813F4003F7C
:1019900003D06368002B00F0BF81236813F0020FAF
:1019A00075D0814B5B6813F00C0F5FD07E4B5B688A
:1019B00003F00C03082B54D02369002B00F08A801D
:1019C0007A4B01221A60FFF795FF0546764B1B689C
:1019D00013F0020F75D1FFF78DFF401B0228F5D9D8
:1019E00003209EE1704A136843F4803313606368F8
:1019F00043B3FFF77FFF05466B4B1B6813F4003FB3
:101A0000CBD1FFF777FF401B6428F5D9032088E18D
:101A1000B3F5A02F09D0644B1A6822F480321A6003
:101A20001A6822F480221A60E1E703F18043A3F5EB
:101A30003C331A6842F480221A601A6842F48032F9
:101A40001A60D4E7FFF756FF0546574B1B6813F49F
:101A5000003FA2D0FFF74EFF401B6428F5D90320BA
:101A60005FE1514B5B6813F4803FA5D14E4B1B687F
:101A700013F0020F03D02369012B40F04F814A4A33
:101A8000136823F0F803616943EAC1031360236814
:101A900013F0080F33D0A369002B5CD0434B012215
:101AA000C3F88024FFF726FF05463F4B5B6A13F01F
:101AB000020F21D1FFF71EFF401B0228F5D903209A
:101AC0002FE1394A136823F0F803616943EAC1033F
:101AD0001360DCE7354B00221A60FFF70BFF054669
:101AE000314B1B6813F0020FD1D0FFF703FF401BEF
:101AF0000228F5D9032014E10120FFF701FF236834
:101B000013F0040F00F09680274BDB6913F0805F21
:101B100034D1254BDA6942F08052DA61DB6903F097
:101B200080530193019B0125214B1B6813F4807F97
:101B300026D0E368012B3DD0002B53D103F1804325
:101B400003F504331A6A22F001021A621A6A22F0BB
:101B500004021A6233E0154B0022C3F88024FFF719
:101B6000C9FE0546104B5B6A13F0020FC7D0FFF7A2
:101B7000C1FE401B0228F5D90320D2E00025D3E79F
:101B80000B4A136843F480731360FFF7B3FE0646F5
:101B9000074B1B6813F4807FCBD1FFF7ABFE801B94
:101BA0006428F5D90320BCE0001002400000424246
:101BB000007000405F4A136A43F001031362E36858
:101BC00033B3FFF797FE06465A4B1B6A13F0020F1A
:101BD0002FD1FFF78FFE801B41F288339842F3D953
:101BE00003209EE0052B09D0524B1A6A22F0010215
:101BF0001A621A6A22F004021A62E0E74D4B1A6A6E
:101C000042F004021A621A6A42F001021A62D6E72E
:101C1000FFF770FE0646474B1B6A13F0020F08D011
:101C2000FFF768FE801B41F288339842F3D9032006
:101C300077E0E5B9E369002B72D03E4A526802F0C2
:101C40000C02082A56D0022B17D03B4B00221A66F2
:101C5000FFF750FE0446374B1B6813F0007F47D058
:101C6000FFF748FE001B0228F5D9032059E0314A4E
:101C7000D36923F08053D361DCE72F4B00221A662F
:101C8000FFF738FE05462B4B1B6813F0007F06D08C
:101C9000FFF730FE401B0228F5D9032041E0236AFC
:101CA000B3F5803F1AD023494B6823F47413226A9A
:101CB000606A024313434B601F4B01221A66FFF711
:101CC00019FE04461B4B1B6813F0007F0ED1FFF773
:101CD00011FE001B0228F5D9032022E0154A5368A3
:101CE00023F40033A1680B435360DCE7002018E0C5
:101CF000002016E0012B16D00E4B5B6803F48031F8
:101D0000226A914211D103F47013626A93420ED198
:101D1000002006E001207047012002E0012000E0E1
:101D2000002002B070BD0120FBE70120F9E701208F
:101D3000F7E700BF00100240000042420F4B5B6813
:101D400003F00C02082A01D00D487047C3F3834208
:101D50000C49885C13F4803F0BD0084B5B68C3F3DD
:101D60004043094AD35C064A02FB00F0B0FBF3F0A3
:101D70007047064B03FB00F0704700BF00100240A5
:101D800000127A00585400085454000800093D001D
:101D9000002800F0A08070B50D460446524B1B6829
:101DA00003F007038B420BD24F4A136823F007035B
:101DB0000B431360136803F007038B4240F08D80E0
:101DC000236813F0020F17D013F0040F04D0474A12
:101DD000536843F4E0635360236813F0080F04D0A2
:101DE000424A536843F460535360404A536823F0B7
:101DF000F003A1680B435360236813F0010F31D047
:101E00006368012B20D0022B25D0384A126812F0CB
:101E1000020F64D035494A6822F0030213434B6035
:101E2000FFF768FD0646314B5B6803F00C03626800
:101E3000B3EB820F16D0FFF75DFD801B41F28833B4
:101E40009842F0D9032045E0284A126812F4003F76
:101E5000E0D101203EE0254A126812F0007FD9D17E
:101E6000012037E0204B1B6803F00703AB420AD97F
:101E70001D4A136823F007032B431360136803F014
:101E80000703AB422DD1236813F0040F06D0174A85
:101E9000536823F4E063E1680B435360236813F055
:101EA000080F07D0114A536823F46053216943EAAD
:101EB000C1035360FFF742FF0C4B5B68C3F303138E
:101EC0000B4AD35CD8400B4B18600B4B1868FEF7DD
:101ED000BBFF002070BD012070470120FAE7012000
:101EE000F8E70120F6E700BF0020024000100240A2
:101EF000705400080800002004000020014B1868FE
:101F0000704700BF0800002008B5FFF7F7FF044B3B
:101F10005B68C3F30223034AD35CD84008BD00BF0B
:101F2000001002406854000808B5FFF7E7FF044BB3
:101F30005B68C3F3C223034AD35CD84008BD00BF2B
:101F400000100240685400080F2303600B4B5A68CE
:101F500002F0030242605A6802F0F00282605A689E
:101F600002F4E062C2605B68DB0803F4E0630361D3
:101F7000034B1B6803F007030B607047001002401F
:101F80000020024070B582B00446036813F0010FD0
:101F900036D03F4BDB6913F0805F49D13C4BDA69A7
:101FA00042F08052DA61DB6903F080530193019BB8
:101FB0000125384B1B6813F4807F3BD0344B1B6AE0
:101FC00013F4407313D0626802F440729A420ED048
:101FD0002F4A136A23F440702F490126C1F8406448
:101FE0000026C1F84064106213F0010F36D1284A70
:101FF000136A23F4407361680B431362002D3ED1D2
:10200000236813F0020F06D0214A536823F440439B
:10201000A1680B435360236813F0100F34D01C4A9F
:10202000536823F48003E1680B43536000202CE0E5
:102030000025BEE7174A136843F480731360FFF767
:1020400059FC0646134B1B6813F4807FB6D1FFF78B
:1020500051FC801B6428F5D9032016E0FFF74AFCE9
:1020600006460B4B1B6A13F0020FC0D1FFF742FC70
:10207000801B41F288339842F3D9032005E0D369ED
:1020800023F08053D361BBE7002002B070BD00BFD6
:1020900000100240007000400000424270B582B063
:1020A0000024A446A1E07E4DAB4214D00CD8A5F587
:1020B0008015AB420FD005F57025AB420BD0A5F5CE
:1020C0008015AB4210D106E0764DAB4203D005F54A
:1020D0008035AB4208D18B68002B50D0012B49D002
:1020E0004261082400E0CC68BEF1FF0F49D80646E3
:1020F0004FEA8C0233680F25954023EA050304FA62
:1021000002F2134333604B6813F0805F6BD0664B71
:102110009A6942F001029A619B6903F001030193FD
:10212000019B4FEA9C02951C604B53F825600CF014
:102130000305AD000F23AB4026EA03065C4B984233
:1021400026D003F58063984200F08C8003F580630D
:10215000984200F0898003F58063984216D00423EA
:1021600017E0CC680434BFE7CC680834BCE7CC681F
:102170000C34B9E702610824B6E70024B4E704246C
:10218000B2E7061DACF108029200B3E7032300E0BA
:102190000023AB4033430232444D45F822304B68B4
:1021A00013F4801F62D0434A936843EA0E0393609E
:1021B0004B6813F4001F5FD03E4AD36843EA0E0316
:1021C000D3604B6813F4003F5CD03A4A536843EA4B
:1021D0000E0353604B6813F4803F59D0354A13689F
:1021E00043EA0E0313600CF1010C0B6833FA0CF296
:1021F00054D0012202FA0CF203EA020E32EA03037F
:10220000F1D14B68122B3FF64EAF122B3FF66CAF5D
:1022100001A555F823F000BFD7200008E7200008EB
:10222000692100087B210008E9200008E920000856
:10223000E9200008E9200008E9200008E92000085A
:10224000E9200008E9200008E9200008E92000084A
:10225000E9200008E9200008E920000863210008BF
:102260006F210008012394E7022392E7114A936843
:1022700023EA0E0393609BE70E4AD36823EA0E031A
:10228000D3609EE70B4A536823EA0E035360A1E72D
:10229000084A136823EA0E031360A4E702B070BD76
:1022A0000000221000003110001002400000014028
:1022B00000080140000401400AB1016170470904AF
:1022C00001617047C36801EA030221EA030141EAA0
:1022D000024101617047000050B310B4024601682A
:1022E000144B0B441448A0FB03031B099B0013640D
:1022F000124BD363022382F8213008686FF30D106C
:10230000536894682343D46823431469234354696E
:10231000234394692343D469234303430B60002080
:102320009063012382F8213082F8200010BC7047AE
:1023300001207047F8FFFDBFCDCCCCCC000002409F
:10234000034690F82120D2B2022A06D004228263EA
:10235000002280F820200120704701680A6822F0DE
:102360000E020A6001680A6822F001020A60026C2B
:10237000C06B012101FA02F2426083F821100020B3
:1023800083F820007047000008B590F82130DBB2D8
:10239000022B03D004238363012008BD0268136865
:1023A00023F00E0313600268136823F00103136027
:1023B0000368194A934214D0143293421FD0143246
:1023C00093421ED0143293421ED0143293421ED038
:1023D0001432934202D04FF0807203E04FF4801227
:1023E00000E001220D4B5A60012380F821300023C8
:1023F00080F82030436B6BB198470020CDE7102266
:10240000F0E74FF48072EDE74FF48052EAE74FF4C3
:102410008032E7E70020C0E70800024000000240E9
:1024200038B5C36B1A6804682568016C04238B40B7
:10243000134235D015F0040F32D0236813F0200F6B
:1024400003D1236823F0040323600368434A9342C3
:1024500014D01432934218D01432934217D014324D
:10246000934217D01432934217D01432934202D0C1
:102470004FF0806203E04FF4800200E00422384B0A
:102480005A60C36A03B1984738BD4022F7E74FF45A
:102490008062F4E74FF48042F1E74FF48022EEE7E8
:1024A00002238B4013423CD015F0020F39D0236831
:1024B00013F0200F06D1236823F00A0323600123C1
:1024C00080F821300368254A934214D01432934295
:1024D0001CD0143293421BD0143293421BD01432BE
:1024E00093421BD01432934202D04FF0007203E0AB
:1024F0004FF4001200E00222194B5A60002380F8CA
:102500002030836A002BBFD09847BDE72022F3E735
:102510004FF40072F0E74FF40052EDE74FF4003251
:10252000EAE708238B401342AED015F0080FABD07A
:10253000236823F00E032360026CC16B012303FAAE
:1025400002F24A60836380F82130002380F8203053
:10255000036B002B98D0984796E700BF0800024015
:102560000000024090F8210070470000002808DBBE
:102570000901C9B200F1604000F5614080F8001324
:10258000704700F00F000901C9B2014B19547047A0
:1025900014ED00E000B500F00700C0F1070CBCF13D
:1025A000040F28BF4FF0040C031D062B0FD9C31EC8
:1025B0004FF0FF3E0EFA0CF021EA000199400EFAAE
:1025C00003FE22EA0E0241EA02005DF804FB00234A
:1025D000EEE70000074AD36823F4E0631B041B0CFA
:1025E000000200F4E060034343F0BF6343F40033B0
:1025F000D360704700ED00E010B50446054BD86885
:10260000C0F30220FFF7C6FF01462046FFF7AEFFEA
:1026100010BD00BF00ED00E0002807DB00F01F0246
:10262000400901239340024A42F82030704700BF1E
:1026300000E100E0026802F10C0353E8003F23F4DC
:1026400090730C3242E800310029F3D1026802F1A4
:10265000140353E8003F23F00103143242E8003131
:102660000029F3D1036B012B05D0202380F84230E1
:10267000002303637047026802F10C0353E8003F34
:1026800023F010030C3242E800310029F3D1ECE7CB
:1026900090F84130DBB2212B01D0022070478368D3
:1026A000B3F5805F17D0036A5A1C02621A78036878
:1026B0005A60C38C9BB2013B9BB2C3844BB9026886
:1026C000D36823F08003D3600268D36843F04003EB
:1026D000D360002070470369002BE4D1036A1B8894
:1026E0000268C3F308035360036A02330362E0E73E
:1026F00010B504460268136923F44053C1680B43C4
:10270000136183680269134342691A430168CB6805
:1027100023F4B05323F00C031343CB6002685369D6
:1027200023F4407381690B4353610268134B9A424F
:1027300020D0FFF7E9FB024602EB820202EB8202A5
:1027400063689B00B2FBF3F20D48A0FB023149091C
:10275000642303FB11231B013233A0FB03035B093A
:1027600003F0F00202EB011203F00F03216813449F
:102770008B6010BDFFF7D8FB0246DDE70038014053
:102780001F85EB5160B310B5044690F8413013B388
:10279000242384F841302268D36823F40053D360A3
:1027A0002046FFF7A5FF2268136923F490431361C5
:1027B0002268536923F02A0353612268D36843F4E3
:1027C0000053D36000206064202384F8413084F8F3
:1027D0004230606310BD80F84030FEF773FAD7E7EF
:1027E00001207047704708B50168CA6822F04002AE
:1027F000CA60202280F84120FFF7F4FF002008BDC6
:102800007047704708B5406A0023C385C384FFF74B
:10281000F8FF08BD704790F84230DBB2222B69D137
:102820008368B3F5805F4FD0826AB3F5805F04D0D0
:10283000002B56D10369002B53D103685B681370DA
:10284000836A01338362C38D9BB2013B9BB2C38514
:10285000002B51D100B583B00268D36823F0200368
:10286000D3600268D36823F48073D360026853692D
:1028700023F001035361202380F842300023436397
:10288000036B012B33D100230363026802F10C03B5
:1028900053E8003F23F010030C3242E800310029D6
:1028A000F3D103681A6812F0100F06D000220192CB
:1028B0001A6801925B680193019B818DFFF7AAFF63
:1028C000002003B05DF804FB0269002AACD1826AE3
:1028D00003685B68C3F308031380836A023383626F
:1028E000B1E703685B6803F07F031370A8E7FFF7A5
:1028F00087FFE5E7022070470020704710B582B0DF
:10290000044602681368D068516913F00F0F09D1AB
:1029100013F0200F0CD010F0200F09D02046FFF745
:102920007AFF16E011F0010115D110F4907F12D159
:10293000216B012979D013F0800F03D010F0800FA4
:1029400040F0138113F0400F03D010F0400F40F01F
:10295000108102B010BD13F0010F06D010F4807F7B
:1029600003D0626C42F00102626413F0040F04D0E1
:1029700019B1626C42F00202626413F0020F04D0DB
:1029800019B1626C42F00402626413F0080F07D0C0
:1029900010F0200F00D119B1626C42F0080262649D
:1029A000626C002AD5D013F0200F02D010F0200F57
:1029B00029D123685B6903F04003626C12F0080FB1
:1029C00000D163B32046FFF735FE23685B6913F03F
:1029D000400F20D0226802F1140353E8003F23F097
:1029E0004003143242E800310029F3D1E36B73B1A4
:1029F000624A5A63E06BFFF7C7FC0028A9D0E06B7E
:102A0000436B9847A5E72046FFF705FFD1E720462F
:102A1000FFF7F7FE9DE72046FFF7F3FE99E7204614
:102A2000FFF7EFFE0023636493E713F0100F82D0EB
:102A300010F0100F3FF47FAF002301931368019350
:102A400053680193019B536913F0400F51D0E26B1F
:102A500013685B689BB2002B3FF47BAFA18D99425A
:102A60007FF677AFE3859369202B37D0226802F198
:102A70000C0353E8003F23F480730C3242E800312A
:102A80000029F3D1226802F1140353E8003F23F038
:102A90000103143242E800310029F3D1226802F127
:102AA000140353E8003F23F04003143242E800319E
:102AB0000029F3D1202384F84230002323632268C5
:102AC00002F10C0353E8003F23F010030C3242E8FC
:102AD00000310029F3D1E06BFFF732FC022363637E
:102AE000A18DE38D9BB2C91A89B22046FFF792FEF1
:102AF0002FE7A18DE38D9BB2C91A89B2E38D9BB2FA
:102B0000002B3FF426AF00293FF423AF226802F1E7
:102B10000C0353E8003F23F490730C3242E800307A
:102B20000028F3D1226802F1140353E8003F23F098
:102B30000103143242E800300028F3D1202384F846
:102B4000423000232363226802F10C0353E8003F64
:102B500023F010030C3242E800300028F3D10223A6
:102B600063632046FFF756FEF3E62046FFF790FD2D
:102B7000EFE62046FFF737FEEBE600BF052800082A
:102B8000704700F1080343604FF0FF328260C3607A
:102B900003610023036070470023036170474368AB
:102BA0004B609A688A6051609960086103680133DC
:102BB0000360704730B40D68B5F1FF3F11D000F1EC
:102BC00008031C465B681A68AA42FAD963684B601E
:102BD00099608C606160086103680133036030BCF8
:102BE00070470469F2E70369416882688A60416856
:102BF00051605A68824206D0002202611A68013A86
:102C00001A601868704782685A60F5E7084B1B68BD
:102C10001B6823B9074B4FF0FF321A607047044B13
:102C20001B68DB68DB685A68024B1A60704700BF9C
:102C3000B0040020480400202DE9F04707469846DC
:102C4000089DDDF824900A9C266B02F18042013A2F
:102C500006EB820626F00706C1B308464FF0000CCB
:102C6000BCF10F0F09D810F80C2004EB0C0383F80B
:102C7000342012B10CF1010CF2E7002384F8433048
:102C8000062D00D90625E56265644FF0000AC4F8F8
:102C900048A0201DFFF780FF04F11800FFF77CFF1C
:102CA0002461C5F10705A5616462C4F84CA084F8ED
:102CB00050A042463946304600F0F8FC2060B9F199
:102CC000000F01D0C9F80040BDE8F087002384F868
:102CD0003430D5E738B5002407E004EB84029300D4
:102CE0000E481844FFF74DFF0134062CF5D90C4D62
:102CF0002846FFF746FF0B4C2046FFF742FF0A48E5
:102D0000FFF73FFF0948FFF73CFF0948FFF739FF8E
:102D1000084B1D60084B1C6038BD00BFDC04002060
:102D2000C8040020B404002098040020840400207B
:102D30006C040020B0040020AC04002010B5044650
:102D400000F0D8FC214A136801331360204B1B6844
:102D50005BB1204B1B686BB91D4B1B68DA6AE36AD9
:102D60009A4207D81A4B1C6004E0194B1C60136888
:102D7000012B28D0184A136801331360E06A01233D
:102D80008340164A11680B43136000EB8000211D3D
:102D9000134B03EB8000FFF702FF00F0CDFC0D4B5F
:102DA0001B687BB10A4B1B68DA6AE36A9A4209D254
:102DB0004FF0E0234FF08052C3F8042DBFF34F8F44
:102DC000BFF36F8F10BDFFF785FFD3E768040020C6
:102DD000680500205C0400204C04002060040020F2
:102DE000DC04002010B5044690F8513063B1012B8B
:102DF00011D0022B0ED04FF0500383F31188BFF394
:102E00006F8FBFF34F8FFEE7006B00F0E1FB2046B2
:102E100000F0DEFB10BD00F0DBFBFBE70F4B1B6897
:102E2000D3B110B500F066FC0D4BDB68DC68201DEB
:102E3000FFF7D9FE0B4A1368013B1360074A13687A
:102E4000013B136000F078FC2046FFF7CBFF034BFB
:102E50001B68002BE6D110BD704700BF8004002026
:102E6000840400206804002008B5FFF7D7FF074B53
:102E70001B68012BF9D94FF0E0234FF08052C3F8C3
:102E8000042DBFF34F8FBFF36F8FEEE7DC040020FC
:102E900070B504460D461D4B1E681D4B1868043066
:102EA000FFF7A1FE48B91A4B1B68DB6A01229A4062
:102EB00018490B6823EA02030B60B4F1FF3F0DD001
:102EC0003444134B1B685C60A64210D9124B18683F
:102ED0000F4B19680431FFF76DFE70BD002DEFD068
:102EE0000B4B196804310D48FFF759FEF5E70C4B01
:102EF0001868074B19680431FFF75CFE094B1B6823
:102F0000A342EAD9074B1C60E7E700BF6404002036
:102F10006805002060040020AC0400206C04002040
:102F2000B00400204804002030B587B00B9C7CB171
:102F30000C9DB5B154250495049D542D1AD04FF025
:102F4000500383F31188BFF36F8FBFF34F8FFEE7FA
:102F50004FF0500383F31188BFF36F8FBFF34F8F90
:102F6000FEE74FF0500383F31188BFF36F8FBFF379
:102F70004F8FFEE7049D0C9D2C63022485F8514081
:102F800000240394029505AC01940A9C0094FFF779
:102F900053FE0C98FFF7D2FE059807B030BD2DE91F
:102FA000F04385B00746884614461E46900000F060
:102FB0008DFA08B38146542000F088FA0546A8B17E
:102FC000C0F83090002380F85130039302900D9B9D
:102FD00001930C9B00933346224641463846FFF747
:102FE0002BFE2846FFF7AAFE012007E0484600F026
:102FF000EFFA4FF0FF3001E04FF0FF3005B0BDE8D1
:10300000F083000010B588B000240594069407AA48
:1030100006A905A8FDF7A6FC059B0293069B019354
:1030200000942346079A0E490E48FFF77DFF0E4B8A
:10303000186090B14FF0500383F31188BFF36F8F86
:10304000BFF34F8F094B4FF0FF321A60084B01223C
:103050001A60084B1C6000F0D7FB08B010BD00BF21
:103060004C540008692E0008440400204804002045
:103070005C04002064040020024A136801331360DA
:10308000704700BF40040020F8B53A4B1B68002B86
:1030900069D1394B1D6801351D60C5B9374B1B68B7
:1030A0001B6843B14FF0500383F31188BFF36F8F58
:1030B000BFF34F8FFEE7314A1168314B186810603B
:1030C0001960304A136801331360FFF79FFD2E4BE0
:1030D0001B68AB423DD900272C4B1B68DB6A03EB16
:1030E00083039A002A4B9B58012B00D90127294BB7
:1030F0001B68002B3CD001273AE001271F4B1B68BF
:103100001B6843B31D4B1B68DB68DC6863689D422A
:1031100026D3261D3046FFF766FDA36A1BB104F1D6
:103120001800FFF760FDE36A01229A401A49086817
:1031300002430A6003EB83039A00314614481044AB
:10314000FFF72DFDE26A114B1B68DB6A9A42D4D26D
:10315000D4E70027D2E70C4B4FF0FF321A60BBE7F1
:10316000094A1360B8E70D4A13680133136000275A
:103170003846F8BD4004002064040020B00400205C
:10318000AC04002050040020480400206805002002
:10319000DC040020540400206004002058040020B7
:1031A00038B5354B1B6843B94FF0500383F3118892
:1031B000BFF36F8FBFF34F8FFEE700F09BFA2E4BEC
:1031C0001A68013A1A601B68002B4FD12B4B1B6801
:1031D0000BB900244BE00024294B1B681BB3284B80
:1031E000DB68DC6804F11800FFF7FDFC251D2846AC
:1031F000FFF7F9FCE06A01238340224A11680B4380
:10320000136000EB800029461F4B03EB8000FFF7A3
:10321000C6FCE26A1D4B1B68DB6A9A42DCD31C4B7E
:1032200001221A60D8E70CB1FFF7F0FC194B1C68BB
:1032300084B9174B1C68D4B14FF0E0234FF0805293
:10324000C3F8042DBFF34F8FBFF36F8F01240EE03F
:10325000013C07D0FFF718FF0028F9D00C4B0122E2
:103260001A60F5E70B4B00221A60E2E7002400F039
:1032700063FA204638BD00BF4004002068040020E7
:103280009804002060040020DC0400206805002071
:10329000540400205804002010B5A8B10446104B77
:1032A0001B6843B14FF0500383F31188BFF36F8F56
:1032B000BFF34F8FFEE7FFF7DFFE00212046FFF749
:1032C000E7FDFFF76DFF48B94FF0E0234FF0805264
:1032D000C3F8042DBFF34F8FBFF36F8F10BD00BF36
:1032E00040040020204B1B681BB1204B01221A60B8
:1032F00070471E4B00221A601D4B1B68B3FA83F304
:10330000DBB2C3F11F0303EB83018A0019498A581A
:1033100042B94FF0500383F31188BFF36F8FBFF3AF
:103320004F8FFEE7134803EB83018A000244516884
:103330004968516003EB830C4FEA8C020832024467
:10334000914209D003EB83039A000A4B13445B6854
:10335000DA68094B1A607047486862469100054A6E
:103360000A445060EEE700BF4004002054040020EF
:1033700060040020DC04002068050020842801D0BF
:10338000033070470020704708B5FFF73BFE002070
:1033900008BD2DE9F04387B00E464469C4B1856984
:1033A000B5B14768D0F80080D0F81090B0F90800A7
:1033B000FFF7E4FF02950194009033464A464146E8
:1033C0003846FFF7B1FD0590059807B0BDE8F083DA
:1033D000446805680769B0F90800FFF7CFFF05AB3F
:1033E000019300903346BAB229462046FFF7D7FD35
:1033F0000128E9D00020E8E708B500B90120FFF76F
:103400004BFF002008BD0000124A12F0070F1ED02B
:10341000D11D21F00701C1F5406313440A460E484F
:103420000260002141601344083B23F007030B486E
:10343000036059601960991A51601360084B196054
:10344000084B1960084B4FF000421A6070474FF468
:103450004063E4E78C0500208405002080050020FF
:10346000780500207C0500206C050020154B1A46CD
:103470001B688342FBD3516802EB010C844509D0E1
:10348000416800EB010C634509D00360904218D0FD
:10349000106070474068014451601046F0E710B476
:1034A000094C2468A3420AD05B6819444160136840
:1034B0001B680360904200D0106010BC704704602D
:1034C000F8E77047840500208005002038B50446E1
:1034D000FFF7D2FD384B1B68B3B1384B1B681C4259
:1034E00050D1002C50D004F1080214F0070F02D084
:1034F00022F007020832002A55D0314B1B68934254
:1035000053D330490C6804E0FFF77EFFE5E721461E
:103510001C466368934202D22368002BF7D1264BE6
:103520001B68A34243D00D68083523680B606368AD
:103530009B1A102B10D9A01810F0070F08D04FF0CD
:10354000500383F31188BFF36F8FBFF34F8FFEE7F4
:1035500043606260FFF78AFF626819490B689B1A33
:103560000B60194909688B4201D217490B60134B54
:103570001B681343636000232360144A13680133FC
:10358000136002E0002500E00025FFF709FE15F0BA
:10359000070F0ED04FF0500383F31188BFF36F8FE6
:1035A000BFF34F8FFEE70025EFE70025EDE700258D
:1035B000EBE7284638BD00BF800500206C050020E1
:1035C0007C0500208405002078050020740500207B
:1035D000002834D038B50446A0F1080550F8043C62
:1035E000174A1268134208D14FF0500383F3118831
:1035F000BFF36F8FBFF34F8FFEE750F8081C41B148
:103600004FF0500383F31188BFF36F8FBFF34F8FD9
:10361000FEE723EA020340F8043CFFF72DFD54F8CF
:10362000041C084A13680B4413602846FFF71EFF6A
:10363000054A136801331360FFF7B2FD38BD7047C8
:103640006C0500207C0500207005002082B000235E
:1036500001930D4B1B68B3F1FF3F08D04FF05003AF
:1036600083F31188BFF36F8FBFF34F8FFEE74FF0E7
:10367000500383F31188BFF36F8FBFF34F8F019B0C
:10368000002BFCD002B070470C00002006480068F8
:10369000006880F3088862B661B6BFF34F8FBFF34E
:1036A0006F8F00DF00BF000008ED00E04FF0807377
:1036B00040F8043C21F0010140F8081C034B40F89D
:1036C0000C3C40F8202C4038704700BF4D360008B5
:1036D000074B19680868B0E8F00F80F30988BFF35A
:1036E0006F8F4FF0000080F311884EF00D0E704781
:1036F000680500204FF0500383F31188BFF36F8FEC
:10370000BFF34F8F0B4A136801331360012B00D0B6
:1037100070474FF0E023D3F8043D13F0FF0FF7D0CC
:103720004FF0500383F31188BFF36F8FBFF34F8FB8
:10373000FEE700BF0C000020094B1B6843B94FF0A7
:10374000500383F31188BFF36F8FBFF34F8FFEE7F2
:10375000013B034A13600BB983F31188704700BF24
:103760000C0000200000000000000000000000002D
:10377000EFF30980BFF36F8F0D4B1A6820E9F00F4C
:1037800010602DE908404FF0500080F31188FFF7DA
:10379000A9FD4FF0000080F31188BDE808401968CA
:1037A0000868B0E8F00F80F30988BFF36F8F7047A7
:1037B0006805002008B54FF0500383F31188BFF36C
:1037C0006F8FBFF34F8FFFF75FFC28B14FF0E023FF
:1037D0004FF08052C3F8042D002383F3118808BDF5
:1037E0004FF0E022002313619361054B1B680549EC
:1037F000A1FB03139B09013B53610723136170472E
:1038000008000020D34D621010B582B02A4B1A7800
:10381000D2B20192FF221A701B78DBB28DF803300E
:103820009DF8033003F05003244A1370244B072201
:103830001A6009E0224A1368013B13609DF80330C7
:103840005B00DBB28DF803309DF8033013F0800F7E
:10385000F0D11B4B1B68032B08D04FF0500383F3B0
:103860001188BFF36F8FBFF34F8FFEE71B02144A1F
:10387000136003F4E0631360019BDBB20E4A137024
:103880004FF0E023D3F8202D42F47002C3F8202D2E
:10389000D3F8202D42F07042C3F8202DFFF7A0FF8F
:1038A0000024084B1C60FFF7F1FEFFF71BFDFFF73C
:1038B000CDFE204602B010BD00E400E090110020D3
:1038C0008C1100200C00002008B50B480B4B036046
:1038D0000B4B436000238360C3604FF4804202615E
:1038E00043618361C361036200F08AFC00B908BDD3
:1038F000FCF786FFFBE700BF941100200054004056
:10390000A086010010B586B00023029303930493B0
:1039100005930268154B9A4201D006B010BD144CB5
:10392000A36943F00803A361A36903F008030093AC
:10393000009BC0230293122303930323059302A940
:103940000C48FEF7ABFBE36943F40013E361E36962
:1039500003F400130193019B002205211F20FEF7B1
:103960004BFE1F20FEF758FED7E700BF0054004073
:1039700000100240000C014003685A6912F0800FE9
:1039800001D000221A61704790F83E30DBB2402B24
:1039900010D00369B3F5804F1BD0036D002B39D1D4
:1039A000436CC3F3C813026803F0060343F0F0034B
:1039B00013617047036D2BB9436C026803F0FE037B
:1039C00013617047436C026843F00103DBB213617B
:1039D000704790F83D30DBB2212B0FD0436C02686A
:1039E00043F00103DBB21361436B6BB19B6A5BB1C4
:1039F0000268536843F4006353607047436C026885
:103A000003F0FE031361EFE7836B33B19B6A002B76
:103A1000EED102E0036D012B00D07047436CC3F37D
:103A2000C813026803F0060343F0F1031361F4E7DF
:103A3000436C0268DBB21361436B3BB19B6A2BB1F1
:103A40000268536843F4006353607047836B002B34
:103A5000FBD09B6A002BF3D1F7E7000010B48DB0C8
:103A600090F83E30DAB2C16A046B90F83D30DBB2B8
:103A7000222B0AD000230B9303685A690B929B698F
:103A80000B930B9B0DB010BC7047036D0BB9402A14
:103A900017D0036D1BB90369B3F5404F19D0438D9F
:103AA0009BB2002B25D1039303685A6903929A694C
:103AB0000392039A1A6842F400721A6000230365A5
:103AC000E0E7019303685A6901929B690193019BA6
:103AD000D8E70023029303685A6902929A69029216
:103AE000029A1A6842F480721A60036D013303650A
:103AF000C8E7438D9BB2012B26D0438D9BB2022B8E
:103B00007CD00268136843F48063136003685A68CA
:103B100012F4006F0FD0202900F2B9800829C0F0FC
:103B2000B28008395C4ACA4012F0010F03D05A68CB
:103B300042F480525A6000230A9303685A690A9239
:103B40009B690A930A9BB9E711F5803F11D00829B8
:103B500034D0202932D0122C2ED0042940D0022972
:103B60003ED010293CD00268136823F480631360B0
:103B70003BE00268136823F48063136003685A68AB
:103B800012F4006F0CD01A6822F480621A600023CD
:103B9000049303685A6904929B690493049B8DE71C
:103BA000002205925A6905929A690592059A1A6847
:103BB00042F400721A6081E70129D0D002681368CC
:103BC00023F4806313600023079303685A69079204
:103BD0009A690792079A1A6842F400721A606DE7B0
:103BE0000268136843F4806313600023069303683C
:103BF0005A6906929B690693069B5FE7102912D8C3
:103C0000264BCB4013F0010F0DD00268136843F42C
:103C1000806313600023099303685A6909929B69C2
:103C20000993099B10E00268136843F40063136072
:103C30000023089303685A6908929A690892089ABF
:103C40001A6822F480621A6003685A6812F4006FDE
:103C50003FF434AF202911D808290BD308390E4A74
:103C6000CA4012F0010F3FF429AF5A6842F4805263
:103C70005A6023E701297FF421AFF6E711F5803F71
:103C80007FF41CAFF1E701297FF455AF4FE711F541
:103C9000803F7FF450AF4AE70101000114000100AA
:103CA000438D9BB25BB1426A036812781A61436A22
:103CB00001334362438D9BB2013B9BB24385704706
:103CC000438D9BB25BB103681A69436A1A70436AF9
:103CD00001334362438D9BB2013B9BB243857047E6
:103CE00082B0002301930E4B1B68DB080D4AA2FB38
:103CF00003231B0A03EB83030193019B013B019305
:103D0000019B33B103681B6813F4007FF5D10020D9
:103D100004E0036C43F020030364012002B0704709
:103D20000800002089B5F81403685A6912F4806FFE
:103D300001D1002070476FF480625A610023036351
:103D4000202280F83D2080F83E30026C42F00402D0
:103D5000026480F83C3001207047C36AB3F52A0F33
:103D600004D0C36AB3F12A4F03D070470123C36262
:103D700070470823C362F8E72DE9F04106460C4678
:103D8000174698463BE0FDF7B5FD069BC01A404537
:103D900002D8B8F1000F32D1012D18D033689B69D9
:103DA00024EA03039BB2B3FA83F35B099F4226D153
:103DB00000233363202286F83D2086F83E30326CA3
:103DC00042F02002326486F83C30012027E033685C
:103DD0005B6924EA03039BB2B3FA83F35B09E5E76B
:103DE00033685B6924EA030C1FFA8CFCBCFA8CFC78
:103DF0004FEA5C1C674511D1B8F1FF3FC3D1C4F352
:103E00000745012DECD033689B6924EA030C1FFAA7
:103E10008CFCBCFA8CFC4FEA5C1CEBE70020BDE894
:103E2000F0812DE9F84305460E469046994653E049
:103E30001A6842F400721A602B686FF480625A614B
:103E400000232B63202285F83D2085F83E302A6C24
:103E500042F004022A6485F83C3001204AE0FDF774
:103E600049FDA0EB0900404502D8B8F1000F33D15D
:103E7000012F17D02B689B6926EA03039BB2003BF6
:103E800018BF012343B300232B63202285F83D2074
:103E900085F83E302A6C42F020022A6485F83C30D6
:103EA000012027E02B685B6926EA03039BB2003BF5
:103EB00018BF0123E6E72B689C6926EA0404A4B234
:103EC000003C18BF0124A4B12B685A6912F4806F1A
:103ED000AED1B8F1FF3FC2D1C6F30747012FEAD1F7
:103EE0002B685C6926EA0404A4B2003C18BF0124D4
:103EF000E9E70020BDE8F883F0B583B004460D463D
:103F000016461F46C36A082B0DD0012B0BD013F5A4
:103F1000803F08D0036B122B0AD10268136843F468
:103F20008073136004E02268136843F480731360A5
:103F30000097334600224FF001112046FFF71CFF87
:103F400080B92369B3F5804F16D1236805F0FE05CB
:103F50001D613B46324613492046FFF762FFF8B920
:103F600003B0F0BD23681B6813F4807F02D04FF4C8
:103F7000007323640320F3E7EB11226803F00603C8
:103F800043F0F00313613B46324607492046FFF7F2
:103F900048FF18B92368EDB21D61DAE70120DFE7B9
:103FA0000120DDE702000100080001002DE9F041D9
:103FB00084B004460D4616461F46C26A01680B6867
:103FC00043F480630B60082A0DD0012A0BD012F550
:103FD000803F08D0036B112B0AD10268136843F4A9
:103FE0008073136004E02268136843F480731360E5
:103FF0000097334600224FF001112046FFF7BCFE28
:1040000098B92369B3F5804F19D1236845F00105AC
:10401000EDB21D613B4632462A492046FFF701FFBB
:1040200000284CD104B0BDE8F08123681B6813F46C
:10403000807F02D04FF4007323640320F2E74FEA3D
:10404000E51808F00608236848F0F0021A613B46BC
:1040500032461D492046FFF7E4FE08B10120E1E7A2
:104060002368EDB21D613B46324616492046FFF7F4
:10407000D8FE08B10120D5E70022039223685969D0
:104080000391996903910399196841F4807119604A
:10409000009733464FF001112046FFF76DFE20B91F
:1040A000226848F0F1031361B4E723681B6813F436
:1040B000807F02D04FF4007323640320B2E7012015
:1040C000B0E700BF020001000800010070B504461F
:1040D0000D46164623685B6913F0800F21D12046F8
:1040E000FFF722FEF8B9B5F1FF3FF3D0FDF702FC70
:1040F000801BA84201D8002DECD123685B6913F026
:10410000800FE7D100232363202284F83D2084F828
:104110003E30226C42F02002226484F83C300120C0
:1041200000E0002070BD0120FCE770B504460D469C
:10413000164623685B6913F0040F21D12046FFF770
:10414000F3FDF8B9B5F1FF3FF3D0FDF7D3FB801BCA
:10415000A84201D8002DECD123685B6913F0040F4D
:10416000E7D100232363202284F83D2084F83E30E9
:10417000226C42F02002226484F83C30012000E0EE
:10418000002070BD0120FCE770B504460D461646C0
:1041900014E06FF010025A6100232363202284F898
:1041A0003D2084F83E30226C226484F83C300120AB
:1041B00025E023685B6913F0400F10D0236858692D
:1041C00010F0400F1AD1586910F0100FE1D1FDF72F
:1041D00091FB801BA842ECD8002DEFD1E9E700232A
:1041E0002363202284F83D2084F83E30226C42F084
:1041F0002002226484F83C30012000E0002070BDE1
:10420000002800F0CC8070B5044690F83D30002BBB
:1042100077D0242384F83D302268136823F001030B
:1042200013602268136843F4004313602268136824
:1042300023F400431360FDF767FE62685A4B9A420D
:1042400064D85A4B98428CBF00230123002B40F0C6
:10425000A8805749A1FB00318B0C25686A6822F0C1
:104260003F0242EA91426A6021680A6A22F03F02F4
:1042700066684D4DAE424FD8013313430B6221683F
:10428000CA6922F44F4222F0FF026568464B9D4204
:104290004CD8431E6D00B3FBF5F3013340F6FC70C0
:1042A000034278D0C3F30B031A43CA6121680B6839
:1042B00023F0C003E269206A024313430B602168C4
:1042C0008B6823F4034323F0FF032269E068024371
:1042D00013438B602168CB6823F0FF036269A069F8
:1042E00002431343CB602268136843F00103136059
:1042F00000202064202384F83D30206384F83E00B1
:1043000070BD80F83C30FFF7FDFA82E7294B9842F8
:104310008CBF0023012399E74FF4967505FB03F347
:10432000254DA5FB03539B090133A6E7A668BEB93B
:10433000431E05EB450CB3FBFCF30133C3F30B0346
:10434000B3FA83F35B0943BBC6B9431E05EB4505CE
:10435000B3FBF5F30133C3F30B0343F40043A3E7CB
:10436000431E05EB850C0CEB8C0CB3FBFCF301330B
:10437000C3F30B03B3FA83F35B09E4E7431E05EBD6
:10438000850505EB8505B3FBF5F30133C3F30B039B
:1043900043F4404388E7042386E7012384E70120B0
:1043A00070470120ACE700BFA08601007F841E009B
:1043B00083DE1B43FF083D00D34D62102DE9F0431F
:1043C00085B004460F46914698460C9EFDF792FA3A
:1043D000054694F83D00C0B2202804D00227384694
:1043E00005B0BDE8F0830095192301224F4920460E
:1043F000FFF7C2FC002840F0928094F83C30012B7B
:1044000000F08F80012384F83C3023681A6812F092
:10441000010F03D11A6842F001021A602268136882
:1044200023F400631360212384F83D30102384F8C3
:104430003E3000232364C4F82490A4F82A80638DBE
:1044400023853B4BE3622B46324639462046FFF735
:1044500053FD0746002866D10023039323685A6959
:1044600003929B690393039B11E0236C042B01D0FF
:104470000127B4E72268136843F400731360F7E779
:104480002A4631462046FFF750FE00282ED1238DC4
:10449000002B36D02A4631462046FFF717FE00286B
:1044A000E3D1626A236812781A61606A431C63620E
:1044B000618D89B2013989B26185238D013B9BB23F
:1044C00023852268516911F0040FD9D0002BD7D071
:1044D00043781361636A01336362638D9BB2013B6E
:1044E0009BB26385238D013B2385C9E7236C042B95
:1044F00001D0012773E72268136843F40073136047
:10450000F7E72268136843F400731360202384F8EC
:104510003D30002384F83E3084F83C305FE70227CA
:104520005DE702275BE7012759E700BF02001000A3
:104530000000FFFF2DE9F04389B004460F46914685
:104540009846109E00230793FDF7D4F9054694F88A
:104550003D00C0B2202804D00227384609B0BDE88B
:10456000F08300951923012280492046FFF704FCBF
:10457000002840F07A8194F83C30012B00F07781DC
:10458000012384F83C3023681A6812F0010F03D12C
:104590001A6842F001021A602268136823F400636B
:1045A0001360222384F83D30102384F83E3000232A
:1045B0002364C4F82490A4F82A80638D23856C4B6F
:1045C000E3622B46324639462046FFF7EFFC0746AA
:1045D000002840F04E81238D5BB9039323685A690C
:1045E00003929A690392039A1A6842F400721A605D
:1045F000F3E0012B0FD0022B21D02268136843F483
:10460000806313600023069323685A6906929B69AE
:104610000693069BE1E02268136823F4806313602D
:1046200072B60023049323685A6904929A6904922B
:10463000049A1A6842F400721A6062B6CDE02268E9
:10464000136843F40063136072B600230593236874
:104650005A6905929A690592059A1A6822F480624D
:104660001A6062B6B9E02A4631462046FFF78CFD53
:10467000002840F0008123681A69636A1A70636A2F
:1046800001336362238D013B2385638D9BB2013B24
:104690009BB26385A1E00095334600223549204650
:1046A000FFF76AFB002840F0EA802268136823F4D1
:1046B0008063136072B623681A69636A1A70636A4A
:1046C00001336362238D013B2385638D9BB2013BE4
:1046D0009BB26385284B1B68DB08284AA2FB032397
:1046E0001B0A03EB8303C3EBC30307930799013949
:1046F00007910799002928D023685A6912F0040FFE
:10470000F4D01A6842F400721A6023681A69636A66
:104710001A70636A01336362238D013B2385638DC5
:104720009BB2013B9BB2638562B623681A69636AD8
:104730001A70636A01336362238D013B2385638DA5
:104740009BB2013B9BB2638547E000232363202299
:1047500084F83D2084F83E30226C42F0200222642E
:1047600062B684F83C300127F7E600BF0200100073
:104770000000FFFF040001000800002089B5F814C4
:104780002A4631462046FFF7FFFC002879D12368EE
:104790001A69636A1A70636A01336362228D013A8F
:1047A00092B22285638D9BB2013B9BB263852368E5
:1047B000596911F0040F10D0032A48D023681A69F0
:1047C000636A1A70636A01336362238D013B238538
:1047D000638D9BB2013B9BB26385218D00293BD049
:1047E0000329CDD801293FF43EAF02297FF453AF0E
:1047F00000953346002224492046FFF7BDFA0028E1
:104800003BD172B62268136843F4007313602368C7
:104810001A69636A1A70636A01336362238D013B0C
:104820002385638D9BB2013B9BB2638562B623688F
:104830001A69636A1A70636A01336362238D013BEC
:104840002385638D9BB2013B9BB26385C5E71A68E4
:1048500022F480621A60B1E7202384F83D300023FF
:1048600084F83E3084F83C3077E6022775E602276C
:1048700073E6012771E601276FE601276DE6012740
:104880006BE6012769E600BF04000100704770472E
:10489000704708B590F83D30DAB2438D9BB283B1D2
:1048A000416A036809781961436A01334362438DA1
:1048B0009BB2013B9BB24385438D9BB20BB9292A26
:1048C00000D008BD0268536823F48063536021233D
:1048D0000363282380F83D30FFF7DAFFF1E77047E4
:1048E00008B590F83D30DAB2438D9BB283B10368CE
:1048F0001969436A1970436A01334362438D9BB25D
:10490000013B9BB24385438D9BB20BB92A2A00D051
:1049100008BD0268536823F4806353602223036355
:10492000282380F83D30FFF7DAFFF1E7704700B544
:1049300083B090F83D3003F02803282B0CD00023DF
:10494000019302685169019192690192019A80F87C
:104950003C3003B05DF804FB0268536823F48063C5
:10496000536011F0040F0BD0002311F0800F09D118
:104970008289002180F83C101946FFF7D7FFE8E74D
:104980000123F2E7028BF4E77047704708B5C26A6B
:1049900090F83D30DBB2212B00D008BD438D9BB297
:1049A00063B1426A036812781A61436A0133436251
:1049B000438D9BB2013B9BB24385EEE7082A04D0AE
:1049C000202A02D012F5803F19D10268536823F4DF
:1049D000E06353600268136843F4007313600023BC
:1049E0000363202380F83D3090F83E30DBB2402B4B
:1049F00015D0002380F83E30FFF748FFCDE702686E
:104A0000536823F4E063536011230363002380F8A9
:104A10003E30202380F83D30FFF738FFBDE700230C
:104A200080F83E30FFF7B1FFB7E708B590F83D30AA
:104A3000026D9AB9C36C012B08D0836C0268C3F372
:104A400007231361036D0133036508BD836C02689E
:104A5000DBB21361036D02330365F6E7DBB2026D6F
:104A6000012A23D0026D022A3ED1222B26D0428D6C
:104A700092B20AB1212B2AD0428D92B2002AE4D1FF
:104A8000212BE2D10268536823F4E063536002688B
:104A9000136843F40073136000230363202280F83B
:104AA0003D2080F83E30FFF770FFCEE7836C026850
:104AB000DBB21361036D01330365C6E70268136857
:104AC00043F480731360036D01330365BDE7426AED
:104AD000036812781A61436A01334362438D9BB2C3
:104AE000013B9BB24385B0E7FEF746FFADE710B54B
:104AF00090F83D30DBB290F83E20D2B2C46A018D0E
:104B000000293BD1212B02D0402A42D010BD082CD5
:104B100004D0202C02D014F5803F19D102685368CC
:104B200023F4E06353600268136843F40073136076
:104B300000230363202380F83D3090F83E30DBB241
:104B4000402B15D0002380F83E30FFF79FFEDDE7B5
:104B50000268536823F4E063536011230363002366
:104B600080F83E30202380F83D30FFF78FFECDE700
:104B7000002380F83E30FFF708FFC7E7212BC3D1A1
:104B8000438D9BB243B90268536823F4806353603A
:104B9000BCE7222BBAD1F3E790F83E30DBB2402BD2
:104BA0000CD0426A036812781A61436A0133436287
:104BB000438D9BB2013B9BB24385A7E7FFF735FFCF
:104BC000A4E7704708B5C26A438D9BB2042B14D08A
:104BD000438D9BB2032B22D0438D9BB2022B39D045
:104BE00003681A69436A1A70436A01334362438D4A
:104BF0009BB2013B9BB2438510E00268536823F4EB
:104C00008063536003681A69436A1A70436A013308
:104C10004362438D9BB2013B9BB2438508BD016853
:104C20004B6823F480634B60042A06D0022A04D028
:104C30000268136823F48063136003681A69436A87
:104C40001A70436A01334362438D9BB2013B9BB2AE
:104C50004385E3E7531E0F2B42D8DFE803F0083B00
:104C6000413B41414141414141414141410801688C
:104C70000B6823F480630B6003681969436A197039
:104C8000416A4B1C4362438D9BB2013B9BB24385FF
:104C900003681B694B70436A01334362438D9BB2C7
:104CA000013B9BB2438501684B6823F440734B6022
:104CB000202380F83D3090F83E30DBB2402B15D0F9
:104CC000002380F83E30082A17D0202A15D012235E
:104CD000036314E001680B6843F480630B60CBE767
:104CE00001680B6843F400730B60C5E7002380F88C
:104CF0003E300363FFF765FF90E700230363FFF790
:104D0000C6FD8BE7704738B590F83D30DBB2222BFB
:104D100000D038BD0446C56A438D9BB2032B15D91C
:104D200003681A69436A1A70436A01334362438D08
:104D30009BB2013B9BB24385438D9BB2032BE8D1D1
:104D40000268536823F480635360E2E7C26A022A70
:104D500001D0012B05D92268536823F48063536086
:104D6000D7E7FEF7BDFF002835D12268136823F48A
:104D7000806313602268536823F4E0635360236800
:104D80001A69636A1A70636A01336362638D9BB246
:104D9000013B9BB26385202384F83D3094F83E307C
:104DA000DBB2402B09D0002384F83E30082D0CD014
:104DB000202D0AD01223236309E0002384F83E301B
:104DC00023632046FFF7FDFEA3E70023236320466D
:104DD000FFF75DFD9DE72268536823F4E0635360AD
:104DE00023681A69636A1A70636A01336362638DA8
:104DF0009BB2013B9BB26385202384F83D300023A6
:104E000084F83E302046FFF77DFF82E770470000C0
:104E100000B583B000230193406A90F83D20D2B2E0
:104E2000324B1B68DB083249A1FB03131B0A03EB5F
:104E30008303C3EBC3030193019B43B1019B013B7C
:104E4000019303681B6813F4007FF5D103E0036C42
:104E500043F020030364436B0BB100219962836B21
:104E60000BB10021996201680B6823F480630B6029
:104E700000234385436B0BB100215963836B0BB156
:104E80000021596301680B6823F001030B6090F85F
:104E90003D30DBB2602B0ED002F02802282A14D05D
:104EA000202380F83D30002380F83E30FFF72AFFB2
:104EB00003B05DF804FB202380F83D30002380F828
:104EC0003E300364FFF7A2FFF2E70268136843F085
:104ED000010313600268136843F4806313600023C6
:104EE0000363282380F83D30E0E700BF080000207E
:104EF00089B5F81410B5044690F83D30DBB290F84F
:104F00003E20D2B2102A36D0402A34D003F02802F4
:104F1000282A38D02268526812F4006F07D1602B1B
:104F200005D0202384F83D30002384F83E30002350
:104F3000236323685A6812F4006F48D05A6822F439
:104F400000625A60626B92F82130DBB2012B20D0F4
:104F5000444B5363606BFDF717FA002849D0226871
:104F6000136823F001031360202384F83D30606B45
:104F7000436B98473DE0222BC8D121680A6822F490
:104F800000620A60C2E700232363282384F83D30CF
:104F9000CFE7A36B334A5A63A06BFDF7F5F940B333
:104FA00023685A6912F0400F05D01A69636A1A70B3
:104FB000636A013363622268136823F0010313609C
:104FC000202384F83D30A06B436B984711E094F8A0
:104FD0003D20D2B2602A1FD05A6912F0400F05D08E
:104FE0001A69636A1A70636A013363622046FFF7C5
:104FF00089FE236C13F00F0F04D02268536823F44A
:10500000E063536094F83D30DBB2226C12F0040F81
:1050100001D0282B18D010BD202284F83D2000227A
:1050200022645A6912F0400F05D01A69636A1A7037
:10503000636A013363622268136823F0010313601B
:105040002046FFF7E3FED4E7074BE3620023236328
:10505000202284F83D2084F83E302046FFF794FC5F
:10506000D9E700BF114E00080000FFFF30B583B044
:10507000044690F83D50EDB20268536823F4E063B3
:1050800053600023019303685A6901921A6842F041
:1050900001021A60019B0268136823F480631360A5
:1050A00003685A6812F4006F38D0222D21D02A2DBF
:1050B0001FD0426B1268526892B24285428D92B202
:1050C0001AB1026C42F0040202645A6822F40062CF
:1050D0005A60606BFDF746FA01281FD0636B444AA3
:1050E0005A63606BFDF750F9C0B1606B436B984732
:1050F00014E0A26B1268526892B26285628D92B21D
:105100001AB1226C42F0040222645A6822F400624E
:105110005A60A06BFDF726FA012842D1638D9BB23D
:1051200033B323685A6912F0040F0AD01A69636A0C
:105130001A70636A01336362638D9BB2013B9BB259
:10514000638523685A6912F0400F0AD01A69636AAE
:105150001A70636A01336362638D9BB2013B9BB239
:105160006385638D9BB21BB1236C43F004032364FE
:10517000236C13BB2A2D25D094F83D30DBB2282BAD
:1051800029D0236B222B01D0222D19D10023236398
:10519000202284F83D2084F83E302046FFF79FFB14
:1051A0000EE0A36B124A5A63A06BFDF7EDF80028DE
:1051B000B4D0A06B436B9847B0E72046FFF79AFE48
:1051C00003B030BD00232363282384F83D302046FC
:1051D000FFF785FBD0E7074BE36200232363202220
:1051E00084F83D2084F83E302046FFF7CDFBE7E70A
:1051F000114E00080000FFFFF8B50446026855682C
:10520000C66A90F83E30DBB290F83D10C8B2102B61
:1052100013D0402B11D0236C002B7AD0536900217E
:1052200013F0020F78D015F4007F75D0236C03B112
:1052300091692046FFF77BFBF8BDD2F818C0516991
:1052400011F0010705D1B6F52A0FF5D0B6F12A4FB6
:10525000F2D017B115F4007F29D111F0080F02D058
:1052600015F4007F2AD111F0020F02D015F4007F4F
:1052700028D11CF0040F31D0526812F4006FDBD13A
:1052800011F0800F05D015F4806F02D011F0040FDB
:105290001CD011F0040FCFD015F4007FCCD0212802
:1052A00018D0402BC8D12046FFF7BFFBC4E72046EB
:1052B000FEF753FD2046FEF767FBBDE72046FEF7ED
:1052C000B7FBB9E72046FEF7C9FBB5E72046FFF775
:1052D0000EFCB1E72046FFF759FBADE7536813F426
:1052E000006FA9D111F0400F05D015F4806F02D0E6
:1052F00011F0040F09D011F0040F9DD015F4007FB8
:105300009AD02046FFF75EFC96E72046FFF7FBFCAD
:1053100092E79169536983E713F0100F02D015F4F7
:10532000007F18D121281AD0292818D013F0400F57
:1053300005D015F4806F02D013F0040F28D013F0BD
:10534000040F3FF479AF15F4007F3FF475AF2046AA
:10535000FEF7B6FC70E72046FFF788FE6CE713F017
:10536000800F05D015F4806F02D013F0040F0BD01E
:1053700013F0040F3FF460AF15F4007F3FF45CAF0F
:105380002046FEF78DFC57E72046FFF782FA53E7E9
:105390002046FFF7A5FA4FE7FDF7F2FB0B480C4953
:1053A0000C4A002302E0D458C4500433C4188C4281
:1053B000F9D3094A094C002301E013600432A242E8
:1053C000FBD3FAF7F5FEFBF75FFA70470000002009
:1053D000100000208854000810000020E811002070
:1053E000FEE70000F8B500BFF8BC08BC9E46704759
:0C53F000F8B500BFF8BC08BC9E46704732
:1053FC0044540008350900080000000000000000BB
:10540C008000000000000000000000003454000880
:10541C00510900080200000000000000800000009C
:10542C000000000000000000535045454443414C2F
:10543C005461736B000000004C45445461736B0065
:10544C0049444C4500000000010200000203040521
:10545C00060708090A0B0C0D0E0F101000000000B7
:10546C00010203040000000000000000010203041C
:04547C00060708090E
:04548000CD0700084C
:04548400A90700086C
:10548800010000001000000000127A00AAAAAAAACF
:040000050800539903
:00000001FF
