:020000040800F2
:100000000000022049300008B1080008B3080008C9
:10001000B5080008B7080008B9080008000000008B
:10002000000000000000000000000000BB08000805
:10003000BD08000800000000BF080008C108000853
:10004000993000089930000899300008993000086C
:10005000993000089930000899300008993000085C
:10006000993000089930000899300008993000084C
:10007000993000089930000899300008993000083C
:10008000993000089930000899300008993000082C
:10009000993000089930000899300008993000081C
:1000A000993000089930000899300008993000080C
:1000B00099300008993000089930000899300008FC
:1000C00099300008993000089930000899300008EC
:1000D00099300008C9080008D908000899300008BC
:1000E00099300008993000089930000899300008CC
:1000F00099300008993000089930000899300008BC
:1001000099300008993000089930000899300008AB
:10011000993000089930000899300008993000089B
:10012000993000089930000899300008993000088B
:10013000993000089930000899300008993000087B
:10014000993000089930000899300008993000086B
:10015000993000089930000899300008993000085B
:10016000993000089930000899300008993000084B
:10017000993000089930000899300008000000000C
:080180009930000899300008D5
:10018800830730B547D0541E002A3ED0CAB2034672
:1001980001E0013C39D303F8012B9D07F9D1032C69
:1001A8002CD9CDB205EB05250F2C05EB054535D926
:1001B800A4F1100222F00F0C03F1100EE6444FEAEE
:1001C800121C1A46156055609560D560103272454C
:1001D800F8D10CF1010214F00C0F03EB021204F039
:1001E8000F0C13D0ACF1040323F0030304331344BE
:1001F80042F8045B9A42FBD10CF003042CB1C9B25B
:100208001C4403F8011B9C42FBD130BD64461346D5
:10021800002CF4D1F9E703461446C0E71A46A44671
:10022800E0E700BF70B50F4B0F4DAB42A3EB0506DF
:1002380007D0B610002455F8043B01349847A6426D
:10024800F9D803F077F8094D094B5E1BAB424FEA2A
:10025800A60606D0002455F8043B01349847A64268
:10026800F9D870BDFC340008FC340008FC340008E0
:100278000035000853B94AB9002908BF00281CBF37
:100288004FF0FF314FF0FF3000F00CB8ADF1080C23
:100298006DE904CE02F0FDFEDDF804E0DDE902239D
:1002A80004B07047704700BF10B5054C237833B9C8
:1002B800044B13B10448AFF300800123237010BD31
:1002C8000C000020000000003C33000808B5034B78
:1002D8001BB103490348AFF3008008BD00000000CC
:1002E800100000203C330008A82303FB00F080081E
:1002F80000BF03460138002BFAD1704708B54021EA
:10030800014801F007FA08BD0000024008B52021A5
:10031800014801F0FFF908BD0000024072B6FEE78F
:1003280000B595B03022002108A8FFF729FF002367
:100338000393049305930693079301931E4A116C44
:1003480041F080511164126C02F080520192019ABE
:1003580002931A4B1A6842F480421A601B6803F42D
:1003680080430293029B012308934FF4803309933F
:1003780002220E924FF480030F9304231093482116
:1003880011911292139308A800F014FC80B90F235E
:10039800039302210491002305934FF4805206929F
:1003A800079303A800F0EEFE20B915B05DF804FB32
:1003B800FFF7B4FFFFF7B2FF0038024000700040BB
:1003C80008B501F0D1FAFFF7ABFF00F011F800F023
:1003D800C7F900F0D1F800F06BF900F0DBF9FFF78E
:1003E8008DFFFFF793FF3220FFF77EFFF7E7704797
:1003F8002DE9F0438DB000240794089409940A94D9
:100408000B940194564B1A6B42F080021A631A6BD4
:1004180002F080020192019A02941A6B42F00102E2
:100428001A631A6B02F001020292029A03941A6B81
:1004380042F010021A631A6B02F010020392039A38
:1004480004941A6B42F008021A631A6B02F008024D
:100458000492049A05941A6B42F040021A631A6BCC
:1004680002F040020592059A06941A6B42F00202C5
:100478001A631B6B03F002030693069BDFF8F090E8
:1004880001227121484601F029F9364F012240F234
:100498000121384601F022F9334E01224FF48351ED
:1004A800304601F01BF9DFF8CC8001224FF44E7181
:1004B800404601F013F97123079301250895099423
:1004C8000A9507A9484600F091FF4FF40073079377
:1004D800089509940A9507A9384600F087FF4FF454
:1004E80080530793089509940A9507A9304600F0A8
:1004F8007DFF102307930894099407A9304600F05C
:1005080075FF60230793089509940A9407A9304654
:1005180000F06CFF802307930894099507A93046DB
:1005280000F064FF4FF4FC4307930894099507A96A
:100538000E4800F05BFF4FF44E730793089509943B
:100548000A9407A9404600F051FF079508950994B9
:100558000A9407A9384600F049FF0DB0BDE8F083BA
:100568000038024000100240000C0240001802400F
:10057800000002400004024008B50B480B4B036022
:100588000B4B436000238360C3604FF480420261D9
:1005980043618361C361036200F0BEF900B908BD1D
:1005A800FFF7BCFEFBE700BF280000200054004016
:1005B800801A060030B589B000230393049305938D
:1005C800069307930268144B9A4201D009B030BDD4
:1005D80000250195114C236B43F002032363236B21
:1005E80003F002030193019BC02303931223049396
:1005F800032306930423079303A9094800F0F6FE92
:100608000295236C43F400132364236C03F4001352
:100618000293029BDAE700BF005400400038024012
:10062800000402400268094B9A4200D0704782B029
:1006380000230193064B1A6C42F002021A641B6CE9
:1006480003F002030193019B02B0704700040040CD
:100658000038024000B587B000230193029303934A
:100668000493059302680F4B9A4202D007B05DF8D5
:1006780004FB002300930C4B1A6B42F001021A632F
:100688001B6B03F001030093009B8023019302235B
:10069800029301220492059301A9044800F0A6FEE2
:1006A800E4E700BF000400400038024000000240B8
:1006B80000B58FB000230A930B930C930D93089306
:1006C8000993019302930393049305930693079365
:1006D8002148224A026047224260836044F6206231
:1006E800C2600361836101F0F7FA30BB4FF48053B5
:1006F8000A930AA9184801F003FE08BB164801F03E
:100708009FFB00BB00230893099308A9124802F035
:1007180075F8D8B9602301930023029303930593D6
:1007280004220DEB02010C4801F09EFC88B90A482E
:10073800FFF790FF0FB05DF804FBFFF7EFFDD5E77B
:10074800FFF7ECFDDAE7FFF7E9FDDBE7FFF7E6FD8A
:10075800E0E7FFF7E3FDEAE77C0000200004004043
:1007680008B50A480A4B03604FF4E133436000239D
:100778008360C36003610C2242618361C36102F03C
:10078800E1F900B908BDFFF7C9FDFBE7C400002087
:100798000010014008B50A480A4B03604FF4E133E2
:1007A800436000238360C36003610C22426183615C
:1007B800C36102F0C7F900B908BDFFF7AFFDFBE759
:1007C8000C0100200044004010B58AB000230593B6
:1007D800069307930893099303682F4A934204D01A
:1007E8002E4A93422DD00AB010BD002401942C4B00
:1007F8005A6C42F010025A645A6C02F010020192CC
:10080800019A02941A6B42F001021A631B6B03F0FF
:1008180001030293029B4FF4C063059302230693DE
:10082800032308930723099305A91E4800F0DEFD5A
:1008380022462146252000F0FFFF252001F042F83E
:10084800D1E700240394164B1A6C42F400321A6460
:100858001A6C02F400320392039A04941A6B42F061
:1008680001021A631B6B03F001030493049B0C231E
:10087800059302230693032308930723099305A9E5
:10088800084800F0B3FD22462146262000F0D4FF98
:10089800262001F017F8A6E70010014000440040A8
:1008A8000038024000000240FEE7FEE7FEE7FEE7F0
:1008B800FEE770477047704708B501F06FF808BD4C
:1008C80008B5024802F060FA08BD00BFC400002065
:1008D80008B5024802F058FA08BD00BF0C01002014
:1008E80082B0002100910B4B5A6C42F480425A644A
:1008F8005A6C02F480420092009A01911A6C42F0FC
:1009080080521A641B6C03F080530193019B02B060
:10091800704700BF00380240002800F0368170B5EB
:10092800044603689B4A93420CD002F580629342C6
:1009380008D002F58062934204D040F2C91196486B
:10094800FFF755FD6368013B944A934271D8A36849
:1009580013B1B3F5804F72D1E36823F47F7323F0AA
:100968000303002B71D12369B3F5804F02D0B3F58F
:10097800404F70D16369012B73D8A36933F0FE032C
:1009880075D1E3690BB1402B77D1236A0BB1802B6A
:1009980079D194F83D30002B7BD0242384F83D3066
:1009A8002268136823F0010313602268136843F474
:1009B800004313602268136823F40043136000F0B7
:1009C800F5FC6268764B9A4269D8764B98428CBFA0
:1009D80000230123002B40F0DA807349A1FB00318A
:1009E8008B0C25686A6822F03F0242EA91426A60ED
:1009F80021680A6A22F03F026668694DAE4254D8FF
:100A0800013313430B622168CA6922F44F4222F072
:100A1800FF026668624B9E4251D8431E7600B3FBC4
:100A2800F6F3013340F6FC7003427ED0C3F30B03A8
:100A38007CE04FF4E5715848FFF7D9FC87E740F2AE
:100A4800CB115548FFF7D3FC86E74FF4E6715248BF
:100A5800FFF7CDFC87E740F2CD114F48FFF7C7FC01
:100A680088E74FF4E7714C48FFF7C1FC85E740F28F
:100A7800CF114948FFF7BBFC83E74FF4E8714648BC
:100A8800FFF7B5FC81E740F2D1114348FFF7AFFC0F
:100A98007FE784F83C302046FFF78CFD7DE7434B29
:100AA80098428CBF0023012394E74FF4967505FB09
:100AB80003F33F4DA5FB03539B090133A1E7A3684B
:100AC800C3B9451E06EB460CB5FBFCF50135C5F36D
:100AD8000B05B5FA85F56D09002D54D1C3B9013858
:100AE80006EB4603B0FBF3F30133C3F30B0343F404
:100AF80000431BE0451E06EB860C0CEB8C0CB5FB8B
:100B0800FCF50135C5F30B05B5FA85F56D09E3E785
:100B1800013806EB860303EB8303B0FBF3F30133E1
:100B2800C3F30B0343F4404300E004231343CB61B6
:100B380021680B6823F0C003E269206A024313436B
:100B48000B6021688B6823F4034323F0FF032269B9
:100B5800E068024313438B602168CB6823F0FF03EE
:100B68006269A06902431343CB602268136843F0AB
:100B78000103136000202064202384F83D302063A3
:100B880084F83E0070BD0123D0E7012070470120A2
:100B9800F8E700BF00540040543300087F1A0600ED
:100BA800A08601007F841E0083DE1B43FF083D00F2
:100BB800D34D6210002800F05E8270B582B0044602
:100BC80003680F2B39D8236813F0010F4DD06368E1
:100BD8002BB1B3F5803F02D0B3F5A02F32D1804BB3
:100BE8009B6803F00C03042B36D07D4B9B6803F005
:100BF8000C03082B2BD06368B3F5803F5FD0B3F5A7
:100C0800A02F62D0764B1A6822F480321A601A68D4
:100C180022F480221A606368002B60D000F0CAFEBC
:100C280005466F4B1B6813F4003F1ED100F0C2FE4F
:100C3800401B6428F5D9032024E2E6216948FFF720
:100C4800D6FBC0E7EB216748FFF7D1FBC7E7644B4A
:100C58005B6813F4800FCED0614B1B6813F4003F20
:100C680003D06368002B00F00882236813F0020F9A
:100C780066D0E368012B41D823691F2B44D8584B11
:100C88009B6813F00C0F4AD0554B9B6803F00C037C
:100C9800082B3FD0E368002B77D0534B01221A6012
:100CA80000F088FE05464E4B1B6813F0020F63D117
:100CB80000F080FE401B0228F5D90320E2E1484AF3
:100CC800136843F480331360A5E7454B1A6842F470
:100CD80080221A601A6842F480321A609BE700F09A
:100CE80069FE05463E4B1B6813F4003FBDD000F07B
:100CF80061FE401B6428F5D90320C3E140F21D11B1
:100D08003848FFF774FBB7E74FF48F713548FFF7A2
:100D18006EFBB4E7324B5B6813F4800FBAD1304BEB
:100D28001B6813F0020F03D0E368012B40F0A78182
:100D38002B4A136823F0F803216943EAC1031360BF
:100D4800236813F0080F51D06369012B2FD863690A
:100D58009BB3254B0122C3F8802E00F02BFE0546DD
:100D68001F4B5B6F13F0020F40D100F023FE401BB6
:100D78000228F5D9032085E1194A136823F0F803FE
:100D8800216943EAC1031360DAE7174B00221A60AE
:100D980000F010FE0546124B1B6813F0020FCFD06F
:100DA80000F008FE401B0228F5D903206AE14FF441
:100DB800AF710C48FFF71BFBC9E70B4B0022C3F8C8
:100DC800802E00F0F7FD0546054B5B6F13F0020F10
:100DD8000CD000F0EFFD401B0228F5D9032051E1AB
:100DE800003802408C33000800004742236813F0A3
:100DF800040F7CD0A368012B01D9052B38D1A44B53
:100E08001B6C13F0805F39D100230193A04B1A6C3F
:100E180042F080521A641B6C03F080530193019BCB
:100E280001259C4B1B6813F4807F29D0A368012BF4
:100E38003AD0052B3ED0964B1A6F22F001021A6762
:100E48001A6F22F004021A67A368002B3CD000F046
:100E5800B1FD06468E4B1B6F13F0020F45D100F013
:100E6800A9FD801B41F288339842F3D9032009E198
:100E78004FF4C5718848FFF7BAFAC0E70025D0E7F4
:100E8800844A136843F48073136000F093FD0646A8
:100E9800804B1B6813F4807FC8D100F08BFD801B4A
:100EA8000228F5D90320EDE0794A136F43F00103D6
:100EB8001367C9E7764B1A6F42F004021A671A6F74
:100EC80042F001021A67BFE700F074FD0646704B56
:100ED8001B6F13F0020F08D000F06CFD801B41F26D
:100EE80088339842F3D90320CCE0002D3CD1A36984
:100EF800022B3FD8A369002B00F0C380644A926894
:100F080002F00C02082A00F09180022B7AD1E369E2
:100F180013B1B3F5800F33D1236A023B3D2B35D88B
:100F2800636A323BB3F5BF7F36D8A36A022B05D07C
:100F3800042B03D0062B01D0082B33D1E36A023BE4
:100F48000D2B35D8554B00221A6600F033FD0546A7
:100F58004F4B1B6813F0007F30D000F02BFD401B77
:100F68000228F5D903208DE0494A136C23F08053F9
:100F78001364BCE740F2CD114748FFF738FAB9E7E8
:100F88004FF4EB714448FFF732FAC5E740F2D71146
:100F98004148FFF72CFAC3E74FF4EC713E48FFF7DE
:100FA80026FAC2E740F2D9113B48FFF720FAC5E715
:100FB8004FF4ED713848FFF71AFAC3E7E369226A7C
:100FC8001343626A43EA8213A26A5208013A43EA67
:100FD8000243E26A43EA02632D4A53602F4B01221F
:100FE8001A6600F0E7FC0446294B1B6813F0007FE3
:100FF80006D100F0DFFC001B0228F5D9032041E0F0
:1010080000203FE0254B00221A6600F0D3FC04467E
:101018001F4B1B6813F0007F06D000F0CBFC001BB1
:101028000228F5D903202DE000202BE0012B2BD03E
:10103800174B5B6803F48001E269914226D103F003
:101048003F02216A8A422BD1616A47F6C0721A4070
:10105800B2EB811F26D103F44031A26A5208013A4B
:10106800B1EB024F20D103F07063E26AB3EB026F79
:101078001CD1002006E001207047012002E0012079
:1010880000E0002002B070BD0120FBE70120F9E775
:1010980000380240007000408C33000800004742CE
:1010A8000120EFE70120EDE70120EBE70120E9E768
:1010B80008B5314B9B6803F00C03042B57D0082B61
:1010C80057D12D4B5A6802F03F025B6813F4800F2A
:1010D8002AD0294B5968C1F3881C4FEA4C11B1EB4F
:1010E8000C006EEB0E0E4FEA8E1343EA90638101FB
:1010F800091A63EB0E03DB0043EA5173C90011EBD5
:101108000C0C43F10003590200234FEA4C2041EA3A
:10111800DC51FFF7AFF8184B5B68C3F301430133A9
:101128005B00B0FBF3F025E0134B5968C1F3881C52
:101138004FEA4C11B1EB0C006EEB0E0E4FEA8E131A
:1011480043EA90638101091A63EB0E03DB0043EA6B
:101158005173C90011EB0C0C43F1000399020023F1
:101168004FEA8C2041EA9C51FFF784F8D3E7034803
:1011780000E0034808BD00BF0038024000127A00B2
:101188000024F400002800F0F78070B50D460446EE
:101198000368013B0E2B6BD8072D6FD87A4B1B6861
:1011A80003F00703AB4208D2EBB2774A1370136817
:1011B80003F00703AB4240F0E180236813F0020F0D
:1011C80029D013F0040F04D0704A936843F4E05315
:1011D8009360236813F0080F04D06C4A936843F4B3
:1011E80060439360A3687BB1802B0DD0902B0BD00C
:1011F800A02B09D0B02B07D0C02B05D0D02B03D003
:10120800E02B01D0F02B3FD1604A936823F0F00324
:10121800A1680B439360236813F0010F4ED06368F5
:10122800032B37D86368012B3AD09A1E012A3ED97E
:10123800564A126812F0020F00F0A28053498A68D9
:1012480022F0030213438B6000F0B4FB06464F4BB9
:101258009B6803F00C036268B3EB820F2ED000F09A
:10126800A9FB801B41F288339842F0D9032076E02D
:1012780040F25A214648FFF7BAF88DE740F25B2161
:101288004348FFF7B4F889E740F27E214048FFF76A
:10129800AEF8B9E740F285213D48FFF7A8F8C1E765
:1012A8003A4A126812F4003FC8D1012057E0374A81
:1012B800126812F0007FC1D1012050E0324B1B6848
:1012C80003F00703AB4207D9EAB22F4B1A701B6829
:1012D80003F00703AB4255D1236813F0040F14D071
:1012E800E3685BB1B3F5805F08D0B3F5A05F05D0C4
:1012F800B3F5C05F02D0B3F5E05F31D1234A9368FC
:1013080023F4E053E1680B439360236813F0080F5C
:1013180015D023695BB1B3F5805F08D0B3F5A05F42
:1013280005D0B3F5C05F02D0B3F5E05F1ED1174A10
:10133800936823F46043216943EAC1039360FFF78C
:10134800B7FE124B9B68C3F30313124AD35CD84011
:10135800114B1860114B186800F0E0FA002070BDBE
:1013680040F2C3210A48FFF742F8C7E740F2CA2112
:101378000748FFF73CF8DAE7012070470120EEE75D
:101388000120ECE70120EAE7003C02400038024077
:101398008C330008DC34000808000020040000201A
:1013A800014B1868704700BF0800002008B5FFF718
:1013B800F7FF044B9B68C3F38223034AD35CD840EE
:1013C80008BD00BF00380240EC34000808B5FFF73C
:1013D800E7FF044B9B68C3F34233034AD35CD8400E
:1013E80008BD00BF00380240EC3400082DE9F04188
:1013F80082B007460E46564B984223D003F58063C9
:1014080098421FD003F5806398421BD003F5806390
:10141800984217D003F58063984213D003F5806390
:1014280098420FD003F5806398420BD003F5806390
:10143800984207D003F58063984203D0AC21454811
:10144800FEF7D5FF33689AB212B11B0C1B041BB10F
:10145800AD214048FEF7CBFF7368012B19D9112B3A
:1014680017D0022B15D0122B13D0B3F5881F10D02C
:10147800B3F5041F0DD0B3F5441F0AD0B3F5901F80
:1014880007D0B3F5081F04D0B3F5481F01D0032BCC
:1014980001D1002496E0AE212E48FEF7A8FFF8E718
:1014A800F368032B13D8BA68610003238B4022EA40
:1014B8000302F3688B401343BB607A6822EA050293
:1014C8007368C3F30015A54015437D608BE0C02108
:1014D8002048FEF78CFFE6E7D1211E48FEF787FF7C
:1014E8008AE03369DBB1092B19D0012B17D0022B05
:1014F80015D0032B13D0042B11D0052B0FD0062B9E
:101508000DD0072B0BD0082B09D00A2B07D00B2B9B
:1015180005D00C2B03D00D2B01D00F2B10D1E208D6
:10152800083257F8220004F0070399000F238B4074
:1015380020EA030033698B40034347F822306BE00D
:10154800DE210448FEF753FFE9E7072305E000BF63
:1015580000000240C433000800238B4003430232DA
:101568005A4941F822305A4B9A686FEA080322EA2E
:101578000801706810F4801F01D048EA0201544A3B
:101588009160D26803EA0201706810F4001F01D06C
:1015980048EA02014E4AD160526803EA02017068C3
:1015A80010F4003F01D048EA0201494A516012682C
:1015B8001340716811F4803F01D048EA0203444A9D
:1015C800136001340F2C7ED80125A540336803EA47
:1015D800050835EA0303F4D1736803F00303013BFC
:1015E800012B7FF65DAF736803F00303032B0DD067
:1015F800B368022B3FF670AFFA68610003238B4093
:1016080022EA0302B3688B401343FB60736803F05C
:101618000303022B3FF465AF3A68610003238B4054
:1016280022EA0302736803F003038B4013433B6011
:10163800736813F4403FC4D000230193254B5A6CC0
:1016480042F480425A645B6C03F480430193019B2B
:10165800A208911C1D4B53F8210004F003039900C4
:101668000F238B4020EA03001B4B9F423FF474AFCB
:1016780003F580639F421AD003F580639F4218D018
:1016880003F580639F4216D003F580639F4214D010
:1016980003F580639F4212D003F580639F4210D008
:1016A80003F580639F423FF450AF082355E70123B9
:1016B80053E7022351E703234FE704234DE70523AC
:1016C8004BE7062349E702B0BDE8F0810038014046
:1016D800003C0140003802400000024070B5054659
:1016E80014460E4621B1012C08D86CB1AE6170BD0C
:1016F80040F29D110648FEF77AFEF4E74FF4CF71E9
:101708000348FEF774FEF0E73604AE61EFE700BF6A
:10171800C433000838B505460C4641B16B6904EA84
:10172800030224EA030444EA0244AC6138BD4FF4DE
:10173800DB710248FEF75BFEF0E700BFC433000828
:1017480070B50446866D00F035F994F83530DBB293
:10175800022B06D080236365002384F834300120EF
:1017680070BD05462268136823F0160313602268CB
:10177800536923F080035361236CE3B12268136833
:1017880023F0080313602268136823F00103136031
:1017980023681B6813F0010F11D000F00BF9431BED
:1017A800052BF5D920236365032084F83500002331
:1017B80084F83430D4E7A36C002BDFD1E3E7E26D83
:1017C8003F239340B360012384F83530002084F828
:1017D8003400C5E790F83530DBB2022B03D0802304
:1017E800436501207047052380F835300268136887
:1017F80023F00103136000207047000010B5044671
:10180800C31E042B0FD80A4AD36823F4E0631B04D1
:101818001B0C240204F4E064234343F0BF6343F445
:101828000033D36010BD90210248FEF7E0FDEAE7DF
:1018380000ED00E0FC33000870B505460C4616467E
:101848000F2A25D80F2C28D81B4BDB68C3F302239B
:10185800C3F10701042928BF04211A1D062A21D92A
:10186800033B4FF0FF3202FA01F124EA01049C40E5
:1018780002FA03F326EA03063443002D14DB24019D
:10188800E4B205F1604505F5614585F8004370BD92
:10189800A8210A48FEF7ABFDD4E7A9210748FEF7BF
:1018A800A6FDD1E70023DCE705F00F052401E4B22B
:1018B800034B5C55EBE700BF00ED00E0FC3300088C
:1018C80014ED00E010B5041E0ADB002C07DB04F061
:1018D8001F02640901239340044A42F8243010BDD2
:1018E800BC210348FEF783FDEFE700BF00E100E0FD
:1018F800FC3300080138B0F1807F0BD24FF0E023B1
:101908005861054AF02182F82310002098610722C7
:101918001A6170470120704700ED00E010B50446D9
:101928000E4B18784FF47A73B3FBF0F30C4A106837
:10193800B0FBF3F0FFF7DEFF68B90F2C01D90120E7
:101948000AE0002221464FF0FF30FFF775FF054BF4
:101958001C60002000E0012010BD00BF0000002036
:10196800080000200400002008B50B4B1A6842F458
:1019780000721A601A6842F480621A601A6842F4A7
:1019880080721A600320FFF739FF0F20FFF7C6FFA8
:10199800FEF7A6FF002008BD003C0240034A11687C
:1019A800034B1B780B441360704700BF54010020A1
:1019B80000000020014B1868704700BF5401002048
:1019C80010B4036A046A24F001040462846924F0F0
:1019D800F00C4CEA021223F00A030B438261036203
:1019E8005DF8044B704710B4036A046A24F01004CD
:1019F8000462846924F4704C4CEA023223F0A00398
:101A080043EA0113826103625DF8044B70478368FF
:101A180023F070030B4343F0070383607047000013
:101A28002DE9F04104460D46066A036A23F00103D6
:101A380003624768836923F073080B6843EA080860
:101A480026F002038E681E43204B984203D003F50C
:101A58008063984209D1EB680BB1082B24D126F09A
:101A68000806EB681E4326F00406184B9C4203D078
:101A780003F580639C420FD1AB69B3F5007F00D0BA
:101A8800C3B96B69B3F5807F00D0CBB927F4407731
:101A98006B693B43AF691F436760C4F818806B6884
:101AA80063632662BDE8F08141F6CD210848FEF760
:101AB8009EFCD4E741F6DA210548FEF798FCE0E7FA
:101AC80041F6DB210248FEF792FCDFE70000014007
:101AD800343400082DE9F04104460E46056A036ACD
:101AE80023F4807303624768C36923F073080B68A3
:101AF80043EA080825F400758B6845EA0325224B5C
:101B0800984203D003F5806398420AD1F3680BB179
:101B1800082B27D125F40065F36845EA032525F449
:101B28008065194B9C4203D003F580639C4211D118
:101B3800B369B3F5007F00D0D3B97369B3F5807F7B
:101B480000D0DBB927F44057736947EA0317B36934
:101B580047EA03176760C4F81C807368E36325626B
:101B6800BDE8F08141F664310848FEF740FCD1E752
:101B780041F671310548FEF73AFCDEE741F672316D
:101B88000248FEF734FCDDE7000001403434000869
:101B98002DE9F04104460D46066A036A23F4805392
:101BA8000362D0F80480C76927F4E6470B6847EA60
:101BB800032726F400568B6846EA03360F4B9842F3
:101BC80003D003F58063984209D16B69B3F5807F30
:101BD80000D063B928F480486B6948EA8318C4F8D0
:101BE8000480E7616B6823642662BDE8F08141F6F2
:101BF800B1310348FEF7FBFBECE700BF00000140F2
:101C080034340008704700000368324A904212D00A
:101C1800B0F1804F0FD0A2F57C4290420BD002F574
:101C28008062904207D002F58062904203D002F5AC
:101C38007842904203D123F070034A681343254A3F
:101C480090422AD0B0F1804F27D0A2F57C42904232
:101C580023D002F5806290421FD002F58062904244
:101C68001BD002F57842904217D002F5705290428C
:101C780013D002F5806290420FD002F58062904244
:101C88000BD0A2F59832904207D002F580629042BC
:101C980003D002F58062904203D123F44073CA68EE
:101CA800134323F080034A6913438A68C2620A68AF
:101CB8008262084A904203D002F58062904201D1C4
:101CC8000A690263026842F004020260012242616A
:101CD8000360704700000140002800F0A98010B59B
:101CE80004460368534A934237D0B3F1804F34D047
:101CF800A2F57C42934230D002F5806293422CD008
:101D080002F58062934228D002F58062934224D083
:101D180002F58062934220D002F5704293421CD0B3
:101D280002F57052934218D002F58062934214D0A3
:101D380002F58062934210D0A2F5983293420CD0FB
:101D480002F58062934208D002F58062934204D083
:101D580040F213113848FEF74AFBA3683BB1102B39
:101D680005D0202B03D0402B01D0602B17D123693D
:101D78002BB1B3F5807F02D0B3F5007F15D123686E
:101D8800B3F1804F17D02D4A934214D0E368013B3A
:101D98004FF6FE7293428CBF002301230FE04FF4ED
:101DA8008A712548FEF723FBE1E740F21511224826
:101DB800FEF71DFBE3E7E368003B18BF01232BB3E5
:101DC800A3690BB1802B27D194F83D3053B302237C
:101DD80084F83D30214651F8040BFFF715FF012325
:101DE80084F8463084F83E3084F83F3084F8403038
:101DF80084F8413084F8423084F8433084F8443021
:101E080084F8453084F83D30002010BD4FF48B71C4
:101E18000948FEF7ECFAD3E740F217110648FEF737
:101E2800E6FAD1E784F83C302046FEF7FBFBCEE724
:101E3800012070470000014034340008000C0040C5
:101E4800002800F0A98010B504460368534A93425D
:101E580037D0B3F1804F34D0A2F57C42934230D0D2
:101E680002F5806293422CD002F58062934228D01A
:101E780002F58062934224D002F58062934220D01A
:101E880002F5704293421CD002F57052934218D06A
:101E980002F58062934214D002F58062934210D01A
:101EA800A2F5983293420CD002F58062934208D092
:101EB80002F58062934204D040F22C513848FEF774
:101EC80096FAA3683BB1102B05D0202B03D0402BEA
:101ED80001D0602B17D123692BB1B3F5807F02D0D5
:101EE800B3F5007F15D12368B3F1804F17D02D4A81
:101EF800934214D0E368013B4FF6FE7293428CBFC5
:101F0800002301230FE040F22D512548FEF76FFA18
:101F1800E1E740F22E512248FEF769FAE3E7E36869
:101F2800003B18BF01232BB3A3690BB1802B27D12A
:101F380094F83D3053B3022384F83D30214651F8DC
:101F4800040BFFF761FE012384F8463084F83E3025
:101F580084F83F3084F8403084F8413084F84230C7
:101F680084F8433084F8443084F8453084F83D30B0
:101F7800002010BD40F22F510948FEF738FAD3E788
:101F88004FF4A6610648FEF732FAD1E784F83C30F0
:101F98002046FFF737FECEE70120704700000140DA
:101FA80034340008000C00402DE9F04104460E4688
:101FB800056A036A23F010030362D0F80480876976
:101FC80027F4E6470B6847EA032725F020058B68C6
:101FD80045EA0315224B984203D003F580639842E3
:101FE8000AD1F3680BB1082B27D125F08005F368D7
:101FF80045EA031525F04005194B9C4203D003F52B
:1020080080639C4211D1B369B3F5007F00D0D3B986
:102018007369B3F5807F00D0DBB928F44068736931
:1020280048EA8308B36948EA8308C4F80480A761CA
:102038007368A3632562BDE8F08141F61931094848
:10204800FEF7D5F9D1E741F626310648FEF7CFF974
:10205800DEE741F627310348FEF7C9F9DDE700BF9F
:10206800000001403434000870B504460D46164699
:102078003AB1042A05D0082A03D00C2A01D03C2AF8
:1020880026D12B68602B01D0702B27D1AB680BB100
:10209800022B29D12B690BB1042B2BD194F83C309E
:1020A800012B00F01881012384F83C300C2E00F23B
:1020B8000D81DFE816F025000B010B010B016E0006
:1020C8000B010B010B01A8000B010B010B01D9003F
:1020D80041F282018148FEF78AF9D2E741F2830191
:1020E8007E48FEF784F9D1E741F284017B48FEF788
:1020F8007EF9CFE741F285017848FEF778F9CDE718
:102108002368774A93422FD0B3F1804F2CD0A2F5A1
:102118007C42934228D002F58062934224D002F593
:102128008062934220D002F5784293421CD002F597
:102138007052934218D002F58062934214D002F58F
:102148008062934210D0A2F5983293420CD002F5E7
:102158008062934208D002F58062934204D041F233
:102168008F015E48FEF743F929462068FFF758FCBF
:102178002268936943F0080393612268936923F006
:10218800040393612268936929690B4393610020D2
:102198009DE02368524A93421FD0B3F1804F1CD070
:1021A800A2F57C42934218D002F58062934214D083
:1021B80002F58062934210D002F5784293420CD027
:1021C80002F57052934208D0A2F59432934204D09B
:1021D8004FF485514148FEF70AF929462068FFF770
:1021E800E3FE2268936943F400639361226893696C
:1021F80023F48063936122689369296943EA012380
:102208009361002063E02368354A934217D0B3F105
:10221800804F14D0A2F57C42934210D002F5806220
:1022280093420CD002F58062934208D002F57842BE
:10223800934204D041F2B1012848FEF7D8F8294664
:102248002068FFF747FC2268D36943F00803D3618D
:102258002268D36923F00403D3612268D36929690A
:102268000B43D361002032E023681D4A934217D004
:10227800B3F1804F14D0A2F57C42934210D002F5FE
:10228800806293420CD002F58062934208D002F536
:102298007842934204D041F2C2011048FEF7A7F8F1
:1022A80029462068FFF774FC2268D36943F4006369
:1022B800D3612268D36923F48063D3612268D36928
:1022C800296943EA0123D361002000E001200023AB
:1022D80084F83C3070BD0220FCE700BF34340008AD
:1022E8000000014010B4846824F47F4C42EA0322C1
:1022F8000A4342EA0C0282605DF8044B7047000012
:1023080038B590F83C30012B00F0728204460D4637
:10231800012380F83C30022380F83D300B68B3F588
:10232800805F11D0702B0FD0B3F5005F0CD0402B1D
:102338000AD0502B08D0602B06D02BB1102B03D01D
:10234800202B01D0302B4FD12268936823F47F4390
:1023580023F0770393602B68602B00F09F8100F2D5
:102368008780402B00F0E18144D9502B7ED123682F
:102378008A4A93421FD0B3F1804F1CD0A2F57C4209
:10238800934218D002F58062934214D002F580621D
:10239800934210D002F5784293420CD002F5705265
:1023A800934208D0A2F59432934204D041F20251EC
:1023B8007B48FEF71CF86B68B3F5004F05D023B1D6
:1023C800022B02D00A2B40F05D81EB680F2B00F244
:1023D8005F81EA6869682068FFF7F2FA502120688F
:1023E800FFF715FB00200BE041F2C3416C48FDF7F5
:1023F800FEFFA9E7202B0DD009D9302B0AD00120E8
:10240800012384F83D30002384F83C3038BD0BB1FB
:10241800102B29D12368614A93421FD0B3F1804F12
:102428001CD0A2F57C42934218D002F580629342F8
:1024380014D002F58062934210D002F5784293429C
:102448000CD002F57052934208D0A2F59432934210
:1024580004D041F235515248FDF7C9FF2968206878
:10246800FFF7D5FA0020CBE70120C9E70120C7E72D
:10247800B3F5805F00F09680B3F5005F42D1236822
:10248800464A934217D0B3F1804F14D0A2F57C424C
:10249800934210D002F5806293420CD002F580621C
:1024A800934208D002F57842934204D041F2EE41BB
:1024B8003B48FDF79CFFAB684BB1B3F5805F06D096
:1024C800B3F5005F03D0B3F5405F40F0C9806B6897
:1024D800B3F5004F05D023B1022B02D00A2B40F0F0
:1024E800C580EB680F2B00F2C780EB686A68A968A3
:1024F8002068FFF7F7FE2268936843F480439360EF
:1025080000207DE7702B47D12368244A93421FD0CF
:10251800B3F1804F1CD0A2F57C42934218D002F54B
:102528008062934214D002F58062934210D002F583
:10253800784293420CD002F57052934208D0A2F52B
:102548009432934204D041F2D6411548FDF74FFF2B
:10255800AB6843B1B3F5805F05D0B3F5005F02D037
:10256800B3F5405F6AD16B68B3F5004F04D01BB177
:10257800022B01D00A2B67D1EB680F2B6AD8EB68C6
:102588006A68A9682068FFF7ADFE2268936843F07F
:1025980077039360002033E7012031E70000014012
:1025A800343400082368934A934200F00581B3F15C
:1025B800804F00F00381A2F57C42934200F0008135
:1025C80002F58062934200F0FD8002F5806293423A
:1025D80000F0FA8002F58062934200F0F78002F57D
:1025E8008062934200F0F48002F57042934200F05A
:1025F800F18002F57052934200F0EE8002F580629D
:10260800934200F0EB8002F58062934200F0E8808C
:10261800A2F59832934200F0E58002F58062934279
:1026280000F0E28002F58062934200F0DF8041F220
:10263800CF417148FDF7DBFE0020E1E641F2D941C8
:102648006D48FDF7D4FE8EE741F2DA416A48FDF79E
:10265800CEFE91E741F2DB416748FDF7C8FE8EE701
:1026680041F2F1416448FDF7C2FE30E741F2F24120
:102678006148FDF7BCFE34E741F2F3415E48FDF7DF
:10268800B6FE32E741F205515B48FDF7B0FE9CE625
:1026980041F206515848FDF7AAFE9AE62368554AC2
:1026A80093421FD0B3F1804F1CD0A2F57C429342D5
:1026B80018D002F58062934214D002F580629342EA
:1026C80010D002F5784293420CD002F57052934232
:1026D80008D0A2F59432934204D041F212514648F0
:1026E800FDF785FE6B68B3F5004F04D01BB1022BD4
:1026F80001D00A2B0DD1EB680F2B10D8EA68696856
:102708002068FFF770F960212068FFF780F9002042
:1027180076E641F215513848FDF769FEEBE741F2DC
:1027280016513548FDF763FEE8E72368314A9342BE
:102738001FD0B3F1804F1CD0A2F57C42934218D031
:1027480002F58062934214D002F58062934210D061
:1027580002F5784293420CD002F57052934208D0A9
:10276800A2F59432934204D041F222512248FDF757
:102778003EFE6B68B3F5004F04D01BB1022B01D0AD
:102788000A2B0DD1EB680F2B10D8EA68696820680E
:10279800FFF716F940212068FFF739F900202FE6E6
:1027A80041F225511448FDF722FEEBE741F226518C
:1027B8001148FDF71CFEE8E7002021E600201FE68F
:1027C80000201DE600201BE6002019E6002017E681
:1027D800002015E6002013E6002011E600200FE691
:1027E80000200DE600200BE6002009E6002007E6A1
:1027F80002200BE6000001403434000838B50446D6
:102808000D460368414A93421FD0B3F1804F1CD054
:10281800A2F57C42934218D002F58062934214D00C
:1028280002F58062934210D002F5806293420CD088
:1028380002F58062934208D002F57042934204D0B8
:1028480040F2A9713248FDF7D2FD2B686BB1102B0D
:102858000BD0202B09D0302B07D0402B05D0502B84
:1028680003D0602B01D0702B41D16B68802B01D035
:10287800002B42D194F83C30012B44D0012384F83A
:102888003C30022384F83D3023685968986821F069
:1028980070012A680A435A6023681C4A93421AD076
:1028A800B3F1804F17D0A2F57C42934213D002F5C2
:1028B800806293420FD002F5806293420BD002F5FA
:1028C8007842934207D002F57052934203D0A2F5A2
:1028D8009432934204D120F080006A6810439860D3
:1028E800012384F83D30002084F83C0038BD40F2D4
:1028F800AA710748FDF77BFDB7E740F2AB710448C2
:10290800FDF775FDB6E70220F0E700BF00000140C3
:102918006C340008026802F10C0353E8003F23F40A
:1029280090730C3242E800310029F3D1026802F1B9
:10293800140353E8003F23F00103143242E8003146
:102948000029F3D1036B012B05D0202380F84230F6
:10295800002303637047026802F10C0353E8003F49
:1029680023F010030C3242E800310029F3D1ECE7E0
:1029780090F84130DBB2212B01D0022070478368E8
:10298800B3F5805F17D0036A5A1C02621A7803688D
:102998005A60C38C9BB2013B9BB2C3844BB902689B
:1029A800D36823F08003D3600268D36843F0400300
:1029B800D360002070470369002BE4D1036A1B88A9
:1029C8000268C3F308035360036A02330362E0E753
:1029D80038B504464268574B9A423FD8E36813B16A
:1029E800B3F5005F40D123692BB1B3F5806F02D0F6
:1029F800B3F5C06F3ED163694FF6F372134200D14D
:102A080023B940F69C614C48FDF7F1FC2268136934
:102A180023F44053E1680B431361A368226913430D
:102A280062691343E2691A432168CB6823F41643A9
:102A380023F00C031343CB602268536923F44073DB
:102A4800A1690B43536123683C4A934218D002F5AD
:102A58008062934214D0FEF7A9FC13E040F6996116
:102A68003548FDF7C4FCB9E740F69A613248FDF7EE
:102A7800BEFCB8E740F69B612F48FDF7B8FCBAE703
:102A8800FEF7A4FCE369B3F5004F29D00021031831
:102A980049411B1841F10001C90041EA5371DB00AB
:102AA800181863684FEA83024FEA937341F10001F3
:102AB800FDF7E0FB224DA5FB00325109642303FB1F
:102AC80011031B013233A5FB03235B0903F0F0025A
:102AD80002EB011203F00F03216813448B6038BD29
:102AE8000023021843EB0301121841F10001C90049
:102AF80041EA5271D200101841F10001626892183F
:102B08005B41FDF7B7FB0E4DA5FB0032510964236D
:102B180003FB1103DB003233A5FB03235B095A00D7
:102B280002F4F87202EB011203F007032168134460
:102B38008B60D4E7A037A000A4340008001001403F
:102B48001F85EB51002800F08C8010B5044683697E
:102B5800002B56D00368444A934210D0A2F54C4249
:102B680093420CD002F58062934208D002F54C42A1
:102B7800934204D040F273113C48FDF738FCA36936
:102B880043B1B3F5807F05D0B3F5007F02D0B3F52C
:102B9800407F30D1A36813B1B3F5805F4FD1E369AB
:102BA80013B1B3F5004F50D194F84130002B52D0F7
:102BB800242384F841302268D36823F40053D36077
:102BC8002046FFF705FF2268136923F49043136139
:102BD8002268536923F02A0353612268D36843F4B7
:102BE8000053D36000206064202384F8413084F8C7
:102BF8004230606310BD4FF4BA711C48FDF7F7FB13
:102C0800C8E70368184A9342C4D0A2F54C429342DD
:102C1800C0D002F580629342BCD002F58062934234
:102C2800B8D002F580629342B4D002F54442934290
:102C3800B0D04FF4BC710D48FDF7D9FBAAE74FF4AB
:102C4800BD710A48FDF7D3FBA9E740F27B1107489D
:102C5800FDF7CDFBA8E784F840302046FDF7B4FD2A
:102C6800A6E70120704700BF00100140A434000807
:102C7800704708B50168CA6822F04002CA6020227D
:102C880080F84120FFF7F4FF002008BD7047704727
:102C980008B5806B0023C385FFF7F9FF08BD7047AF
:102CA80090F84230DBB2222B69D18368B3F5805F9C
:102CB8004FD0826AB3F5805F04D0002B56D10369E8
:102CC800002B53D103685B681370836A01338362F6
:102CD800C38D9BB2013B9BB2C385002B51D100B57C
:102CE80083B00268D36823F02003D3600268D368F6
:102CF80023F48073D3600268536923F0010353619E
:102D0800202380F8423000234363036B012B33D127
:102D180000230363026802F10C0353E8003F23F029
:102D280010030C3242E800310029F3D103681A6815
:102D380012F0100F06D0002201921A6801925B6807
:102D48000193019B818DFFF7AAFF002003B05DF876
:102D580004FB0269002AACD1826A03685B68C3F38A
:102D680008031380836A02338362B1E703685B68F0
:102D780003F07F031370A8E7FFF788FFE5E7022059
:102D8800704700207047000030B583B004460268E1
:102D98001368D068516913F00F0505D113F0200F9F
:102DA80002D010F0200F19D12DB111F0010119D165
:102DB80010F4907F16D1216B01297DD013F0800F7C
:102DC80003D010F0800F40F0268113F0400F03D09D
:102DD80010F0400F40F0238103B030BD2046FFF7CC
:102DE8005FFFF9E713F0010F06D010F4807F03D0DE
:102DF800626C42F00102626413F0040F04D019B14E
:102E0800626C42F00202626413F0020F04D019B13E
:102E1800626C42F00402626413F0080F07D010F0ED
:102E2800200F00D119B1626C42F008026264626C32
:102E3800002AD1D013F0200F02D010F0200F29D192
:102E480023685B6903F04003626C12F0080F00D13D
:102E580063B32046FFF75EFD23685B6913F0400FFC
:102E680020D0226802F1140353E8003F23F0400306
:102E7800143242E800310029F3D1E36B73B16A4A96
:102E88001A65E06BFEF7A6FC0028A5D0E06B036D81
:102E98009847A1E72046FFF703FFD1E72046FFF751
:102EA800F6FE99E72046FFF7F2FE95E72046FFF782
:102EB800EEFE002363648FE713F0100F3FF47EAF3C
:102EC80010F0100F3FF47AAF0023019313680193B9
:102ED80053680193019B536913F0400F5FD0E26B75
:102EE80013685B689BB2002B4AD0A18D994247D9E1
:102EF800E385D369B3F5807F37D0226802F10C03EC
:102F080053E8003F23F480730C3242E80031002973
:102F1800F3D1226802F1140353E8003F23F00103C0
:102F2800143242E800310029F3D1226802F1140377
:102F380053E8003F23F04003143242E800310029EF
:102F4800F3D1202384F8423000232363226802F15E
:102F58000C0353E8003F23F010030C3242E8003121
:102F68000029F3D1E06BFEF7EBFB02236363A18D2D
:102F7800E38D9BB2C91A89B22046FFF790FE2BE772
:102F8800A18D99427FF428AFD369B3F5807F7FF490
:102F980023AF022363632046FFF781FE1CE7A18D60
:102FA800E38D9BB2C91A89B2E38D9BB2002B3FF423
:102FB80013AF00293FF410AF226802F10C0353E865
:102FC800003F23F490730C3242E800300028F3D11C
:102FD800226802F1140353E8003F23F0010314327E
:102FE80042E800300028F3D1202384F8423000233F
:102FF8002363226802F10C0353E8003F23F0100317
:103008000C3242E800300028F3D1022363632046E3
:10301800FFF745FEE0E62046FFF7AAFCDCE620467F
:10302800FFF727FED8E600BF992C0008034AD2F81C
:10303800883043F47003C2F88830704700ED00E030
:10304800DFF834D0FFF7F2FF0C480D490D4A002392
:1030580002E0D458C4500433C4188C42F9D30A4A45
:103068000A4C002301E013600432A242FBD3FDF7AF
:10307800D9F8FDF7A5F970470000022000000020EC
:103088000C000020043500080C0000205801002026
:10309800FEE72DE9F04786468C460846089E154609
:1030A80074461946002B40F0C2808542B2FA82F27B
:1030B80045D94AB1C2F1200300FA02FC2EFA03F303
:1030C800954043EA0C0C94404FEA154EA8B2BCFB5D
:1030D800FEF8230C0EFB18CC08FB00F943EA0C435E
:1030E800994528D9EB1808F1FF3704D2994502D938
:1030F800A8F102072B44A3EB0903A4B2B3FBFEFC1F
:103108000EFB1C330CFB00F044EA0344A04214D924
:103118002C190CF1FF3304D2A04202D9ACF10203FE
:103128002C44241A43EA07401EB1D44000233460DB
:103138007360BDE8F0874746DDE76346F1E792BB79
:10314800431B01214FEA154EAFB2B3FBFEFC200C26
:103158000EFB1C330CFB07F840EA0343984562D981
:10316800EB180CF1FF3004D2984502D9ACF10200FB
:103178002B44A3EB0803A4B2B3FBFEFC0EFB1C33E9
:103188000CFB07F744EA0344A7424ED92C190CF16B
:10319800FF3304D2A74202D9ACF102032C44E41B4A
:1031A80043EA0040C0E7C2F1200320FA03F195404A
:1031B80090402EFA03F303434FEA154EAFB2B1FB2A
:1031C800FEFC0EFB1C10190C0CFB07F841EA004131
:1031D800884504FA02F422D969180CF1FF3004D2A8
:1031E800884502D9ACF102002944A1EB08019BB241
:1031F800B1FBFEFC0EFB1C110CFB07F743EA014375
:103208009F420ED9EB180CF1FF3104D29F4202D92C
:10321800ACF102012B44DB1B41EA004192E7604616
:10322800E3E76146F7E76046A3E76346B7E783420B
:1032380006D916B9002108467BE7C6E900E0F9E798
:10324800B3FA83F78FB9834201D3724508D8BEEB2E
:10325800020460EB030301209C461EB9002168E7C5
:103268003846FAE7C6E9004CF8E7C7F1200CBB403E
:1032780022FA0CF41C432EFA0CF120FA0CF3B84095
:1032880001434FEA14490EFA07F5B3FBF9F81FFAA0
:1032980084FE09FB18300B0C08FB0EFA43EA0043C6
:1032A8009A4502FA07F240D9E31808F1FF3004D230
:1032B8009A4502D9A8F102002344A3EB0A0389B274
:1032C800B3FBF9F809FB183308FB0EFE41EA03418A
:1032D8008E452CD9611808F1FF3304D28E4502D9E6
:1032E800A8F10203214443EA0040A0FB0298A1EBA5
:1032F8000E014145CE46434602D306D14D4504D280
:10330800B9EB020E68EB04030138002EA6D0B5EB2A
:103318000E0261EB030101FA0CFC22FA07F34CEAF6
:103328000303F940C6E9003198E74046C5E743463C
:10333800D9E70000F8B500BFF8BC08BC9E46704746
:0C334800F8B500BFF8BC08BC9E467047FA
:10335400447269766572732F53544D333246347810
:10336400785F48414C5F4472697665722F5372638B
:103374002F73746D3332663478785F68616C5F697B
:1033840032632E6300000000447269766572732F05
:1033940053544D3332463478785F48414C5F44721D
:1033A400697665722F5372632F73746D333266348A
:1033B40078785F68616C5F7263632E63000000005D
:1033C400447269766572732F53544D3332463478A0
:1033D400785F48414C5F4472697665722F5372631B
:1033E4002F73746D3332663478785F68616C5F670D
:1033F40070696F2E63000000447269766572732FE2
:1034040053544D3332463478785F48414C5F4472AC
:10341400697665722F5372632F73746D3332663419
:1034240078785F68616C5F636F727465782E63008F
:10343400447269766572732F53544D33324634782F
:10344400785F48414C5F4472697665722F537263AA
:103454002F73746D3332663478785F68616C5F748F
:10346400696D2E6300000000447269766572732FE3
:1034740053544D3332463478785F48414C5F44723C
:10348400697665722F5372632F73746D33326634A9
:1034940078785F68616C5F74696D5F65782E63002E
:1034A400447269766572732F53544D3332463478BF
:1034B400785F48414C5F4472697665722F5372633A
:1034C4002F73746D3332663478785F68616C5F751E
:1034D4006172742E63000000000000000000000010
:1034E40001020304060708090000000001020304A6
:0834F400A6FBFF7F01000000B0
:0434FC00D5020008ED
:04350000B10200080C
:0C35040001000000100000000024F40092
:040000050800304976
:00000001FF
