:020000040800F2
:1000000038060020A1010008752F00087528000897
:10001000F12D0008C9040008353B0008000000006D
:100020000000000000000000000000007532000821
:10003000CB04000800000000B1300008773200084F
:10004000BB010008BB010008BB010008BB010008A0
:10005000BB010008BB010008BB010008BB01000890
:10006000BB010008BB010008BB010008BB01000880
:10007000BB010008BB010008BB010008BB01000870
:10008000BB010008BB010008BB010008BB01000860
:10009000BB010008BB010008BB010008BB01000850
:1000A000BB010008BB010008BB010008BB01000840
:1000B000BB010008BB010008BB010008BB01000830
:1000C000BB010008BB010008BB010008BB01000820
:1000D000BB0100081D3B0008293B0008BB010008CC
:1000E000BB010008BB010008BB010008BB01000800
:1000F000BB010008BB010008BB010008BB010008F0
:10010000BB010008BB010008BB010008BB010008DF
:10011000BB010008BB010008BB010008BB010008CF
:10012000BB010008BB010008BB010008BB010008BF
:10013000BB010008BB010008BB010008BB010008AF
:10014000BB010008BB010008BB010008BB0100089F
:10015000BB010008BB010008BB010008BB0100088F
:10016000BB010008BB010008BB010008BB0100087F
:10017000BB010008BB010008BB0100080000000033
:10018000BB010008BB010008DFF810D000F08AF9BD
:1001900000480047A93B0008AFF300803806002064
:1001A0000648804706480047FEE7FEE7FEE7FEE711
:1001B000FEE7FEE7FEE7FEE7FEE7FEE70D33000899
:1001C000890100082DE9F05F0546002092469B4614
:1001D00088460646814640241BE02846414647465D
:1001E000224600F0F2F853465A46C01A914110D305
:1001F00011461846224600F0D9F82D1A67EB01087F
:100200004F4622460120002100F0D0F817EB0009EC
:100210004E41201EA4F10104DFDC484631462A4647
:100220004346BDE8F09F40EA01039B0703D009E085
:1002300008C9121F08C0042AFAD203E011F8013BD2
:1002400000F8013B521EF9D27047D2B201E000F82B
:10025000012B491EFBD270470022F6E710B513466A
:100260000A4604461946FFF7F0FF204610BD2DE967
:10027000F04D81EA030404F0004B21F000451446E0
:100280004FF0000A23F0004150EA050220D054EA62
:1002900001021DD0C5F30A570246C5F31303C1F38B
:1002A0001300C1F30A5640F4801543F48013A7EB02
:1002B0000608101BD64608F2FD3873EB050002D382
:1002C00008F1010801E092185B41B8F1000F03DA70
:1002D00000200146BDE8F08D00204FF48011064655
:1002E00084460EE0171B73EB050705D3121B63EB67
:1002F000050306434CEA010C49084FEA3000921806
:100300005B4150EA0107EDD152EA030012D082EAC4
:10031000040083EA0501084305D0101BAB4106D257
:100320000122002306E000224FF0004302E06FF0BC
:10033000010253101AEB06004CEB085110EB0A00B7
:1003400041EB0B01BDE8F04D00F04FB80EB5C10F09
:1003500080EAE0700844CA07002140F233438DE888
:100360000E000A460B4600F04FF803B000BD70B512
:10037000C1F30A5201F000450024C1F3130140F219
:10038000FF3341F480119A4201DA002070BD40F23F
:1003900033439A42A2F2334203DC524200F015F892
:1003A00000E090402C43F1D0404270BD202A04DB95
:1003B000203A00FA02F1002070479140C2F1200378
:1003C00020FA03F3194390407047202A04DB203AB7
:1003D00021FA02F00021704721FA02F3D040C2F165
:1003E0002002914008431946704710B5141E73F15E
:1003F000000408DA401C41F1000192185B411A43E5
:1004000001D120F0010010BD2DE9F04D92469B4630
:1004100011B1B1FA81F202E0B0FA80F220329046D6
:10042000FFF7C4FF04460F4640EA0A0041EA0B0109
:1004300053465A46084313D0114653EA010019D0D7
:10044000C8F140025046FFF7C0FF05460E46504631
:1004500059464246FFF7AAFF084305D0012004E0B1
:1004600020463946BDE8F08D0020054346EAE07697
:100470002C4337430A986305E40AA0EB08000022E6
:10048000FD0A44EA47540A3002D500200146E9E754
:10049000010510196941DDE9084500196941BDE808
:1004A000F04DA2E7064C074D06E0E06840F001037E
:1004B00094E8070098471034AC42F6D3FFF768FE83
:1004C0000041000820410008FEE7704710B500F029
:1004D0001BFA012010BD72B6FEE72DE9F04104467B
:1004E000876D00F047FA064694F83500002502288B
:1004F00006D08020606584F834500120BDE8F0818A
:100500002068016821F0160101602068416921F02E
:1005100080014161206C08B9A06C20B1206801689D
:1005200021F0080101602068016821F001010160EB
:100530000CE000F01FFA801B052807D92020606519
:10054000032084F8350084F83450D7E72068006829
:10055000C007EED194F85C103F208840B8600120BD
:1005600084F8350084F834500020C7E790F835103F
:10057000022903D08021416501207047052180F8C0
:1005800035100068016821F001010160002070470A
:1005900070B5044600F0EEF90546601C02D0044830
:1005A0000078044400F0E6F9401BA042FAD370BD85
:1005B0004C0000202DE9F84FDFF888B20D460446C4
:1005C00058451BD0A048844218D0A048844215D07A
:1005D0009F48844212D09F4884420FD09E48844254
:1005E0000CD09E48844209D09D48844206D09D4844
:1005F000844203D0AC219CA003F0BCFA286801041B
:10060000090C01D0000C03D0AD2197A003F0B2FA81
:100610006868F8B101281DD011281BD0022819D014
:10062000122817D0B0F5881F14D0B0F5041F11D0D0
:10063000B0F5441F0ED0B0F5901F0BD0B0F5081FD9
:1006400008D0B0F5481F05D0032803D0AE2186A0FE
:1006500003F090FA00264FF0010A4FF0030900BFA3
:100660000AFA06F02F688046074047457ED1287970
:1006700000F00300012801D002281DD1E86848B12C
:10068000012807D0022805D0032803D0C02176A076
:1006900003F070FAA168720009FA02F08143E86879
:1006A00090400843A0606068297920EA0800C1F3FF
:1006B0000011B140014361602879C043800712D026
:1006C000A86838B1012805D0022803D0D12166A03E
:1006D00003F050FAE168720009FA02F08143A86859
:1006E00090400843E060287900F0030002282ED1F2
:1006F0002869F8B109281DD001281BD0022819D07B
:10070000032817D0042815D0052813D0062811D0A7
:1007100007280FD008280DD00A280BD00B2809D0A5
:100720000C2807D00D2805D00F2803D0DE214EA0BD
:1007300003F020FAF00804EB8002106A7107CB0E78
:100740000F2199408843296999400143116220682B
:10075000720009FA02F18843297901F003019140FE
:1007600001432160686810F4403F00E063E062D01C
:100770004C48016841F480410160006826F00301A3
:1007800000F48040009048480A18D2F80808B107E1
:100790000B0F0F21994088435C4501D1002123E0D4
:1007A00029498C4201D101211EE028498C4201D106
:1007B000022119E026498C4201D1032114E0254988
:1007C0008C4201D104210FE023498C4201D1052143
:1007D0000AE022498C4201D1062105E020498C42E1
:1007E00001D1072100E0082199400143C2F808180F
:1007F0002E4908686A68B843D20200D538430860B9
:100800002A49091D08686A68B843920200D538432E
:1008100008602649091F08686A68B843920300D532
:10082000384308602149083908686A68B843D20328
:1008300000D538430860761C102EFFF411AFBDE8D8
:10084000F88F00000000024000040240000802404F
:10085000000C024000100240001402400018024048
:10086000001C0240002002402E2E2F447269766543
:1008700072732F53544D3332463478785F48414C6D
:100880005F4472697665722F5372632F73746D3390
:1008900032663478785F68616C5F6770696F2E6369
:1008A000000000004438024000300140083C014094
:1008B00070B50C00054604D14FF4BE7103A003F0DF
:1008C00059F92869204000D0012070BD2E2E2F44F8
:1008D0007269766572732F53544D3332463478788B
:1008E0005F48414C5F4472697665722F5372632F83
:1008F00073746D3332663478785F68616C5F6770EB
:10090000696F2E630000000070B515460C000646A6
:1009100004D140F29D1108A003F02CF945B1012D3E
:1009200004D04FF4CF7104A003F024F9B46170BD7A
:100930002004B06170BD00002E2E2F4472697665D0
:1009400072732F53544D3332463478785F48414C9C
:100950005F4472697665722F5372632F73746D33BF
:1009600032663478785F68616C5F6770696F2E6398
:100970000000000001488068704700004C00002023
:1009800070B504007DD08A49206888420AD0894920
:10099000884207D08849884204D040F2C91187A014
:1009A00003F0E8F860689349401E884204D94FF488
:1009B000E57182A003F0DEF8A0684FF4804530B105
:1009C000A84204D040F2CB117CA003F0D3F8E06839
:1009D000800A04D04FF4E67178A003F0CBF82069C8
:1009E000A84207D0B0F5404F04D040F2CD1173A01B
:1009F00003F0C0F8606930B1012804D04FF4E7710A
:100A00006EA003F0B7F8A06930F0FE0004D040F209
:100A1000CF116AA003F0AEF8E06930B1402804D0ED
:100A20004FF4E87165A003F0A5F8206A30B1802882
:100A300004D040F2D11161A003F09CF894F83D007D
:100A4000002520B984F83C50204600F073F924209A
:100A500084F83D002068016821F0010101602068F0
:100A6000016841F4004101602068016821F40041FF
:100A7000016000F0D5FB604A6168914202D85F498D
:100A800001E002E05E49884201D2012070BD5D496B
:100A90002368B0FBF1F15E6826F03F060E435E600E
:100AA0006368934206D94FF4967359434FF47A73AF
:100AB000B1FBF3F12368491C1E6A26F03F0631435F
:100AC00019626168914210D84900401EB0FBF1F2F2
:100AD000521CC2F30B02042A01D2042022E0B0FB14
:100AE000F1F0401CC0F30B001CE0A368F3B301EB72
:100AF000C10202EB0116421EB2FBF6F2521C42F496
:100B00008042120549D093B301EBC10202EB0111FF
:100B1000401EB0FBF1F0401CC0F30B0040F48040DD
:100B200040F400402168CA694CF6FF739A431043B1
:100B3000C861D4E9071001432068026822F0C002AE
:100B400011430160D4E9030101432068826848F23F
:100B5000FF339A4311438160D4E9050108432168BA
:100B6000CA6822F0FF021043C86001E00EE016E000
:100B70002068016841F0010101602564202084F8AB
:100B80003D00256384F83E50002070BD01EB410616
:100B9000421EB2FBF6F2521CB3E70120C2E701EBA2
:100BA0004101401EB0FBF1F0401CC0F30B00B7E761
:100BB0000054004000580040005C00402E2E2F449E
:100BC0007269766572732F53544D33324634787898
:100BD0005F48414C5F4472697665722F5372632F90
:100BE00073746D3332663478785F68616C5F693234
:100BF000632E63007F1A0600A086010080841E0019
:100C000000093D0040420F002DE9F84F1F46904675
:100C10008A460446DDF82890FFF7ACFE054694F8B6
:100C20003D0020287FD1192301224049204600950C
:100C300001F0B2FE002876D194F83C00012872D071
:100C4000012084F83C0020680168C90703D10168CD
:100C500041F0010101602068016821F40061016038
:100C6000212084F83D00102084F83E0000262664F0
:100C7000C4F824806785608D20852D48E0622B466E
:100C80004A465146204601F00DFE90B92068416960
:100C90008069009036E02A464946204601F022FF4E
:100CA00050B1206C042804D12068016841F400711F
:100CB00001600120BDE8F88F606A21680078086152
:100CC000606A401C6062618D491E6185218D491EEC
:100CD00089B2218522685369DB435B070BD451B18C
:100CE00000781061606A401C6062608D401E608503
:100CF000208D401E20852A464946204601F020FED0
:100D00000028CED1208D0028C5D154F83D0B0168B4
:100D100041F400710160202004F81E09E67766772F
:100D20000020C7E7FFE70220C4E700000200100030
:100D30000000FFFF10B586B0044614216846FFF797
:100D40008BFA13492068884220D11248002102689A
:100D500042F002020260006800F002000590C0202C
:100D600000901220CDE9010103200390042004909B
:100D700069460948FFF71EFC06481030016841F437
:100D800000110160006800F40010059006B010BD6D
:100D9000005400403038024000040240024881689C
:100DA00002781144816070474C0000200B4810B558
:100DB000016841F400710160016841F480610160E3
:100DC000016841F480710160032000F0C3F80F2036
:100DD00000F006F800F024F8002010BD003C0240AE
:100DE00070B50D4D04464FF47A712878B1FBF0F0E0
:100DF0000A490968B1FBF0F000F0B6FC48B9102CC4
:100E000007D200222146501E00F054F800206C60EA
:100E100070BD012070BD00004C0000205800002073
:100E20000A4808B5016841F480410160006800F497
:100E3000804000900548001F016841F0805101602A
:100E4000006800F08050009008BD00004438024067
:100E500010B5040003D5BC2107A002F08BFE002CC6
:100E600009DB04F01F01012088406109890001F1BC
:100E7000E021C1F8000110BD2E2E2F447269766565
:100E800072732F53544D3332463478785F48414C57
:100E90005F4472697665722F5372632F73746D337A
:100EA00032663478785F68616C5F636F72746578FE
:100EB0002E63000070B515460C460646102A03D373
:100EC000A82114A002F056FE102C03D3A92111A0D2
:100ED00002F050FE1E480068C0F30223C3F107026F
:100EE0002046042A00D90422191D072901D2002313
:100EF00000E0DB1E012404FA02F1491E0140994082
:100F00009C40641E2C4021433046BDE8704002F0F6
:100F100012BE00002E2E2F447269766572732F5315
:100F2000544D3332463478785F48414C5F4472699F
:100F30007665722F5372632F73746D333266347813
:100F4000785F68616C5F636F727465782E63000010
:100F50000CED00E010B5044607280BD0062C09D094
:100F6000052C07D0042C05D0032C03D0902108A019
:100F700002F000FE154904F0070208684FF6FF036F
:100F8000184040EA0220124A1043086010BD0000D9
:100F90002E2E2F447269766572732F53544D33325F
:100FA000463478785F48414C5F4472697665722FA9
:100FB0005372632F73746D3332663478785F68616F
:100FC0006C5F636F727465782E6300000CED00E057
:100FD0000000FA052DE9F0470E4604007DD0206898
:100FE000401E0E2804D940F25A217AA002F0C2FD18
:100FF00096B1012E10D0022E0ED0032E0CD0042E4E
:101000000AD0052E08D0062E06D0072E04D040F2B6
:101010005B2170A002F0AEFDDFF8F081D8F800008F
:10102000F7B200F00700B04207D288F80070D8F895
:10103000000000F00700B0424FD12068744D8107D6
:1010400029D5400703D5286840F4E050286020786F
:10105000000703D5286840F460402860A068A0B16C
:10106000802812D0902810D0A0280ED0B0280CD004
:10107000C0280AD0D02808D0E02806D0F02804D014
:1010800040F27E2153A002F075FD2868A16820F08F
:10109000F000084328602078C00743D0DFF8709143
:1010A0006068A9F1080988B1012822D0022824D05B
:1010B000032822D040F2852146A002F05BFD606843
:1010C000012816D0022818D0032816D0D9F800001D
:1010D0008007002833DA286800E030E0616820F0FB
:1010E000030008432860FFF745FC814641F2883A37
:1010F00011E0D9F800008003EBE7D9F80000800187
:10110000E7E700BFFFF736FCA0EB0901514502D924
:101110000320BDE8F0872868616800F00C00B0EBA0
:10112000810FEFD1D8F80010404601F00701B1421D
:1011300007D90770006800F00700B04201D0012015
:10114000E7E720784FF4805640074FF4A0574FF45C
:10115000C0584FF4E05914D5E06860B1B0420AD0ED
:10116000B84208D0404506D0484504D040F2C321DB
:1011700018A002F0FFFC2868E16820F4E050084362
:1011800028602078000715D5206960B1B0420AD0E8
:10119000B84208D0404506D0484504D040F2CA21A4
:1011A0000CA002F0E7FC2868216920F4604040EAC6
:1011B000C100286000F054F82968164AC1F30311F1
:1011C000515CC8401449086014480068FFF708FEE5
:1011D00000209EE72E2E2F447269766572732F537E
:1011E000544D3332463478785F48414C5F447269DD
:1011F0007665722F5372632F73746D333266347851
:10120000785F68616C5F7263632E6300003C02402C
:1012100008380240E8400008580000205000002034
:101220000448054900680968044AC1F38221515CF9
:10123000C84070475800002008380240F8400008B5
:101240000448054900680968044AC1F34231515C09
:10125000C84070475800002008380240F840000895
:10126000154810B5006810F00C02144813D0411056
:10127000042A0FD0082A0ED10F4C241F226823689D
:1012800002F03F025B0207D52068C0F38810A0FB84
:10129000010106E0084610BD2168C1F38811A1FBD9
:1012A00000010023FEF78EFF2168C1F30141491CB4
:1012B0004900B0FBF1F010BD083802400024F400F2
:1012C0002DE9F84F04007DD020680F2803D9E621CE
:1012D000F7A002F04FFC2078DFF80C94C007A9F1CA
:1012E000040555D060684FF480364FF4A02738B11C
:1012F000B04205D0B84203D0EB21EDA002F03AFC99
:10130000F948001D0168C1F38101012908D0006876
:10131000C0F3810002280AD1D9F80000400206D5A6
:101320002868800334D560680028CCD030E060683D
:10133000B04203D1286840F480300CE0B8422868FD
:1013400003D140F480202860F4E720F48030286046
:10135000286820F480202860606860B1FFF70AFBED
:10136000064604E0FFF706FB801B64287ED8286849
:101370008003F7D50CE0FFF7FDFA064605E000BF55
:10138000FFF7F8FA801B6428F0D828688003F7D4A8
:101390002078DFF8588380074FF0000A56D5E068C0
:1013A00030B1012804D040F21D11C1A002F0E2FBCF
:1013B00020691F2804D94FF48F71BDA002F0DAFB19
:1013C000C94800E092E0001D016811F00C0F08D040
:1013D0000068C0F38100022810D1D9F80000400253
:1013E0000CD42868800702D5E06801287ED12868DF
:1013F000216920F0F80040EAC10017E0E068B8B1C8
:101400000120C8F80000FFF7B5FA064605E000BF66
:10141000FFF7B0FA801B0228A8D828688007F7D504
:10142000286820F0F801206941EAC00028600DE03A
:10143000C8F800A0FFF79EFA064604E0FFF79AFA04
:10144000801B022892D828688007F7D420780007EC
:101450002ED5A54EA64F60697036D0B1012808D0B0
:101460004FF4AF7192A002F085FB00E04BE16069A0
:1014700078B101203860FFF77DFA074605E000BF2C
:10148000FFF778FAC01B0228C6D830688007F7D566
:101490000EE0C7F800A0FFF76DFA074605E000BFB1
:1014A000FFF768FAC01B0228B6D830688007F7D467
:1014B0002078400776D5A068002740B1012806D0E3
:1014C000052804D04FF4C57179A002F053FBDFF872
:1014D00018B20BF13C0BDBF80000C0000DD4DBF8B8
:1014E000001041F08051CBF8001000E038E1DBF84B
:1014F0000000012700F0805000907E4E3068C0054B
:1015000011D4306840F480703060FFF733FA0090F7
:1015100006E000BFFFF72EFA0099401A022891D882
:101520003068C005F6D5704EA0686C3601280FD023
:101530000528306810D020F001003060306820F0BD
:1015400004003060A068B8B1FFF714FA00900FE013
:10155000306840F00100F4E740F004003060F7E745
:10156000FFF708FA0099411A41F2883081428BD87E
:1015700030688007F4D50EE0FFF7FCF9009007E033
:10158000FFF7F8F90099411A41F2883081428BD86F
:1015900030688007F4D42FB1DBF8001021F08051BF
:1015A000CBF80010A069002876D0012809D00228C5
:1015B00007D040F2CD113EA002F0DCFAA06900286D
:1015C000F2D04948001D0068C0F381000228A069DC
:1015D0006DD0022805D0C8F860A0FFF7CBF904460B
:1015E00094E0E06938B1B0F5800F04D04FF4EB71AE
:1015F0002FA002F0BFFA206A801E3D2804D940F2D5
:10160000D7112BA002F0B6FA606A3238B0F5BF7F6E
:1016100004D94FF4EC7126A002F0ACFAA06A0228BB
:101620000AD0042808D0062806D0082804D040F2A2
:10163000D9111FA002F09EFAE06A801E0D2804D97D
:101640004FF4ED711AA002F095FA4746C8F860A071
:10165000FFF790F9064604E0FFF78CF9801B02289B
:1016600051D828688001F7D4D4E907010843A16A5A
:10167000214A490802EB0141626A41EA82110843AA
:1016800094F82C1040EA0161C9F800100120386676
:10169000FFF770F9044606E064E000BFFFF76AF95F
:1016A000001B02282FD828688001F7D55AE031E0C6
:1016B0002E2E2F447269766572732F53544D333238
:1016C000463478785F48414C5F4472697665722F82
:1016D0005372632F73746D3332663478785F686148
:1016E0006C5F7263632E630004380240000047425F
:1016F000800E4742007000400000FFFFFFF73AF9FC
:10170000001B022802D90320BDE8F88F2868800159
:10171000F4D427E00128F7D0D9F80000E26900F4FA
:10172000800191421CD1226A00F03F01914217D101
:1017300047F6C071626A0140B1EB821F10D1A26A04
:101740004FF0FF3300F4403103EB5202B1EB024F94
:1017500006D194F82C1000F07060B0EB016F01D04E
:101760000120D1E70020CFE710B5401EB0F1807F07
:1017700001D3012010BD4FF0E02460610F216017FC
:1017800002F0D9F90020A06107202061002010BDDF
:101790002DE9F05F044600683A4E3B4FDFF8EC80DD
:1017A000DFF8EC90DFF8ECA00D464FF0804BB04234
:1017B00015D0584513D0B84211D040450FD04845F8
:1017C0000DD04FEAB641884209D03349884206D04D
:1017D000504504D040F2A97130A002F0CBF928683E
:1017E00090B1102810D020280ED030280CD04028DE
:1017F0000AD0502808D0602806D0702804D040F2C3
:10180000AA7126A002F0B6F96868802805D020B138
:1018100040F2AB7121A002F0ADF994F83C00012830
:101820002DD0012284F83C20022084F83D0021685C
:1018300048688B6820F0700C286840EA0C0048600B
:101840002068B0420FD058450DD0B8420BD040456B
:1018500009D0484507D0504505D01F49884202D0DD
:101860001E49884204D1696823F0800319438160CE
:1018700084F83D20002084F83C00BDE8F09F022061
:10188000FBE70000000001400004004000080040A9
:10189000000C004000040140001400402E2E2F4494
:1018A0007269766572732F53544D333246347878AB
:1018B0005F48414C5F4472697665722F5372632FA3
:1018C00073746D3332663478785F68616C5F746905
:1018D0006D5F65782E6300000040014000180040F5
:1018E00070B5040057D0484920688E03474D8842A0
:1018F00029D0B04227D04649884224D04549884261
:1019000021D0A8421FD0444988421CD04349884274
:1019100019D04349884216D04249884213D04249DF
:10192000884210D0414988420DD0414988420AD0AE
:101930004049884207D04049884204D040F2131100
:101940003EA002F017F9A06860B110280AD0202844
:1019500008D0402806D0602804D04FF48A7137A000
:1019600002F008F9206950B1B0F5807F07D0B0F5DA
:10197000007F04D040F2151130A002F0FBF820687F
:10198000B0420AD0A84208D0E0684FF6FE71401E6F
:10199000884209D903E0012070BDE06820B94FF406
:1019A0008B7126A002F0E6F8A06930B1802804D03F
:1019B00040F2171121A002F0DDF894F83D0028B99B
:1019C000002084F83C00204600F054F8022084F8FF
:1019D0003D00211D206801F0A1FC012084F8460093
:1019E00084F83E0084F83F0084F8400084F8410009
:1019F00084F8420084F8430084F8440084F84500E9
:101A000084F83D00002070BD00000140000C004043
:101A10000004004000080040001000400014004096
:101A200000040140004001400044014000480140E2
:101A300000180040001C0040002000402E2E2F44C3
:101A40007269766572732F53544D33324634787809
:101A50005F48414C5F4472697665722F5372632F01
:101A600073746D3332663478785F68616C5F746963
:101A70006D2E630008B500680649884208D1064803
:101A8000016841F002010160006800F0020000906E
:101A900008BD000000040040403802402DE9F84F26
:101AA00005460020009095F83C000C46012841D0E6
:101AB000012085F83C00022085F83D0020684FF4A5
:101AC000805B584516D0702814D0B0F5005F11D057
:101AD00040280FD050280DD060280BD050B11028CE
:101AE00008D0202806D0302804D041F2C341D4A029
:101AF00002F040F82868816821F0770121F47F41E5
:101B000081602068DC49DD4ADD4BDE4EDE4FDFF8C8
:101B10007CC3DFF87C834FF080494FF4004A5028A3
:101B20007ED00FDC202804D007DC0028FBD0102852
:101B300077D161E10220BDE8F88F3028F9D0402844
:101B4000F6D126E160286DD0702874D0584544D075
:101B50004FF400584045EBD1286888420ED04845E4
:101B60000CD090420AD0984208D0B04206D0B84279
:101B700004D041F2EE41B2A001F0FCFFA06858B1E0
:101B8000584509D0404507D0B0F5405F04D041F238
:101B9000F141ABA001F0EEFF6068504509D040B1C3
:101BA000022806D00A2804D041F2F241A4A001F094
:101BB000E1FFE0680F2804D941F2F341A0A001F051
:101BC000D9FFD4E90121E368286801F00FFC2868F7
:101BD000816841F48041816029E128688842FBD016
:101BE0004845F9D09042F7D09842F5D0B042F3D0B2
:101BF000A8498842F0D0A8498842EDD0B842EBD03D
:101C00006045E9D0A5498842E6D0A5498842E3D09D
:101C10004045E1D0A3498842DED0A349884203E091
:101C20004FE002E180E006E0D6D041F2CF4184A04F
:101C300001F0A0FFFBE02868884212D0484510D090
:101C400090420ED098420CD0B0420AD0B84208D090
:101C5000604506D0404504D041F2D64178A001F05D
:101C600089FFA06860B158450AD0B0F5005F07D081
:101C7000B0F5405F04D041F2D94171A001F07AFF84
:101C80006068504509D040B1022806D00A2804D027
:101C900041F2DA416AA001F06DFFE0680F2804D933
:101CA00041F2DB4166A001F065FFD4E90121E36860
:101CB000286801F09BFB2968886840F077008860FD
:101CC000B5E02868884212D0484510D090420ED026
:101CD00098420CD0B0420AD0B84208D0604506D035
:101CE000404504D041F2025155A001F043FF606825
:101CF000504509D040B1022806D00A2804D041F24C
:101D000005514FA001F036FFE0680F2804D941F2D9
:101D100006514BA001F02EFFE2686168286801F0CF
:101D200027FD5021286831E02868884212D04845B4
:101D300010D090420ED098420CD0B0420AD0B84297
:101D400008D0604506D0404504D041F212513CA075
:101D500001F010FF6068504509D040B1022806D05C
:101D60000A2804D041F2155135A001F003FFE068C4
:101D70000F2804D941F2165131A001F0FBFEE268B0
:101D80006168286801F005FD6021286801F038FBD2
:101D90004DE02868884212D0484510D090420ED0BD
:101DA00098420CD0B0420AD0B84208D0604506D064
:101DB000404504D041F2225121A001F0DBFE6068D1
:101DC000504509D040B1022806D00A2804D041F27B
:101DD00025511BA001F0CEFEE0680F2804D941F286
:101DE000265117A001F0C6FEE2686168286801F07C
:101DF000BFFC40212868C9E72868884212D04845BE
:101E000010D090420ED098420CD0B0420AD0B842C6
:101E100008D0604506D0404504D041F2355108A0B5
:101E200001F0A8FE21682868B0E701200090012099
:101E300085F83D00002085F83C0000987BE6000016
:101E40002E2E2F447269766572732F53544D3332A0
:101E5000463478785F48414C5F4472697665722FEA
:101E60005372632F73746D3332663478785F6861B0
:101E70006C5F74696D2E6300000001400004004037
:101E800000080040000C00400004014000400140F8
:101E900000180040001000400014004000440140C1
:101EA00000480140001C00400020004010B586B0F2
:101EB000044614216846FEF7CFF90E49206888428F
:101EC00015D10D480021026842F00102026000684D
:101ED00000F001000590802000900220CDE9010172
:101EE0000121CDE9031069460448FEF763FB06B003
:101EF00010BD0000000400403038024000000240E5
:101F00002DE9F05F16000D4604464FF000090CD095
:101F1000042E0AD0082E08D00C2E06D03C2E04D059
:101F200041F2820177A001F025FE2868602806D0E2
:101F3000702804D041F2830172A001F01BFEA86852
:101F400030B1022804D041F284016EA001F012FEEB
:101F5000286930B1042804D041F2850169A001F05C
:101F600009FE94F83C0001281CD001207349744AF2
:101F7000744B754FDFF8D4C1DFF8D4A1DFF8D4B1CA
:101F800084F83C004FF0804876B1042E41D0082EF2
:101F90006AD00C2E7DD08146002084F83C00484653
:101FA000BDE8F09F0220FBE7206888421ED0404534
:101FB0001CD090421AD0984218D0B84216D0604532
:101FC00014D0504512D0644988420FD063498842EA
:101FD0000CD058450AD06249884207D061498842EE
:101FE00004D041F28F0147A001F0C4FD29462068CA
:101FF00001F00EFA2068816941F0080181612068D2
:10200000816921F004018161206881692A69114395
:1020100028E02068884212D0404510D090420ED06F
:1020200098420CD0B8420AD0604508D0504506D03E
:10203000584504D04FF4855132A001F09BFD29464C
:10204000206801F057FA2068816941F400618161DC
:102050002068816921F480618161206881692A6931
:1020600041EA0221816197E7206888420ED040450D
:102070000CD090420AD0984208D0B84206D06045B1
:1020800004D041F2B1011FA001F074FD294620687F
:1020900000E010E001F0A4FA2068C16941F00801F5
:1020A000C1612068C16921F00401C1612068C16972
:1020B0002A69114324E0206888420ED040450CD0A4
:1020C00090420AD0984208D0B84206D0604504D069
:1020D00041F2C2010BA001F04DFD2946206801F03C
:1020E000F5FA2068C16941F40061C1612068C169E5
:1020F00021F48061C1612068C1692A6941EA022135
:10210000C16149E72E2E2F447269766572732F5391
:10211000544D3332463478785F48414C5F4472699D
:102120007665722F5372632F73746D333266347811
:10213000785F68616C5F74696D2E63000000014018
:102140000004004000080040000C00400004014072
:102150000040014000180040004401400048014098
:10216000001C00400020004070B5040057D04849D2
:1021700020688E03474D884229D0B04227D0464977
:10218000884224D04549884221D0A8421FD04449E2
:1021900088421CD04349884219D04349884216D00E
:1021A0004249884213D04249884210D0414988426E
:1021B0000DD0414988420AD04049884207D0404961
:1021C000884204D040F22C513EA001F0D3FCA0681C
:1021D00060B110280AD0202808D0402806D06028F6
:1021E00004D040F22D5137A001F0C4FC206950B159
:1021F000B0F5807F07D0B0F5007F04D040F22E51BB
:1022000030A001F0B7FC2068B0420AD0A84208D044
:10221000E0684FF6FE71401E884209D903E00120B4
:1022200070BDE06820B940F22F5126A001F0A2FC59
:10223000A06930B1802804D04FF4A66121A001F03C
:1022400099FC94F83D0028B9002084F83C00204611
:1022500000F054F8022084F83D00211D206801F0B0
:102260005DF8012084F8460084F83E0084F83F00C1
:1022700084F8400084F8410084F8420084F8430068
:1022800084F8440084F8450084F83D00002070BDC7
:1022900000000140000C0040000400400008004025
:1022A00000100040001400400004014000400140C4
:1022B000004401400048014000180040001C00405C
:1022C000002000402E2E2F447269766572732F53C2
:1022D000544D3332463478785F48414C5F447269DC
:1022E0007665722F5372632F73746D333266347850
:1022F000785F68616C5F74696D2E6300704770472A
:1023000070470000F8B5016804460868CA684B6960
:1023100010F00F0F4FF0000559D003F0010602F442
:102320009077374365D0C10705D0D10503D5616CDF
:1023300041F001016164410705D5D90703D0616C03
:1023400041F002016164810705D5D90703D0616CB2
:1023500041F004016164010707D502F02001314317
:1023600003D0616C41F008016164616C00293AD0CE
:10237000800604D5900602D5204601F04AFA20686E
:102380004069616CC0F38010090700D460B3204637
:1023900001F018FA20684069400621D52068143001
:1023A00050E8001F21F0400140E80012002AF5D15A
:1023B000E06BA8B172490165E06BFEF7D7F8002821
:1023C00011D0E06B016D01B0BDE8F0400847830615
:1023D0000FD593060DD52046BDE8F84001F019BA97
:1023E0002046FFF78DFFF8BD2046FFF789FF6564A3
:1023F000F8BD266B2023012E7ED1C6067CD5D606DD
:102400007AD508684868009048694FF0020640068F
:102410004DD5E26B106840684FF480770004000CE3
:102420003AD0A18D814237D9E085D069B8422DD00C
:1024300020680C3050E8001F21F4807140E8001241
:10244000002AF5D12068143050E8001F21F0010166
:1024500040E80012002AF5D12068143050E8001F2F
:1024600021F0400140E80012002AF5D184F8423002
:10247000256320680C3050E8001F21F0100140E86F
:102480000012002AF5D1E06BFEF727F86663A08DF5
:10249000E18D401A81B206E0A18D8142A8D1D069B8
:1024A000B842A5D166632046FFF729FFF8BDA08D8D
:1024B000E18D401A81B2E08D0028F7D00029F5D0D7
:1024C00020680C3050E8002F22F4907240E800277A
:1024D000002FF5D12068143050E8002F22F00102BF
:1024E00040E80027002FF5D184F8423025632068AA
:1024F0000C3050E8002F00E006E022F0100240E827
:102500000023002BF3D1CDE705062BD5150629D5E1
:1025100094F841002128C9D1A068B0F5805F01D1AD
:102520002069B0B1206A411C2162216800784860AE
:10253000E08C401E0004000CE084B7D12068C16824
:1025400021F08001C1602068C16841F04001C16094
:10255000F8BD206A0088C0F308004860206A801C2B
:102560002062E5E74006F3D55006F1D5CA6820465B
:1025700022F04002CA6084F8413000F077F9F8BDDB
:10258000B737000870B5040023D0A0693B49002884
:102590003B4A3C4B3C4D20681DD088420CD09042B9
:1025A0000AD0984208D0A84206D040F2731137A052
:1025B00001F0E0FAA06908B3A069B0F5807F1DD0F2
:1025C000B0F5007F1AD0B0F5407F17D04FF4BA7144
:1025D00011E0012070BD884210D090420ED0984288
:1025E0000CD03949884209D03849884206D0A842DF
:1025F00004D04FF4BC7125A001F0BCFAA06838B13A
:10260000B0F5805F04D04FF4BD7120A001F0B2FAA4
:10261000E06938B1B0F5004F04D040F27B111BA047
:1026200001F0A8FA94F84100002520B984F8405040
:10263000204600F04DF8242084F841002068C1684D
:1026400021F40051C160204601F044F9206801697D
:1026500021F4904101612068416921F02A01416122
:102660002068C16841F40051C1606564202084F88D
:10267000410084F842006563002070BD00100140F5
:102680000044004000480040001401402E2E2F441A
:102690007269766572732F53544D333246347878AD
:1026A0005F48414C5F4472697665722F5372632FA5
:1026B00073746D3332663478785F68616C5F75610E
:1026C00072742E6300000000004C00400050004077
:1026D000F0B587B0044614216846FDF7BDFD2A4FCA
:1026E0002368002229490224032507262848BB42E3
:1026F00021D1264B14331F6847F010071F601B6859
:1027000003F0100305930B6843F001030B600968A5
:1027100002AB01F0010105916902CDE9001483E8E3
:1027200064006946FDF746FF002211462520FEF7AA
:10273000C1FB252023E0174FBB4222D1134B10339E
:102740001F6847F400371F601B6803F400330593CC
:102750000B6843F001030B60096802AB01F0010153
:1027600005910C21CDE9001483E864006946FDF76A
:1027700021FF002211462620FEF79CFB2620FEF7B3
:1027800067FB07B0F0BD0000001001403038024088
:10279000000002400044004090F84230202B01D05D
:1027A0000220704721B11AB10023036301F062B91E
:1027B0000120704710B5034801F008FB02490120D1
:1027C000087010BDF4000020440000202DE9F843FB
:1027D000044690F84100984616460D46202802D03F
:1027E0000220BDE8F88385B17EB10020606421201D
:1027F00084F84100FEF7BEF8A6848146E684A0680E
:102800002027B0F5805F02D003E00120E9E72069CE
:1028100010B12E4600250EE000260CE08021204657
:1028200001F043F9A8B9C6B116F8010B2168486058
:10283000E08C401EE084E08C4B464FF00002CDF867
:1028400000800028EAD14FF04001204601F02DF928
:1028500040B184F841700320C3E735F8020BC0F3A0
:102860000800E3E784F841700020BAE770470122CE
:10287000FEF74AB8FEE701684A69D24352050FD411
:102880006FF480624A61002140F8301F20224273B9
:102890008173026942F004020261017301207047F2
:1028A00000207047F8B50446C06A1E460D4617461C
:1028B000082807D0012805D010F5803F02D0206BF2
:1028C000122804D12068016841F480710160134628
:1028D00000224FF001112046009600F05DF840B153
:1028E00020680068C00502D54FF400702064032002
:1028F000F8BD2069B0F5804F0ED00620216800EAAF
:10290000D51040F0F000086133463A460B492046A6
:1029100000F08AF878B902E005F0FE0000E0E8B2C5
:1029200021680861054933463A46891F204600F070
:102930007BF80028DCD00120F8BD00000800010071
:1029400070B516460D4604461EE02046FFF793FF7D
:1029500008B1012070BD681C16D0FEF70BF8801B73
:10296000A84200D885B920684069C04340070BD50C
:10297000002044F8300F20216173A073216941F0D9
:10298000200121612073E4E720684069C0434007CB
:10299000DBD4002070BD00002DE9F04798461746B3
:1029A0000D460446C1F30746DDF820902AE000BF3B
:1029B000B8F1FF3F26D0FDF7DDFFA0EB090141454F
:1029C00002D8B8F1000F1DD12068012E16D0806901
:1029D00025EA00000004000C12D00020B84211D1FA
:1029E000002044F8300F20216173A073216941F069
:1029F0002001216120730120BDE8F0874069E7E7ED
:102A00000120EBE72068012E0AD0806925EA00004A
:102A10000004000C06D00020B842C9D00020EBE72B
:102A20004069F3E70120F7E72DE9F047984616469D
:102A30000D4604464FF000094FF0200AC1F3074746
:102A400023E020684069C043400515D42068016830
:102A500041F40071016021686FF480604861C4F83E
:102A6000309084F83DA084F83E90216C41F0040140
:102A7000216484F83C9021E0701C06D0FDF77AFFB9
:102A8000A0EB0800B04203D816B1012F1FD021E0FF
:102A90002068012F15D0806925EA00000004000C91
:102AA00018D000BF44F8309F84F80DA084F80E9031
:102AB000216941F02001216184F80C900120BDE8DA
:102AC000F087406925EA00000004000CEAD1206884
:102AD000406901E02068806925EA00000004000CDC
:102AE000AFD1ECE770B516460D4604461EE0204611
:102AF000FFF7C1FE08B1012070BD681C16D0FDF7BC
:102B000039FF801BA84200D885B920684069C043BE
:102B100000060BD5002044F8300F20216173A0730C
:102B2000216941F0200121612073E4E720684069B8
:102B3000C0430006DBD4002070BD0022FDF7E4BED8
:102B40002DE9F04786B014216846FDF785FB504813
:102B50000024016841F080010160016801F08001FA
:102B60000591016841F001010160016801F0010176
:102B70000591016841F010010160016801F0100148
:102B80000591016841F008010160016801F0080148
:102B90000591016841F040010160016801F04001C8
:102BA0000591016841F0020101600068394F00F0B1
:102BB00002000590012271213846FDF7A5FEDFF8DD
:102BC000D8A0012240F201215046FDF79DFEDFF81A
:102BD000CC8001224FF483514046FDF795FEDFF88B
:102BE000C0904FF44E76012231464846FDF78CFEE8
:102BF00001257120CDE9000569463846CDE9024539
:102C0000FDF7D8FC6802CDE9000569465046CDE9DC
:102C10000245FDF7CFFC2803CDE900056946404693
:102C2000CDE90245FDF7C6FC1020CDE90004694658
:102C300040460294FDF7BEFC60200090CDE90154AF
:102C4000694640460394FDF7B5FC80208DE83100CD
:102C500069464046FDF7AEFC4FF4FC408DE831007C
:102C600069461048FDF7A6FC0096CDE90154694677
:102C700048460394FDF79EFC0095CDE90154694652
:102C800050460394FDF796FC06B0BDE8F0870000BF
:102C9000303802400000024000100240000C0240A8
:102CA00000040240001802400D4810B50B490160B5
:102CB0000C49416000214FF480428160C0E9031259
:102CC00041618161C1610162FDF75AFE002803D0B4
:102CD000BDE81040FDF7FFBB10BD000000540040F0
:102CE00008010020801A060010B58EB00024079459
:102CF000089409940A940B941C2168460C94FDF7DF
:102D0000ABFA1E481C4901604721C0E9011444F692
:102D10002061C0E903148461FEF7E2FD08B1FDF70C
:102D2000DAFB4FF48050079007A91448FEF7B6FE6F
:102D300008B1FDF7D0FB1148FFF716FA08B1FDF70F
:102D4000CAFB0B940BA90D480C94FEF721FD08B1AA
:102D5000FDF7C1FB6020CDE900040294042269461E
:102D600006480494FFF7CCF808B1FDF7B4FB03481C
:102D7000FFF79CF80EB010BD000400405C0100207D
:102D80000C4810B50A4901604FF4E131416000215F
:102D900081600C22C160C0E904128161C161FFF74A
:102DA000F1FB002803D0BDE81040FDF794BB10BD37
:102DB00000100140A40100200C4810B50A49016030
:102DC0004FF4E1314160002181600C22C160C0E913
:102DD00004128161C161FFF7D5FB002803D0BDE873
:102DE0001040FDF778BB10BD00440040EC0100200E
:102DF000FEE72DE9F04115460E46074600240EE099
:102E000031463846FFF733FD0A20FDF7C1FB314656
:102E10003846FFF792FE0A20FDF7BAFB641CAC426D
:102E2000EEDB0120BDE8F081164810B5027B4FF4BF
:102E300000711548FDF74AFB1248144C1030202150
:102E4000027B2046FDF742FB0E4840212030027BEA
:102E50002046FDF73BFB0B48A1143030027B0C48A9
:102E6000FDF734FB074801214030027B2046FDF787
:102E70002DFB044850301021027B2046BDE8104055
:102E8000FDF724BB94000020001002400000024027
:102E9000000C0240204A9FED1F0A012182ED000A2A
:102EA00082ED010A82ED020A117300205073103284
:102EB00082ED000A82ED010A82ED020A117350735D
:102EC000103282ED000A82ED010A82ED020A1173CE
:102ED0005073103282ED000A82ED010A82ED020A7F
:102EE00011735073103282ED000A82ED010A82EDF7
:102EF000020A11735073103282ED000A82ED010A4A
:102F000082ED020A1173054950730870487081ED13
:102F1000010A704700000000940000203C000020DF
:102F200070B5044602684FF400710F48FFF761FF67
:102F30000E4D202128466268FFF75BFF402128469E
:102F4000A268FFF756FFA9140948E268FFF751FF8E
:102F5000012128462269FFF74CFF102128466269AB
:102F6000FFF747FF012070BD001002400000024043
:102F7000000C0240FEE770B500240021204600F05E
:102F800061F80025002000F07FF86D1CEDB2802D67
:102F9000F8D3641CE4B2082CEFD370BD10B5002048
:102FA0004FF47A720021491C9142FCD3401C90429C
:102FB000F8D3AE2000F058F8D52000F055F8802066
:102FC00000F052F8A82000F04FF83F2000F04CF835
:102FD000D32000F049F8002000F046F8402000F02F
:102FE00043F8A12000F040F8C82000F03DF8DA20B6
:102FF00000F03AF8122000F037F8812000F034F8A1
:10300000CF2000F031F8D92000F02EF8F12000F0A8
:103010002BF8DB2000F028F8302000F025F8A42061
:1030200000F022F8A62000F01FF88D2000F01CF818
:10303000142000F019F8AF2000F016F8BDE8104099
:10304000FFF799BF10B50C4640F0B00000F00CF847
:10305000102040EA141000F007F804F00F00BDE85B
:10306000104000F001B800001CB502238DF80500E7
:103070004FF0FF30009001AA78210248FDF7C4FD0F
:103080001CBD0000080100201CB507A1022309682F
:1030900001918DF805004FF0FF30009001AA7821D2
:1030A0000248FDF7B1FD1CBD4000000008010020F2
:1030B0007047FDF7FDBB00002DE9F84F674D684CE8
:1030C00008212A7B2046FDF701FA05F1100810219E
:1030D00098F80C202046FDF7F9F905F1200B202186
:1030E0009BF80C202046FDF7F1F905F13000A11501
:1030F000027B2046FDF7EAF905F14000DFF864A104
:10310000027B402154465046FDF7E0F905F150009E
:103110002021027B2046FDF7D9F90120DFF84891F4
:103120004603524C4702009039464846009AFFF742
:1031300060FE31462046FFF7BCFF0028F4D1142082
:10314000FDF726FA31462046FFF7B3FF0028EBD102
:103150004FF0010985F80D90454D4FF48056202120
:103160002846009AFFF745FE31462046FFF7A1FFAB
:103170000028F4D11420FDF70BFA31462046FFF762
:1031800098FF0028EBD188F80D904FF4006840219B
:103190002846009AFFF72DFE41462046FFF789FF9B
:1031A0000028F4D11420FDF7F3F941462046FFF73B
:1031B00080FF0028EBD18BF80D90B3464FF4806868
:1031C000564659463046009AFFF713FE41462046C0
:1031D000FFF76FFF0028F4D11420FDF7D9F941461D
:1031E0002046FFF766FF0028EBD11C49C846303166
:1031F00081F80D9001212846009AFFF7FAFD394623
:103200002046FFF756FF0028F4D11420FDF7C0F93F
:1032100039462046FFF74DFF0028EBD10F484446C2
:10322000403080F80D8010212846009AFFF7E1FD1C
:1032300080213046FFF73DFF0028F4D11420FDF730
:10324000A7F980213046FFF734FF0028EBD103486F
:10325000503044730120BDE8F88F00009400002036
:1032600000040240000C024000100240001802401E
:10327000000002407047FDF791BD000030B593B0EB
:1032800030216846FCF7E8FF14210CA8FCF7E4FFA6
:103290001C480025016841F080510160006800F081
:1032A000805011901848016841F480410160006825
:1032B000022400F48040119001200090000401904D
:1032C0008001CDE9064008AA0420482182E81300C5
:1032D0000B906846FDF7F4FF08B172B6FEE70CA943
:1032E0000F2081E831004FF48050CDE90F05022115
:1032F0000CA8FDF76FFE002801D072B6FEE713B0F0
:1033000030BD0000403802400070004002480168B3
:1033100041F470010160704788ED00E0F0B502688B
:10332000274B284D284E294F294C4FF0804C98426E
:1033300009D0604507D0A84205D0B04203D0B842BA
:1033400001D0A04204D122F0700E4A6842EA0E0277
:1033500098421BD0604519D0A84217D0B04215D072
:10336000B84213D0A04211D01A4DA8420ED01A4D27
:10337000A8420BD0194DA84208D0194DA84205D03B
:10338000184DA84202D0184DA84203D122F440752E
:10339000CA682A434D6922F080022A438D68C562BB
:1033A0000D688562984201D0A04201D1096901638C
:1033B000016841F004010160012141610260F0BD3A
:1033C000000001400004004000080040000C0040E4
:1033D0000004014000400140004401400048014019
:1033E00000180040001C00400020004010B5846818
:1033F00042EA032224F47F440A432243826010BD40
:10340000826822F070020A4342F00701816070472F
:103410002DE9F0470446006A0D46216A21F00101BA
:1034200021626768A169AE6821F07302296820F003
:103430000200DFF880900643DFF87CA041EA020832
:103440004C4501D054450ED1E86830B1082804D06D
:1034500041F6CD2119A000F08DFBE86826F00801A7
:10346000084320F004064C4501D0544519D1A86901
:10347000B0F5007F05D020B141F6DA210FA000F0B1
:1034800079FB6869B0F5807F05D020B141F6DB217A
:103490000AA000F06FFB27F440716869AF69084328
:1034A00007436760C4F81880686860632662BDE8F7
:1034B000F087000000000140000401402E2E2F4440
:1034C0007269766572732F53544D3332463478786F
:1034D0005F48414C5F4472697665722F5372632F67
:1034E00073746D3332663478785F68616C5F7469C9
:1034F0006D2E63002DE9F0470446006A0D46216AEF
:1035000021F0100121626768A1692A6821F4E6416F
:1035100041EA0228A968DFF8889020F02000DFF84F
:1035200084A040EA01164C4501D054450FD1E8680B
:1035300030B1082804D041F619311BA000F01AFB65
:10354000E96826F0800040EA011020F040064C4572
:1035500001D054451BD1A869B0F5007F05D020B13A
:1035600041F6263110A000F005FB6869B0F5807FB8
:1035700005D020B141F627310BA000F0FBFA6969B4
:1035800027F4406040EA8100A96940EA810767604A
:10359000C4F818806868A0632662BDE8F087000060
:1035A00000000140000401402E2E2F447269766510
:1035B00072732F53544D3332463478785F48414C00
:1035C0005F4472697665722F5372632F73746D3323
:1035D00032663478785F68616C5F74696D2E630061
:1035E0002DE9F0470446006A0D46216A21F48071F6
:1035F00021626768E169DFF8949021F0730229681D
:1036000020F4007041EA0208A968DFF884A040EACB
:1036100001264C4501D054450FD1E86830B1082847
:1036200004D041F664311BA000F0A4FAE96826F446
:10363000006040EA012020F480664C4501D05445EA
:103640001BD1A869B0F5007F05D020B141F67131DA
:1036500010A000F08FFA6869B0F5807F05D020B126
:1036600041F672310BA000F085FA696927F44050E9
:1036700040EA0110A96940EA01176760C4F81C809C
:103680006868E0632662BDE8F08700000000014042
:10369000000401402E2E2F447269766572732F53F9
:1036A000544D3332463478785F48414C5F447269F8
:1036B0007665722F5372632F73746D33326634786C
:1036C000785F68616C5F74696D2E63002DE9F0416D
:1036D0000446006A0D46216A21F480512162666821
:1036E000E1692A6821F4E64141EA0228A96820F448
:1036F000005040EA01370E48844202D00D4884420F
:103700000ED16869B0F5807F05D020B141F6B131A6
:1037100009A000F02FFA696926F4804040EA81167A
:103720006660C4F81C80686820642762BDE8F08188
:1037300000000140000401402E2E2F44726976657E
:1037400072732F53544D3332463478785F48414C6E
:103750005F4472697665722F5372632F73746D3391
:1037600032663478785F68616C5F74696D2E6300CF
:1037700010B5036A046A24F001040462846924F029
:10378000F00444EA021423F00A020A43846102624C
:1037900010BD10B5036A046A24F010040462846941
:1037A00023F0A00324F4704444EA023243EA0111F6
:1037B0008261016210BD10B5806B0021C185FEF7EA
:1037C0009FFD10BD01680C3151E8002F22F490726A
:1037D00041E80023002BF5D10168143151E8002F96
:1037E00022F0010241E80023002BF5D1016B0129F1
:1037F00009D101680C3151E8002F22F0100241E894
:103800000023002BF5D1202180F842100021016314
:10381000704708B590F84210222901D0022008BD57
:1038200082684FF480539A4201D1016921B1816AC3
:103830009A421BD04AB10AE00268816A5268C2F318
:1038400008020A80816A891C08E0026972B1026874
:10385000526802F07F020A70816A491C8162C18D40
:10386000491E0904090CC18503D01BE00268526897
:10387000F1E70168CA6822F02002CA600168CA68DC
:1038800022F48072CA6001684A6922F001024A612A
:10389000202180F8421000214163026B012A03D0ED
:1038A000FEF788FF002008BD016301680C3151E874
:1038B000002F22F0100241E80023002BF5D101680F
:1038C0000A68D20602D50A6849680091818DFEF720
:1038D00016FDE7E770B5044640685449884204D9AC
:1038E00040F6996152A000F045F9E06838B1B0F5B2
:1038F000005F04D040F69A614DA000F03BF92069CA
:1039000050B1B0F5806F07D0B0F5C06F04D040F66D
:103910009B6147A000F02EF960694FF6F3710842F1
:1039200000D120B940F69C6141A000F023F9206845
:103930000169E26821F44051114301612169A068E5
:10394000E26908436169114322680843D16849F27A
:103950000C6399430143D16020684169A26921F455
:1039600040711143416141492068884202D0404979
:10397000884202D1FDF764FC01E0FDF751FCE269E9
:103980000023192164253226B2F5004F626828D041
:10399000A0FB0101930F9200FCF714FC0146B0FB61
:1039A000F5F06FF01802504301EB800006EB0010B9
:1039B000B0FBF5F000F0F002B1FBF5F002EB001205
:1039C000B1FBF5F06FF01803584301EB800006EBF4
:1039D0000010B0FBF5F000F00F0021681044886083
:1039E00070BDA0FB010192185B41FCF7EBFB0146A7
:1039F000B0FBF5F00201B1FBF5F06FF0180358438E
:103A000001EB800006EBC000B0FBF5F000F0F80021
:103A100002EB4002B1FBF5F0584301EB800006EBEE
:103A2000C000B0FBF5F000F00700D6E7A037A0001B
:103A30002E2E2F447269766572732F53544D333294
:103A4000463478785F48414C5F4472697665722FDE
:103A50005372632F73746D3332663478785F6861A4
:103A60006C5F756172742E630000000000100140ED
:103A70000014014081628285C285002141642221B7
:103A800080F84210016921B10168CA6842F480726D
:103A9000CA6001684A6942F001024A610068C1686F
:103AA00041F02001C160002070472DE9F84398469D
:103AB00017460D460446089E24E0701C22D0FCF7F1
:103AC00059FFA0EB0800B0421AD8CEB12068C168F7
:103AD000490717D5802D15D0402D13D00168C94353
:103AE00009070FD401680025406800902046FFF7C1
:103AF00069FE0820606484F840500120BDE8F88326
:103B00000320FBE72068006835EA000004D00020AD
:103B1000B842D2D00020F1E70120F9E70148FEF7D2
:103B2000F1BB0000A40100200148FEF7EBBB000040
:103B3000EC010020FEE70907090E002804DB00F174
:103B4000E02080F80014704700F00F0000F1E02042
:103B500080F8141D704702E008C8121F08C1002A2F
:103B6000FAD170477047002001E001C1121F002AFE
:103B7000FBD170477047000030B5034600208C240D
:103B80000EE000BF13F8012B50400022C50702D001
:103B900084EA500000E04008521CD2B2082AF5D353
:103BA000491E89B2EED230BDFDF700F9FFF766FB82
:103BB000FEF7C6FFFFF7E4F8FFF776F8FFF794F893
:103BC000FFF7FAF8FFF766F9FFF776FAFFF7E6F97D
:103BD00013220A490A48FEF7DFFD0A4C2078012823
:103BE00008D1094800F012F86060FFF71DF960681D
:103BF000FFF796F9024800F0B5F9EFE7F40000206E
:103C0000A4010020440000205C0000202DE9F04FBA
:103C100004462DED088B9BB018220CA86749FCF7D1
:103C200002FB182106A8FCF717FB00210CAA06A826
:103C300004EB810393ED000A02EB8103D3ED000A4C
:103C400000EB8103491C20EE200AC9B2062983ED4E
:103C5000000AEDD394ED060A1821BCEEC00A10EE5E
:103C6000100AC0B212906846FCF7F6FA544DDDED2A
:103C700006AA05F1100695ED010A05F1200705F1E8
:103C800030087AEEC02A05F1400905F1500ACDED61
:103C9000002A9DED07AA96ED010AF5EEC02A002044
:103CA0003AEE402A01218DED012ADDED089A97EDCB
:103CB000010A79EEC01ACDED021A9DED099A98ED30
:103CC000010A39EE401A8DED031ADDED0A8A99EDED
:103CD000010A78EEC00ACDED040A9DED0B8A9AED3B
:103CE000010A38EE400AF1EE10FA8DED050A01D80E
:103CF000287300E02973B5EEC02AF1EE10FA01D85E
:103D0000307300E03173F5EEC01AF1EE10FA01D80D
:103D1000387300E03973B5EEC01AF1EE10FA02D82C
:103D200088F80C0001E088F80C10F5EEC00AF1EEFE
:103D300010FA02D889F80C0001E089F80C10B5EEF1
:103D4000C00AF1EE10FA02D88AF80C0001E08AF8F5
:103D50000C10DFF86CB09FED1BBB0024ABF11C0B0B
:103D6000684600EB840090ED000ABDEEC00A10EE3C
:103D7000100AFCF7EBFA53EC1B2BFCF778FAFCF774
:103D8000F6FA4BF82400641CE4B2062CE8D312982F
:103D9000CBF81800C5ED01AA86ED01AAC7ED019A7E
:103DA00088ED019AC9ED018A8AED018A1BB00448A9
:103DB000BDEC088B1C38BDE8F08F0000D040000837
:103DC00094000020842A357BA015803F2DE9F04720
:103DD000614C05460020E17811290DD0667801225A
:103DE00066B121460023B1F90810012E0AD0022E37
:103DF00014D0032E01D123E0A070A9E0A870208187
:103E00006270A5E0B4F904201544521CE87010B2A9
:103E1000A080884213DBA38002200FE06A18C91C2F
:103E2000D07089B22846FFF7A7FE2070B4F90810B9
:103E30002944C978814202D16078401C607087E0D3
:103E4000B4F9060010B1012802D081E0E2807FE0E1
:103E50009A46E380404B16339E1C1F1D9A1D02F1AB
:103E6000020802F1040900BFB4F90610681890F8BE
:103E700003C003F801C090F805C006F801C090F82F
:103E800007C007F801C090F809C002F801C090F817
:103E90000BC008F801C090F80DC009F801C0491C1A
:103EA00008B2E0800228DFDBB3F9000000EE100A60
:103EB0002B48F8EEC00A9FED290A80EE801A80EDAB
:103EC000001AB6F9001000EE901AF8EEE00A80EE43
:103ED000801A80ED011AB7F9001000EE901AF8EE82
:103EE000E00A80EE801A80ED021AB2F9001000EEAE
:103EF000901AF8EEE00A80EE801A80ED031AB8F905
:103F0000001000EE901AF8EEE00A80EE801A80EDC4
:103F1000041AB9F9001000EE901AF8EEE00A80EEEB
:103F2000801A80ED051AE97B00EE101A1121B8EE17
:103F3000400A80ED060A84F801A084F802A0E1702E
:103F400084F800A0A4F808A0A4F804A0A4F806A08F
:103F50000020BDE8F08700000000002000007A4447
:103F60005C0000202DE9FF5F834600200090019057
:103F7000029003904B484D4ADFF8488190ED010ACA
:103F80004948931C141DD0ED000A971D9D1D80EE1D
:103F9000201AA61DBDEEC10A10EE101A1180444968
:103FA000D0ED010A91ED010A80EE201ABDEEC10AA2
:103FB00010EE101A19803F49D0ED020A91ED010A66
:103FC00080EE201ABDEEC10A10EE101A21803A4987
:103FD000D0ED030A91ED010A80EE201ABDEEC10A70
:103FE00010EE101A39803549D0ED040A91ED010A1E
:103FF00080EE201ABDEEC10A10EE101A2980304959
:10400000D0ED050A91ED010A002180EE201ABDEEE7
:10401000C10A10EE100A30804FEA0D0018F801C0F6
:1040200000F801C0491C0229F8DB0D218A468DF8F1
:1040300002104FF0000CB94600EB0C0712F80C8090
:1040400087F8038013F80C8087F8058014F80C803B
:1040500087F8078019F80C8087F8098015F80C801C
:1040600087F80B8016F80C800CF1010C87F80D8096
:10407000BCF1020FE0DB144A441860441278A270CD
:10408000C2716846C91CFFF777FDE07084F804A090
:104090000A2060716423132269465846FEF796FB96
:1040A000BDE8FF9F94000020240000200A000020AB
:1040B000A4000020B4000020C4000020D400002090
:1040C000E4000020CC4000083C00002055AA00007D
:1040D0000000E0400000C0400000000000009040F0
:1040E0000000C0400000C0400000000000000000D0
:1040F000010203040607080900000000010203048E
:1041000020410008000000205C000000563B000831
:104110007C4100085C000020DC050000663B0008D4
:10412000000000110000000000000000000000007E
:10413000000000000000000000000000000000007F
:10414000000000000000E0400000C040000000004F
:10415000000090400000C0400000C040000000008F
:10416000000000000000000000000000010000004E
:0C41700010000000000000000024F4001B
:040000050800018965
:00000001FF
