:020000040800F2
:100000000809002029020008832E00083929000869
:10001000812E00081F040008D936000800000000E7
:10002000000000000000000000000000872E000813
:100030002104000800000000852E0008892E000819
:10004000430200084302000843020008430200087C
:10005000430200084302000843020008430200086C
:10006000430200084302000843020008430200085C
:10007000430200084302000843020008430200084C
:10008000430200084302000843020008430200083C
:10009000430200084302000843020008430200082C
:1000A000430200082D2F0008430200084302000805
:1000B000392F0008452F0008512F0008430200087F
:1000C00043020008430200084302000843020008FC
:1000D00043020008C1360008CD360008430200087C
:1000E00043020008430200084302000843020008DC
:1000F00043020008430200084302000843020008CC
:1001000043020008430200085D2F00084302000874
:1001100043020008430200084302000843020008AB
:10012000430200084302000843020008430200089B
:10013000430200084302000843020008430200088B
:10014000430200084302000843020008430200087B
:10015000430200084302000843020008430200086B
:10016000430200084302000843020008430200085B
:100170004302000843020008430200080000000098
:10018000430200084302000800F002F800F03CF8C7
:100190000AA090E8000C82448344AAF10107DA45E2
:1001A00001D100F031F8AFF2090EBAE80F0013F0F8
:1001B000010F18BFFB1A43F00103184794350000E4
:1001C000B4350000103A24BF78C878C1FAD8520775
:1001D00024BF30C830C144BF04680C6070470000C1
:1001E0000023002400250026103A28BF78C1FBD840
:1001F000520728BF30C148BF0B6070471FB503F0DE
:1002000096FA1FBD10B510BD00F0CFF81146FFF7EC
:10021000F5FF03F073FA00F0EDF803B4FFF7F2FF17
:1002200003BC00F0F5F80000094880470948004782
:10023000FEE7FEE7FEE7FEE7FEE7FEE7FEE7FEE796
:10024000FEE7FEE704480549054A064B70470000F3
:100250001D2F00088901000808030020080900205C
:10026000080500200805002053EA020C00F0698010
:100270002DE9F04B4FF00006002B1FBFB3FA83F5BA
:1002800003FA05F424FA05F65E4012BF1643B2FAEB
:1002900082F502FA05F4C5F120051EBF22FA05FC1D
:1002A00044EA0C04203556EA044C4FEA144418BFC3
:1002B000641C4FF000084FF00009904271EB030CF2
:1002C00039D3002919BFB1FA81F701FA07F6B0FA5C
:1002D00080F700FA07F6C7F120071EBF20FA07FCD7
:1002E00046EA0C062037B6FBF4FCA7EB0507103FE7
:1002F00007F01F0BCBF120060CFA0BFB2CFA06F6CD
:1003000044BFB3460026202FA4BF5E464FF0000B2B
:100310005BEA060C08BF4FF0010B19EB0B09ABFBB6
:10032000027C48EB0608C01B06FB02CC0BFB03CC8F
:1003300071EB0C01C1E70B46024641464846BDE859
:10034000F08B13B54FF000004FF00001AFF30080C9
:10035000BDE81C4070474FF0000200B513469446BC
:100360009646203922BFA0E80C50A0E80C50B1F10D
:100370002001BFF4F7AF090728BFA0E80C5048BF21
:100380000CC05DF804EB890028BF40F8042B08BFBF
:10039000704748BF20F8022B11F0804F18BF00F8BB
:1003A000012B7047704770477047754600F02CF876
:1003B000AE4605006946534620F00700854618B052
:1003C00020B5FFF73FFFBDE820404FF000064FF09B
:1003D00000074FF000084FF0000B21F00701AC467A
:1003E000ACE8C009ACE8C009ACE8C009ACE8C00999
:1003F0008D46704710B50446AFF300802046BDE837
:100400001040FFF70ABF000000487047A402002018
:1004100001491820ABBEFEE7260002007047FEE748
:10042000704772B6FEE72DE9F0410446876D00F093
:1004300009FA064694F835000025022806D08020E7
:10044000606584F834500120BDE8F08120680168BF
:1004500021F0160101602068416921F080014161AD
:10046000206C08B9A06C20B12068016821F0080157
:1004700001602068016821F0010101600CE000F0DA
:10048000E1F9801B052807D920206065032084F846
:10049000350084F83450D7E720680068C007EED1F3
:1004A00094F85C103F208840B860012084F8350043
:1004B00084F834500020C7E790F83510022903D0A3
:1004C0008021416501207047052180F835100068C2
:1004D000016821F001010160002070472DE9F84F0B
:1004E000DFF888B20D46044658451BD0A048844228
:1004F00018D0A048844215D09F48844212D09F480B
:1005000084420FD09E4884420CD09E48844209D039
:100510009D48844206D09D48844203D0AC219CA0D3
:1005200003F0EBF828680104090C01D0000C03D09B
:10053000AD2197A003F0E1F86868F8B101281DD05B
:1005400011281BD0022819D0122817D0B0F5881F07
:1005500014D0B0F5041F11D0B0F5441F0ED0B0F583
:10056000901F0BD0B0F5081F08D0B0F5481F05D07C
:10057000032803D0AE2186A003F0BFF800264FF079
:10058000010A4FF0030900BF0AFA06F02F688046FF
:10059000074047457ED1287900F00300012801D0AB
:1005A00002281DD1E86848B1012807D0022805D0EB
:1005B000032803D0C02176A003F09FF8A168720041
:1005C00009FA02F08143E86890400843A06060683F
:1005D000297920EA0800C1F30011B14001436160AC
:1005E0002879C043800712D0A86838B1012805D007
:1005F000022803D0D12166A003F07FF8E1687200E1
:1006000009FA02F08143A86890400843E060287925
:1006100000F0030002282ED12869F8B109281DD066
:1006200001281BD0022819D0032817D0042815D080
:10063000052813D0062811D007280FD008280DD080
:100640000A280BD00B2809D00C2807D00D2805D07C
:100650000F2803D0DE214EA003F04FF8F00804EB82
:100660008002106A7107CB0E0F21994088432969D7
:100670009940014311622068720009FA02F188432F
:10068000297901F00301914001432160686810F469
:10069000403F00E063E062D04C48016841F4804193
:1006A0000160006826F0030100F480400090484893
:1006B0000A18D2F80808B1070B0F0F219940884398
:1006C0005C4501D1002123E029498C4201D101215F
:1006D0001EE028498C4201D1022119E026498C42B2
:1006E00001D1032114E025498C4201D104210FE0FE
:1006F00023498C4201D105210AE022498C4201D1D3
:10070000062105E020498C4201D1072100E00821A3
:1007100099400143C2F808182E4908686A68B8432E
:10072000D20200D5384308602A49091D08686A6862
:10073000B843920200D5384308602649091F08686B
:100740006A68B843920300D53843086021490839E4
:1007500008686A68B843D20300D538430860761C3D
:10076000102EFFF411AFBDE8F88F0000000002402A
:100770000004024000080240000C02400010024049
:100780000014024000180240001C024000200240F9
:100790002E2E2F447269766572732F53544D333267
:1007A000463478785F48414C5F4472697665722FB1
:1007B0005372632F73746D3332663478785F686177
:1007C0006C5F6770696F2E63000000004438024060
:1007D00000300140083C014070B515460C0006464B
:1007E00004D140F29D1108A002F087FF45B1012D10
:1007F00004D04FF4CF7104A002F07FFFB46170BD4C
:100800002004B06170BD00002E2E2F447269766501
:1008100072732F53544D3332463478785F48414CCD
:100820005F4472697665722F5372632F73746D33F0
:1008300032663478785F68616C5F6770696F2E63C9
:1008400000000000014880687047000000000020A0
:1008500070B504007DD08A49206888420AD0894951
:10086000884207D08849884204D040F2C91187A045
:1008700002F043FF60689349401E884204D94FF458
:10088000E57182A002F039FFA0684FF4804530B1D5
:10089000A84204D040F2CB117CA002F02EFFE06809
:1008A000800A04D04FF4E67178A002F026FF206998
:1008B000A84207D0B0F5404F04D040F2CD1173A04C
:1008C00002F01BFF606930B1012804D04FF4E771DA
:1008D0006EA002F012FFA06930F0FE0004D040F2DA
:1008E000CF116AA002F009FFE06930B1402804D0BE
:1008F0004FF4E87165A002F000FF206A30B1802853
:1009000004D040F2D11161A002F0F7FE94F83D004E
:10091000002520B984F83C50204600F0DDF8242062
:1009200084F83D002068016821F001010160206821
:10093000016841F4004101602068016821F4004130
:10094000016000F03FFB604A6168914202D85F4954
:1009500001E002E05E49884201D2012070BD5D499C
:100960002368B0FBF1F15E6826F03F060E435E603F
:100970006368934206D94FF4967359434FF47A73E0
:10098000B1FBF3F12368491C1E6A26F03F06314390
:1009900019626168914210D84900401EB0FBF1F223
:1009A000521CC2F30B02042A01D2042022E0B0FB45
:1009B000F1F0401CC0F30B001CE0A368F3B301EBA3
:1009C000C10202EB0116421EB2FBF6F2521C42F4C7
:1009D0008042120549D093B301EBC10202EB011131
:1009E000401EB0FBF1F0401CC0F30B0040F480400F
:1009F00040F400402168CA694CF6FF739A431043E3
:100A0000C861D4E9071001432068026822F0C002DF
:100A100011430160D4E9030101432068826848F270
:100A2000FF339A4311438160D4E9050108432168EB
:100A3000CA6822F0FF021043C86001E00EE016E031
:100A40002068016841F0010101602564202084F8DC
:100A50003D00256384F83E50002070BD01EB410647
:100A6000421EB2FBF6F2521CB3E70120C2E701EBD3
:100A70004101401EB0FBF1F0401CC0F30B00B7E792
:100A80000054004000580040005C00402E2E2F44CF
:100A90007269766572732F53544D333246347878C9
:100AA0005F48414C5F4472697665722F5372632FC1
:100AB00073746D3332663478785F68616C5F693265
:100AC000632E63007F1A0600A086010080841E004A
:100AD00000093D0040420F0010B586B004461421C5
:100AE0006846FFF738FC13492068884220D1124835
:100AF0000021026842F002020260006800F0020079
:100B00000590C02000901220CDE901010320039040
:100B10000420049069460948FFF7E0FC06481030BD
:100B2000016841F400110160006800F400100590B4
:100B300006B010BD005400403038024000040240AE
:100B400002488168027811448160704700000020EB
:100B50000B4810B5016841F400710160016841F46F
:100B600080610160016841F480710160032000F040
:100B7000C3F80F2000F006F800F024F8002010BDA4
:100B8000003C024070B50D4D04464FF47A71287850
:100B9000B1FBF0F00A490968B1FBF0F000F0B6FCD7
:100BA00048B9102C07D200222146501E00F054F8FC
:100BB00000206C6070BD012070BD000000000020AE
:100BC0000C0000200A4808B5016841F4804101602A
:100BD000006800F4804000900548001F016841F063
:100BE00080510160006800F08050009008BD000056
:100BF0004438024010B5040003D5BC2107A002F020
:100C00007CFD002C09DB04F01F01012088406109F4
:100C1000890001F1E021C1F8000110BD2E2E2F4402
:100C20007269766572732F53544D33324634787837
:100C30005F48414C5F4472697665722F5372632F2F
:100C400073746D3332663478785F68616C5F636F9C
:100C5000727465782E63000070B515460C46064622
:100C6000102A03D3A82114A002F047FD102C03D3AF
:100C7000A92111A002F041FD1E480068C0F3022323
:100C8000C3F107022046042A00D90422191D0729AE
:100C900001D2002300E0DB1E012404FA02F1491E08
:100CA000014099409C40641E2C4021433046BDE8E1
:100CB000704002F012BD00002E2E2F44726976653E
:100CC00072732F53544D3332463478785F48414C19
:100CD0005F4472697665722F5372632F73746D333C
:100CE00032663478785F68616C5F636F72746578C0
:100CF0002E6300000CED00E010B5044607280BD071
:100D0000062C09D0052C07D0042C05D0032C03D0C9
:100D1000902108A002F0F1FC154904F007020868D0
:100D20004FF6FF03184040EA0220124A10430860C1
:100D300010BD00002E2E2F447269766572732F53FA
:100D4000544D3332463478785F48414C5F44726981
:100D50007665722F5372632F73746D3332663478F5
:100D6000785F68616C5F636F727465782E630000F2
:100D70000CED00E00000FA052DE9F0470E460400F6
:100D80007DD02068401E0E2804D940F25A217AA056
:100D900002F0B3FC96B1012E10D0022E0ED0032E1D
:100DA0000CD0042E0AD0052E08D0062E06D0072E11
:100DB00004D040F25B2170A002F09FFCDFF8F081CC
:100DC000D8F80000F7B200F00700B04207D288F868
:100DD0000070D8F8000000F00700B0424FD1206842
:100DE000744D810729D5400703D5286840F4E050A9
:100DF00028602078000703D5286840F46040286008
:100E0000A068A0B1802812D0902810D0A0280ED0C1
:100E1000B0280CD0C0280AD0D02808D0E02806D0AE
:100E2000F02804D040F27E2153A002F066FC28682E
:100E3000A16820F0F000084328602078C00743D064
:100E4000DFF870916068A9F1080988B1012822D003
:100E5000022824D0032822D040F2852146A002F0A7
:100E60004CFC6068012816D0022818D0032816D040
:100E7000D9F800008007002833DA286800E030E065
:100E8000616820F0030008432860FFF7DBFC81461F
:100E900041F2883A11E0D9F800008003EBE7D9F875
:100EA00000008001E7E700BFFFF7CCFCA0EB0901E1
:100EB000514502D90320BDE8F0872868616800F039
:100EC0000C00B0EB810FEFD1D8F80010404601F0D4
:100ED0000701B14207D90770006800F00700B0426F
:100EE00001D00120E7E720784FF4805640074FF407
:100EF000A0574FF4C0584FF4E05914D5E06860B1E2
:100F0000B0420AD0B84208D0404506D0484504D087
:100F100040F2C32118A002F0F0FB2868E16820F439
:100F2000E050084328602078000715D5206960B19B
:100F3000B0420AD0B84208D0404506D0484504D057
:100F400040F2CA210CA002F0D8FB2868216920F4E5
:100F5000604040EAC100286000F054F82968164A51
:100F6000C1F30311515CC84014490860144800687B
:100F7000FFF708FE00209EE72E2E2F44726976654B
:100F800072732F53544D3332463478785F48414C56
:100F90005F4472697665722F5372632F73746D3379
:100FA00032663478785F68616C5F7263632E6300C9
:100FB000003C024008380240383700080C0000208E
:100FC000040000200448054900680968044AC1F388
:100FD0008221515CC84070470C0000200838024054
:100FE000483700080448054900680968044AC1F305
:100FF0004231515CC84070470C0000200838024064
:1010000048370008154810B5006810F00C02144865
:1010100013D04110042A0FD0082A0ED10F4C241FE0
:101020002268236802F03F025B0207D52068C0F304
:101030008810A0FB010106E0084610BD2168C1F33D
:101040008811A1FB00010023FFF70EF92168C1F30D
:101050000141491C4900B0FBF1F010BD08380240C5
:101060000024F4002DE9F84F04007DD020680F28FB
:1010700003D9E621F7A002F040FB2078DFF80C94BA
:10108000C007A9F1040555D060684FF480364FF4CD
:10109000A02738B1B04205D0B84203D0EB21EDA073
:1010A00002F02BFBF948001D0168C1F38101012901
:1010B00008D00068C0F3810002280AD1D9F80000E6
:1010C000400206D52868800334D560680028CCD05B
:1010D00030E06068B04203D1286840F480300CE012
:1010E000B842286803D140F480202860F4E720F457
:1010F00080302860286820F480202860606860B113
:10110000FFF7A0FB064604E0FFF79CFB801B64286A
:101110007ED828688003F7D50CE0FFF793FB0646DE
:1011200005E000BFFFF78EFB801B6428F0D828681D
:101130008003F7D42078DFF8588380074FF0000A47
:1011400056D5E06830B1012804D040F21D11C1A08D
:1011500002F0D3FA20691F2804D94FF48F71BDA083
:1011600002F0CBFAC94800E092E0001D016811F0DE
:101170000C0F08D00068C0F38100022810D1D9F804
:10118000000040020CD42868800702D5E0680128DE
:101190007ED12868216920F0F80040EAC10017E0FC
:1011A000E068B8B10120C8F80000FFF74BFB064625
:1011B00005E000BFFFF746FB801B0228A8D828687F
:1011C0008007F7D5286820F0F801206941EAC000BF
:1011D00028600DE0C8F800A0FFF734FB064604E0E5
:1011E000FFF730FB801B022892D828688007F7D4CD
:1011F000207800072ED5A54EA64F60697036D0B175
:10120000012808D04FF4AF7192A002F076FA00E006
:101210004BE1606978B101203860FFF713FB0746A6
:1012200005E000BFFFF70EFBC01B0228C6D83068E0
:101230008007F7D50EE0C7F800A0FFF703FB0746CD
:1012400005E000BFFFF7FEFAC01B0228B6D83068E1
:101250008007F7D42078400776D5A068002740B1F2
:10126000012806D0052804D04FF4C57179A002F0FA
:1012700044FADFF818B20BF13C0BDBF80000C000B9
:101280000DD4DBF8001041F08051CBF8001000E0E5
:1012900038E1DBF80000012700F0805000907E4E1E
:1012A0003068C00511D4306840F480703060FFF7BA
:1012B000C9FA009006E000BFFFF7C4FA0099401A8F
:1012C000022891D83068C005F6D5704EA0686C36FB
:1012D00001280FD00528306810D020F001003060C0
:1012E000306820F004003060A068B8B1FFF7AAFAB7
:1012F00000900FE0306840F00100F4E740F0040097
:101300003060F7E7FFF79EFA0099411A41F2883002
:1013100081428BD830688007F4D50EE0FFF792FA4F
:10132000009007E0FFF78EFA0099411A41F28830E9
:1013300081428BD830688007F4D42FB1DBF80010DD
:1013400021F08051CBF80010A069002876D0012848
:1013500009D0022807D040F2CD113EA002F0CDF90D
:10136000A0690028F2D04948001D0068C0F3810040
:101370000228A0696DD0022805D0C8F860A0FFF748
:1013800061FA044694E0E06938B1B0F5800F04D00A
:101390004FF4EB712FA002F0B0F9206A801E3D28B7
:1013A00004D940F2D7112BA002F0A7F9606A3238B5
:1013B000B0F5BF7F04D94FF4EC7126A002F09DF97F
:1013C000A06A02280AD0042808D0062806D00828D7
:1013D00004D040F2D9111FA002F08FF9E06A801EFC
:1013E0000D2804D94FF4ED711AA002F086F9474692
:1013F000C8F860A0FFF726FA064604E0FFF722FAD5
:10140000801B022851D828688001F7D4D4E907014D
:101410000843A16A214A490802EB0141626A41EA94
:101420008211084394F82C1040EA0161C9F80010B9
:1014300001203866FFF706FA044606E064E000BFC4
:10144000FFF700FA001B02282FD828688001F7D583
:101450005AE031E02E2E2F447269766572732F5355
:10146000544D3332463478785F48414C5F4472695A
:101470007665722F5372632F73746D3332663478CE
:10148000785F68616C5F7263632E630004380240AA
:1014900000004742800E4742007000400000FFFFFE
:1014A000FFF7D0F9001B022802D90320BDE8F88F0E
:1014B00028688001F4D427E00128F7D0D9F800008B
:1014C000E26900F4800191421CD1226A00F03F01E0
:1014D000914217D147F6C071626A0140B1EB821F99
:1014E00010D1A26A4FF0FF3300F4403103EB5202F7
:1014F000B1EB024F06D194F82C1000F07060B0EB05
:10150000016F01D00120D1E70020CFE710B5401EC8
:10151000B0F1807F01D3012010BD4FF0E024606165
:101520000F21601702F0D9F80020A0610720206188
:10153000002010BD7047704770B50C460546006826
:101540003E49884207D03E49884204D040F2E671C5
:101550003CA002F0D2F82068B0F5006F05D020B1B1
:1015600040F2E77137A002F0C8F86068B0F5806F0C
:1015700005D020B14FF4FD6132A002F0BEF8A068A2
:1015800068B1B0F5807F0AD0B0F5007F07D0B0F524
:10159000407F04D040F2E9712AA002F0AEF8E06882
:1015A000FF2804D940F2EA7126A002F0A6F82069CB
:1015B000B0F5805F05D020B140F2EB7121A002F0C0
:1015C0009CF8606938B1B0F5005F04D040F2EC716E
:1015D0001CA002F092F8E069B0F5804F05D020B170
:1015E00040F2ED7117A002F088F895F83C00012850
:1015F00022D0012085F83C00E068A26820F4407009
:101600001043626820F480601043226820F4006078
:101610001043226920F480501043626920F4005086
:101620001043E269002120F4804010432A6850648E
:1016300085F83C10002070BD022070BD0000014004
:10164000000401402E2E2F447269766572732F5369
:10165000544D3332463478785F48414C5F44726968
:101660007665722F5372632F73746D3332663478DC
:10167000785F68616C5F74696D5F65782E630000E8
:101680002DE9F05F044600683A4E3B4FDFF8EC80EE
:10169000DFF8EC90DFF8ECA00D464FF0804BB04245
:1016A00015D0584513D0B84211D040450FD0484509
:1016B0000DD04FEAB641884209D03349884206D05E
:1016C000504504D040F2A97130A002F016F8286805
:1016D00090B1102810D020280ED030280CD04028EF
:1016E0000AD0502808D0602806D0702804D040F2D4
:1016F000AA7126A002F001F86868802805D020B100
:1017000040F2AB7121A001F0F8FF94F83C000128F1
:101710002DD0012284F83C20022084F83D0021686D
:1017200048688B6820F0700C286840EA0C0048601C
:101730002068B0420FD058450DD0B8420BD040457C
:1017400009D0484507D0504505D01F49884202D0EE
:101750001E49884204D1696823F0800319438160DF
:1017600084F83D20002084F83C00BDE8F09F022072
:10177000FBE70000000001400004004000080040BA
:10178000000C004000040140001400402E2E2F44A5
:101790007269766572732F53544D333246347878BC
:1017A0005F48414C5F4472697665722F5372632FB4
:1017B00073746D3332663478785F68616C5F746916
:1017C0006D5F65782E630000004001400018004006
:1017D00070B5040057D0484920688E03474D8842B1
:1017E00029D0B04227D04649884224D04549884272
:1017F00021D0A8421FD0444988421CD04349884286
:1018000019D04349884216D04249884213D04249F0
:10181000884210D0414988420DD0414988420AD0BF
:101820004049884207D04049884204D040F2131111
:101830003EA001F062FFA06860B110280AD0202805
:1018400008D0402806D0602804D04FF48A7137A011
:1018500001F053FF206950B1B0F5807F07D0B0F59B
:10186000007F04D040F2151130A001F046FF20683F
:10187000B0420AD0A84208D0E0684FF6FE71401E80
:10188000884209D903E0012070BDE06820B94FF417
:101890008B7126A001F031FFA06930B1802804D0FF
:1018A00040F2171121A001F028FF94F83D0028B95B
:1018B000002084F83C00204600F054F8022084F810
:1018C0003D00211D206801F04FFB012084F84600F7
:1018D00084F83E0084F83F0084F8400084F841001A
:1018E00084F8420084F8430084F8440084F84500FA
:1018F00084F83D00002070BD00000140000C004055
:1019000000040040000800400010004000140040A7
:1019100000040140004001400044014000480140F3
:1019200000180040001C0040002000402E2E2F44D4
:101930007269766572732F53544D3332463478781A
:101940005F48414C5F4472697665722F5372632F12
:1019500073746D3332663478785F68616C5F746974
:101960006D2E630008B50168354881420FD13548B6
:10197000016841F0010101600068002200F00100EF
:10198000009011461920FFF767F9192048E02D480B
:10199000001FB1F1804F11D02B4A91421DD1016837
:1019A00041F0020101600068002200F00200009096
:1019B00011461D20FFF750F91D2031E0016841F06C
:1019C000010101600068002200F001000090114652
:1019D0001C20FFF741F91C2022E01C4A91420ED145
:1019E000016841F0040101600068002200F0040079
:1019F000009011461E20FFF72FF91E2010E0144A18
:101A0000914211D1016841F0080101600068002293
:101A100000F00800009011463220FFF71DF9322037
:101A2000BDE80840FFF7E6B80A4A914207D10168CD
:101A300041F010010160006800F01000009008BD46
:101A4000000001404438024000040040000800400B
:101A5000000C0040001000402DE9F84F0546002022
:101A6000009095F83C000C46012841D0012085F8F3
:101A70003C00022085F83D0020684FF4805B58450B
:101A800016D0702814D0B0F5005F11D040280FD0C8
:101A900050280DD060280BD050B1102808D0202835
:101AA00006D0302804D041F2C341D4A001F025FE75
:101AB0002868816821F0770121F47F4181602068E6
:101AC000DC49DD4ADD4BDE4EDE4FDFF87CC3DFF85C
:101AD0007C834FF080494FF4004A50287ED00FDCC1
:101AE000202804D007DC0028FBD0102877D161E142
:101AF0000220BDE8F88F3028F9D04028F6D126E141
:101B000060286DD0702874D0584544D04FF40058E8
:101B10004045EBD1286888420ED048450CD0904211
:101B20000AD0984208D0B04206D0B84204D041F260
:101B3000EE41B2A001F0E1FDA06858B1584509D0CE
:101B4000404507D0B0F5405F04D041F2F141ABA071
:101B500001F0D3FD6068504509D040B1022806D09D
:101B60000A2804D041F2F241A4A001F0C6FDE068C9
:101B70000F2804D941F2F341A0A001F0BEFDD4E941
:101B80000121E368286801F057FA2868816841F468
:101B90008041816029E128688842FBD04845F9D01E
:101BA0009042F7D09842F5D0B042F3D0A84988428D
:101BB000F0D0A8498842EDD0B842EBD06045E9D0DA
:101BC000A5498842E6D0A5498842E3D04045E1D006
:101BD000A3498842DED0A349884203E04FE002E1F6
:101BE00080E006E0D6D041F2CF4184A001F085FD2F
:101BF000FBE02868884212D0484510D090420ED0B1
:101C000098420CD0B0420AD0B84208D0604506D005
:101C1000404504D041F2D64178A001F06EFDA068A5
:101C200060B158450AD0B0F5005F07D0B0F5405F0D
:101C300004D041F2D94171A001F05FFD60685045C8
:101C400009D040B1022806D00A2804D041F2DA4176
:101C50006AA001F052FDE0680F2804D941F2DB418F
:101C600066A001F04AFDD4E90121E368286801F08B
:101C7000E3F92968886840F077008860B5E0286853
:101C8000884212D0484510D090420ED098420CD0D5
:101C9000B0420AD0B84208D0604506D0404504D0D2
:101CA00041F2025155A001F028FD6068504509D06D
:101CB00040B1022806D00A2804D041F205514FA0B5
:101CC00001F01BFDE0680F2804D941F206514BA03A
:101CD00001F013FDE2686168286801F06FFB502194
:101CE000286831E02868884212D0484510D09042D8
:101CF0000ED098420CD0B0420AD0B84208D060450D
:101D000006D0404504D041F212513CA001F0F5FC50
:101D10006068504509D040B1022806D00A2804D096
:101D200041F2155135A001F0E8FCE0680F2804D914
:101D300041F2165131A001F0E0FCE26861682868C8
:101D400001F04DFB6021286801F080F94DE0286822
:101D5000884212D0484510D090420ED098420CD004
:101D6000B0420AD0B84208D0604506D0404504D001
:101D700041F2225121A001F0C0FC6068504509D019
:101D800040B1022806D00A2804D041F225511BA0F8
:101D900001F0B3FCE0680F2804D941F2265117A0E6
:101DA00001F0ABFCE2686168286801F007FB4021A4
:101DB0002868C9E72868884212D0484510D0904268
:101DC0000ED098420CD0B0420AD0B84208D060453C
:101DD00006D0404504D041F2355108A001F08DFCF9
:101DE00021682868B0E701200090012085F83D00B7
:101DF000002085F83C0000987BE600002E2E2F4442
:101E00007269766572732F53544D33324634787845
:101E10005F48414C5F4472697665722F5372632F3D
:101E200073746D3332663478785F68616C5F74699F
:101E30006D2E6300000001400004004000080040D7
:101E4000000C004000040140004001400018004028
:101E500000100040001400400044014000480140D0
:101E6000001C00400020004070472DE9F04104466E
:101E70000068C66805694FF00007A90713D5B107C8
:101E800011D5F91E01610120207720688069800743
:101E9000204602D0FFF7E8FF04E000F0FBF8204600
:101EA00000F0F9FA2777680716D5700714D521686E
:101EB0006FF004000861022020772068806910F428
:101EC000407F204602D0FFF7CFFF04E000F0E2F8A9
:101ED000204600F0E0FA2777280715D5300713D5FC
:101EE00021686FF008000861042020772068C0692D
:101EF0008007204602D0FFF7B7FF04E000F0CAF8E1
:101F0000204600F0C8FA2777E80616D5F00614D563
:101F100021686FF010000861082020772068C069F0
:101F200010F4407F204602D0FFF79EFF04E000F04F
:101F3000B1F8204600F0AFFA2777E80708D0F0079D
:101F400006D021686FF001000861204600F0A4FA75
:101F5000280608D5300606D521686FF08000086194
:101F60002046FFF7E7FA680608D5700606D521680F
:101F70006FF040000861204600F08FFAA8060AD5ED
:101F8000B00608D521686FF0200008612046BDE842
:101F9000F041FFF7D0BABDE8F081000070B586B01F
:101FA000044614216846FEF7D6F924683148002219
:101FB00031490223012584420ED1086840F0100007
:101FC0000860086800F01000059048150090CDE901
:101FD00001326946294821E02948B4F1804F10D0E8
:101FE000284EB44220D10C6844F001040C6009680A
:101FF00001F00101059140210091CDE901326946CE
:1020000023E00C6844F001040C60096801F0010150
:10201000059120210091CDE901326946CDE90325E2
:10202000FEF75CFA06B070BD174EB44210D10868D6
:1020300040F0080008600868694600F00800059054
:10204000A0140090CDE901321048CDE90323E7E761
:102050000F4EB442E6D10C6844F001040C600968EC
:102060000095CDE9013201F00101CDE9043103927F
:102070006946D5E7000001403038024000100240B8
:10208000000002400004004000080040000C024034
:10209000000C0040704700002DE9F05F16000D466F
:1020A00004464FF000090CD0042E0AD0082E08D0A8
:1020B0000C2E06D03C2E04D041F2820177A001F014
:1020C0001CFB2868602806D0702804D041F28301E8
:1020D00072A001F012FBA86830B1022804D041F2CE
:1020E00084016EA001F009FB286930B1042804D0F6
:1020F00041F2850169A001F000FB94F83C00012841
:102100001CD001207349744A744B754FDFF8D4C159
:10211000DFF8D4A1DFF8D4B184F83C004FF0804858
:1021200076B1042E41D0082E6AD00C2E7DD0814687
:10213000002084F83C004846BDE8F09F0220FBE701
:10214000206888421ED040451CD090421AD0984248
:1021500018D0B84216D0604514D0504512D064490A
:1021600088420FD0634988420CD058450AD0624952
:10217000884207D06149884204D041F28F0147A0CC
:1021800001F0BBFA2946206800F068FF20688169E9
:1021900041F0080181612068816921F004018161B9
:1021A000206881692A69114328E02068884212D09A
:1021B000404510D090420ED098420CD0B8420AD080
:1021C000604508D0504506D0584504D04FF485519D
:1021D00032A001F092FA2946206800F0B1FF206891
:1021E000816941F4006181612068816921F4806125
:1021F0008161206881692A6941EA0221816197E74A
:10220000206888420ED040450CD090420AD09842B7
:1022100008D0B84206D0604504D041F2B1011FA0F9
:1022200001F06BFA2946206800E010E000F0FEFFA4
:102230002068C16941F00801C1612068C16921F0CD
:102240000401C1612068C1692A69114324E0206842
:1022500088420ED040450CD090420AD0984208D017
:10226000B84206D0604504D041F2C2010BA001F093
:1022700044FA2946206801F04FF82068C16941F40A
:102280000061C1612068C16921F48061C161206879
:10229000C1692A6941EA0221C16149E72E2E2F4412
:1022A0007269766572732F53544D333246347878A1
:1022B0005F48414C5F4472697665722F5372632F99
:1022C00073746D3332663478785F68616C5F7469FB
:1022D0006D2E630000000140000400400008004033
:1022E000000C004000040140004001400018004084
:1022F0000044014000480140001C00400020004014
:1023000070B5040057D0484920688E03474D884275
:1023100029D0B04227D04649884224D04549884236
:1023200021D0A8421FD0444988421CD0434988424A
:1023300019D04349884216D04249884213D04249B5
:10234000884210D0414988420DD0414988420AD084
:102350004049884207D04049884204D040F22C517D
:102360003EA001F0CAF9A06860B110280AD0202868
:1023700008D0402806D0602804D040F22D5137A064
:1023800001F0BBF9206950B1B0F5807F07D0B0F5FE
:10239000007F04D040F22E5130A001F0AEF9206849
:1023A000B0420AD0A84208D0E0684FF6FE71401E45
:1023B000884209D903E0012070BDE06820B940F2ED
:1023C0002F5126A001F099F9A06930B1802804D0DE
:1023D0004FF4A66121A001F090F994F83D0028B9CE
:1023E000002084F83C00204600F054F8022084F8D5
:1023F0003D00211D206800F0B7FD012084F8460053
:1024000084F83E0084F83F0084F8400084F84100DE
:1024100084F8420084F8430084F8440084F84500BE
:1024200084F83D00002070BD00000140000C004019
:10243000000400400008004000100040001400406C
:1024400000040140004001400044014000480140B8
:1024500000180040001C0040002000402E2E2F4499
:102460007269766572732F53544D333246347878DF
:102470005F48414C5F4472697665722F5372632FD7
:1024800073746D3332663478785F68616C5F746939
:102490006D2E6300704770477047704770477047F4
:1024A000F8B5016804460868CA684B6910F00F0F58
:1024B0004FF0000559D003F0010602F4907737433E
:1024C00065D0C10705D0D10503D5616C41F001018C
:1024D0006164410705D5D90703D0616C41F0020161
:1024E0006164810705D5D90703D0616C41F004010F
:1024F0006164010707D502F02001314303D0616C0C
:1025000041F008016164616C00293AD0800604D56D
:10251000900602D5204600F0A2FF20684069616C59
:10252000C0F38010090700D460B3204600F070FFAC
:1025300020684069400621D52068143050E8001F0B
:1025400021F0400140E80012002AF5D1E06BA8B16B
:1025500072490165E06BFDF7AFFF002811D0E06B19
:10256000016D01B0BDE8F040084783060FD5930622
:102570000DD52046BDE8F84000F071BF2046FFF7BA
:102580008EFFF8BD2046FFF78AFF6564F8BD266B15
:102590002023012E7ED1C6067CD5D6067AD50868C2
:1025A0004868009048694FF0020640064DD5E26B3E
:1025B000106840684FF480770004000C3AD0A18D79
:1025C000814237D9E085D069B8422DD020680C30DF
:1025D00050E8001F21F4807140E80012002AF5D174
:1025E0002068143050E8001F21F0010140E800127B
:1025F000002AF5D12068143050E8001F21F0400176
:1026000040E80012002AF5D184F8423025632068A2
:102610000C3050E8001F21F0100140E80012002AA1
:10262000F5D1E06BFDF7FFFE6663A08DE18D401AEA
:1026300081B206E0A18D8142A8D1D069B842A5D16E
:1026400066632046FFF72AFFF8BDA08DE18D401A92
:1026500081B2E08D0028F7D00029F5D020680C3039
:1026600050E8002F22F4907240E80027002FF5D1A7
:102670002068143050E8002F22F0010240E80027C3
:10268000002FF5D184F84230256320680C3050E8E3
:10269000002F00E006E022F0100240E80023002BAB
:1026A000F3D1CDE705062BD5150629D594F84100C1
:1026B0002128C9D1A068B0F5805F01D12069B0B1EF
:1026C000206A411C2162216800784860E08C401E2D
:1026D0000004000CE084B7D12068C16821F08001BB
:1026E000C1602068C16841F04001C160F8BD206A46
:1026F0000088C0F308004860206A801C2062E5E77B
:102700004006F3D55006F1D5CA68204622F04002B3
:10271000CA6084F8413000F00EF9F8BD03340008B7
:1027200070B5040023D0A0693B4900283B4A3C4BCC
:102730003C4D20681DD088420CD090420AD098426F
:1027400008D0A84206D040F2731137A000F0D5FFA0
:10275000A06908B3A069B0F5807F1DD0B0F5007FF7
:102760001AD0B0F5407F17D04FF4BA7111E00120B4
:1027700070BD884210D090420ED098420CD039499A
:10278000884209D03849884206D0A84204D04FF484
:10279000BC7125A000F0B1FFA06838B1B0F5805F32
:1027A00004D04FF4BD7120A000F0A7FFE06938B15C
:1027B000B0F5004F04D040F27B111BA000F09DFF4C
:1027C00094F84100002520B984F84050204600F0DC
:1027D0004DF8242084F841002068C16821F400519C
:1027E000C160204600F09CFE2068016921F4904100
:1027F00001612068416921F02A0141612068C168B6
:1028000041F40051C1606564202084F8410084F8DF
:1028100042006563002070BD00100140004400408C
:1028200000480040001401402E2E2F447269766546
:1028300072732F53544D3332463478785F48414C8D
:102840005F4472697665722F5372632F73746D33B0
:1028500032663478785F68616C5F756172742E637C
:1028600000000000004C004000500040F0B587B070
:10287000044614216846FDF76EFD2A4F23680022A6
:1028800029490224032507262848BB4221D1264B8B
:1028900014331F6847F010071F601B6803F0100314
:1028A00005930B6843F001030B60096802AB01F06C
:1028B000010105916902CDE9001483E864006946CD
:1028C000FDF70CFE002211462520FEF7C5F9252054
:1028D00023E0174FBB4222D1134B10331F6847F43C
:1028E00000371F601B6803F4003305930B6843F047
:1028F00001030B60096802AB01F0010105910C2195
:10290000CDE9001483E864006946FDF7E7FD002285
:1029100011462620FEF7A0F92620FEF76BF907B036
:10292000F0BD0000001001403038024000000240BD
:102930000044004070477047FEE700002DE9F04377
:1029400087B014216846FDF706FD38480024016869
:1029500041F080010160016801F08001059101688A
:1029600041F001010160016801F001010591016878
:1029700041F010010160016801F01001059101684A
:1029800041F008010160016801F00801059101684A
:1029900041F040010160016801F0400105910168CA
:1029A00041F0020101600068214F00F00200059033
:1029B00000224FF440413846FDF70EFFDFF87480E7
:1029C0004FF44E76002231464046FDF705FFDFF812
:1029D0006890012203214846FDF7FEFE01254FF4D1
:1029E0008040CDE90005CDE9025469463846FDF73F
:1029F00075FDE8030090CDE901546946384603941B
:102A0000FDF76CFD0096CDE90154694640460394FC
:102A1000FDF764FD03200090CDE901546946484666
:102A20000394FDF75BFD07B0BDE8F083303802404A
:102A30000018024000040240001002400D4810B58A
:102A40000B4901600C49416000214FF480428160D4
:102A5000C0E9031241618161C1610162FDF7F8FEC5
:102A6000002803D0BDE81040FDF7DBBC10BD00001E
:102A70000054004010000020801A060010B596B0E7
:102A800000240F9410941194129413941C2108A8FC
:102A90001494FDF760FC20216846FDF75CFC2A4891
:102AA0002849016040F22B11C0E9011441F61F4191
:102AB000C0E9031444618461FEF78AFE08B1FDF7A2
:102AC000B0FC4FF480500F900FA91F48FEF7C4FFD1
:102AD00008B1FDF7A6FC1C48FFF712FC08B1FDF792
:102AE000A0FC139413A918481494FEF7C9FD08B16B
:102AF000FDF797FC6020089040F60F60CDE90904CF
:102B00000B940C940D94002208A90F480E94FFF723
:102B1000C3FA08B1FDF785FC00944FF40050CDE9ED
:102B20000440029401940394694607480794FEF711
:102B300003FD08B1FDF775FC0348FFF72FFA16B047
:102B400010BD0000000001406400002010B58EB0F0
:102B500000240794089409940A940B941C21684655
:102B60000C94FDF7F8FB1F484FF08041016040F2E4
:102B70002B11C0E9011441F61F41C0E9031484611F
:102B8000FEF726FE08B1FDF74CFC4FF4805007908D
:102B900007A91448FEF760FF08B1FDF742FC114891
:102BA000FFF7AEFB08B1FDF73CFC0B940BA90D48F9
:102BB0000C94FEF765FD08B1FDF733FC6020009032
:102BC00040F60F60CDE901040022694605480494EF
:102BD000FFF762FA08B1FDF724FC0248FFF7DEF9BF
:102BE0000EB010BDAC00002010B58EB000240794CC
:102BF000089409940A940B941C2168460C94FDF7E0
:102C0000AAFB20481E49016040F22B11C0E90114C3
:102C100041F61F41C0E903148461FEF7D9FD08B1F4
:102C2000FDF7FFFB4FF48050079007A91548FEF70A
:102C300013FF08B1FDF7F5FB1248FFF761FB08B180
:102C4000FDF7EFFB0B940BA90E480C94FEF718FD53
:102C500008B1FDF7E6FB6020009040F60F60CDE97B
:102C600001040022694607480494FFF715FA08B1E9
:102C7000FDF7D7FB0348FFF791F90EB010BD000038
:102C800000040040F400002010B58EB0002407942A
:102C9000089409940A940B941C2168460C94FDF73F
:102CA0005AFB20481E49016040F22B11C0E9011473
:102CB00041F61F41C0E903148461FEF789FD08B1A4
:102CC000FDF7AFFB4FF48050079007A91548FEF7BA
:102CD000C3FE08B1FDF7A5FB1248FFF711FB08B1D1
:102CE000FDF79FFB0B940BA90E480C94FEF7C8FC54
:102CF00008B1FDF796FB6020009040F60F60CDE92B
:102D000001040022694607480494FFF7C5F908B199
:102D1000FDF787FB0348FFF741F90EB010BD000037
:102D2000000800403C01002010B58EB0002407943C
:102D3000089409940A940B941C2168460C94FDF79E
:102D40000AFB20481E49016040F22B11C0E9011422
:102D500041F61F41C0E903148461FEF739FD08B153
:102D6000FDF75FFB4FF48050079007A91548FEF769
:102D700073FE08B1FDF755FB1248FFF7C1FA08B121
:102D8000FDF74FFB0B940BA90E480C94FEF778FC53
:102D900008B1FDF746FB6020009040F60F60CDE9DA
:102DA00001040022694607480494FFF775F908B149
:102DB000FDF737FB0348FFF7F1F80EB010BD000038
:102DC000000C0040840100201CB500240F48009432
:102DD0000D49019401604FF4E151C0E901140A2149
:102DE000C16080218161FEF7F3FC08B1FDF719FB9A
:102DF0000094694605480194FEF742FC002801D082
:102E0000FDF70FFB1CBD000000100040CC010020AE
:102E10000C4810B50A4901604FF4E13141600021CE
:102E200081600C22C160C0E904128161C161FFF7B9
:102E300077FC002803D0BDE81040FDF7F2BA10BDC2
:102E400000100140140200200C4810B50A4901602E
:102E50004FF4E1314160002181600C22C160C0E982
:102E600004128161C161FFF75BFC002803D0BDE85B
:102E70001040FDF7D6BA10BD004400405C020020AF
:102E8000FEE7FEE770477047FDF75ABE30B593B0D6
:102E900030216846FDF75FFA14210CA8FDF75BFAB4
:102EA0001C480025016841F080510160006800F075
:102EB000805011901848016841F480410160006819
:102EC000022400F480401190012000900004019041
:102ED0008001CDE9064008AA0420482182E81300B9
:102EE0000B906846FEF7BEF808B172B6FEE70CA973
:102EF0000F2081E831004FF48050CDE90F05022109
:102F00000CA8FDF739FF002801D072B6FEE713B018
:102F100030BD0000403802400070004002480168A7
:102F200041F470010160704788ED00E00148FEF750
:102F30009CBF0000640000200148FEF796BF00001F
:102F4000AC0000200148FEF790BF0000F400002014
:102F50000148FEF78ABF00003C0100200148FEF74F
:102F600084BF000084010020F0B50268274B284D83
:102F7000284E294F294C4FF0804C984209D060458B
:102F800007D0A84205D0B04203D0B84201D0A04239
:102F900004D122F0700E4A6842EA0E0298421BD019
:102FA000604519D0A84217D0B04215D0B84213D00E
:102FB000A04211D01A4DA8420ED01A4DA8420BD0F3
:102FC000194DA84208D0194DA84205D0184DA84265
:102FD00002D0184DA84203D122F44075CA682A4392
:102FE0004D6922F080022A438D68C5620D688562B2
:102FF000984201D0A04201D109690163016841F002
:1030000004010160012141610260F0BD0000014046
:103010000004004000080040000C00400004014093
:1030200000400140004401400048014000180040B9
:10303000001C00400020004010B5846842EA0322D2
:1030400024F47F440A432243826010BD826822F048
:1030500070020A4342F00701816070472DE9F04792
:103060000446006A0D46216A21F001012162676869
:10307000A169AE6821F07302296820F00200DFF830
:1030800080900643DFF87CA041EA02084C4501D05D
:1030900054450ED1E86830B1082804D041F6CD215E
:1030A00019A000F02AFBE86826F00801084320F088
:1030B00004064C4501D0544519D1A869B0F5007FEC
:1030C00005D020B141F6DA210FA000F016FB6869A7
:1030D000B0F5807F05D020B141F6DB210AA000F0D9
:1030E0000CFB27F440716869AF69084307436760C8
:1030F000C4F81880686860632662BDE8F087000045
:1031000000000140000401402E2E2F4472697665B4
:1031100072732F53544D3332463478785F48414CA4
:103120005F4472697665722F5372632F73746D33C7
:1031300032663478785F68616C5F74696D2E630005
:103140002DE9F0470446006A0D46216A21F010017E
:1031500021626768A1692A6821F4E64141EA0228F0
:10316000A968DFF8889020F02000DFF884A040EA0A
:1031700001164C4501D054450FD1E86830B10828FC
:1031800004D041F619311BA000F0B7FAE96826F027
:10319000800040EA011020F040064C4501D0544523
:1031A0001BD1A869B0F5007F05D020B141F62631CA
:1031B00010A000F0A2FA6869B0F5807F05D020B1B8
:1031C00041F627310BA000F098FA696927F44060B6
:1031D00040EA8100A96940EA81076760C4F8188065
:1031E0006868A0632662BDE8F08700000000014027
:1031F000000401402E2E2F447269766572732F539E
:10320000544D3332463478785F48414C5F4472699C
:103210007665722F5372632F73746D333266347810
:10322000785F68616C5F74696D2E63002DE9F0470B
:103230000446006A0D46216A21F4807121626768A4
:10324000E169DFF8949021F07302296820F400709E
:1032500041EA0208A968DFF884A040EA01264C454B
:1032600001D054450FD1E86830B1082804D041F6A8
:1032700064311BA000F041FAE96826F4006040EADE
:10328000012020F480664C4501D054451BD1A8692B
:10329000B0F5007F05D020B141F6713110A000F0EB
:1032A0002CFA6869B0F5807F05D020B141F6723103
:1032B0000BA000F022FA696927F4405040EA01109F
:1032C000A96940EA01176760C4F81C806868E06378
:1032D0002662BDE8F08700000000014000040140C4
:1032E0002E2E2F447269766572732F53544D3332EC
:1032F000463478785F48414C5F4472697665722F36
:103300005372632F73746D3332663478785F6861FB
:103310006C5F74696D2E63002DE9F0410446006A0C
:103320000D46216A21F4805121626668E1692A68AC
:1033300021F4E64141EA0228A96820F4005040EA5D
:1033400001370E48844202D00D4884420ED168698C
:10335000B0F5807F05D020B141F6B13109A000F071
:10336000CCF9696926F4804040EA81166660C4F8A9
:103370001C80686820642762BDE8F081000001407D
:10338000000401402E2E2F447269766572732F530C
:10339000544D3332463478785F48414C5F4472690B
:1033A0007665722F5372632F73746D33326634787F
:1033B000785F68616C5F74696D2E630010B5036A95
:1033C000046A24F001040462846924F0F00444EAED
:1033D000021423F00A020A438461026210BD10B590
:1033E000036A046A24F010040462846923F0A003D1
:1033F00024F4704444EA023243EA0111826101621A
:1034000010BD10B5806B0021C185FFF748F810BDD5
:1034100001680C3151E8002F22F4907241E800233A
:10342000002BF5D10168143151E8002F22F0010280
:1034300041E80023002BF5D1016B012909D1016876
:103440000C3151E8002F22F0100241E80023002B3C
:10345000F5D1202180F8421000210163704708B5A2
:1034600090F84210222901D0022008BD82684FF452
:1034700080539A4201D1016921B1816A9A421BD0DD
:103480004AB10AE00268816A5268C2F308020A80FF
:10349000816A891C08E0026972B10268526802F010
:1034A0007F020A70816A491C8162C18D491E09042C
:1034B000090CC18503D01BE002685268F1E701687E
:1034C000CA6822F02002CA600168CA6822F48072C9
:1034D000CA6001684A6922F001024A61202180F82D
:1034E000421000214163026B012A03D0FFF722FA48
:1034F000002008BD016301680C3151E8002F22F063
:10350000100241E80023002BF5D101680A68D206B9
:1035100002D50A6849680091818DFEF7BFFFE7E791
:1035200070B5044640685449884204D940F6996110
:1035300052A000F0E2F8E06838B1B0F5005F04D0C6
:1035400040F69A614DA000F0D8F8206950B1B0F56E
:10355000806F07D0B0F5C06F04D040F69B6147A0E4
:1035600000F0CBF860694FF6F371084200D120B942
:1035700040F69C6141A000F0C0F820680169E26853
:1035800021F44051114301612169A068E2690843B7
:103590006169114322680843D16849F20C63994379
:1035A0000143D16020684169A26921F4407111434F
:1035B000416141492068884202D04049884202D195
:1035C000FDF710FD01E0FDF7FDFCE2690023192184
:1035D00064253226B2F5004F626828D0A0FB0101B5
:1035E000930F9200FCF740FE0146B0FBF5F06FF040
:1035F0001802504301EB800006EB0010B0FBF5F021
:1036000000F0F002B1FBF5F002EB0012B1FBF5F0B7
:103610006FF01803584301EB800006EB0010B0FB7D
:10362000F5F000F00F0021681044886070BDA0FB29
:10363000010192185B41FCF717FE0146B0FBF5F063
:103640000201B1FBF5F06FF01803584301EB800065
:1036500006EBC000B0FBF5F000F0F80002EB400212
:10366000B1FBF5F0584301EB800006EBC000B0FB66
:10367000F5F000F00700D6E7A037A0002E2E2F446B
:103680007269766572732F53544D333246347878AD
:103690005F48414C5F4472697665722F5372632FA5
:1036A00073746D3332663478785F68616C5F75610E
:1036B00072742E63000000000010014000140140ED
:1036C0000148FEF7EDBE0000140200200148FEF79D
:1036D000E7BE00005C020020FEE70907090E002893
:1036E00004DB00F1E02080F80014704700F00F00C8
:1036F00000F1E02080F8141D70477047FDF728FAAC
:10370000FFF7C4FBFFF71AF9FFF782FBFFF796F903
:10371000FFF7B4F9FFF71AFAFFF766FAFFF7B4FA02
:10372000FFF702FBFFF750FBFFF78EFBFEE74FF0C2
:103730004070E1EE100A7047000000000000000039
:103740000102030406070809000000000102030447
:10375000703700080000002010000000C4010008BD
:103760008037000810000020F8080000E001000881
:103770000100000010000000000000000024F40020
:040000050800018965
:00000001FF
